{
	".deps/npm/@chainlink/contracts/src/v0.7/Operator.sol": {
		"Operator": {
			"abi": [
				{
					"inputs": [
						{
							"internalType": "address",
							"name": "link",
							"type": "address"
						},
						{
							"internalType": "address",
							"name": "owner",
							"type": "address"
						}
					],
					"stateMutability": "nonpayable",
					"type": "constructor"
				},
				{
					"anonymous": false,
					"inputs": [
						{
							"indexed": false,
							"internalType": "address[]",
							"name": "senders",
							"type": "address[]"
						},
						{
							"indexed": false,
							"internalType": "address",
							"name": "changedBy",
							"type": "address"
						}
					],
					"name": "AuthorizedSendersChanged",
					"type": "event"
				},
				{
					"anonymous": false,
					"inputs": [
						{
							"indexed": true,
							"internalType": "bytes32",
							"name": "requestId",
							"type": "bytes32"
						}
					],
					"name": "CancelOracleRequest",
					"type": "event"
				},
				{
					"anonymous": false,
					"inputs": [
						{
							"indexed": true,
							"internalType": "bytes32",
							"name": "specId",
							"type": "bytes32"
						},
						{
							"indexed": false,
							"internalType": "address",
							"name": "requester",
							"type": "address"
						},
						{
							"indexed": false,
							"internalType": "bytes32",
							"name": "requestId",
							"type": "bytes32"
						},
						{
							"indexed": false,
							"internalType": "uint256",
							"name": "payment",
							"type": "uint256"
						},
						{
							"indexed": false,
							"internalType": "address",
							"name": "callbackAddr",
							"type": "address"
						},
						{
							"indexed": false,
							"internalType": "bytes4",
							"name": "callbackFunctionId",
							"type": "bytes4"
						},
						{
							"indexed": false,
							"internalType": "uint256",
							"name": "cancelExpiration",
							"type": "uint256"
						},
						{
							"indexed": false,
							"internalType": "uint256",
							"name": "dataVersion",
							"type": "uint256"
						},
						{
							"indexed": false,
							"internalType": "bytes",
							"name": "data",
							"type": "bytes"
						}
					],
					"name": "OracleRequest",
					"type": "event"
				},
				{
					"anonymous": false,
					"inputs": [
						{
							"indexed": true,
							"internalType": "bytes32",
							"name": "requestId",
							"type": "bytes32"
						}
					],
					"name": "OracleResponse",
					"type": "event"
				},
				{
					"anonymous": false,
					"inputs": [
						{
							"indexed": true,
							"internalType": "address",
							"name": "acceptedContract",
							"type": "address"
						}
					],
					"name": "OwnableContractAccepted",
					"type": "event"
				},
				{
					"anonymous": false,
					"inputs": [
						{
							"indexed": true,
							"internalType": "address",
							"name": "from",
							"type": "address"
						},
						{
							"indexed": true,
							"internalType": "address",
							"name": "to",
							"type": "address"
						}
					],
					"name": "OwnershipTransferRequested",
					"type": "event"
				},
				{
					"anonymous": false,
					"inputs": [
						{
							"indexed": true,
							"internalType": "address",
							"name": "from",
							"type": "address"
						},
						{
							"indexed": true,
							"internalType": "address",
							"name": "to",
							"type": "address"
						}
					],
					"name": "OwnershipTransferred",
					"type": "event"
				},
				{
					"anonymous": false,
					"inputs": [
						{
							"indexed": false,
							"internalType": "address[]",
							"name": "targets",
							"type": "address[]"
						},
						{
							"indexed": false,
							"internalType": "address[]",
							"name": "senders",
							"type": "address[]"
						},
						{
							"indexed": false,
							"internalType": "address",
							"name": "changedBy",
							"type": "address"
						}
					],
					"name": "TargetsUpdatedAuthorizedSenders",
					"type": "event"
				},
				{
					"inputs": [
						{
							"internalType": "address[]",
							"name": "targets",
							"type": "address[]"
						},
						{
							"internalType": "address[]",
							"name": "senders",
							"type": "address[]"
						}
					],
					"name": "acceptAuthorizedReceivers",
					"outputs": [],
					"stateMutability": "nonpayable",
					"type": "function"
				},
				{
					"inputs": [
						{
							"internalType": "address[]",
							"name": "ownable",
							"type": "address[]"
						}
					],
					"name": "acceptOwnableContracts",
					"outputs": [],
					"stateMutability": "nonpayable",
					"type": "function"
				},
				{
					"inputs": [],
					"name": "acceptOwnership",
					"outputs": [],
					"stateMutability": "nonpayable",
					"type": "function"
				},
				{
					"inputs": [
						{
							"internalType": "bytes32",
							"name": "requestId",
							"type": "bytes32"
						},
						{
							"internalType": "uint256",
							"name": "payment",
							"type": "uint256"
						},
						{
							"internalType": "bytes4",
							"name": "callbackFunc",
							"type": "bytes4"
						},
						{
							"internalType": "uint256",
							"name": "expiration",
							"type": "uint256"
						}
					],
					"name": "cancelOracleRequest",
					"outputs": [],
					"stateMutability": "nonpayable",
					"type": "function"
				},
				{
					"inputs": [
						{
							"internalType": "uint256",
							"name": "nonce",
							"type": "uint256"
						},
						{
							"internalType": "uint256",
							"name": "payment",
							"type": "uint256"
						},
						{
							"internalType": "bytes4",
							"name": "callbackFunc",
							"type": "bytes4"
						},
						{
							"internalType": "uint256",
							"name": "expiration",
							"type": "uint256"
						}
					],
					"name": "cancelOracleRequestByRequester",
					"outputs": [],
					"stateMutability": "nonpayable",
					"type": "function"
				},
				{
					"inputs": [
						{
							"internalType": "address payable[]",
							"name": "receivers",
							"type": "address[]"
						},
						{
							"internalType": "uint256[]",
							"name": "amounts",
							"type": "uint256[]"
						}
					],
					"name": "distributeFunds",
					"outputs": [],
					"stateMutability": "payable",
					"type": "function"
				},
				{
					"inputs": [
						{
							"internalType": "bytes32",
							"name": "requestId",
							"type": "bytes32"
						},
						{
							"internalType": "uint256",
							"name": "payment",
							"type": "uint256"
						},
						{
							"internalType": "address",
							"name": "callbackAddress",
							"type": "address"
						},
						{
							"internalType": "bytes4",
							"name": "callbackFunctionId",
							"type": "bytes4"
						},
						{
							"internalType": "uint256",
							"name": "expiration",
							"type": "uint256"
						},
						{
							"internalType": "bytes32",
							"name": "data",
							"type": "bytes32"
						}
					],
					"name": "fulfillOracleRequest",
					"outputs": [
						{
							"internalType": "bool",
							"name": "",
							"type": "bool"
						}
					],
					"stateMutability": "nonpayable",
					"type": "function"
				},
				{
					"inputs": [
						{
							"internalType": "bytes32",
							"name": "requestId",
							"type": "bytes32"
						},
						{
							"internalType": "uint256",
							"name": "payment",
							"type": "uint256"
						},
						{
							"internalType": "address",
							"name": "callbackAddress",
							"type": "address"
						},
						{
							"internalType": "bytes4",
							"name": "callbackFunctionId",
							"type": "bytes4"
						},
						{
							"internalType": "uint256",
							"name": "expiration",
							"type": "uint256"
						},
						{
							"internalType": "bytes",
							"name": "data",
							"type": "bytes"
						}
					],
					"name": "fulfillOracleRequest2",
					"outputs": [
						{
							"internalType": "bool",
							"name": "",
							"type": "bool"
						}
					],
					"stateMutability": "nonpayable",
					"type": "function"
				},
				{
					"inputs": [],
					"name": "getAuthorizedSenders",
					"outputs": [
						{
							"internalType": "address[]",
							"name": "",
							"type": "address[]"
						}
					],
					"stateMutability": "view",
					"type": "function"
				},
				{
					"inputs": [],
					"name": "getChainlinkToken",
					"outputs": [
						{
							"internalType": "address",
							"name": "",
							"type": "address"
						}
					],
					"stateMutability": "view",
					"type": "function"
				},
				{
					"inputs": [],
					"name": "getExpiryTime",
					"outputs": [
						{
							"internalType": "uint256",
							"name": "",
							"type": "uint256"
						}
					],
					"stateMutability": "view",
					"type": "function"
				},
				{
					"inputs": [
						{
							"internalType": "address",
							"name": "sender",
							"type": "address"
						}
					],
					"name": "isAuthorizedSender",
					"outputs": [
						{
							"internalType": "bool",
							"name": "",
							"type": "bool"
						}
					],
					"stateMutability": "view",
					"type": "function"
				},
				{
					"inputs": [
						{
							"internalType": "address",
							"name": "sender",
							"type": "address"
						},
						{
							"internalType": "uint256",
							"name": "amount",
							"type": "uint256"
						},
						{
							"internalType": "bytes",
							"name": "data",
							"type": "bytes"
						}
					],
					"name": "onTokenTransfer",
					"outputs": [],
					"stateMutability": "nonpayable",
					"type": "function"
				},
				{
					"inputs": [
						{
							"internalType": "address",
							"name": "sender",
							"type": "address"
						},
						{
							"internalType": "uint256",
							"name": "payment",
							"type": "uint256"
						},
						{
							"internalType": "bytes32",
							"name": "specId",
							"type": "bytes32"
						},
						{
							"internalType": "bytes4",
							"name": "callbackFunctionId",
							"type": "bytes4"
						},
						{
							"internalType": "uint256",
							"name": "nonce",
							"type": "uint256"
						},
						{
							"internalType": "uint256",
							"name": "dataVersion",
							"type": "uint256"
						},
						{
							"internalType": "bytes",
							"name": "data",
							"type": "bytes"
						}
					],
					"name": "operatorRequest",
					"outputs": [],
					"stateMutability": "nonpayable",
					"type": "function"
				},
				{
					"inputs": [
						{
							"internalType": "address",
							"name": "sender",
							"type": "address"
						},
						{
							"internalType": "uint256",
							"name": "payment",
							"type": "uint256"
						},
						{
							"internalType": "bytes32",
							"name": "specId",
							"type": "bytes32"
						},
						{
							"internalType": "address",
							"name": "callbackAddress",
							"type": "address"
						},
						{
							"internalType": "bytes4",
							"name": "callbackFunctionId",
							"type": "bytes4"
						},
						{
							"internalType": "uint256",
							"name": "nonce",
							"type": "uint256"
						},
						{
							"internalType": "uint256",
							"name": "dataVersion",
							"type": "uint256"
						},
						{
							"internalType": "bytes",
							"name": "data",
							"type": "bytes"
						}
					],
					"name": "oracleRequest",
					"outputs": [],
					"stateMutability": "nonpayable",
					"type": "function"
				},
				{
					"inputs": [],
					"name": "owner",
					"outputs": [
						{
							"internalType": "address",
							"name": "",
							"type": "address"
						}
					],
					"stateMutability": "view",
					"type": "function"
				},
				{
					"inputs": [
						{
							"internalType": "address",
							"name": "to",
							"type": "address"
						},
						{
							"internalType": "bytes",
							"name": "data",
							"type": "bytes"
						}
					],
					"name": "ownerForward",
					"outputs": [],
					"stateMutability": "nonpayable",
					"type": "function"
				},
				{
					"inputs": [
						{
							"internalType": "address",
							"name": "to",
							"type": "address"
						},
						{
							"internalType": "uint256",
							"name": "value",
							"type": "uint256"
						},
						{
							"internalType": "bytes",
							"name": "data",
							"type": "bytes"
						}
					],
					"name": "ownerTransferAndCall",
					"outputs": [
						{
							"internalType": "bool",
							"name": "success",
							"type": "bool"
						}
					],
					"stateMutability": "nonpayable",
					"type": "function"
				},
				{
					"inputs": [
						{
							"internalType": "address[]",
							"name": "senders",
							"type": "address[]"
						}
					],
					"name": "setAuthorizedSenders",
					"outputs": [],
					"stateMutability": "nonpayable",
					"type": "function"
				},
				{
					"inputs": [
						{
							"internalType": "address[]",
							"name": "targets",
							"type": "address[]"
						},
						{
							"internalType": "address[]",
							"name": "senders",
							"type": "address[]"
						}
					],
					"name": "setAuthorizedSendersOn",
					"outputs": [],
					"stateMutability": "nonpayable",
					"type": "function"
				},
				{
					"inputs": [
						{
							"internalType": "address[]",
							"name": "ownable",
							"type": "address[]"
						},
						{
							"internalType": "address",
							"name": "newOwner",
							"type": "address"
						}
					],
					"name": "transferOwnableContracts",
					"outputs": [],
					"stateMutability": "nonpayable",
					"type": "function"
				},
				{
					"inputs": [
						{
							"internalType": "address",
							"name": "to",
							"type": "address"
						}
					],
					"name": "transferOwnership",
					"outputs": [],
					"stateMutability": "nonpayable",
					"type": "function"
				},
				{
					"inputs": [],
					"name": "typeAndVersion",
					"outputs": [
						{
							"internalType": "string",
							"name": "",
							"type": "string"
						}
					],
					"stateMutability": "pure",
					"type": "function"
				},
				{
					"inputs": [
						{
							"internalType": "address",
							"name": "recipient",
							"type": "address"
						},
						{
							"internalType": "uint256",
							"name": "amount",
							"type": "uint256"
						}
					],
					"name": "withdraw",
					"outputs": [],
					"stateMutability": "nonpayable",
					"type": "function"
				},
				{
					"inputs": [],
					"name": "withdrawable",
					"outputs": [
						{
							"internalType": "uint256",
							"name": "",
							"type": "uint256"
						}
					],
					"stateMutability": "view",
					"type": "function"
				}
			],
			"devdoc": {
				"kind": "dev",
				"methods": {
					"acceptAuthorizedReceivers(address[],address[])": {
						"params": {
							"senders": "The addresses that are allowed to send updates",
							"targets": "The addresses to set permissions on"
						}
					},
					"acceptOwnableContracts(address[])": {
						"details": "Must be the pending owner on the contract",
						"params": {
							"ownable": "list of addresses of Ownable contracts to accept"
						}
					},
					"cancelOracleRequest(bytes32,uint256,bytes4,uint256)": {
						"details": "Given params must hash to a commitment stored on the contract in order for the request to be valid. Emits CancelOracleRequest event.",
						"params": {
							"callbackFunc": "The requester's specified callback function selector",
							"expiration": "The time of the expiration for the request",
							"payment": "The amount of payment given (specified in wei)",
							"requestId": "The request ID"
						}
					},
					"cancelOracleRequestByRequester(uint256,uint256,bytes4,uint256)": {
						"details": "Given params must hash to a commitment stored on the contract in order for the request to be valid. Emits CancelOracleRequest event.",
						"params": {
							"callbackFunc": "The requester's specified callback function selector",
							"expiration": "The time of the expiration for the request",
							"nonce": "The nonce used to generate the request ID",
							"payment": "The amount of payment given (specified in wei)"
						}
					},
					"constructor": {
						"details": "Sets the LinkToken address for the imported LinkTokenInterface",
						"params": {
							"link": "The address of the LINK token",
							"owner": "The address of the owner"
						}
					},
					"distributeFunds(address[],uint256[])": {
						"details": "Array length must be equal, ETH sent must equal the sum of amounts. A malicious receiver could cause the distribution to revert, in which case it is expected that the address is removed from the list.",
						"params": {
							"amounts": "list of amounts",
							"receivers": "list of addresses"
						}
					},
					"fulfillOracleRequest(bytes32,uint256,address,bytes4,uint256,bytes32)": {
						"details": "Given params must hash back to the commitment stored from `oracleRequest`. Will call the callback address' callback function without bubbling up error checking in a `require` so that the node can get paid.",
						"params": {
							"callbackAddress": "The callback address to call for fulfillment",
							"callbackFunctionId": "The callback function ID to use for fulfillment",
							"data": "The data to return to the consuming contract",
							"expiration": "The expiration that the node should respond by before the requester can cancel",
							"payment": "The payment amount that will be released for the oracle (specified in wei)",
							"requestId": "The fulfillment request ID that must match the requester's"
						},
						"returns": {
							"_0": "Status if the external call was successful"
						}
					},
					"fulfillOracleRequest2(bytes32,uint256,address,bytes4,uint256,bytes)": {
						"details": "Given params must hash back to the commitment stored from `oracleRequest`. Will call the callback address' callback function without bubbling up error checking in a `require` so that the node can get paid.",
						"params": {
							"callbackAddress": "The callback address to call for fulfillment",
							"callbackFunctionId": "The callback function ID to use for fulfillment",
							"data": "The data to return to the consuming contract",
							"expiration": "The expiration that the node should respond by before the requester can cancel",
							"payment": "The payment amount that will be released for the oracle (specified in wei)",
							"requestId": "The fulfillment request ID that must match the requester's"
						},
						"returns": {
							"_0": "Status if the external call was successful"
						}
					},
					"getAuthorizedSenders()": {
						"returns": {
							"_0": "array of addresses"
						}
					},
					"getChainlinkToken()": {
						"details": "This is the public implementation for chainlinkTokenAddress, which is an internal method of the ChainlinkClient contract"
					},
					"isAuthorizedSender(address)": {
						"params": {
							"sender": "The address of the Chainlink node"
						},
						"returns": {
							"_0": "The authorization status of the node"
						}
					},
					"onTokenTransfer(address,uint256,bytes)": {
						"details": "The data payload's first 2 words will be overwritten by the `sender` and `amount` values to ensure correctness. Calls oracleRequest.",
						"params": {
							"amount": "Amount of LINK sent (specified in wei)",
							"data": "Payload of the transaction",
							"sender": "Address of the sender"
						}
					},
					"operatorRequest(address,uint256,bytes32,bytes4,uint256,uint256,bytes)": {
						"details": "Stores the hash of the params as the on-chain commitment for the request. Emits OracleRequest event for the Chainlink node to detect.",
						"params": {
							"callbackFunctionId": "The callback function ID for the response",
							"data": "The extra request parameters",
							"dataVersion": "The specified data version",
							"nonce": "The nonce sent by the requester",
							"payment": "The amount of payment given (specified in wei)",
							"sender": "The sender of the request",
							"specId": "The Job Specification ID"
						}
					},
					"oracleRequest(address,uint256,bytes32,address,bytes4,uint256,uint256,bytes)": {
						"params": {
							"callbackAddress": "The address the oracle data will be sent to",
							"callbackFunctionId": "The callback function ID for the response",
							"data": "The extra request parameters",
							"dataVersion": "The specified data version",
							"nonce": "The nonce sent by the requester",
							"payment": "The amount of payment given (specified in wei)",
							"specId": "The Job Specification ID"
						}
					},
					"ownerForward(address,bytes)": {
						"details": "Only callable by the owner",
						"params": {
							"data": "to forward",
							"to": "address"
						}
					},
					"ownerTransferAndCall(address,uint256,bytes)": {
						"params": {
							"data": "The extra data to be passed to the receiving contract.",
							"to": "The address to transfer to.",
							"value": "The amount to be transferred."
						},
						"returns": {
							"success": "bool"
						}
					},
					"setAuthorizedSenders(address[])": {
						"params": {
							"senders": "The addresses of the authorized Chainlink node"
						}
					},
					"setAuthorizedSendersOn(address[],address[])": {
						"params": {
							"senders": "The addresses that are allowed to send updates",
							"targets": "The addresses to set permissions on"
						}
					},
					"transferOwnableContracts(address[],address)": {
						"params": {
							"newOwner": "address to transfer ownership to",
							"ownable": "list of addresses to transfer"
						}
					},
					"typeAndVersion()": {
						"returns": {
							"_0": "Type and version string"
						}
					},
					"withdraw(address,uint256)": {
						"details": "The owner of the contract can be another wallet and does not have to be a Chainlink node",
						"params": {
							"amount": "The amount to send (specified in wei)",
							"recipient": "The address to send the LINK token to"
						}
					},
					"withdrawable()": {
						"details": "We use `ONE_FOR_CONSISTENT_GAS_COST` in place of 0 in storage",
						"returns": {
							"_0": "The amount of withdrawable LINK on the contract"
						}
					}
				},
				"title": "The Chainlink Operator contract",
				"version": 1
			},
			"evm": {
				"assembly": "    /* \".deps/npm/@chainlink/contracts/src/v0.7/Operator.sol\":546:23067  contract Operator is AuthorizedReceiver, ConfirmedOwner, LinkTokenReceiver, OperatorInterface, WithdrawalInterface {... */\n  mstore(0x40, 0xa0)\n    /* \".deps/npm/@chainlink/contracts/src/v0.7/Operator.sol\":1341:1342  1 */\n  0x01\n    /* \".deps/npm/@chainlink/contracts/src/v0.7/Operator.sol\":1882:1944  uint256 private s_tokensInEscrow = ONE_FOR_CONSISTENT_GAS_COST */\n  0x06\n  sstore\n    /* \".deps/npm/@chainlink/contracts/src/v0.7/Operator.sol\":2706:2865  constructor(address link, address owner) ConfirmedOwner(owner) {... */\n  callvalue\n  dup1\n  iszero\n  tag_1\n  jumpi\n  0x00\n  dup1\n  revert\ntag_1:\n  pop\n  mload(0x40)\n  sub(codesize, bytecodeSize)\n  dup1\n  bytecodeSize\n  dup4\n  codecopy\n  dup2\n  dup2\n  add\n  0x40\n  mstore\n  0x40\n  dup2\n  lt\n  iszero\n  tag_2\n  jumpi\n  0x00\n  dup1\n  revert\ntag_2:\n  dup2\n  add\n  swap1\n  dup1\n  dup1\n  mload\n  swap1\n  0x20\n  add\n  swap1\n  swap3\n  swap2\n  swap1\n  dup1\n  mload\n  swap1\n  0x20\n  add\n  swap1\n  swap3\n  swap2\n  swap1\n  pop\n  pop\n  pop\n    /* \".deps/npm/@chainlink/contracts/src/v0.7/Operator.sol\":2762:2767  owner */\n  dup1\n    /* \".deps/npm/@chainlink/contracts/src/v0.7/ConfirmedOwner.sol\":327:335  newOwner */\n  dup1\n    /* \".deps/npm/@chainlink/contracts/src/v0.7/ConfirmedOwner.sol\":345:346  0 */\n  0x00\n    /* \".deps/npm/@chainlink/contracts/src/v0.7/ConfirmedOwnerWithProposal.sol\":572:573  0 */\n  dup1\n    /* \".deps/npm/@chainlink/contracts/src/v0.7/ConfirmedOwnerWithProposal.sol\":552:574  newOwner != address(0) */\n  0xffffffffffffffffffffffffffffffffffffffff\n  and\n    /* \".deps/npm/@chainlink/contracts/src/v0.7/ConfirmedOwnerWithProposal.sol\":552:560  newOwner */\n  dup3\n    /* \".deps/npm/@chainlink/contracts/src/v0.7/ConfirmedOwnerWithProposal.sol\":552:574  newOwner != address(0) */\n  0xffffffffffffffffffffffffffffffffffffffff\n  and\n  eq\n  iszero\n    /* \".deps/npm/@chainlink/contracts/src/v0.7/ConfirmedOwnerWithProposal.sol\":544:603  require(newOwner != address(0), \"Cannot set owner to zero\") */\n  tag_7\n  jumpi\n  mload(0x40)\n  0x08c379a000000000000000000000000000000000000000000000000000000000\n  dup2\n  mstore\n  0x04\n  add\n  dup1\n  dup1\n  0x20\n  add\n  dup3\n  dup2\n  sub\n  dup3\n  mstore\n  0x18\n  dup2\n  mstore\n  0x20\n  add\n  dup1\n  0x43616e6e6f7420736574206f776e657220746f207a65726f0000000000000000\n  dup2\n  mstore\n  pop\n  0x20\n  add\n  swap2\n  pop\n  pop\n  mload(0x40)\n  dup1\n  swap2\n  sub\n  swap1\n  revert\ntag_7:\n    /* \".deps/npm/@chainlink/contracts/src/v0.7/ConfirmedOwnerWithProposal.sol\":620:628  newOwner */\n  dup2\n    /* \".deps/npm/@chainlink/contracts/src/v0.7/ConfirmedOwnerWithProposal.sol\":610:617  s_owner */\n  0x02\n  0x00\n    /* \".deps/npm/@chainlink/contracts/src/v0.7/ConfirmedOwnerWithProposal.sol\":610:628  s_owner = newOwner */\n  0x0100\n  exp\n  dup2\n  sload\n  dup2\n  0xffffffffffffffffffffffffffffffffffffffff\n  mul\n  not\n  and\n  swap1\n  dup4\n  0xffffffffffffffffffffffffffffffffffffffff\n  and\n  mul\n  or\n  swap1\n  sstore\n  pop\n    /* \".deps/npm/@chainlink/contracts/src/v0.7/ConfirmedOwnerWithProposal.sol\":662:663  0 */\n  0x00\n    /* \".deps/npm/@chainlink/contracts/src/v0.7/ConfirmedOwnerWithProposal.sol\":638:664  pendingOwner != address(0) */\n  0xffffffffffffffffffffffffffffffffffffffff\n  and\n    /* \".deps/npm/@chainlink/contracts/src/v0.7/ConfirmedOwnerWithProposal.sol\":638:650  pendingOwner */\n  dup2\n    /* \".deps/npm/@chainlink/contracts/src/v0.7/ConfirmedOwnerWithProposal.sol\":638:664  pendingOwner != address(0) */\n  0xffffffffffffffffffffffffffffffffffffffff\n  and\n  eq\n    /* \".deps/npm/@chainlink/contracts/src/v0.7/ConfirmedOwnerWithProposal.sol\":634:713  if (pendingOwner != address(0)) {... */\n  tag_8\n  jumpi\n    /* \".deps/npm/@chainlink/contracts/src/v0.7/ConfirmedOwnerWithProposal.sol\":674:706  _transferOwnership(pendingOwner) */\n  tag_9\n    /* \".deps/npm/@chainlink/contracts/src/v0.7/ConfirmedOwnerWithProposal.sol\":693:705  pendingOwner */\n  dup2\n    /* \".deps/npm/@chainlink/contracts/src/v0.7/ConfirmedOwnerWithProposal.sol\":674:692  _transferOwnership */\n  shl(0x20, tag_10)\n    /* \".deps/npm/@chainlink/contracts/src/v0.7/ConfirmedOwnerWithProposal.sol\":674:706  _transferOwnership(pendingOwner) */\n  0x20\n  shr\n  jump\t// in\ntag_9:\n    /* \".deps/npm/@chainlink/contracts/src/v0.7/ConfirmedOwnerWithProposal.sol\":634:713  if (pendingOwner != address(0)) {... */\ntag_8:\n    /* \".deps/npm/@chainlink/contracts/src/v0.7/ConfirmedOwnerWithProposal.sol\":486:717  constructor(address newOwner, address pendingOwner) {... */\n  pop\n  pop\n    /* \".deps/npm/@chainlink/contracts/src/v0.7/ConfirmedOwner.sol\":270:351  constructor(address newOwner) ConfirmedOwnerWithProposal(newOwner, address(0)) {} */\n  pop\n    /* \".deps/npm/@chainlink/contracts/src/v0.7/Operator.sol\":2806:2810  link */\n  dup2\n    /* \".deps/npm/@chainlink/contracts/src/v0.7/Operator.sol\":2775:2811  linkToken = LinkTokenInterface(link) */\n  0xffffffffffffffffffffffffffffffffffffffff\n  and\n  0x80\n  dup2\n  0xffffffffffffffffffffffffffffffffffffffff\n  and\n  0x60\n  shl\n  dup2\n  mstore\n  pop\n  pop\n    /* \".deps/npm/@chainlink/contracts/src/v0.7/Operator.sol\":2706:2865  constructor(address link, address owner) ConfirmedOwner(owner) {... */\n  pop\n  pop\n    /* \".deps/npm/@chainlink/contracts/src/v0.7/Operator.sol\":546:23067  contract Operator is AuthorizedReceiver, ConfirmedOwner, LinkTokenReceiver, OperatorInterface, WithdrawalInterface {... */\n  jump(tag_13)\n    /* \".deps/npm/@chainlink/contracts/src/v0.7/ConfirmedOwnerWithProposal.sol\":1497:1685  function _transferOwnership(address to) private {... */\ntag_10:\n    /* \".deps/npm/@chainlink/contracts/src/v0.7/ConfirmedOwnerWithProposal.sol\":1565:1575  msg.sender */\n  caller\n    /* \".deps/npm/@chainlink/contracts/src/v0.7/ConfirmedOwnerWithProposal.sol\":1559:1575  to != msg.sender */\n  0xffffffffffffffffffffffffffffffffffffffff\n  and\n    /* \".deps/npm/@chainlink/contracts/src/v0.7/ConfirmedOwnerWithProposal.sol\":1559:1561  to */\n  dup2\n    /* \".deps/npm/@chainlink/contracts/src/v0.7/ConfirmedOwnerWithProposal.sol\":1559:1575  to != msg.sender */\n  0xffffffffffffffffffffffffffffffffffffffff\n  and\n  eq\n  iszero\n    /* \".deps/npm/@chainlink/contracts/src/v0.7/ConfirmedOwnerWithProposal.sol\":1551:1603  require(to != msg.sender, \"Cannot transfer to self\") */\n  tag_15\n  jumpi\n  mload(0x40)\n  0x08c379a000000000000000000000000000000000000000000000000000000000\n  dup2\n  mstore\n  0x04\n  add\n  dup1\n  dup1\n  0x20\n  add\n  dup3\n  dup2\n  sub\n  dup3\n  mstore\n  0x17\n  dup2\n  mstore\n  0x20\n  add\n  dup1\n  0x43616e6e6f74207472616e7366657220746f2073656c66000000000000000000\n  dup2\n  mstore\n  pop\n  0x20\n  add\n  swap2\n  pop\n  pop\n  mload(0x40)\n  dup1\n  swap2\n  sub\n  swap1\n  revert\ntag_15:\n    /* \".deps/npm/@chainlink/contracts/src/v0.7/ConfirmedOwnerWithProposal.sol\":1627:1629  to */\n  dup1\n    /* \".deps/npm/@chainlink/contracts/src/v0.7/ConfirmedOwnerWithProposal.sol\":1610:1624  s_pendingOwner */\n  0x03\n  0x00\n    /* \".deps/npm/@chainlink/contracts/src/v0.7/ConfirmedOwnerWithProposal.sol\":1610:1629  s_pendingOwner = to */\n  0x0100\n  exp\n  dup2\n  sload\n  dup2\n  0xffffffffffffffffffffffffffffffffffffffff\n  mul\n  not\n  and\n  swap1\n  dup4\n  0xffffffffffffffffffffffffffffffffffffffff\n  and\n  mul\n  or\n  swap1\n  sstore\n  pop\n    /* \".deps/npm/@chainlink/contracts/src/v0.7/ConfirmedOwnerWithProposal.sol\":1677:1679  to */\n  dup1\n    /* \".deps/npm/@chainlink/contracts/src/v0.7/ConfirmedOwnerWithProposal.sol\":1641:1680  OwnershipTransferRequested(s_owner, to) */\n  0xffffffffffffffffffffffffffffffffffffffff\n  and\n    /* \".deps/npm/@chainlink/contracts/src/v0.7/ConfirmedOwnerWithProposal.sol\":1668:1675  s_owner */\n  0x02\n  0x00\n  swap1\n  sload\n  swap1\n  0x0100\n  exp\n  swap1\n  div\n  0xffffffffffffffffffffffffffffffffffffffff\n  and\n    /* \".deps/npm/@chainlink/contracts/src/v0.7/ConfirmedOwnerWithProposal.sol\":1641:1680  OwnershipTransferRequested(s_owner, to) */\n  0xffffffffffffffffffffffffffffffffffffffff\n  and\n  0xed8889f560326eb138920d842192f0eb3dd22b4f139c87a2c57538e05bae1278\n  mload(0x40)\n  mload(0x40)\n  dup1\n  swap2\n  sub\n  swap1\n  log3\n    /* \".deps/npm/@chainlink/contracts/src/v0.7/ConfirmedOwnerWithProposal.sol\":1497:1685  function _transferOwnership(address to) private {... */\n  pop\n  jump\t// out\n    /* \".deps/npm/@chainlink/contracts/src/v0.7/Operator.sol\":546:23067  contract Operator is AuthorizedReceiver, ConfirmedOwner, LinkTokenReceiver, OperatorInterface, WithdrawalInterface {... */\ntag_13:\n  shr(0x60, mload(0x80))\n  codecopy(0x00, dataOffset(sub_0), dataSize(sub_0))\n  assignImmutable(\"0x5fb12ad98b8d13e095aa2296ce90e81ce800e34edf3e5203ac6ed2bf74255f6c\")\n  return(0x00, dataSize(sub_0))\nstop\n\nsub_0: assembly {\n        /* \".deps/npm/@chainlink/contracts/src/v0.7/Operator.sol\":546:23067  contract Operator is AuthorizedReceiver, ConfirmedOwner, LinkTokenReceiver, OperatorInterface, WithdrawalInterface {... */\n      mstore(0x40, 0x80)\n      jumpi(tag_1, lt(calldatasize, 0x04))\n      shr(0xe0, calldataload(0x00))\n      dup1\n      0x6ae0bc76\n      gt\n      tag_27\n      jumpi\n      dup1\n      0xa4c0ed36\n      gt\n      tag_28\n      jumpi\n      dup1\n      0xf2fde38b\n      gt\n      tag_29\n      jumpi\n      dup1\n      0xf2fde38b\n      eq\n      tag_23\n      jumpi\n      dup1\n      0xf3fef3a3\n      eq\n      tag_24\n      jumpi\n      dup1\n      0xfa00763a\n      eq\n      tag_25\n      jumpi\n      dup1\n      0xfc4a03ed\n      eq\n      tag_26\n      jumpi\n      jump(tag_1)\n    tag_29:\n      dup1\n      0xa4c0ed36\n      eq\n      tag_20\n      jumpi\n      dup1\n      0xeb007d99\n      eq\n      tag_21\n      jumpi\n      dup1\n      0xee56997b\n      eq\n      tag_22\n      jumpi\n      jump(tag_1)\n    tag_28:\n      dup1\n      0x6ae0bc76\n      eq\n      tag_14\n      jumpi\n      dup1\n      0x6bd59ec0\n      eq\n      tag_15\n      jumpi\n      dup1\n      0x6ee4d553\n      eq\n      tag_16\n      jumpi\n      dup1\n      0x79ba5097\n      eq\n      tag_17\n      jumpi\n      dup1\n      0x8da5cb5b\n      eq\n      tag_18\n      jumpi\n      dup1\n      0x902fc370\n      eq\n      tag_19\n      jumpi\n      jump(tag_1)\n    tag_27:\n      dup1\n      0x3c6d41b9\n      gt\n      tag_30\n      jumpi\n      dup1\n      0x3c6d41b9\n      eq\n      tag_8\n      jumpi\n      dup1\n      0x3ec5bc14\n      eq\n      tag_9\n      jumpi\n      dup1\n      0x40429946\n      eq\n      tag_10\n      jumpi\n      dup1\n      0x4ab0d190\n      eq\n      tag_11\n      jumpi\n      dup1\n      0x50188301\n      eq\n      tag_12\n      jumpi\n      dup1\n      0x5ffa6288\n      eq\n      tag_13\n      jumpi\n      jump(tag_1)\n    tag_30:\n      dup1\n      0x01994b99\n      eq\n      tag_2\n      jumpi\n      dup1\n      0x033f49f7\n      eq\n      tag_3\n      jumpi\n      dup1\n      0x165d35e1\n      eq\n      tag_4\n      jumpi\n      dup1\n      0x181f5a77\n      eq\n      tag_5\n      jumpi\n      dup1\n      0x2408afaa\n      eq\n      tag_6\n      jumpi\n      dup1\n      0x25cb5bc0\n      eq\n      tag_7\n      jumpi\n    tag_1:\n      0x00\n      dup1\n      revert\n        /* \".deps/npm/@chainlink/contracts/src/v0.7/Operator.sol\":10128:10424  function acceptOwnableContracts(address[] calldata ownable) public validateAuthorizedSenderSetter {... */\n    tag_2:\n      callvalue\n      dup1\n      iszero\n      tag_31\n      jumpi\n      0x00\n      dup1\n      revert\n    tag_31:\n      pop\n      tag_32\n      0x04\n      dup1\n      calldatasize\n      sub\n      0x20\n      dup2\n      lt\n      iszero\n      tag_33\n      jumpi\n      0x00\n      dup1\n      revert\n    tag_33:\n      dup2\n      add\n      swap1\n      dup1\n      dup1\n      calldataload\n      swap1\n      0x20\n      add\n      swap1\n      0x0100000000\n      dup2\n      gt\n      iszero\n      tag_34\n      jumpi\n      0x00\n      dup1\n      revert\n    tag_34:\n      dup3\n      add\n      dup4\n      0x20\n      dup3\n      add\n      gt\n      iszero\n      tag_35\n      jumpi\n      0x00\n      dup1\n      revert\n    tag_35:\n      dup1\n      calldataload\n      swap1\n      0x20\n      add\n      swap2\n      dup5\n      0x20\n      dup4\n      mul\n      dup5\n      add\n      gt\n      0x0100000000\n      dup4\n      gt\n      or\n      iszero\n      tag_36\n      jumpi\n      0x00\n      dup1\n      revert\n    tag_36:\n      swap1\n      swap2\n      swap3\n      swap4\n      swap2\n      swap3\n      swap4\n      swap1\n      pop\n      pop\n      pop\n      tag_37\n      jump\t// in\n    tag_32:\n      stop\n        /* \".deps/npm/@chainlink/contracts/src/v0.7/Operator.sol\":12665:12909  function ownerForward(address to, bytes calldata data) external onlyOwner validateNotToLINK(to) {... */\n    tag_3:\n      callvalue\n      dup1\n      iszero\n      tag_38\n      jumpi\n      0x00\n      dup1\n      revert\n    tag_38:\n      pop\n      tag_39\n      0x04\n      dup1\n      calldatasize\n      sub\n      0x40\n      dup2\n      lt\n      iszero\n      tag_40\n      jumpi\n      0x00\n      dup1\n      revert\n    tag_40:\n      dup2\n      add\n      swap1\n      dup1\n      dup1\n      calldataload\n      0xffffffffffffffffffffffffffffffffffffffff\n      and\n      swap1\n      0x20\n      add\n      swap1\n      swap3\n      swap2\n      swap1\n      dup1\n      calldataload\n      swap1\n      0x20\n      add\n      swap1\n      0x0100000000\n      dup2\n      gt\n      iszero\n      tag_41\n      jumpi\n      0x00\n      dup1\n      revert\n    tag_41:\n      dup3\n      add\n      dup4\n      0x20\n      dup3\n      add\n      gt\n      iszero\n      tag_42\n      jumpi\n      0x00\n      dup1\n      revert\n    tag_42:\n      dup1\n      calldataload\n      swap1\n      0x20\n      add\n      swap2\n      dup5\n      0x01\n      dup4\n      mul\n      dup5\n      add\n      gt\n      0x0100000000\n      dup4\n      gt\n      or\n      iszero\n      tag_43\n      jumpi\n      0x00\n      dup1\n      revert\n    tag_43:\n      swap1\n      swap2\n      swap3\n      swap4\n      swap2\n      swap3\n      swap4\n      swap1\n      pop\n      pop\n      pop\n      tag_44\n      jump\t// in\n    tag_39:\n      stop\n        /* \".deps/npm/@chainlink/contracts/src/v0.7/Operator.sol\":16952:17056  function getChainlinkToken() public view override returns (address) {... */\n    tag_4:\n      callvalue\n      dup1\n      iszero\n      tag_45\n      jumpi\n      0x00\n      dup1\n      revert\n    tag_45:\n      pop\n      tag_46\n      tag_47\n      jump\t// in\n    tag_46:\n      mload(0x40)\n      dup1\n      dup3\n      0xffffffffffffffffffffffffffffffffffffffff\n      and\n      dup2\n      mstore\n      0x20\n      add\n      swap2\n      pop\n      pop\n      mload(0x40)\n      dup1\n      swap2\n      sub\n      swap1\n      return\n        /* \".deps/npm/@chainlink/contracts/src/v0.7/Operator.sol\":2969:3075  function typeAndVersion() external pure virtual returns (string memory) {... */\n    tag_5:\n      callvalue\n      dup1\n      iszero\n      tag_48\n      jumpi\n      0x00\n      dup1\n      revert\n    tag_48:\n      pop\n      tag_49\n      tag_50\n      jump\t// in\n    tag_49:\n      mload(0x40)\n      dup1\n      dup1\n      0x20\n      add\n      dup3\n      dup2\n      sub\n      dup3\n      mstore\n      dup4\n      dup2\n      dup2\n      mload\n      dup2\n      mstore\n      0x20\n      add\n      swap2\n      pop\n      dup1\n      mload\n      swap1\n      0x20\n      add\n      swap1\n      dup1\n      dup4\n      dup4\n      0x00\n    tag_51:\n      dup4\n      dup2\n      lt\n      iszero\n      tag_53\n      jumpi\n      dup1\n      dup3\n      add\n      mload\n      dup2\n      dup5\n      add\n      mstore\n      0x20\n      dup2\n      add\n      swap1\n      pop\n      jump(tag_51)\n    tag_53:\n      pop\n      pop\n      pop\n      pop\n      swap1\n      pop\n      swap1\n      dup2\n      add\n      swap1\n      0x1f\n      and\n      dup1\n      iszero\n      tag_54\n      jumpi\n      dup1\n      dup3\n      sub\n      dup1\n      mload\n      0x01\n      dup4\n      0x20\n      sub\n      0x0100\n      exp\n      sub\n      not\n      and\n      dup2\n      mstore\n      0x20\n      add\n      swap2\n      pop\n    tag_54:\n      pop\n      swap3\n      pop\n      pop\n      pop\n      mload(0x40)\n      dup1\n      swap2\n      sub\n      swap1\n      return\n        /* \".deps/npm/@chainlink/contracts/src/v0.7/AuthorizedReceiver.sol\":1395:1517  function getAuthorizedSenders() external view override returns (address[] memory) {... */\n    tag_6:\n      callvalue\n      dup1\n      iszero\n      tag_55\n      jumpi\n      0x00\n      dup1\n      revert\n    tag_55:\n      pop\n      tag_56\n      tag_57\n      jump\t// in\n    tag_56:\n      mload(0x40)\n      dup1\n      dup1\n      0x20\n      add\n      dup3\n      dup2\n      sub\n      dup3\n      mstore\n      dup4\n      dup2\n      dup2\n      mload\n      dup2\n      mstore\n      0x20\n      add\n      swap2\n      pop\n      dup1\n      mload\n      swap1\n      0x20\n      add\n      swap1\n      0x20\n      mul\n      dup1\n      dup4\n      dup4\n      0x00\n    tag_58:\n      dup4\n      dup2\n      lt\n      iszero\n      tag_60\n      jumpi\n      dup1\n      dup3\n      add\n      mload\n      dup2\n      dup5\n      add\n      mstore\n      0x20\n      dup2\n      add\n      swap1\n      pop\n      jump(tag_58)\n    tag_60:\n      pop\n      pop\n      pop\n      pop\n      swap1\n      pop\n      add\n      swap3\n      pop\n      pop\n      pop\n      mload(0x40)\n      dup1\n      swap2\n      sub\n      swap1\n      return\n        /* \".deps/npm/@chainlink/contracts/src/v0.7/Operator.sol\":808:857  uint256 public constant getExpiryTime = 5 minutes */\n    tag_7:\n      callvalue\n      dup1\n      iszero\n      tag_61\n      jumpi\n      0x00\n      dup1\n      revert\n    tag_61:\n      pop\n      tag_62\n      tag_63\n      jump\t// in\n    tag_62:\n      mload(0x40)\n      dup1\n      dup3\n      dup2\n      mstore\n      0x20\n      add\n      swap2\n      pop\n      pop\n      mload(0x40)\n      dup1\n      swap2\n      sub\n      swap1\n      return\n        /* \".deps/npm/@chainlink/contracts/src/v0.7/Operator.sol\":4921:5455  function operatorRequest(... */\n    tag_8:\n      callvalue\n      dup1\n      iszero\n      tag_64\n      jumpi\n      0x00\n      dup1\n      revert\n    tag_64:\n      pop\n      tag_65\n      0x04\n      dup1\n      calldatasize\n      sub\n      0xe0\n      dup2\n      lt\n      iszero\n      tag_66\n      jumpi\n      0x00\n      dup1\n      revert\n    tag_66:\n      dup2\n      add\n      swap1\n      dup1\n      dup1\n      calldataload\n      0xffffffffffffffffffffffffffffffffffffffff\n      and\n      swap1\n      0x20\n      add\n      swap1\n      swap3\n      swap2\n      swap1\n      dup1\n      calldataload\n      swap1\n      0x20\n      add\n      swap1\n      swap3\n      swap2\n      swap1\n      dup1\n      calldataload\n      swap1\n      0x20\n      add\n      swap1\n      swap3\n      swap2\n      swap1\n      dup1\n      calldataload\n      not(0xffffffffffffffffffffffffffffffffffffffffffffffffffffffff)\n      and\n      swap1\n      0x20\n      add\n      swap1\n      swap3\n      swap2\n      swap1\n      dup1\n      calldataload\n      swap1\n      0x20\n      add\n      swap1\n      swap3\n      swap2\n      swap1\n      dup1\n      calldataload\n      swap1\n      0x20\n      add\n      swap1\n      swap3\n      swap2\n      swap1\n      dup1\n      calldataload\n      swap1\n      0x20\n      add\n      swap1\n      0x0100000000\n      dup2\n      gt\n      iszero\n      tag_67\n      jumpi\n      0x00\n      dup1\n      revert\n    tag_67:\n      dup3\n      add\n      dup4\n      0x20\n      dup3\n      add\n      gt\n      iszero\n      tag_68\n      jumpi\n      0x00\n      dup1\n      revert\n    tag_68:\n      dup1\n      calldataload\n      swap1\n      0x20\n      add\n      swap2\n      dup5\n      0x01\n      dup4\n      mul\n      dup5\n      add\n      gt\n      0x0100000000\n      dup4\n      gt\n      or\n      iszero\n      tag_69\n      jumpi\n      0x00\n      dup1\n      revert\n    tag_69:\n      swap1\n      swap2\n      swap3\n      swap4\n      swap2\n      swap3\n      swap4\n      swap1\n      pop\n      pop\n      pop\n      tag_70\n      jump\t// in\n    tag_65:\n      stop\n        /* \".deps/npm/@chainlink/contracts/src/v0.7/Operator.sol\":9548:9808  function transferOwnableContracts(address[] calldata ownable, address newOwner) external onlyOwner {... */\n    tag_9:\n      callvalue\n      dup1\n      iszero\n      tag_71\n      jumpi\n      0x00\n      dup1\n      revert\n    tag_71:\n      pop\n      tag_72\n      0x04\n      dup1\n      calldatasize\n      sub\n      0x40\n      dup2\n      lt\n      iszero\n      tag_73\n      jumpi\n      0x00\n      dup1\n      revert\n    tag_73:\n      dup2\n      add\n      swap1\n      dup1\n      dup1\n      calldataload\n      swap1\n      0x20\n      add\n      swap1\n      0x0100000000\n      dup2\n      gt\n      iszero\n      tag_74\n      jumpi\n      0x00\n      dup1\n      revert\n    tag_74:\n      dup3\n      add\n      dup4\n      0x20\n      dup3\n      add\n      gt\n      iszero\n      tag_75\n      jumpi\n      0x00\n      dup1\n      revert\n    tag_75:\n      dup1\n      calldataload\n      swap1\n      0x20\n      add\n      swap2\n      dup5\n      0x20\n      dup4\n      mul\n      dup5\n      add\n      gt\n      0x0100000000\n      dup4\n      gt\n      or\n      iszero\n      tag_76\n      jumpi\n      0x00\n      dup1\n      revert\n    tag_76:\n      swap1\n      swap2\n      swap3\n      swap4\n      swap2\n      swap3\n      swap4\n      swap1\n      dup1\n      calldataload\n      0xffffffffffffffffffffffffffffffffffffffff\n      and\n      swap1\n      0x20\n      add\n      swap1\n      swap3\n      swap2\n      swap1\n      pop\n      pop\n      pop\n      tag_77\n      jump\t// in\n    tag_72:\n      stop\n        /* \".deps/npm/@chainlink/contracts/src/v0.7/Operator.sol\":3767:4337  function oracleRequest(... */\n    tag_10:\n      callvalue\n      dup1\n      iszero\n      tag_78\n      jumpi\n      0x00\n      dup1\n      revert\n    tag_78:\n      pop\n      tag_79\n      0x04\n      dup1\n      calldatasize\n      sub\n      0x0100\n      dup2\n      lt\n      iszero\n      tag_80\n      jumpi\n      0x00\n      dup1\n      revert\n    tag_80:\n      dup2\n      add\n      swap1\n      dup1\n      dup1\n      calldataload\n      0xffffffffffffffffffffffffffffffffffffffff\n      and\n      swap1\n      0x20\n      add\n      swap1\n      swap3\n      swap2\n      swap1\n      dup1\n      calldataload\n      swap1\n      0x20\n      add\n      swap1\n      swap3\n      swap2\n      swap1\n      dup1\n      calldataload\n      swap1\n      0x20\n      add\n      swap1\n      swap3\n      swap2\n      swap1\n      dup1\n      calldataload\n      0xffffffffffffffffffffffffffffffffffffffff\n      and\n      swap1\n      0x20\n      add\n      swap1\n      swap3\n      swap2\n      swap1\n      dup1\n      calldataload\n      not(0xffffffffffffffffffffffffffffffffffffffffffffffffffffffff)\n      and\n      swap1\n      0x20\n      add\n      swap1\n      swap3\n      swap2\n      swap1\n      dup1\n      calldataload\n      swap1\n      0x20\n      add\n      swap1\n      swap3\n      swap2\n      swap1\n      dup1\n      calldataload\n      swap1\n      0x20\n      add\n      swap1\n      swap3\n      swap2\n      swap1\n      dup1\n      calldataload\n      swap1\n      0x20\n      add\n      swap1\n      0x0100000000\n      dup2\n      gt\n      iszero\n      tag_81\n      jumpi\n      0x00\n      dup1\n      revert\n    tag_81:\n      dup3\n      add\n      dup4\n      0x20\n      dup3\n      add\n      gt\n      iszero\n      tag_82\n      jumpi\n      0x00\n      dup1\n      revert\n    tag_82:\n      dup1\n      calldataload\n      swap1\n      0x20\n      add\n      swap2\n      dup5\n      0x01\n      dup4\n      mul\n      dup5\n      add\n      gt\n      0x0100000000\n      dup4\n      gt\n      or\n      iszero\n      tag_83\n      jumpi\n      0x00\n      dup1\n      revert\n    tag_83:\n      swap1\n      swap2\n      swap3\n      swap4\n      swap2\n      swap3\n      swap4\n      swap1\n      pop\n      pop\n      pop\n      tag_84\n      jump\t// in\n    tag_79:\n      stop\n        /* \".deps/npm/@chainlink/contracts/src/v0.7/Operator.sol\":6307:7318  function fulfillOracleRequest(... */\n    tag_11:\n      callvalue\n      dup1\n      iszero\n      tag_85\n      jumpi\n      0x00\n      dup1\n      revert\n    tag_85:\n      pop\n      tag_86\n      0x04\n      dup1\n      calldatasize\n      sub\n      0xc0\n      dup2\n      lt\n      iszero\n      tag_87\n      jumpi\n      0x00\n      dup1\n      revert\n    tag_87:\n      dup2\n      add\n      swap1\n      dup1\n      dup1\n      calldataload\n      swap1\n      0x20\n      add\n      swap1\n      swap3\n      swap2\n      swap1\n      dup1\n      calldataload\n      swap1\n      0x20\n      add\n      swap1\n      swap3\n      swap2\n      swap1\n      dup1\n      calldataload\n      0xffffffffffffffffffffffffffffffffffffffff\n      and\n      swap1\n      0x20\n      add\n      swap1\n      swap3\n      swap2\n      swap1\n      dup1\n      calldataload\n      not(0xffffffffffffffffffffffffffffffffffffffffffffffffffffffff)\n      and\n      swap1\n      0x20\n      add\n      swap1\n      swap3\n      swap2\n      swap1\n      dup1\n      calldataload\n      swap1\n      0x20\n      add\n      swap1\n      swap3\n      swap2\n      swap1\n      dup1\n      calldataload\n      swap1\n      0x20\n      add\n      swap1\n      swap3\n      swap2\n      swap1\n      pop\n      pop\n      pop\n      tag_88\n      jump\t// in\n    tag_86:\n      mload(0x40)\n      dup1\n      dup3\n      iszero\n      iszero\n      dup2\n      mstore\n      0x20\n      add\n      swap2\n      pop\n      pop\n      mload(0x40)\n      dup1\n      swap2\n      sub\n      swap1\n      return\n        /* \".deps/npm/@chainlink/contracts/src/v0.7/Operator.sol\":12375:12513  function withdrawable() external view override(OracleInterface, WithdrawalInterface) returns (uint256) {... */\n    tag_12:\n      callvalue\n      dup1\n      iszero\n      tag_89\n      jumpi\n      0x00\n      dup1\n      revert\n    tag_89:\n      pop\n      tag_90\n      tag_91\n      jump\t// in\n    tag_90:\n      mload(0x40)\n      dup1\n      dup3\n      dup2\n      mstore\n      0x20\n      add\n      swap2\n      pop\n      pop\n      mload(0x40)\n      dup1\n      swap2\n      sub\n      swap1\n      return\n        /* \".deps/npm/@chainlink/contracts/src/v0.7/Operator.sol\":11367:11596  function acceptAuthorizedReceivers(address[] calldata targets, address[] calldata senders)... */\n    tag_13:\n      callvalue\n      dup1\n      iszero\n      tag_92\n      jumpi\n      0x00\n      dup1\n      revert\n    tag_92:\n      pop\n      tag_93\n      0x04\n      dup1\n      calldatasize\n      sub\n      0x40\n      dup2\n      lt\n      iszero\n      tag_94\n      jumpi\n      0x00\n      dup1\n      revert\n    tag_94:\n      dup2\n      add\n      swap1\n      dup1\n      dup1\n      calldataload\n      swap1\n      0x20\n      add\n      swap1\n      0x0100000000\n      dup2\n      gt\n      iszero\n      tag_95\n      jumpi\n      0x00\n      dup1\n      revert\n    tag_95:\n      dup3\n      add\n      dup4\n      0x20\n      dup3\n      add\n      gt\n      iszero\n      tag_96\n      jumpi\n      0x00\n      dup1\n      revert\n    tag_96:\n      dup1\n      calldataload\n      swap1\n      0x20\n      add\n      swap2\n      dup5\n      0x20\n      dup4\n      mul\n      dup5\n      add\n      gt\n      0x0100000000\n      dup4\n      gt\n      or\n      iszero\n      tag_97\n      jumpi\n      0x00\n      dup1\n      revert\n    tag_97:\n      swap1\n      swap2\n      swap3\n      swap4\n      swap2\n      swap3\n      swap4\n      swap1\n      dup1\n      calldataload\n      swap1\n      0x20\n      add\n      swap1\n      0x0100000000\n      dup2\n      gt\n      iszero\n      tag_98\n      jumpi\n      0x00\n      dup1\n      revert\n    tag_98:\n      dup3\n      add\n      dup4\n      0x20\n      dup3\n      add\n      gt\n      iszero\n      tag_99\n      jumpi\n      0x00\n      dup1\n      revert\n    tag_99:\n      dup1\n      calldataload\n      swap1\n      0x20\n      add\n      swap2\n      dup5\n      0x20\n      dup4\n      mul\n      dup5\n      add\n      gt\n      0x0100000000\n      dup4\n      gt\n      or\n      iszero\n      tag_100\n      jumpi\n      0x00\n      dup1\n      revert\n    tag_100:\n      swap1\n      swap2\n      swap3\n      swap4\n      swap2\n      swap3\n      swap4\n      swap1\n      pop\n      pop\n      pop\n      tag_101\n      jump\t// in\n    tag_93:\n      stop\n        /* \".deps/npm/@chainlink/contracts/src/v0.7/Operator.sol\":8194:9245  function fulfillOracleRequest2(... */\n    tag_14:\n      callvalue\n      dup1\n      iszero\n      tag_102\n      jumpi\n      0x00\n      dup1\n      revert\n    tag_102:\n      pop\n      tag_103\n      0x04\n      dup1\n      calldatasize\n      sub\n      0xc0\n      dup2\n      lt\n      iszero\n      tag_104\n      jumpi\n      0x00\n      dup1\n      revert\n    tag_104:\n      dup2\n      add\n      swap1\n      dup1\n      dup1\n      calldataload\n      swap1\n      0x20\n      add\n      swap1\n      swap3\n      swap2\n      swap1\n      dup1\n      calldataload\n      swap1\n      0x20\n      add\n      swap1\n      swap3\n      swap2\n      swap1\n      dup1\n      calldataload\n      0xffffffffffffffffffffffffffffffffffffffff\n      and\n      swap1\n      0x20\n      add\n      swap1\n      swap3\n      swap2\n      swap1\n      dup1\n      calldataload\n      not(0xffffffffffffffffffffffffffffffffffffffffffffffffffffffff)\n      and\n      swap1\n      0x20\n      add\n      swap1\n      swap3\n      swap2\n      swap1\n      dup1\n      calldataload\n      swap1\n      0x20\n      add\n      swap1\n      swap3\n      swap2\n      swap1\n      dup1\n      calldataload\n      swap1\n      0x20\n      add\n      swap1\n      0x0100000000\n      dup2\n      gt\n      iszero\n      tag_105\n      jumpi\n      0x00\n      dup1\n      revert\n    tag_105:\n      dup3\n      add\n      dup4\n      0x20\n      dup3\n      add\n      gt\n      iszero\n      tag_106\n      jumpi\n      0x00\n      dup1\n      revert\n    tag_106:\n      dup1\n      calldataload\n      swap1\n      0x20\n      add\n      swap2\n      dup5\n      0x01\n      dup4\n      mul\n      dup5\n      add\n      gt\n      0x0100000000\n      dup4\n      gt\n      or\n      iszero\n      tag_107\n      jumpi\n      0x00\n      dup1\n      revert\n    tag_107:\n      swap1\n      swap2\n      swap3\n      swap4\n      swap2\n      swap3\n      swap4\n      swap1\n      pop\n      pop\n      pop\n      tag_108\n      jump\t// in\n    tag_103:\n      mload(0x40)\n      dup1\n      dup3\n      iszero\n      iszero\n      dup2\n      mstore\n      0x20\n      add\n      swap2\n      pop\n      pop\n      mload(0x40)\n      dup1\n      swap2\n      sub\n      swap1\n      return\n        /* \".deps/npm/@chainlink/contracts/src/v0.7/Operator.sol\":13848:14350  function distributeFunds(address payable[] calldata receivers, uint256[] calldata amounts) external payable {... */\n    tag_15:\n      tag_109\n      0x04\n      dup1\n      calldatasize\n      sub\n      0x40\n      dup2\n      lt\n      iszero\n      tag_110\n      jumpi\n      0x00\n      dup1\n      revert\n    tag_110:\n      dup2\n      add\n      swap1\n      dup1\n      dup1\n      calldataload\n      swap1\n      0x20\n      add\n      swap1\n      0x0100000000\n      dup2\n      gt\n      iszero\n      tag_111\n      jumpi\n      0x00\n      dup1\n      revert\n    tag_111:\n      dup3\n      add\n      dup4\n      0x20\n      dup3\n      add\n      gt\n      iszero\n      tag_112\n      jumpi\n      0x00\n      dup1\n      revert\n    tag_112:\n      dup1\n      calldataload\n      swap1\n      0x20\n      add\n      swap2\n      dup5\n      0x20\n      dup4\n      mul\n      dup5\n      add\n      gt\n      0x0100000000\n      dup4\n      gt\n      or\n      iszero\n      tag_113\n      jumpi\n      0x00\n      dup1\n      revert\n    tag_113:\n      swap1\n      swap2\n      swap3\n      swap4\n      swap2\n      swap3\n      swap4\n      swap1\n      dup1\n      calldataload\n      swap1\n      0x20\n      add\n      swap1\n      0x0100000000\n      dup2\n      gt\n      iszero\n      tag_114\n      jumpi\n      0x00\n      dup1\n      revert\n    tag_114:\n      dup3\n      add\n      dup4\n      0x20\n      dup3\n      add\n      gt\n      iszero\n      tag_115\n      jumpi\n      0x00\n      dup1\n      revert\n    tag_115:\n      dup1\n      calldataload\n      swap1\n      0x20\n      add\n      swap2\n      dup5\n      0x20\n      dup4\n      mul\n      dup5\n      add\n      gt\n      0x0100000000\n      dup4\n      gt\n      or\n      iszero\n      tag_116\n      jumpi\n      0x00\n      dup1\n      revert\n    tag_116:\n      swap1\n      swap2\n      swap3\n      swap4\n      swap2\n      swap3\n      swap4\n      swap1\n      pop\n      pop\n      pop\n      tag_117\n      jump\t// in\n    tag_109:\n      stop\n        /* \".deps/npm/@chainlink/contracts/src/v0.7/Operator.sol\":14921:15503  function cancelOracleRequest(... */\n    tag_16:\n      callvalue\n      dup1\n      iszero\n      tag_118\n      jumpi\n      0x00\n      dup1\n      revert\n    tag_118:\n      pop\n      tag_119\n      0x04\n      dup1\n      calldatasize\n      sub\n      0x80\n      dup2\n      lt\n      iszero\n      tag_120\n      jumpi\n      0x00\n      dup1\n      revert\n    tag_120:\n      dup2\n      add\n      swap1\n      dup1\n      dup1\n      calldataload\n      swap1\n      0x20\n      add\n      swap1\n      swap3\n      swap2\n      swap1\n      dup1\n      calldataload\n      swap1\n      0x20\n      add\n      swap1\n      swap3\n      swap2\n      swap1\n      dup1\n      calldataload\n      not(0xffffffffffffffffffffffffffffffffffffffffffffffffffffffff)\n      and\n      swap1\n      0x20\n      add\n      swap1\n      swap3\n      swap2\n      swap1\n      dup1\n      calldataload\n      swap1\n      0x20\n      add\n      swap1\n      swap3\n      swap2\n      swap1\n      pop\n      pop\n      pop\n      tag_121\n      jump\t// in\n    tag_119:\n      stop\n        /* \".deps/npm/@chainlink/contracts/src/v0.7/ConfirmedOwnerWithProposal.sol\":1016:1281  function acceptOwnership() external override {... */\n    tag_17:\n      callvalue\n      dup1\n      iszero\n      tag_122\n      jumpi\n      0x00\n      dup1\n      revert\n    tag_122:\n      pop\n      tag_123\n      tag_124\n      jump\t// in\n    tag_123:\n      stop\n        /* \".deps/npm/@chainlink/contracts/src/v0.7/ConfirmedOwnerWithProposal.sol\":1332:1413  function owner() public view override returns (address) {... */\n    tag_18:\n      callvalue\n      dup1\n      iszero\n      tag_125\n      jumpi\n      0x00\n      dup1\n      revert\n    tag_125:\n      pop\n      tag_126\n      tag_127\n      jump\t// in\n    tag_126:\n      mload(0x40)\n      dup1\n      dup3\n      0xffffffffffffffffffffffffffffffffffffffff\n      and\n      dup2\n      mstore\n      0x20\n      add\n      swap2\n      pop\n      pop\n      mload(0x40)\n      dup1\n      swap2\n      sub\n      swap1\n      return\n        /* \".deps/npm/@chainlink/contracts/src/v0.7/Operator.sol\":13202:13437  function ownerTransferAndCall(... */\n    tag_19:\n      callvalue\n      dup1\n      iszero\n      tag_128\n      jumpi\n      0x00\n      dup1\n      revert\n    tag_128:\n      pop\n      tag_129\n      0x04\n      dup1\n      calldatasize\n      sub\n      0x60\n      dup2\n      lt\n      iszero\n      tag_130\n      jumpi\n      0x00\n      dup1\n      revert\n    tag_130:\n      dup2\n      add\n      swap1\n      dup1\n      dup1\n      calldataload\n      0xffffffffffffffffffffffffffffffffffffffff\n      and\n      swap1\n      0x20\n      add\n      swap1\n      swap3\n      swap2\n      swap1\n      dup1\n      calldataload\n      swap1\n      0x20\n      add\n      swap1\n      swap3\n      swap2\n      swap1\n      dup1\n      calldataload\n      swap1\n      0x20\n      add\n      swap1\n      0x0100000000\n      dup2\n      gt\n      iszero\n      tag_131\n      jumpi\n      0x00\n      dup1\n      revert\n    tag_131:\n      dup3\n      add\n      dup4\n      0x20\n      dup3\n      add\n      gt\n      iszero\n      tag_132\n      jumpi\n      0x00\n      dup1\n      revert\n    tag_132:\n      dup1\n      calldataload\n      swap1\n      0x20\n      add\n      swap2\n      dup5\n      0x01\n      dup4\n      mul\n      dup5\n      add\n      gt\n      0x0100000000\n      dup4\n      gt\n      or\n      iszero\n      tag_133\n      jumpi\n      0x00\n      dup1\n      revert\n    tag_133:\n      swap1\n      swap2\n      swap3\n      swap4\n      swap2\n      swap3\n      swap4\n      swap1\n      pop\n      pop\n      pop\n      tag_134\n      jump\t// in\n    tag_129:\n      mload(0x40)\n      dup1\n      dup3\n      iszero\n      iszero\n      dup2\n      mstore\n      0x20\n      add\n      swap2\n      pop\n      pop\n      mload(0x40)\n      dup1\n      swap2\n      sub\n      swap1\n      return\n        /* \".deps/npm/@chainlink/contracts/src/v0.7/LinkTokenReceiver.sol\":476:1091  function onTokenTransfer(... */\n    tag_20:\n      callvalue\n      dup1\n      iszero\n      tag_135\n      jumpi\n      0x00\n      dup1\n      revert\n    tag_135:\n      pop\n      tag_136\n      0x04\n      dup1\n      calldatasize\n      sub\n      0x60\n      dup2\n      lt\n      iszero\n      tag_137\n      jumpi\n      0x00\n      dup1\n      revert\n    tag_137:\n      dup2\n      add\n      swap1\n      dup1\n      dup1\n      calldataload\n      0xffffffffffffffffffffffffffffffffffffffff\n      and\n      swap1\n      0x20\n      add\n      swap1\n      swap3\n      swap2\n      swap1\n      dup1\n      calldataload\n      swap1\n      0x20\n      add\n      swap1\n      swap3\n      swap2\n      swap1\n      dup1\n      calldataload\n      swap1\n      0x20\n      add\n      swap1\n      0x0100000000\n      dup2\n      gt\n      iszero\n      tag_138\n      jumpi\n      0x00\n      dup1\n      revert\n    tag_138:\n      dup3\n      add\n      dup4\n      0x20\n      dup3\n      add\n      gt\n      iszero\n      tag_139\n      jumpi\n      0x00\n      dup1\n      revert\n    tag_139:\n      dup1\n      calldataload\n      swap1\n      0x20\n      add\n      swap2\n      dup5\n      0x01\n      dup4\n      mul\n      dup5\n      add\n      gt\n      0x0100000000\n      dup4\n      gt\n      or\n      iszero\n      tag_140\n      jumpi\n      0x00\n      dup1\n      revert\n    tag_140:\n      swap2\n      swap1\n      dup1\n      dup1\n      0x1f\n      add\n      0x20\n      dup1\n      swap2\n      div\n      mul\n      0x20\n      add\n      mload(0x40)\n      swap1\n      dup2\n      add\n      0x40\n      mstore\n      dup1\n      swap4\n      swap3\n      swap2\n      swap1\n      dup2\n      dup2\n      mstore\n      0x20\n      add\n      dup4\n      dup4\n      dup1\n      dup3\n      dup5\n      calldatacopy\n      0x00\n      dup2\n      dup5\n      add\n      mstore\n      not(0x1f)\n      0x1f\n      dup3\n      add\n      and\n      swap1\n      pop\n      dup1\n      dup4\n      add\n      swap3\n      pop\n      pop\n      pop\n      pop\n      pop\n      pop\n      pop\n      swap2\n      swap3\n      swap2\n      swap3\n      swap1\n      pop\n      pop\n      pop\n      tag_141\n      jump\t// in\n    tag_136:\n      stop\n        /* \".deps/npm/@chainlink/contracts/src/v0.7/Operator.sol\":16097:16749  function cancelOracleRequestByRequester(... */\n    tag_21:\n      callvalue\n      dup1\n      iszero\n      tag_142\n      jumpi\n      0x00\n      dup1\n      revert\n    tag_142:\n      pop\n      tag_143\n      0x04\n      dup1\n      calldatasize\n      sub\n      0x80\n      dup2\n      lt\n      iszero\n      tag_144\n      jumpi\n      0x00\n      dup1\n      revert\n    tag_144:\n      dup2\n      add\n      swap1\n      dup1\n      dup1\n      calldataload\n      swap1\n      0x20\n      add\n      swap1\n      swap3\n      swap2\n      swap1\n      dup1\n      calldataload\n      swap1\n      0x20\n      add\n      swap1\n      swap3\n      swap2\n      swap1\n      dup1\n      calldataload\n      not(0xffffffffffffffffffffffffffffffffffffffffffffffffffffffff)\n      and\n      swap1\n      0x20\n      add\n      swap1\n      swap3\n      swap2\n      swap1\n      dup1\n      calldataload\n      swap1\n      0x20\n      add\n      swap1\n      swap3\n      swap2\n      swap1\n      pop\n      pop\n      pop\n      tag_145\n      jump\t// in\n    tag_143:\n      stop\n        /* \".deps/npm/@chainlink/contracts/src/v0.7/AuthorizedReceiver.sol\":543:1296  function setAuthorizedSenders(address[] calldata senders) external override validateAuthorizedSenderSetter {... */\n    tag_22:\n      callvalue\n      dup1\n      iszero\n      tag_146\n      jumpi\n      0x00\n      dup1\n      revert\n    tag_146:\n      pop\n      tag_147\n      0x04\n      dup1\n      calldatasize\n      sub\n      0x20\n      dup2\n      lt\n      iszero\n      tag_148\n      jumpi\n      0x00\n      dup1\n      revert\n    tag_148:\n      dup2\n      add\n      swap1\n      dup1\n      dup1\n      calldataload\n      swap1\n      0x20\n      add\n      swap1\n      0x0100000000\n      dup2\n      gt\n      iszero\n      tag_149\n      jumpi\n      0x00\n      dup1\n      revert\n    tag_149:\n      dup3\n      add\n      dup4\n      0x20\n      dup3\n      add\n      gt\n      iszero\n      tag_150\n      jumpi\n      0x00\n      dup1\n      revert\n    tag_150:\n      dup1\n      calldataload\n      swap1\n      0x20\n      add\n      swap2\n      dup5\n      0x20\n      dup4\n      mul\n      dup5\n      add\n      gt\n      0x0100000000\n      dup4\n      gt\n      or\n      iszero\n      tag_151\n      jumpi\n      0x00\n      dup1\n      revert\n    tag_151:\n      swap1\n      swap2\n      swap3\n      swap4\n      swap2\n      swap3\n      swap4\n      swap1\n      pop\n      pop\n      pop\n      tag_152\n      jump\t// in\n    tag_147:\n      stop\n        /* \".deps/npm/@chainlink/contracts/src/v0.7/ConfirmedOwnerWithProposal.sol\":826:924  function transferOwnership(address to) public override onlyOwner {... */\n    tag_23:\n      callvalue\n      dup1\n      iszero\n      tag_153\n      jumpi\n      0x00\n      dup1\n      revert\n    tag_153:\n      pop\n      tag_154\n      0x04\n      dup1\n      calldatasize\n      sub\n      0x20\n      dup2\n      lt\n      iszero\n      tag_155\n      jumpi\n      0x00\n      dup1\n      revert\n    tag_155:\n      dup2\n      add\n      swap1\n      dup1\n      dup1\n      calldataload\n      0xffffffffffffffffffffffffffffffffffffffff\n      and\n      swap1\n      0x20\n      add\n      swap1\n      swap3\n      swap2\n      swap1\n      pop\n      pop\n      pop\n      tag_156\n      jump\t// in\n    tag_154:\n      stop\n        /* \".deps/npm/@chainlink/contracts/src/v0.7/Operator.sol\":11909:12133  function withdraw(address recipient, uint256 amount)... */\n    tag_24:\n      callvalue\n      dup1\n      iszero\n      tag_157\n      jumpi\n      0x00\n      dup1\n      revert\n    tag_157:\n      pop\n      tag_158\n      0x04\n      dup1\n      calldatasize\n      sub\n      0x40\n      dup2\n      lt\n      iszero\n      tag_159\n      jumpi\n      0x00\n      dup1\n      revert\n    tag_159:\n      dup2\n      add\n      swap1\n      dup1\n      dup1\n      calldataload\n      0xffffffffffffffffffffffffffffffffffffffff\n      and\n      swap1\n      0x20\n      add\n      swap1\n      swap3\n      swap2\n      swap1\n      dup1\n      calldataload\n      swap1\n      0x20\n      add\n      swap1\n      swap3\n      swap2\n      swap1\n      pop\n      pop\n      pop\n      tag_160\n      jump\t// in\n    tag_158:\n      stop\n        /* \".deps/npm/@chainlink/contracts/src/v0.7/AuthorizedReceiver.sol\":1715:1840  function isAuthorizedSender(address sender) public view override returns (bool) {... */\n    tag_25:\n      callvalue\n      dup1\n      iszero\n      tag_161\n      jumpi\n      0x00\n      dup1\n      revert\n    tag_161:\n      pop\n      tag_162\n      0x04\n      dup1\n      calldatasize\n      sub\n      0x20\n      dup2\n      lt\n      iszero\n      tag_163\n      jumpi\n      0x00\n      dup1\n      revert\n    tag_163:\n      dup2\n      add\n      swap1\n      dup1\n      dup1\n      calldataload\n      0xffffffffffffffffffffffffffffffffffffffff\n      and\n      swap1\n      0x20\n      add\n      swap1\n      swap3\n      swap2\n      swap1\n      pop\n      pop\n      pop\n      tag_164\n      jump\t// in\n    tag_162:\n      mload(0x40)\n      dup1\n      dup3\n      iszero\n      iszero\n      dup2\n      mstore\n      0x20\n      add\n      swap2\n      pop\n      pop\n      mload(0x40)\n      dup1\n      swap2\n      sub\n      swap1\n      return\n        /* \".deps/npm/@chainlink/contracts/src/v0.7/Operator.sol\":10612:10955  function setAuthorizedSendersOn(address[] calldata targets, address[] calldata senders)... */\n    tag_26:\n      callvalue\n      dup1\n      iszero\n      tag_165\n      jumpi\n      0x00\n      dup1\n      revert\n    tag_165:\n      pop\n      tag_166\n      0x04\n      dup1\n      calldatasize\n      sub\n      0x40\n      dup2\n      lt\n      iszero\n      tag_167\n      jumpi\n      0x00\n      dup1\n      revert\n    tag_167:\n      dup2\n      add\n      swap1\n      dup1\n      dup1\n      calldataload\n      swap1\n      0x20\n      add\n      swap1\n      0x0100000000\n      dup2\n      gt\n      iszero\n      tag_168\n      jumpi\n      0x00\n      dup1\n      revert\n    tag_168:\n      dup3\n      add\n      dup4\n      0x20\n      dup3\n      add\n      gt\n      iszero\n      tag_169\n      jumpi\n      0x00\n      dup1\n      revert\n    tag_169:\n      dup1\n      calldataload\n      swap1\n      0x20\n      add\n      swap2\n      dup5\n      0x20\n      dup4\n      mul\n      dup5\n      add\n      gt\n      0x0100000000\n      dup4\n      gt\n      or\n      iszero\n      tag_170\n      jumpi\n      0x00\n      dup1\n      revert\n    tag_170:\n      swap1\n      swap2\n      swap3\n      swap4\n      swap2\n      swap3\n      swap4\n      swap1\n      dup1\n      calldataload\n      swap1\n      0x20\n      add\n      swap1\n      0x0100000000\n      dup2\n      gt\n      iszero\n      tag_171\n      jumpi\n      0x00\n      dup1\n      revert\n    tag_171:\n      dup3\n      add\n      dup4\n      0x20\n      dup3\n      add\n      gt\n      iszero\n      tag_172\n      jumpi\n      0x00\n      dup1\n      revert\n    tag_172:\n      dup1\n      calldataload\n      swap1\n      0x20\n      add\n      swap2\n      dup5\n      0x20\n      dup4\n      mul\n      dup5\n      add\n      gt\n      0x0100000000\n      dup4\n      gt\n      or\n      iszero\n      tag_173\n      jumpi\n      0x00\n      dup1\n      revert\n    tag_173:\n      swap1\n      swap2\n      swap3\n      swap4\n      swap2\n      swap3\n      swap4\n      swap1\n      pop\n      pop\n      pop\n      tag_174\n      jump\t// in\n    tag_166:\n      stop\n        /* \".deps/npm/@chainlink/contracts/src/v0.7/Operator.sol\":10128:10424  function acceptOwnableContracts(address[] calldata ownable) public validateAuthorizedSenderSetter {... */\n    tag_37:\n        /* \".deps/npm/@chainlink/contracts/src/v0.7/AuthorizedReceiver.sol\":2585:2611  _canSetAuthorizedSenders() */\n      tag_176\n        /* \".deps/npm/@chainlink/contracts/src/v0.7/AuthorizedReceiver.sol\":2585:2609  _canSetAuthorizedSenders */\n      tag_177\n        /* \".deps/npm/@chainlink/contracts/src/v0.7/AuthorizedReceiver.sol\":2585:2611  _canSetAuthorizedSenders() */\n      jump\t// in\n    tag_176:\n        /* \".deps/npm/@chainlink/contracts/src/v0.7/AuthorizedReceiver.sol\":2577:2645  require(_canSetAuthorizedSenders(), \"Cannot set authorized senders\") */\n      tag_178\n      jumpi\n      mload(0x40)\n      0x08c379a000000000000000000000000000000000000000000000000000000000\n      dup2\n      mstore\n      0x04\n      add\n      dup1\n      dup1\n      0x20\n      add\n      dup3\n      dup2\n      sub\n      dup3\n      mstore\n      0x1d\n      dup2\n      mstore\n      0x20\n      add\n      dup1\n      0x43616e6e6f742073657420617574686f72697a65642073656e64657273000000\n      dup2\n      mstore\n      pop\n      0x20\n      add\n      swap2\n      pop\n      pop\n      mload(0x40)\n      dup1\n      swap2\n      sub\n      swap1\n      revert\n    tag_178:\n        /* \".deps/npm/@chainlink/contracts/src/v0.7/Operator.sol\":10237:10246  uint256 i */\n      0x00\n        /* \".deps/npm/@chainlink/contracts/src/v0.7/Operator.sol\":10232:10420  for (uint256 i = 0; i < ownable.length; i++) {... */\n    tag_180:\n        /* \".deps/npm/@chainlink/contracts/src/v0.7/Operator.sol\":10256:10263  ownable */\n      dup3\n      dup3\n        /* \".deps/npm/@chainlink/contracts/src/v0.7/Operator.sol\":10256:10270  ownable.length */\n      swap1\n      pop\n        /* \".deps/npm/@chainlink/contracts/src/v0.7/Operator.sol\":10252:10253  i */\n      dup2\n        /* \".deps/npm/@chainlink/contracts/src/v0.7/Operator.sol\":10252:10270  i < ownable.length */\n      lt\n        /* \".deps/npm/@chainlink/contracts/src/v0.7/Operator.sol\":10232:10420  for (uint256 i = 0; i < ownable.length; i++) {... */\n      iszero\n      tag_181\n      jumpi\n        /* \".deps/npm/@chainlink/contracts/src/v0.7/Operator.sol\":10307:10311  true */\n      0x01\n        /* \".deps/npm/@chainlink/contracts/src/v0.7/Operator.sol\":10285:10292  s_owned */\n      0x05\n        /* \".deps/npm/@chainlink/contracts/src/v0.7/Operator.sol\":10285:10304  s_owned[ownable[i]] */\n      0x00\n        /* \".deps/npm/@chainlink/contracts/src/v0.7/Operator.sol\":10293:10300  ownable */\n      dup6\n      dup6\n        /* \".deps/npm/@chainlink/contracts/src/v0.7/Operator.sol\":10301:10302  i */\n      dup6\n        /* \".deps/npm/@chainlink/contracts/src/v0.7/Operator.sol\":10293:10303  ownable[i] */\n      dup2\n      dup2\n      lt\n      tag_183\n      jumpi\n      invalid\n    tag_183:\n      swap1\n      pop\n      0x20\n      mul\n      add\n      calldataload\n      0xffffffffffffffffffffffffffffffffffffffff\n      and\n        /* \".deps/npm/@chainlink/contracts/src/v0.7/Operator.sol\":10285:10304  s_owned[ownable[i]] */\n      0xffffffffffffffffffffffffffffffffffffffff\n      and\n      0xffffffffffffffffffffffffffffffffffffffff\n      and\n      dup2\n      mstore\n      0x20\n      add\n      swap1\n      dup2\n      mstore\n      0x20\n      add\n      0x00\n      keccak256\n      0x00\n        /* \".deps/npm/@chainlink/contracts/src/v0.7/Operator.sol\":10285:10311  s_owned[ownable[i]] = true */\n      0x0100\n      exp\n      dup2\n      sload\n      dup2\n      0xff\n      mul\n      not\n      and\n      swap1\n      dup4\n      iszero\n      iszero\n      mul\n      or\n      swap1\n      sstore\n      pop\n        /* \".deps/npm/@chainlink/contracts/src/v0.7/Operator.sol\":10348:10355  ownable */\n      dup3\n      dup3\n        /* \".deps/npm/@chainlink/contracts/src/v0.7/Operator.sol\":10356:10357  i */\n      dup3\n        /* \".deps/npm/@chainlink/contracts/src/v0.7/Operator.sol\":10348:10358  ownable[i] */\n      dup2\n      dup2\n      lt\n      tag_184\n      jumpi\n      invalid\n    tag_184:\n      swap1\n      pop\n      0x20\n      mul\n      add\n      calldataload\n      0xffffffffffffffffffffffffffffffffffffffff\n      and\n        /* \".deps/npm/@chainlink/contracts/src/v0.7/Operator.sol\":10324:10359  OwnableContractAccepted(ownable[i]) */\n      0xffffffffffffffffffffffffffffffffffffffff\n      and\n      0x615a0c1cb00a60d4acd77ec67acf2f17f223ef0932d591052fabc33643fe7e82\n      mload(0x40)\n      mload(0x40)\n      dup1\n      swap2\n      sub\n      swap1\n      log2\n        /* \".deps/npm/@chainlink/contracts/src/v0.7/Operator.sol\":10384:10391  ownable */\n      dup3\n      dup3\n        /* \".deps/npm/@chainlink/contracts/src/v0.7/Operator.sol\":10392:10393  i */\n      dup3\n        /* \".deps/npm/@chainlink/contracts/src/v0.7/Operator.sol\":10384:10394  ownable[i] */\n      dup2\n      dup2\n      lt\n      tag_185\n      jumpi\n      invalid\n    tag_185:\n      swap1\n      pop\n      0x20\n      mul\n      add\n      calldataload\n      0xffffffffffffffffffffffffffffffffffffffff\n      and\n        /* \".deps/npm/@chainlink/contracts/src/v0.7/Operator.sol\":10367:10411  OwnableInterface(ownable[i]).acceptOwnership */\n      0xffffffffffffffffffffffffffffffffffffffff\n      and\n      0x79ba5097\n        /* \".deps/npm/@chainlink/contracts/src/v0.7/Operator.sol\":10367:10413  OwnableInterface(ownable[i]).acceptOwnership() */\n      mload(0x40)\n      dup2\n      0xffffffff\n      and\n      0xe0\n      shl\n      dup2\n      mstore\n      0x04\n      add\n      0x00\n      mload(0x40)\n      dup1\n      dup4\n      sub\n      dup2\n      0x00\n      dup8\n      dup1\n      extcodesize\n      iszero\n      dup1\n      iszero\n      tag_186\n      jumpi\n      0x00\n      dup1\n      revert\n    tag_186:\n      pop\n      gas\n      call\n      iszero\n      dup1\n      iszero\n      tag_188\n      jumpi\n      returndatasize\n      0x00\n      dup1\n      returndatacopy\n      revert(0x00, returndatasize)\n    tag_188:\n      pop\n      pop\n      pop\n      pop\n        /* \".deps/npm/@chainlink/contracts/src/v0.7/Operator.sol\":10272:10275  i++ */\n      dup1\n      dup1\n      0x01\n      add\n      swap2\n      pop\n      pop\n        /* \".deps/npm/@chainlink/contracts/src/v0.7/Operator.sol\":10232:10420  for (uint256 i = 0; i < ownable.length; i++) {... */\n      jump(tag_180)\n    tag_181:\n      pop\n        /* \".deps/npm/@chainlink/contracts/src/v0.7/Operator.sol\":10128:10424  function acceptOwnableContracts(address[] calldata ownable) public validateAuthorizedSenderSetter {... */\n      pop\n      pop\n      jump\t// out\n        /* \".deps/npm/@chainlink/contracts/src/v0.7/Operator.sol\":12665:12909  function ownerForward(address to, bytes calldata data) external onlyOwner validateNotToLINK(to) {... */\n    tag_44:\n        /* \".deps/npm/@chainlink/contracts/src/v0.7/ConfirmedOwnerWithProposal.sol\":1956:1976  _validateOwnership() */\n      tag_190\n        /* \".deps/npm/@chainlink/contracts/src/v0.7/ConfirmedOwnerWithProposal.sol\":1956:1974  _validateOwnership */\n      tag_191\n        /* \".deps/npm/@chainlink/contracts/src/v0.7/ConfirmedOwnerWithProposal.sol\":1956:1976  _validateOwnership() */\n      jump\t// in\n    tag_190:\n        /* \".deps/npm/@chainlink/contracts/src/v0.7/Operator.sol\":12757:12759  to */\n      dup3\n        /* \".deps/npm/@chainlink/contracts/src/v0.7/Operator.sol\":22798:22807  linkToken */\n      immutable(\"0x5fb12ad98b8d13e095aa2296ce90e81ce800e34edf3e5203ac6ed2bf74255f6c\")\n        /* \".deps/npm/@chainlink/contracts/src/v0.7/Operator.sol\":22784:22808  to != address(linkToken) */\n      0xffffffffffffffffffffffffffffffffffffffff\n      and\n        /* \".deps/npm/@chainlink/contracts/src/v0.7/Operator.sol\":22784:22786  to */\n      dup2\n        /* \".deps/npm/@chainlink/contracts/src/v0.7/Operator.sol\":22784:22808  to != address(linkToken) */\n      0xffffffffffffffffffffffffffffffffffffffff\n      and\n      eq\n      iszero\n        /* \".deps/npm/@chainlink/contracts/src/v0.7/Operator.sol\":22776:22832  require(to != address(linkToken), \"Cannot call to LINK\") */\n      tag_193\n      jumpi\n      mload(0x40)\n      0x08c379a000000000000000000000000000000000000000000000000000000000\n      dup2\n      mstore\n      0x04\n      add\n      dup1\n      dup1\n      0x20\n      add\n      dup3\n      dup2\n      sub\n      dup3\n      mstore\n      0x13\n      dup2\n      mstore\n      0x20\n      add\n      dup1\n      0x43616e6e6f742063616c6c20746f204c494e4b00000000000000000000000000\n      dup2\n      mstore\n      pop\n      0x20\n      add\n      swap2\n      pop\n      pop\n      mload(0x40)\n      dup1\n      swap2\n      sub\n      swap1\n      revert\n    tag_193:\n        /* \".deps/npm/@chainlink/contracts/src/v0.7/Operator.sol\":12775:12790  to.isContract() */\n      tag_195\n        /* \".deps/npm/@chainlink/contracts/src/v0.7/Operator.sol\":12775:12777  to */\n      dup5\n        /* \".deps/npm/@chainlink/contracts/src/v0.7/Operator.sol\":12775:12788  to.isContract */\n      0xffffffffffffffffffffffffffffffffffffffff\n      and\n      tag_196\n        /* \".deps/npm/@chainlink/contracts/src/v0.7/Operator.sol\":12775:12790  to.isContract() */\n      jump\t// in\n    tag_195:\n        /* \".deps/npm/@chainlink/contracts/src/v0.7/Operator.sol\":12767:12821  require(to.isContract(), \"Must forward to a contract\") */\n      tag_197\n      jumpi\n      mload(0x40)\n      0x08c379a000000000000000000000000000000000000000000000000000000000\n      dup2\n      mstore\n      0x04\n      add\n      dup1\n      dup1\n      0x20\n      add\n      dup3\n      dup2\n      sub\n      dup3\n      mstore\n      0x1a\n      dup2\n      mstore\n      0x20\n      add\n      dup1\n      0x4d75737420666f727761726420746f206120636f6e7472616374000000000000\n      dup2\n      mstore\n      pop\n      0x20\n      add\n      swap2\n      pop\n      pop\n      mload(0x40)\n      dup1\n      swap2\n      sub\n      swap1\n      revert\n    tag_197:\n        /* \".deps/npm/@chainlink/contracts/src/v0.7/Operator.sol\":12828:12839  bool status */\n      0x00\n        /* \".deps/npm/@chainlink/contracts/src/v0.7/Operator.sol\":12845:12847  to */\n      dup5\n        /* \".deps/npm/@chainlink/contracts/src/v0.7/Operator.sol\":12845:12852  to.call */\n      0xffffffffffffffffffffffffffffffffffffffff\n      and\n        /* \".deps/npm/@chainlink/contracts/src/v0.7/Operator.sol\":12853:12857  data */\n      dup5\n      dup5\n        /* \".deps/npm/@chainlink/contracts/src/v0.7/Operator.sol\":12845:12858  to.call(data) */\n      mload(0x40)\n      dup1\n      dup4\n      dup4\n      dup1\n      dup3\n      dup5\n      calldatacopy\n      dup1\n      dup4\n      add\n      swap3\n      pop\n      pop\n      pop\n      swap3\n      pop\n      pop\n      pop\n      0x00\n      mload(0x40)\n      dup1\n      dup4\n      sub\n      dup2\n      0x00\n      dup7\n      gas\n      call\n      swap2\n      pop\n      pop\n      returndatasize\n      dup1\n      0x00\n      dup2\n      eq\n      tag_200\n      jumpi\n      mload(0x40)\n      swap2\n      pop\n      and(add(returndatasize, 0x3f), not(0x1f))\n      dup3\n      add\n      0x40\n      mstore\n      returndatasize\n      dup3\n      mstore\n      returndatasize\n      0x00\n      0x20\n      dup5\n      add\n      returndatacopy\n      jump(tag_199)\n    tag_200:\n      0x60\n      swap2\n      pop\n    tag_199:\n      pop\n        /* \".deps/npm/@chainlink/contracts/src/v0.7/Operator.sol\":12827:12858  (bool status, ) = to.call(data) */\n      pop\n      swap1\n      pop\n        /* \".deps/npm/@chainlink/contracts/src/v0.7/Operator.sol\":12872:12878  status */\n      dup1\n        /* \".deps/npm/@chainlink/contracts/src/v0.7/Operator.sol\":12864:12904  require(status, \"Forwarded call failed\") */\n      tag_201\n      jumpi\n      mload(0x40)\n      0x08c379a000000000000000000000000000000000000000000000000000000000\n      dup2\n      mstore\n      0x04\n      add\n      dup1\n      dup1\n      0x20\n      add\n      dup3\n      dup2\n      sub\n      dup3\n      mstore\n      0x15\n      dup2\n      mstore\n      0x20\n      add\n      dup1\n      0x466f727761726465642063616c6c206661696c65640000000000000000000000\n      dup2\n      mstore\n      pop\n      0x20\n      add\n      swap2\n      pop\n      pop\n      mload(0x40)\n      dup1\n      swap2\n      sub\n      swap1\n      revert\n    tag_201:\n        /* \".deps/npm/@chainlink/contracts/src/v0.7/Operator.sol\":22838:22839  _ */\n      pop\n        /* \".deps/npm/@chainlink/contracts/src/v0.7/ConfirmedOwnerWithProposal.sol\":1982:1983  _ */\n      pop\n        /* \".deps/npm/@chainlink/contracts/src/v0.7/Operator.sol\":12665:12909  function ownerForward(address to, bytes calldata data) external onlyOwner validateNotToLINK(to) {... */\n      pop\n      pop\n      pop\n      jump\t// out\n        /* \".deps/npm/@chainlink/contracts/src/v0.7/Operator.sol\":16952:17056  function getChainlinkToken() public view override returns (address) {... */\n    tag_47:\n        /* \".deps/npm/@chainlink/contracts/src/v0.7/Operator.sol\":17011:17018  address */\n      0x00\n        /* \".deps/npm/@chainlink/contracts/src/v0.7/Operator.sol\":17041:17050  linkToken */\n      immutable(\"0x5fb12ad98b8d13e095aa2296ce90e81ce800e34edf3e5203ac6ed2bf74255f6c\")\n        /* \".deps/npm/@chainlink/contracts/src/v0.7/Operator.sol\":17026:17051  return address(linkToken) */\n      swap1\n      pop\n        /* \".deps/npm/@chainlink/contracts/src/v0.7/Operator.sol\":16952:17056  function getChainlinkToken() public view override returns (address) {... */\n      swap1\n      jump\t// out\n        /* \".deps/npm/@chainlink/contracts/src/v0.7/Operator.sol\":2969:3075  function typeAndVersion() external pure virtual returns (string memory) {... */\n    tag_50:\n        /* \".deps/npm/@chainlink/contracts/src/v0.7/Operator.sol\":3026:3039  string memory */\n      0x60\n        /* \".deps/npm/@chainlink/contracts/src/v0.7/Operator.sol\":3047:3070  return \"Operator 1.0.0\" */\n      mload(0x40)\n      dup1\n      0x40\n      add\n      0x40\n      mstore\n      dup1\n      0x0e\n      dup2\n      mstore\n      0x20\n      add\n      0x4f70657261746f7220312e302e30000000000000000000000000000000000000\n      dup2\n      mstore\n      pop\n      swap1\n      pop\n        /* \".deps/npm/@chainlink/contracts/src/v0.7/Operator.sol\":2969:3075  function typeAndVersion() external pure virtual returns (string memory) {... */\n      swap1\n      jump\t// out\n        /* \".deps/npm/@chainlink/contracts/src/v0.7/AuthorizedReceiver.sol\":1395:1517  function getAuthorizedSenders() external view override returns (address[] memory) {... */\n    tag_57:\n        /* \".deps/npm/@chainlink/contracts/src/v0.7/AuthorizedReceiver.sol\":1459:1475  address[] memory */\n      0x60\n        /* \".deps/npm/@chainlink/contracts/src/v0.7/AuthorizedReceiver.sol\":1490:1512  s_authorizedSenderList */\n      0x01\n        /* \".deps/npm/@chainlink/contracts/src/v0.7/AuthorizedReceiver.sol\":1483:1512  return s_authorizedSenderList */\n      dup1\n      sload\n      dup1\n      0x20\n      mul\n      0x20\n      add\n      mload(0x40)\n      swap1\n      dup2\n      add\n      0x40\n      mstore\n      dup1\n      swap3\n      swap2\n      swap1\n      dup2\n      dup2\n      mstore\n      0x20\n      add\n      dup3\n      dup1\n      sload\n      dup1\n      iszero\n      tag_205\n      jumpi\n      0x20\n      mul\n      dup3\n      add\n      swap2\n      swap1\n      0x00\n      mstore\n      keccak256(0x00, 0x20)\n      swap1\n    tag_206:\n      dup2\n      0x00\n      swap1\n      sload\n      swap1\n      0x0100\n      exp\n      swap1\n      div\n      0xffffffffffffffffffffffffffffffffffffffff\n      and\n      0xffffffffffffffffffffffffffffffffffffffff\n      and\n      dup2\n      mstore\n      0x20\n      add\n      swap1\n      0x01\n      add\n      swap1\n      dup1\n      dup4\n      gt\n      tag_206\n      jumpi\n    tag_205:\n      pop\n      pop\n      pop\n      pop\n      pop\n      swap1\n      pop\n        /* \".deps/npm/@chainlink/contracts/src/v0.7/AuthorizedReceiver.sol\":1395:1517  function getAuthorizedSenders() external view override returns (address[] memory) {... */\n      swap1\n      jump\t// out\n        /* \".deps/npm/@chainlink/contracts/src/v0.7/Operator.sol\":808:857  uint256 public constant getExpiryTime = 5 minutes */\n    tag_63:\n        /* \".deps/npm/@chainlink/contracts/src/v0.7/Operator.sol\":848:857  5 minutes */\n      0x012c\n        /* \".deps/npm/@chainlink/contracts/src/v0.7/Operator.sol\":808:857  uint256 public constant getExpiryTime = 5 minutes */\n      dup2\n      jump\t// out\n        /* \".deps/npm/@chainlink/contracts/src/v0.7/Operator.sol\":4921:5455  function operatorRequest(... */\n    tag_70:\n        /* \".deps/npm/@chainlink/contracts/src/v0.7/LinkTokenReceiver.sol\":1455:1474  getChainlinkToken() */\n      tag_208\n        /* \".deps/npm/@chainlink/contracts/src/v0.7/LinkTokenReceiver.sol\":1455:1472  getChainlinkToken */\n      tag_47\n        /* \".deps/npm/@chainlink/contracts/src/v0.7/LinkTokenReceiver.sol\":1455:1474  getChainlinkToken() */\n      jump\t// in\n    tag_208:\n        /* \".deps/npm/@chainlink/contracts/src/v0.7/LinkTokenReceiver.sol\":1441:1474  msg.sender == getChainlinkToken() */\n      0xffffffffffffffffffffffffffffffffffffffff\n      and\n        /* \".deps/npm/@chainlink/contracts/src/v0.7/LinkTokenReceiver.sol\":1441:1451  msg.sender */\n      caller\n        /* \".deps/npm/@chainlink/contracts/src/v0.7/LinkTokenReceiver.sol\":1441:1474  msg.sender == getChainlinkToken() */\n      0xffffffffffffffffffffffffffffffffffffffff\n      and\n      eq\n        /* \".deps/npm/@chainlink/contracts/src/v0.7/LinkTokenReceiver.sol\":1433:1498  require(msg.sender == getChainlinkToken(), \"Must use LINK token\") */\n      tag_209\n      jumpi\n      mload(0x40)\n      0x08c379a000000000000000000000000000000000000000000000000000000000\n      dup2\n      mstore\n      0x04\n      add\n      dup1\n      dup1\n      0x20\n      add\n      dup3\n      dup2\n      sub\n      dup3\n      mstore\n      0x13\n      dup2\n      mstore\n      0x20\n      add\n      dup1\n      0x4d75737420757365204c494e4b20746f6b656e00000000000000000000000000\n      dup2\n      mstore\n      pop\n      0x20\n      add\n      swap2\n      pop\n      pop\n      mload(0x40)\n      dup1\n      swap2\n      sub\n      swap1\n      revert\n    tag_209:\n        /* \".deps/npm/@chainlink/contracts/src/v0.7/Operator.sol\":5153:5170  bytes32 requestId */\n      0x00\n        /* \".deps/npm/@chainlink/contracts/src/v0.7/Operator.sol\":5172:5190  uint256 expiration */\n      dup1\n        /* \".deps/npm/@chainlink/contracts/src/v0.7/Operator.sol\":5194:5331  _verifyAndProcessOracleRequest(... */\n      tag_211\n        /* \".deps/npm/@chainlink/contracts/src/v0.7/Operator.sol\":5232:5238  sender */\n      dup11\n        /* \".deps/npm/@chainlink/contracts/src/v0.7/Operator.sol\":5246:5253  payment */\n      dup11\n        /* \".deps/npm/@chainlink/contracts/src/v0.7/Operator.sol\":5261:5267  sender */\n      dup13\n        /* \".deps/npm/@chainlink/contracts/src/v0.7/Operator.sol\":5275:5293  callbackFunctionId */\n      dup11\n        /* \".deps/npm/@chainlink/contracts/src/v0.7/Operator.sol\":5301:5306  nonce */\n      dup11\n        /* \".deps/npm/@chainlink/contracts/src/v0.7/Operator.sol\":5314:5325  dataVersion */\n      dup11\n        /* \".deps/npm/@chainlink/contracts/src/v0.7/Operator.sol\":5194:5224  _verifyAndProcessOracleRequest */\n      tag_212\n        /* \".deps/npm/@chainlink/contracts/src/v0.7/Operator.sol\":5194:5331  _verifyAndProcessOracleRequest(... */\n      jump\t// in\n    tag_211:\n        /* \".deps/npm/@chainlink/contracts/src/v0.7/Operator.sol\":5152:5331  (bytes32 requestId, uint256 expiration) = _verifyAndProcessOracleRequest(... */\n      swap2\n      pop\n      swap2\n      pop\n        /* \".deps/npm/@chainlink/contracts/src/v0.7/Operator.sol\":5356:5362  specId */\n      dup8\n        /* \".deps/npm/@chainlink/contracts/src/v0.7/Operator.sol\":5342:5450  OracleRequest(specId, sender, requestId, payment, sender, callbackFunctionId, expiration, dataVersion, data) */\n      0xd8d7ecc4800d25fa53ce0372f13a416d98907a7ef3d8d3bdd79cf4fe75529c65\n        /* \".deps/npm/@chainlink/contracts/src/v0.7/Operator.sol\":5364:5370  sender */\n      dup12\n        /* \".deps/npm/@chainlink/contracts/src/v0.7/Operator.sol\":5372:5381  requestId */\n      dup5\n        /* \".deps/npm/@chainlink/contracts/src/v0.7/Operator.sol\":5383:5390  payment */\n      dup13\n        /* \".deps/npm/@chainlink/contracts/src/v0.7/Operator.sol\":5392:5398  sender */\n      dup15\n        /* \".deps/npm/@chainlink/contracts/src/v0.7/Operator.sol\":5400:5418  callbackFunctionId */\n      dup13\n        /* \".deps/npm/@chainlink/contracts/src/v0.7/Operator.sol\":5420:5430  expiration */\n      dup8\n        /* \".deps/npm/@chainlink/contracts/src/v0.7/Operator.sol\":5432:5443  dataVersion */\n      dup13\n        /* \".deps/npm/@chainlink/contracts/src/v0.7/Operator.sol\":5445:5449  data */\n      dup13\n      dup13\n        /* \".deps/npm/@chainlink/contracts/src/v0.7/Operator.sol\":5342:5450  OracleRequest(specId, sender, requestId, payment, sender, callbackFunctionId, expiration, dataVersion, data) */\n      mload(0x40)\n      dup1\n      dup11\n      0xffffffffffffffffffffffffffffffffffffffff\n      and\n      dup2\n      mstore\n      0x20\n      add\n      dup10\n      dup2\n      mstore\n      0x20\n      add\n      dup9\n      dup2\n      mstore\n      0x20\n      add\n      dup8\n      0xffffffffffffffffffffffffffffffffffffffff\n      and\n      dup2\n      mstore\n      0x20\n      add\n      dup7\n      not(0xffffffffffffffffffffffffffffffffffffffffffffffffffffffff)\n      and\n      dup2\n      mstore\n      0x20\n      add\n      dup6\n      dup2\n      mstore\n      0x20\n      add\n      dup5\n      dup2\n      mstore\n      0x20\n      add\n      dup1\n      0x20\n      add\n      dup3\n      dup2\n      sub\n      dup3\n      mstore\n      dup5\n      dup5\n      dup3\n      dup2\n      dup2\n      mstore\n      0x20\n      add\n      swap3\n      pop\n      dup1\n      dup3\n      dup5\n      calldatacopy\n      0x00\n      dup2\n      dup5\n      add\n      mstore\n      not(0x1f)\n      0x1f\n      dup3\n      add\n      and\n      swap1\n      pop\n      dup1\n      dup4\n      add\n      swap3\n      pop\n      pop\n      pop\n      swap11\n      pop\n      pop\n      pop\n      pop\n      pop\n      pop\n      pop\n      pop\n      pop\n      pop\n      pop\n      mload(0x40)\n      dup1\n      swap2\n      sub\n      swap1\n      log2\n        /* \".deps/npm/@chainlink/contracts/src/v0.7/LinkTokenReceiver.sol\":1504:1505  _ */\n      pop\n      pop\n        /* \".deps/npm/@chainlink/contracts/src/v0.7/Operator.sol\":4921:5455  function operatorRequest(... */\n      pop\n      pop\n      pop\n      pop\n      pop\n      pop\n      pop\n      pop\n      jump\t// out\n        /* \".deps/npm/@chainlink/contracts/src/v0.7/Operator.sol\":9548:9808  function transferOwnableContracts(address[] calldata ownable, address newOwner) external onlyOwner {... */\n    tag_77:\n        /* \".deps/npm/@chainlink/contracts/src/v0.7/ConfirmedOwnerWithProposal.sol\":1956:1976  _validateOwnership() */\n      tag_214\n        /* \".deps/npm/@chainlink/contracts/src/v0.7/ConfirmedOwnerWithProposal.sol\":1956:1974  _validateOwnership */\n      tag_191\n        /* \".deps/npm/@chainlink/contracts/src/v0.7/ConfirmedOwnerWithProposal.sol\":1956:1976  _validateOwnership() */\n      jump\t// in\n    tag_214:\n        /* \".deps/npm/@chainlink/contracts/src/v0.7/Operator.sol\":9658:9667  uint256 i */\n      0x00\n        /* \".deps/npm/@chainlink/contracts/src/v0.7/Operator.sol\":9653:9804  for (uint256 i = 0; i < ownable.length; i++) {... */\n    tag_216:\n        /* \".deps/npm/@chainlink/contracts/src/v0.7/Operator.sol\":9677:9684  ownable */\n      dup4\n      dup4\n        /* \".deps/npm/@chainlink/contracts/src/v0.7/Operator.sol\":9677:9691  ownable.length */\n      swap1\n      pop\n        /* \".deps/npm/@chainlink/contracts/src/v0.7/Operator.sol\":9673:9674  i */\n      dup2\n        /* \".deps/npm/@chainlink/contracts/src/v0.7/Operator.sol\":9673:9691  i < ownable.length */\n      lt\n        /* \".deps/npm/@chainlink/contracts/src/v0.7/Operator.sol\":9653:9804  for (uint256 i = 0; i < ownable.length; i++) {... */\n      iszero\n      tag_217\n      jumpi\n        /* \".deps/npm/@chainlink/contracts/src/v0.7/Operator.sol\":9728:9733  false */\n      0x00\n        /* \".deps/npm/@chainlink/contracts/src/v0.7/Operator.sol\":9706:9713  s_owned */\n      0x05\n        /* \".deps/npm/@chainlink/contracts/src/v0.7/Operator.sol\":9706:9725  s_owned[ownable[i]] */\n      0x00\n        /* \".deps/npm/@chainlink/contracts/src/v0.7/Operator.sol\":9714:9721  ownable */\n      dup7\n      dup7\n        /* \".deps/npm/@chainlink/contracts/src/v0.7/Operator.sol\":9722:9723  i */\n      dup6\n        /* \".deps/npm/@chainlink/contracts/src/v0.7/Operator.sol\":9714:9724  ownable[i] */\n      dup2\n      dup2\n      lt\n      tag_219\n      jumpi\n      invalid\n    tag_219:\n      swap1\n      pop\n      0x20\n      mul\n      add\n      calldataload\n      0xffffffffffffffffffffffffffffffffffffffff\n      and\n        /* \".deps/npm/@chainlink/contracts/src/v0.7/Operator.sol\":9706:9725  s_owned[ownable[i]] */\n      0xffffffffffffffffffffffffffffffffffffffff\n      and\n      0xffffffffffffffffffffffffffffffffffffffff\n      and\n      dup2\n      mstore\n      0x20\n      add\n      swap1\n      dup2\n      mstore\n      0x20\n      add\n      0x00\n      keccak256\n      0x00\n        /* \".deps/npm/@chainlink/contracts/src/v0.7/Operator.sol\":9706:9733  s_owned[ownable[i]] = false */\n      0x0100\n      exp\n      dup2\n      sload\n      dup2\n      0xff\n      mul\n      not\n      and\n      swap1\n      dup4\n      iszero\n      iszero\n      mul\n      or\n      swap1\n      sstore\n      pop\n        /* \".deps/npm/@chainlink/contracts/src/v0.7/Operator.sol\":9758:9765  ownable */\n      dup4\n      dup4\n        /* \".deps/npm/@chainlink/contracts/src/v0.7/Operator.sol\":9766:9767  i */\n      dup3\n        /* \".deps/npm/@chainlink/contracts/src/v0.7/Operator.sol\":9758:9768  ownable[i] */\n      dup2\n      dup2\n      lt\n      tag_220\n      jumpi\n      invalid\n    tag_220:\n      swap1\n      pop\n      0x20\n      mul\n      add\n      calldataload\n      0xffffffffffffffffffffffffffffffffffffffff\n      and\n        /* \".deps/npm/@chainlink/contracts/src/v0.7/Operator.sol\":9741:9787  OwnableInterface(ownable[i]).transferOwnership */\n      0xffffffffffffffffffffffffffffffffffffffff\n      and\n      0xf2fde38b\n        /* \".deps/npm/@chainlink/contracts/src/v0.7/Operator.sol\":9788:9796  newOwner */\n      dup4\n        /* \".deps/npm/@chainlink/contracts/src/v0.7/Operator.sol\":9741:9797  OwnableInterface(ownable[i]).transferOwnership(newOwner) */\n      mload(0x40)\n      dup3\n      0xffffffff\n      and\n      0xe0\n      shl\n      dup2\n      mstore\n      0x04\n      add\n      dup1\n      dup3\n      0xffffffffffffffffffffffffffffffffffffffff\n      and\n      dup2\n      mstore\n      0x20\n      add\n      swap2\n      pop\n      pop\n      0x00\n      mload(0x40)\n      dup1\n      dup4\n      sub\n      dup2\n      0x00\n      dup8\n      dup1\n      extcodesize\n      iszero\n      dup1\n      iszero\n      tag_221\n      jumpi\n      0x00\n      dup1\n      revert\n    tag_221:\n      pop\n      gas\n      call\n      iszero\n      dup1\n      iszero\n      tag_223\n      jumpi\n      returndatasize\n      0x00\n      dup1\n      returndatacopy\n      revert(0x00, returndatasize)\n    tag_223:\n      pop\n      pop\n      pop\n      pop\n        /* \".deps/npm/@chainlink/contracts/src/v0.7/Operator.sol\":9693:9696  i++ */\n      dup1\n      dup1\n      0x01\n      add\n      swap2\n      pop\n      pop\n        /* \".deps/npm/@chainlink/contracts/src/v0.7/Operator.sol\":9653:9804  for (uint256 i = 0; i < ownable.length; i++) {... */\n      jump(tag_216)\n    tag_217:\n      pop\n        /* \".deps/npm/@chainlink/contracts/src/v0.7/Operator.sol\":9548:9808  function transferOwnableContracts(address[] calldata ownable, address newOwner) external onlyOwner {... */\n      pop\n      pop\n      pop\n      jump\t// out\n        /* \".deps/npm/@chainlink/contracts/src/v0.7/Operator.sol\":3767:4337  function oracleRequest(... */\n    tag_84:\n        /* \".deps/npm/@chainlink/contracts/src/v0.7/LinkTokenReceiver.sol\":1455:1474  getChainlinkToken() */\n      tag_225\n        /* \".deps/npm/@chainlink/contracts/src/v0.7/LinkTokenReceiver.sol\":1455:1472  getChainlinkToken */\n      tag_47\n        /* \".deps/npm/@chainlink/contracts/src/v0.7/LinkTokenReceiver.sol\":1455:1474  getChainlinkToken() */\n      jump\t// in\n    tag_225:\n        /* \".deps/npm/@chainlink/contracts/src/v0.7/LinkTokenReceiver.sol\":1441:1474  msg.sender == getChainlinkToken() */\n      0xffffffffffffffffffffffffffffffffffffffff\n      and\n        /* \".deps/npm/@chainlink/contracts/src/v0.7/LinkTokenReceiver.sol\":1441:1451  msg.sender */\n      caller\n        /* \".deps/npm/@chainlink/contracts/src/v0.7/LinkTokenReceiver.sol\":1441:1474  msg.sender == getChainlinkToken() */\n      0xffffffffffffffffffffffffffffffffffffffff\n      and\n      eq\n        /* \".deps/npm/@chainlink/contracts/src/v0.7/LinkTokenReceiver.sol\":1433:1498  require(msg.sender == getChainlinkToken(), \"Must use LINK token\") */\n      tag_226\n      jumpi\n      mload(0x40)\n      0x08c379a000000000000000000000000000000000000000000000000000000000\n      dup2\n      mstore\n      0x04\n      add\n      dup1\n      dup1\n      0x20\n      add\n      dup3\n      dup2\n      sub\n      dup3\n      mstore\n      0x13\n      dup2\n      mstore\n      0x20\n      add\n      dup1\n      0x4d75737420757365204c494e4b20746f6b656e00000000000000000000000000\n      dup2\n      mstore\n      pop\n      0x20\n      add\n      swap2\n      pop\n      pop\n      mload(0x40)\n      dup1\n      swap2\n      sub\n      swap1\n      revert\n    tag_226:\n        /* \".deps/npm/@chainlink/contracts/src/v0.7/Operator.sol\":4026:4043  bytes32 requestId */\n      0x00\n        /* \".deps/npm/@chainlink/contracts/src/v0.7/Operator.sol\":4045:4063  uint256 expiration */\n      dup1\n        /* \".deps/npm/@chainlink/contracts/src/v0.7/Operator.sol\":4067:4213  _verifyAndProcessOracleRequest(... */\n      tag_228\n        /* \".deps/npm/@chainlink/contracts/src/v0.7/Operator.sol\":4105:4111  sender */\n      dup12\n        /* \".deps/npm/@chainlink/contracts/src/v0.7/Operator.sol\":4119:4126  payment */\n      dup12\n        /* \".deps/npm/@chainlink/contracts/src/v0.7/Operator.sol\":4134:4149  callbackAddress */\n      dup11\n        /* \".deps/npm/@chainlink/contracts/src/v0.7/Operator.sol\":4157:4175  callbackFunctionId */\n      dup11\n        /* \".deps/npm/@chainlink/contracts/src/v0.7/Operator.sol\":4183:4188  nonce */\n      dup11\n        /* \".deps/npm/@chainlink/contracts/src/v0.7/Operator.sol\":4196:4207  dataVersion */\n      dup11\n        /* \".deps/npm/@chainlink/contracts/src/v0.7/Operator.sol\":4067:4097  _verifyAndProcessOracleRequest */\n      tag_212\n        /* \".deps/npm/@chainlink/contracts/src/v0.7/Operator.sol\":4067:4213  _verifyAndProcessOracleRequest(... */\n      jump\t// in\n    tag_228:\n        /* \".deps/npm/@chainlink/contracts/src/v0.7/Operator.sol\":4025:4213  (bytes32 requestId, uint256 expiration) = _verifyAndProcessOracleRequest(... */\n      swap2\n      pop\n      swap2\n      pop\n        /* \".deps/npm/@chainlink/contracts/src/v0.7/Operator.sol\":4238:4244  specId */\n      dup9\n        /* \".deps/npm/@chainlink/contracts/src/v0.7/Operator.sol\":4224:4332  OracleRequest(specId, sender, requestId, payment, sender, callbackFunctionId, expiration, dataVersion, data) */\n      0xd8d7ecc4800d25fa53ce0372f13a416d98907a7ef3d8d3bdd79cf4fe75529c65\n        /* \".deps/npm/@chainlink/contracts/src/v0.7/Operator.sol\":4246:4252  sender */\n      dup13\n        /* \".deps/npm/@chainlink/contracts/src/v0.7/Operator.sol\":4254:4263  requestId */\n      dup5\n        /* \".deps/npm/@chainlink/contracts/src/v0.7/Operator.sol\":4265:4272  payment */\n      dup14\n        /* \".deps/npm/@chainlink/contracts/src/v0.7/Operator.sol\":4274:4280  sender */\n      dup16\n        /* \".deps/npm/@chainlink/contracts/src/v0.7/Operator.sol\":4282:4300  callbackFunctionId */\n      dup13\n        /* \".deps/npm/@chainlink/contracts/src/v0.7/Operator.sol\":4302:4312  expiration */\n      dup8\n        /* \".deps/npm/@chainlink/contracts/src/v0.7/Operator.sol\":4314:4325  dataVersion */\n      dup13\n        /* \".deps/npm/@chainlink/contracts/src/v0.7/Operator.sol\":4327:4331  data */\n      dup13\n      dup13\n        /* \".deps/npm/@chainlink/contracts/src/v0.7/Operator.sol\":4224:4332  OracleRequest(specId, sender, requestId, payment, sender, callbackFunctionId, expiration, dataVersion, data) */\n      mload(0x40)\n      dup1\n      dup11\n      0xffffffffffffffffffffffffffffffffffffffff\n      and\n      dup2\n      mstore\n      0x20\n      add\n      dup10\n      dup2\n      mstore\n      0x20\n      add\n      dup9\n      dup2\n      mstore\n      0x20\n      add\n      dup8\n      0xffffffffffffffffffffffffffffffffffffffff\n      and\n      dup2\n      mstore\n      0x20\n      add\n      dup7\n      not(0xffffffffffffffffffffffffffffffffffffffffffffffffffffffff)\n      and\n      dup2\n      mstore\n      0x20\n      add\n      dup6\n      dup2\n      mstore\n      0x20\n      add\n      dup5\n      dup2\n      mstore\n      0x20\n      add\n      dup1\n      0x20\n      add\n      dup3\n      dup2\n      sub\n      dup3\n      mstore\n      dup5\n      dup5\n      dup3\n      dup2\n      dup2\n      mstore\n      0x20\n      add\n      swap3\n      pop\n      dup1\n      dup3\n      dup5\n      calldatacopy\n      0x00\n      dup2\n      dup5\n      add\n      mstore\n      not(0x1f)\n      0x1f\n      dup3\n      add\n      and\n      swap1\n      pop\n      dup1\n      dup4\n      add\n      swap3\n      pop\n      pop\n      pop\n      swap11\n      pop\n      pop\n      pop\n      pop\n      pop\n      pop\n      pop\n      pop\n      pop\n      pop\n      pop\n      mload(0x40)\n      dup1\n      swap2\n      sub\n      swap1\n      log2\n        /* \".deps/npm/@chainlink/contracts/src/v0.7/LinkTokenReceiver.sol\":1504:1505  _ */\n      pop\n      pop\n        /* \".deps/npm/@chainlink/contracts/src/v0.7/Operator.sol\":3767:4337  function oracleRequest(... */\n      pop\n      pop\n      pop\n      pop\n      pop\n      pop\n      pop\n      pop\n      pop\n      jump\t// out\n        /* \".deps/npm/@chainlink/contracts/src/v0.7/Operator.sol\":6307:7318  function fulfillOracleRequest(... */\n    tag_88:\n        /* \".deps/npm/@chainlink/contracts/src/v0.7/Operator.sol\":6633:6637  bool */\n      0x00\n        /* \".deps/npm/@chainlink/contracts/src/v0.7/AuthorizedReceiver.sol\":2400:2429  _validateIsAuthorizedSender() */\n      tag_230\n        /* \".deps/npm/@chainlink/contracts/src/v0.7/AuthorizedReceiver.sol\":2400:2427  _validateIsAuthorizedSender */\n      tag_231\n        /* \".deps/npm/@chainlink/contracts/src/v0.7/AuthorizedReceiver.sol\":2400:2429  _validateIsAuthorizedSender() */\n      jump\t// in\n    tag_230:\n        /* \".deps/npm/@chainlink/contracts/src/v0.7/Operator.sol\":6564:6573  requestId */\n      dup7\n        /* \".deps/npm/@chainlink/contracts/src/v0.7/Operator.sol\":22574:22575  0 */\n      0x00\n        /* \".deps/npm/@chainlink/contracts/src/v0.7/Operator.sol\":22535:22575  s_commitments[requestId].paramsHash != 0 */\n      0x08\n      shl\n        /* \".deps/npm/@chainlink/contracts/src/v0.7/Operator.sol\":22535:22548  s_commitments */\n      0x04\n        /* \".deps/npm/@chainlink/contracts/src/v0.7/Operator.sol\":22535:22559  s_commitments[requestId] */\n      0x00\n        /* \".deps/npm/@chainlink/contracts/src/v0.7/Operator.sol\":22549:22558  requestId */\n      dup4\n        /* \".deps/npm/@chainlink/contracts/src/v0.7/Operator.sol\":22535:22559  s_commitments[requestId] */\n      dup2\n      mstore\n      0x20\n      add\n      swap1\n      dup2\n      mstore\n      0x20\n      add\n      0x00\n      keccak256\n        /* \".deps/npm/@chainlink/contracts/src/v0.7/Operator.sol\":22535:22570  s_commitments[requestId].paramsHash */\n      0x00\n      add\n      0x00\n      swap1\n      sload\n      swap1\n      0x0100\n      exp\n      swap1\n      div\n      0x08\n      shl\n        /* \".deps/npm/@chainlink/contracts/src/v0.7/Operator.sol\":22535:22575  s_commitments[requestId].paramsHash != 0 */\n      not(0xff)\n      and\n      eq\n      iszero\n        /* \".deps/npm/@chainlink/contracts/src/v0.7/Operator.sol\":22527:22607  require(s_commitments[requestId].paramsHash != 0, \"Must have a valid requestId\") */\n      tag_233\n      jumpi\n      mload(0x40)\n      0x08c379a000000000000000000000000000000000000000000000000000000000\n      dup2\n      mstore\n      0x04\n      add\n      dup1\n      dup1\n      0x20\n      add\n      dup3\n      dup2\n      sub\n      dup3\n      mstore\n      0x1b\n      dup2\n      mstore\n      0x20\n      add\n      dup1\n      0x4d757374206861766520612076616c6964207265717565737449640000000000\n      dup2\n      mstore\n      pop\n      0x20\n      add\n      swap2\n      pop\n      pop\n      mload(0x40)\n      dup1\n      swap2\n      sub\n      swap1\n      revert\n    tag_233:\n        /* \".deps/npm/@chainlink/contracts/src/v0.7/Operator.sol\":6603:6618  callbackAddress */\n      dup6\n        /* \".deps/npm/@chainlink/contracts/src/v0.7/Operator.sol\":22998:23005  s_owned */\n      0x05\n        /* \".deps/npm/@chainlink/contracts/src/v0.7/Operator.sol\":22998:23022  s_owned[callbackAddress] */\n      0x00\n        /* \".deps/npm/@chainlink/contracts/src/v0.7/Operator.sol\":23006:23021  callbackAddress */\n      dup3\n        /* \".deps/npm/@chainlink/contracts/src/v0.7/Operator.sol\":22998:23022  s_owned[callbackAddress] */\n      0xffffffffffffffffffffffffffffffffffffffff\n      and\n      0xffffffffffffffffffffffffffffffffffffffff\n      and\n      dup2\n      mstore\n      0x20\n      add\n      swap1\n      dup2\n      mstore\n      0x20\n      add\n      0x00\n      keccak256\n      0x00\n      swap1\n      sload\n      swap1\n      0x0100\n      exp\n      swap1\n      div\n      0xff\n      and\n        /* \".deps/npm/@chainlink/contracts/src/v0.7/Operator.sol\":22997:23022  !s_owned[callbackAddress] */\n      iszero\n        /* \".deps/npm/@chainlink/contracts/src/v0.7/Operator.sol\":22989:23053  require(!s_owned[callbackAddress], \"Cannot call owned contract\") */\n      tag_235\n      jumpi\n      mload(0x40)\n      0x08c379a000000000000000000000000000000000000000000000000000000000\n      dup2\n      mstore\n      0x04\n      add\n      dup1\n      dup1\n      0x20\n      add\n      dup3\n      dup2\n      sub\n      dup3\n      mstore\n      0x1a\n      dup2\n      mstore\n      0x20\n      add\n      dup1\n      0x43616e6e6f742063616c6c206f776e656420636f6e7472616374000000000000\n      dup2\n      mstore\n      pop\n      0x20\n      add\n      swap2\n      pop\n      pop\n      mload(0x40)\n      dup1\n      swap2\n      sub\n      swap1\n      revert\n    tag_235:\n        /* \".deps/npm/@chainlink/contracts/src/v0.7/Operator.sol\":6647:6756  _verifyOracleRequestAndProcessPayment(requestId, payment, callbackAddress, callbackFunctionId, expiration, 1) */\n      tag_237\n        /* \".deps/npm/@chainlink/contracts/src/v0.7/Operator.sol\":6685:6694  requestId */\n      dup10\n        /* \".deps/npm/@chainlink/contracts/src/v0.7/Operator.sol\":6696:6703  payment */\n      dup10\n        /* \".deps/npm/@chainlink/contracts/src/v0.7/Operator.sol\":6705:6720  callbackAddress */\n      dup10\n        /* \".deps/npm/@chainlink/contracts/src/v0.7/Operator.sol\":6722:6740  callbackFunctionId */\n      dup10\n        /* \".deps/npm/@chainlink/contracts/src/v0.7/Operator.sol\":6742:6752  expiration */\n      dup10\n        /* \".deps/npm/@chainlink/contracts/src/v0.7/Operator.sol\":6754:6755  1 */\n      0x01\n        /* \".deps/npm/@chainlink/contracts/src/v0.7/Operator.sol\":6647:6684  _verifyOracleRequestAndProcessPayment */\n      tag_238\n        /* \".deps/npm/@chainlink/contracts/src/v0.7/Operator.sol\":6647:6756  _verifyOracleRequestAndProcessPayment(requestId, payment, callbackAddress, callbackFunctionId, expiration, 1) */\n      jump\t// in\n    tag_237:\n        /* \".deps/npm/@chainlink/contracts/src/v0.7/Operator.sol\":6782:6791  requestId */\n      dup9\n        /* \".deps/npm/@chainlink/contracts/src/v0.7/Operator.sol\":6767:6792  OracleResponse(requestId) */\n      0x9e9bc7616d42c2835d05ae617e508454e63b30b934be8aa932ebc125e0e58a64\n      mload(0x40)\n      mload(0x40)\n      dup1\n      swap2\n      sub\n      swap1\n      log2\n        /* \".deps/npm/@chainlink/contracts/src/v0.7/Operator.sol\":970:976  400000 */\n      0x061a80\n        /* \".deps/npm/@chainlink/contracts/src/v0.7/Operator.sol\":6806:6815  gasleft() */\n      gas\n        /* \".deps/npm/@chainlink/contracts/src/v0.7/Operator.sol\":6806:6845  gasleft() >= MINIMUM_CONSUMER_GAS_LIMIT */\n      lt\n      iszero\n        /* \".deps/npm/@chainlink/contracts/src/v0.7/Operator.sol\":6798:6882  require(gasleft() >= MINIMUM_CONSUMER_GAS_LIMIT, \"Must provide consumer enough gas\") */\n      tag_239\n      jumpi\n      mload(0x40)\n      0x08c379a000000000000000000000000000000000000000000000000000000000\n      dup2\n      mstore\n      0x04\n      add\n      dup1\n      dup1\n      0x20\n      add\n      dup3\n      dup2\n      sub\n      dup3\n      mstore\n      0x20\n      dup2\n      mstore\n      0x20\n      add\n      dup1\n      0x4d7573742070726f7669646520636f6e73756d657220656e6f75676820676173\n      dup2\n      mstore\n      pop\n      0x20\n      add\n      swap2\n      pop\n      pop\n      mload(0x40)\n      dup1\n      swap2\n      sub\n      swap1\n      revert\n    tag_239:\n        /* \".deps/npm/@chainlink/contracts/src/v0.7/Operator.sol\":7148:7160  bool success */\n      0x00\n        /* \".deps/npm/@chainlink/contracts/src/v0.7/Operator.sol\":7166:7181  callbackAddress */\n      dup8\n        /* \".deps/npm/@chainlink/contracts/src/v0.7/Operator.sol\":7166:7186  callbackAddress.call */\n      0xffffffffffffffffffffffffffffffffffffffff\n      and\n        /* \".deps/npm/@chainlink/contracts/src/v0.7/Operator.sol\":7210:7228  callbackFunctionId */\n      dup8\n        /* \".deps/npm/@chainlink/contracts/src/v0.7/Operator.sol\":7230:7239  requestId */\n      dup12\n        /* \".deps/npm/@chainlink/contracts/src/v0.7/Operator.sol\":7241:7245  data */\n      dup8\n        /* \".deps/npm/@chainlink/contracts/src/v0.7/Operator.sol\":7187:7246  abi.encodeWithSelector(callbackFunctionId, requestId, data) */\n      add(0x24, mload(0x40))\n      dup1\n      dup4\n      dup2\n      mstore\n      0x20\n      add\n      dup3\n      dup2\n      mstore\n      0x20\n      add\n      swap3\n      pop\n      pop\n      pop\n      mload(0x40)\n      0x20\n      dup2\n      dup4\n      sub\n      sub\n      dup2\n      mstore\n      swap1\n      0x40\n      mstore\n      swap1\n      not(0xffffffffffffffffffffffffffffffffffffffffffffffffffffffff)\n      and\n      0x20\n      dup3\n      add\n      dup1\n      mload\n      0xffffffffffffffffffffffffffffffffffffffffffffffffffffffff\n      dup4\n      dup2\n      dup4\n      and\n      or\n      dup4\n      mstore\n      pop\n      pop\n      pop\n      pop\n        /* \".deps/npm/@chainlink/contracts/src/v0.7/Operator.sol\":7166:7247  callbackAddress.call(abi.encodeWithSelector(callbackFunctionId, requestId, data)) */\n      mload(0x40)\n      dup1\n      dup3\n      dup1\n      mload\n      swap1\n      0x20\n      add\n      swap1\n      dup1\n      dup4\n      dup4\n    tag_240:\n      0x20\n      dup4\n      lt\n      tag_242\n      jumpi\n      dup1\n      mload\n      dup3\n      mstore\n      0x20\n      dup3\n      add\n      swap2\n      pop\n      0x20\n      dup2\n      add\n      swap1\n      pop\n      0x20\n      dup4\n      sub\n      swap3\n      pop\n      jump(tag_240)\n    tag_242:\n      0x01\n      dup4\n      0x20\n      sub\n      0x0100\n      exp\n      sub\n      dup1\n      not\n      dup3\n      mload\n      and\n      dup2\n      dup5\n      mload\n      and\n      dup1\n      dup3\n      or\n      dup6\n      mstore\n      pop\n      pop\n      pop\n      pop\n      pop\n      pop\n      swap1\n      pop\n      add\n      swap2\n      pop\n      pop\n      0x00\n      mload(0x40)\n      dup1\n      dup4\n      sub\n      dup2\n      0x00\n      dup7\n      gas\n      call\n      swap2\n      pop\n      pop\n      returndatasize\n      dup1\n      0x00\n      dup2\n      eq\n      tag_245\n      jumpi\n      mload(0x40)\n      swap2\n      pop\n      and(add(returndatasize, 0x3f), not(0x1f))\n      dup3\n      add\n      0x40\n      mstore\n      returndatasize\n      dup3\n      mstore\n      returndatasize\n      0x00\n      0x20\n      dup5\n      add\n      returndatacopy\n      jump(tag_244)\n    tag_245:\n      0x60\n      swap2\n      pop\n    tag_244:\n      pop\n        /* \".deps/npm/@chainlink/contracts/src/v0.7/Operator.sol\":7147:7247  (bool success, ) = callbackAddress.call(abi.encodeWithSelector(callbackFunctionId, requestId, data)) */\n      pop\n      swap1\n      pop\n        /* \".deps/npm/@chainlink/contracts/src/v0.7/Operator.sol\":7306:7313  success */\n      dup1\n        /* \".deps/npm/@chainlink/contracts/src/v0.7/Operator.sol\":7299:7313  return success */\n      swap4\n      pop\n      pop\n        /* \".deps/npm/@chainlink/contracts/src/v0.7/Operator.sol\":22613:22614  _ */\n      pop\n        /* \".deps/npm/@chainlink/contracts/src/v0.7/AuthorizedReceiver.sol\":2435:2436  _ */\n      pop\n        /* \".deps/npm/@chainlink/contracts/src/v0.7/Operator.sol\":6307:7318  function fulfillOracleRequest(... */\n      swap7\n      swap6\n      pop\n      pop\n      pop\n      pop\n      pop\n      pop\n      jump\t// out\n        /* \".deps/npm/@chainlink/contracts/src/v0.7/Operator.sol\":12375:12513  function withdrawable() external view override(OracleInterface, WithdrawalInterface) returns (uint256) {... */\n    tag_91:\n        /* \".deps/npm/@chainlink/contracts/src/v0.7/Operator.sol\":12469:12476  uint256 */\n      0x00\n        /* \".deps/npm/@chainlink/contracts/src/v0.7/Operator.sol\":12491:12508  _fundsAvailable() */\n      tag_247\n        /* \".deps/npm/@chainlink/contracts/src/v0.7/Operator.sol\":12491:12506  _fundsAvailable */\n      tag_248\n        /* \".deps/npm/@chainlink/contracts/src/v0.7/Operator.sol\":12491:12508  _fundsAvailable() */\n      jump\t// in\n    tag_247:\n        /* \".deps/npm/@chainlink/contracts/src/v0.7/Operator.sol\":12484:12508  return _fundsAvailable() */\n      swap1\n      pop\n        /* \".deps/npm/@chainlink/contracts/src/v0.7/Operator.sol\":12375:12513  function withdrawable() external view override(OracleInterface, WithdrawalInterface) returns (uint256) {... */\n      swap1\n      jump\t// out\n        /* \".deps/npm/@chainlink/contracts/src/v0.7/Operator.sol\":11367:11596  function acceptAuthorizedReceivers(address[] calldata targets, address[] calldata senders)... */\n    tag_101:\n        /* \".deps/npm/@chainlink/contracts/src/v0.7/AuthorizedReceiver.sol\":2585:2611  _canSetAuthorizedSenders() */\n      tag_250\n        /* \".deps/npm/@chainlink/contracts/src/v0.7/AuthorizedReceiver.sol\":2585:2609  _canSetAuthorizedSenders */\n      tag_177\n        /* \".deps/npm/@chainlink/contracts/src/v0.7/AuthorizedReceiver.sol\":2585:2611  _canSetAuthorizedSenders() */\n      jump\t// in\n    tag_250:\n        /* \".deps/npm/@chainlink/contracts/src/v0.7/AuthorizedReceiver.sol\":2577:2645  require(_canSetAuthorizedSenders(), \"Cannot set authorized senders\") */\n      tag_251\n      jumpi\n      mload(0x40)\n      0x08c379a000000000000000000000000000000000000000000000000000000000\n      dup2\n      mstore\n      0x04\n      add\n      dup1\n      dup1\n      0x20\n      add\n      dup3\n      dup2\n      sub\n      dup3\n      mstore\n      0x1d\n      dup2\n      mstore\n      0x20\n      add\n      dup1\n      0x43616e6e6f742073657420617574686f72697a65642073656e64657273000000\n      dup2\n      mstore\n      pop\n      0x20\n      add\n      swap2\n      pop\n      pop\n      mload(0x40)\n      dup1\n      swap2\n      sub\n      swap1\n      revert\n    tag_251:\n        /* \".deps/npm/@chainlink/contracts/src/v0.7/Operator.sol\":11514:11545  acceptOwnableContracts(targets) */\n      tag_253\n        /* \".deps/npm/@chainlink/contracts/src/v0.7/Operator.sol\":11537:11544  targets */\n      dup5\n      dup5\n        /* \".deps/npm/@chainlink/contracts/src/v0.7/Operator.sol\":11514:11536  acceptOwnableContracts */\n      tag_37\n        /* \".deps/npm/@chainlink/contracts/src/v0.7/Operator.sol\":11514:11545  acceptOwnableContracts(targets) */\n      jump\t// in\n    tag_253:\n        /* \".deps/npm/@chainlink/contracts/src/v0.7/Operator.sol\":11551:11591  setAuthorizedSendersOn(targets, senders) */\n      tag_254\n        /* \".deps/npm/@chainlink/contracts/src/v0.7/Operator.sol\":11574:11581  targets */\n      dup5\n      dup5\n        /* \".deps/npm/@chainlink/contracts/src/v0.7/Operator.sol\":11583:11590  senders */\n      dup5\n      dup5\n        /* \".deps/npm/@chainlink/contracts/src/v0.7/Operator.sol\":11551:11573  setAuthorizedSendersOn */\n      tag_174\n        /* \".deps/npm/@chainlink/contracts/src/v0.7/Operator.sol\":11551:11591  setAuthorizedSendersOn(targets, senders) */\n      jump\t// in\n    tag_254:\n        /* \".deps/npm/@chainlink/contracts/src/v0.7/Operator.sol\":11367:11596  function acceptAuthorizedReceivers(address[] calldata targets, address[] calldata senders)... */\n      pop\n      pop\n      pop\n      pop\n      jump\t// out\n        /* \".deps/npm/@chainlink/contracts/src/v0.7/Operator.sol\":8194:9245  function fulfillOracleRequest2(... */\n    tag_108:\n        /* \".deps/npm/@chainlink/contracts/src/v0.7/Operator.sol\":8577:8581  bool */\n      0x00\n        /* \".deps/npm/@chainlink/contracts/src/v0.7/AuthorizedReceiver.sol\":2400:2429  _validateIsAuthorizedSender() */\n      tag_256\n        /* \".deps/npm/@chainlink/contracts/src/v0.7/AuthorizedReceiver.sol\":2400:2427  _validateIsAuthorizedSender */\n      tag_231\n        /* \".deps/npm/@chainlink/contracts/src/v0.7/AuthorizedReceiver.sol\":2400:2429  _validateIsAuthorizedSender() */\n      jump\t// in\n    tag_256:\n        /* \".deps/npm/@chainlink/contracts/src/v0.7/Operator.sol\":8459:8468  requestId */\n      dup8\n        /* \".deps/npm/@chainlink/contracts/src/v0.7/Operator.sol\":22574:22575  0 */\n      0x00\n        /* \".deps/npm/@chainlink/contracts/src/v0.7/Operator.sol\":22535:22575  s_commitments[requestId].paramsHash != 0 */\n      0x08\n      shl\n        /* \".deps/npm/@chainlink/contracts/src/v0.7/Operator.sol\":22535:22548  s_commitments */\n      0x04\n        /* \".deps/npm/@chainlink/contracts/src/v0.7/Operator.sol\":22535:22559  s_commitments[requestId] */\n      0x00\n        /* \".deps/npm/@chainlink/contracts/src/v0.7/Operator.sol\":22549:22558  requestId */\n      dup4\n        /* \".deps/npm/@chainlink/contracts/src/v0.7/Operator.sol\":22535:22559  s_commitments[requestId] */\n      dup2\n      mstore\n      0x20\n      add\n      swap1\n      dup2\n      mstore\n      0x20\n      add\n      0x00\n      keccak256\n        /* \".deps/npm/@chainlink/contracts/src/v0.7/Operator.sol\":22535:22570  s_commitments[requestId].paramsHash */\n      0x00\n      add\n      0x00\n      swap1\n      sload\n      swap1\n      0x0100\n      exp\n      swap1\n      div\n      0x08\n      shl\n        /* \".deps/npm/@chainlink/contracts/src/v0.7/Operator.sol\":22535:22575  s_commitments[requestId].paramsHash != 0 */\n      not(0xff)\n      and\n      eq\n      iszero\n        /* \".deps/npm/@chainlink/contracts/src/v0.7/Operator.sol\":22527:22607  require(s_commitments[requestId].paramsHash != 0, \"Must have a valid requestId\") */\n      tag_258\n      jumpi\n      mload(0x40)\n      0x08c379a000000000000000000000000000000000000000000000000000000000\n      dup2\n      mstore\n      0x04\n      add\n      dup1\n      dup1\n      0x20\n      add\n      dup3\n      dup2\n      sub\n      dup3\n      mstore\n      0x1b\n      dup2\n      mstore\n      0x20\n      add\n      dup1\n      0x4d757374206861766520612076616c6964207265717565737449640000000000\n      dup2\n      mstore\n      pop\n      0x20\n      add\n      swap2\n      pop\n      pop\n      mload(0x40)\n      dup1\n      swap2\n      sub\n      swap1\n      revert\n    tag_258:\n        /* \".deps/npm/@chainlink/contracts/src/v0.7/Operator.sol\":8498:8513  callbackAddress */\n      dup7\n        /* \".deps/npm/@chainlink/contracts/src/v0.7/Operator.sol\":22998:23005  s_owned */\n      0x05\n        /* \".deps/npm/@chainlink/contracts/src/v0.7/Operator.sol\":22998:23022  s_owned[callbackAddress] */\n      0x00\n        /* \".deps/npm/@chainlink/contracts/src/v0.7/Operator.sol\":23006:23021  callbackAddress */\n      dup3\n        /* \".deps/npm/@chainlink/contracts/src/v0.7/Operator.sol\":22998:23022  s_owned[callbackAddress] */\n      0xffffffffffffffffffffffffffffffffffffffff\n      and\n      0xffffffffffffffffffffffffffffffffffffffff\n      and\n      dup2\n      mstore\n      0x20\n      add\n      swap1\n      dup2\n      mstore\n      0x20\n      add\n      0x00\n      keccak256\n      0x00\n      swap1\n      sload\n      swap1\n      0x0100\n      exp\n      swap1\n      div\n      0xff\n      and\n        /* \".deps/npm/@chainlink/contracts/src/v0.7/Operator.sol\":22997:23022  !s_owned[callbackAddress] */\n      iszero\n        /* \".deps/npm/@chainlink/contracts/src/v0.7/Operator.sol\":22989:23053  require(!s_owned[callbackAddress], \"Cannot call owned contract\") */\n      tag_260\n      jumpi\n      mload(0x40)\n      0x08c379a000000000000000000000000000000000000000000000000000000000\n      dup2\n      mstore\n      0x04\n      add\n      dup1\n      dup1\n      0x20\n      add\n      dup3\n      dup2\n      sub\n      dup3\n      mstore\n      0x1a\n      dup2\n      mstore\n      0x20\n      add\n      dup1\n      0x43616e6e6f742063616c6c206f776e656420636f6e7472616374000000000000\n      dup2\n      mstore\n      pop\n      0x20\n      add\n      swap2\n      pop\n      pop\n      mload(0x40)\n      dup1\n      swap2\n      sub\n      swap1\n      revert\n    tag_260:\n        /* \".deps/npm/@chainlink/contracts/src/v0.7/Operator.sol\":8547:8556  requestId */\n      dup10\n        /* \".deps/npm/@chainlink/contracts/src/v0.7/Operator.sol\":8558:8562  data */\n      dup6\n      dup6\n        /* \".deps/npm/@chainlink/contracts/src/v0.7/Operator.sol\":21797:21799  32 */\n      0x20\n        /* \".deps/npm/@chainlink/contracts/src/v0.7/Operator.sol\":21782:21786  data */\n      dup3\n      dup3\n        /* \".deps/npm/@chainlink/contracts/src/v0.7/Operator.sol\":21782:21793  data.length */\n      swap1\n      pop\n        /* \".deps/npm/@chainlink/contracts/src/v0.7/Operator.sol\":21782:21799  data.length >= 32 */\n      lt\n      iszero\n        /* \".deps/npm/@chainlink/contracts/src/v0.7/Operator.sol\":21774:21831  require(data.length >= 32, \"Response must be > 32 bytes\") */\n      tag_262\n      jumpi\n      mload(0x40)\n      0x08c379a000000000000000000000000000000000000000000000000000000000\n      dup2\n      mstore\n      0x04\n      add\n      dup1\n      dup1\n      0x20\n      add\n      dup3\n      dup2\n      sub\n      dup3\n      mstore\n      0x1b\n      dup2\n      mstore\n      0x20\n      add\n      dup1\n      0x526573706f6e7365206d757374206265203e2033322062797465730000000000\n      dup2\n      mstore\n      pop\n      0x20\n      add\n      swap2\n      pop\n      pop\n      mload(0x40)\n      dup1\n      swap2\n      sub\n      swap1\n      revert\n    tag_262:\n        /* \".deps/npm/@chainlink/contracts/src/v0.7/Operator.sol\":21837:21858  bytes32 firstDataWord */\n      0x00\n        /* \".deps/npm/@chainlink/contracts/src/v0.7/Operator.sol\":21911:21922  data.offset */\n      dup3\n        /* \".deps/npm/@chainlink/contracts/src/v0.7/Operator.sol\":21898:21923  calldataload(data.offset) */\n      calldataload\n        /* \".deps/npm/@chainlink/contracts/src/v0.7/Operator.sol\":21881:21923  firstDataWord := calldataload(data.offset) */\n      swap1\n      pop\n        /* \".deps/npm/@chainlink/contracts/src/v0.7/Operator.sol\":21955:21968  firstDataWord */\n      dup1\n        /* \".deps/npm/@chainlink/contracts/src/v0.7/Operator.sol\":21942:21951  requestId */\n      dup5\n        /* \".deps/npm/@chainlink/contracts/src/v0.7/Operator.sol\":21942:21968  requestId == firstDataWord */\n      eq\n        /* \".deps/npm/@chainlink/contracts/src/v0.7/Operator.sol\":21934:22001  require(requestId == firstDataWord, \"First word must be requestId\") */\n      tag_263\n      jumpi\n      mload(0x40)\n      0x08c379a000000000000000000000000000000000000000000000000000000000\n      dup2\n      mstore\n      0x04\n      add\n      dup1\n      dup1\n      0x20\n      add\n      dup3\n      dup2\n      sub\n      dup3\n      mstore\n      0x1c\n      dup2\n      mstore\n      0x20\n      add\n      dup1\n      0x466972737420776f7264206d7573742062652072657175657374496400000000\n      dup2\n      mstore\n      pop\n      0x20\n      add\n      swap2\n      pop\n      pop\n      mload(0x40)\n      dup1\n      swap2\n      sub\n      swap1\n      revert\n    tag_263:\n        /* \".deps/npm/@chainlink/contracts/src/v0.7/Operator.sol\":8591:8700  _verifyOracleRequestAndProcessPayment(requestId, payment, callbackAddress, callbackFunctionId, expiration, 2) */\n      tag_265\n        /* \".deps/npm/@chainlink/contracts/src/v0.7/Operator.sol\":8629:8638  requestId */\n      dup15\n        /* \".deps/npm/@chainlink/contracts/src/v0.7/Operator.sol\":8640:8647  payment */\n      dup15\n        /* \".deps/npm/@chainlink/contracts/src/v0.7/Operator.sol\":8649:8664  callbackAddress */\n      dup15\n        /* \".deps/npm/@chainlink/contracts/src/v0.7/Operator.sol\":8666:8684  callbackFunctionId */\n      dup15\n        /* \".deps/npm/@chainlink/contracts/src/v0.7/Operator.sol\":8686:8696  expiration */\n      dup15\n        /* \".deps/npm/@chainlink/contracts/src/v0.7/Operator.sol\":8698:8699  2 */\n      0x02\n        /* \".deps/npm/@chainlink/contracts/src/v0.7/Operator.sol\":8591:8628  _verifyOracleRequestAndProcessPayment */\n      tag_238\n        /* \".deps/npm/@chainlink/contracts/src/v0.7/Operator.sol\":8591:8700  _verifyOracleRequestAndProcessPayment(requestId, payment, callbackAddress, callbackFunctionId, expiration, 2) */\n      jump\t// in\n    tag_265:\n        /* \".deps/npm/@chainlink/contracts/src/v0.7/Operator.sol\":8726:8735  requestId */\n      dup14\n        /* \".deps/npm/@chainlink/contracts/src/v0.7/Operator.sol\":8711:8736  OracleResponse(requestId) */\n      0x9e9bc7616d42c2835d05ae617e508454e63b30b934be8aa932ebc125e0e58a64\n      mload(0x40)\n      mload(0x40)\n      dup1\n      swap2\n      sub\n      swap1\n      log2\n        /* \".deps/npm/@chainlink/contracts/src/v0.7/Operator.sol\":970:976  400000 */\n      0x061a80\n        /* \".deps/npm/@chainlink/contracts/src/v0.7/Operator.sol\":8750:8759  gasleft() */\n      gas\n        /* \".deps/npm/@chainlink/contracts/src/v0.7/Operator.sol\":8750:8789  gasleft() >= MINIMUM_CONSUMER_GAS_LIMIT */\n      lt\n      iszero\n        /* \".deps/npm/@chainlink/contracts/src/v0.7/Operator.sol\":8742:8826  require(gasleft() >= MINIMUM_CONSUMER_GAS_LIMIT, \"Must provide consumer enough gas\") */\n      tag_266\n      jumpi\n      mload(0x40)\n      0x08c379a000000000000000000000000000000000000000000000000000000000\n      dup2\n      mstore\n      0x04\n      add\n      dup1\n      dup1\n      0x20\n      add\n      dup3\n      dup2\n      sub\n      dup3\n      mstore\n      0x20\n      dup2\n      mstore\n      0x20\n      add\n      dup1\n      0x4d7573742070726f7669646520636f6e73756d657220656e6f75676820676173\n      dup2\n      mstore\n      pop\n      0x20\n      add\n      swap2\n      pop\n      pop\n      mload(0x40)\n      dup1\n      swap2\n      sub\n      swap1\n      revert\n    tag_266:\n        /* \".deps/npm/@chainlink/contracts/src/v0.7/Operator.sol\":9092:9104  bool success */\n      0x00\n        /* \".deps/npm/@chainlink/contracts/src/v0.7/Operator.sol\":9110:9125  callbackAddress */\n      dup13\n        /* \".deps/npm/@chainlink/contracts/src/v0.7/Operator.sol\":9110:9130  callbackAddress.call */\n      0xffffffffffffffffffffffffffffffffffffffff\n      and\n        /* \".deps/npm/@chainlink/contracts/src/v0.7/Operator.sol\":9148:9166  callbackFunctionId */\n      dup13\n        /* \".deps/npm/@chainlink/contracts/src/v0.7/Operator.sol\":9168:9172  data */\n      dup12\n      dup12\n        /* \".deps/npm/@chainlink/contracts/src/v0.7/Operator.sol\":9131:9173  abi.encodePacked(callbackFunctionId, data) */\n      add(0x20, mload(0x40))\n      dup1\n      dup5\n      not(0xffffffffffffffffffffffffffffffffffffffffffffffffffffffff)\n      and\n      dup2\n      mstore\n      0x04\n      add\n      dup4\n      dup4\n      dup1\n      dup3\n      dup5\n      calldatacopy\n      dup1\n      dup4\n      add\n      swap3\n      pop\n      pop\n      pop\n      swap4\n      pop\n      pop\n      pop\n      pop\n      mload(0x40)\n      0x20\n      dup2\n      dup4\n      sub\n      sub\n      dup2\n      mstore\n      swap1\n      0x40\n      mstore\n        /* \".deps/npm/@chainlink/contracts/src/v0.7/Operator.sol\":9110:9174  callbackAddress.call(abi.encodePacked(callbackFunctionId, data)) */\n      mload(0x40)\n      dup1\n      dup3\n      dup1\n      mload\n      swap1\n      0x20\n      add\n      swap1\n      dup1\n      dup4\n      dup4\n    tag_267:\n      0x20\n      dup4\n      lt\n      tag_269\n      jumpi\n      dup1\n      mload\n      dup3\n      mstore\n      0x20\n      dup3\n      add\n      swap2\n      pop\n      0x20\n      dup2\n      add\n      swap1\n      pop\n      0x20\n      dup4\n      sub\n      swap3\n      pop\n      jump(tag_267)\n    tag_269:\n      0x01\n      dup4\n      0x20\n      sub\n      0x0100\n      exp\n      sub\n      dup1\n      not\n      dup3\n      mload\n      and\n      dup2\n      dup5\n      mload\n      and\n      dup1\n      dup3\n      or\n      dup6\n      mstore\n      pop\n      pop\n      pop\n      pop\n      pop\n      pop\n      swap1\n      pop\n      add\n      swap2\n      pop\n      pop\n      0x00\n      mload(0x40)\n      dup1\n      dup4\n      sub\n      dup2\n      0x00\n      dup7\n      gas\n      call\n      swap2\n      pop\n      pop\n      returndatasize\n      dup1\n      0x00\n      dup2\n      eq\n      tag_272\n      jumpi\n      mload(0x40)\n      swap2\n      pop\n      and(add(returndatasize, 0x3f), not(0x1f))\n      dup3\n      add\n      0x40\n      mstore\n      returndatasize\n      dup3\n      mstore\n      returndatasize\n      0x00\n      0x20\n      dup5\n      add\n      returndatacopy\n      jump(tag_271)\n    tag_272:\n      0x60\n      swap2\n      pop\n    tag_271:\n      pop\n        /* \".deps/npm/@chainlink/contracts/src/v0.7/Operator.sol\":9091:9174  (bool success, ) = callbackAddress.call(abi.encodePacked(callbackFunctionId, data)) */\n      pop\n      swap1\n      pop\n        /* \".deps/npm/@chainlink/contracts/src/v0.7/Operator.sol\":9233:9240  success */\n      dup1\n        /* \".deps/npm/@chainlink/contracts/src/v0.7/Operator.sol\":9226:9240  return success */\n      swap8\n      pop\n      pop\n        /* \".deps/npm/@chainlink/contracts/src/v0.7/Operator.sol\":23059:23060  _ */\n      pop\n      pop\n      pop\n      pop\n        /* \".deps/npm/@chainlink/contracts/src/v0.7/Operator.sol\":22613:22614  _ */\n      pop\n        /* \".deps/npm/@chainlink/contracts/src/v0.7/AuthorizedReceiver.sol\":2435:2436  _ */\n      pop\n        /* \".deps/npm/@chainlink/contracts/src/v0.7/Operator.sol\":8194:9245  function fulfillOracleRequest2(... */\n      swap8\n      swap7\n      pop\n      pop\n      pop\n      pop\n      pop\n      pop\n      pop\n      jump\t// out\n        /* \".deps/npm/@chainlink/contracts/src/v0.7/Operator.sol\":13848:14350  function distributeFunds(address payable[] calldata receivers, uint256[] calldata amounts) external payable {... */\n    tag_117:\n        /* \".deps/npm/@chainlink/contracts/src/v0.7/Operator.sol\":13989:13990  0 */\n      0x00\n        /* \".deps/npm/@chainlink/contracts/src/v0.7/Operator.sol\":13970:13979  receivers */\n      dup5\n      dup5\n        /* \".deps/npm/@chainlink/contracts/src/v0.7/Operator.sol\":13970:13986  receivers.length */\n      swap1\n      pop\n        /* \".deps/npm/@chainlink/contracts/src/v0.7/Operator.sol\":13970:13990  receivers.length > 0 */\n      gt\n        /* \".deps/npm/@chainlink/contracts/src/v0.7/Operator.sol\":13970:14028  receivers.length > 0 && receivers.length == amounts.length */\n      dup1\n      iszero\n      tag_274\n      jumpi\n      pop\n        /* \".deps/npm/@chainlink/contracts/src/v0.7/Operator.sol\":14014:14021  amounts */\n      dup2\n      dup2\n        /* \".deps/npm/@chainlink/contracts/src/v0.7/Operator.sol\":14014:14028  amounts.length */\n      swap1\n      pop\n        /* \".deps/npm/@chainlink/contracts/src/v0.7/Operator.sol\":13994:14003  receivers */\n      dup5\n      dup5\n        /* \".deps/npm/@chainlink/contracts/src/v0.7/Operator.sol\":13994:14010  receivers.length */\n      swap1\n      pop\n        /* \".deps/npm/@chainlink/contracts/src/v0.7/Operator.sol\":13994:14028  receivers.length == amounts.length */\n      eq\n        /* \".deps/npm/@chainlink/contracts/src/v0.7/Operator.sol\":13970:14028  receivers.length > 0 && receivers.length == amounts.length */\n    tag_274:\n        /* \".deps/npm/@chainlink/contracts/src/v0.7/Operator.sol\":13962:14056  require(receivers.length > 0 && receivers.length == amounts.length, \"Invalid array length(s)\") */\n      tag_275\n      jumpi\n      mload(0x40)\n      0x08c379a000000000000000000000000000000000000000000000000000000000\n      dup2\n      mstore\n      0x04\n      add\n      dup1\n      dup1\n      0x20\n      add\n      dup3\n      dup2\n      sub\n      dup3\n      mstore\n      0x17\n      dup2\n      mstore\n      0x20\n      add\n      dup1\n      0x496e76616c6964206172726179206c656e677468287329000000000000000000\n      dup2\n      mstore\n      pop\n      0x20\n      add\n      swap2\n      pop\n      pop\n      mload(0x40)\n      dup1\n      swap2\n      sub\n      swap1\n      revert\n    tag_275:\n        /* \".deps/npm/@chainlink/contracts/src/v0.7/Operator.sol\":14062:14084  uint256 valueRemaining */\n      0x00\n        /* \".deps/npm/@chainlink/contracts/src/v0.7/Operator.sol\":14087:14096  msg.value */\n      callvalue\n        /* \".deps/npm/@chainlink/contracts/src/v0.7/Operator.sol\":14062:14096  uint256 valueRemaining = msg.value */\n      swap1\n      pop\n        /* \".deps/npm/@chainlink/contracts/src/v0.7/Operator.sol\":14107:14116  uint256 i */\n      0x00\n        /* \".deps/npm/@chainlink/contracts/src/v0.7/Operator.sol\":14102:14291  for (uint256 i = 0; i < receivers.length; i++) {... */\n    tag_276:\n        /* \".deps/npm/@chainlink/contracts/src/v0.7/Operator.sol\":14126:14135  receivers */\n      dup6\n      dup6\n        /* \".deps/npm/@chainlink/contracts/src/v0.7/Operator.sol\":14126:14142  receivers.length */\n      swap1\n      pop\n        /* \".deps/npm/@chainlink/contracts/src/v0.7/Operator.sol\":14122:14123  i */\n      dup2\n        /* \".deps/npm/@chainlink/contracts/src/v0.7/Operator.sol\":14122:14142  i < receivers.length */\n      lt\n        /* \".deps/npm/@chainlink/contracts/src/v0.7/Operator.sol\":14102:14291  for (uint256 i = 0; i < receivers.length; i++) {... */\n      iszero\n      tag_277\n      jumpi\n        /* \".deps/npm/@chainlink/contracts/src/v0.7/Operator.sol\":14157:14175  uint256 sendAmount */\n      0x00\n        /* \".deps/npm/@chainlink/contracts/src/v0.7/Operator.sol\":14178:14185  amounts */\n      dup5\n      dup5\n        /* \".deps/npm/@chainlink/contracts/src/v0.7/Operator.sol\":14186:14187  i */\n      dup4\n        /* \".deps/npm/@chainlink/contracts/src/v0.7/Operator.sol\":14178:14188  amounts[i] */\n      dup2\n      dup2\n      lt\n      tag_279\n      jumpi\n      invalid\n    tag_279:\n      swap1\n      pop\n      0x20\n      mul\n      add\n      calldataload\n        /* \".deps/npm/@chainlink/contracts/src/v0.7/Operator.sol\":14157:14188  uint256 sendAmount = amounts[i] */\n      swap1\n      pop\n        /* \".deps/npm/@chainlink/contracts/src/v0.7/Operator.sol\":14213:14243  valueRemaining.sub(sendAmount) */\n      tag_280\n        /* \".deps/npm/@chainlink/contracts/src/v0.7/Operator.sol\":14232:14242  sendAmount */\n      dup2\n        /* \".deps/npm/@chainlink/contracts/src/v0.7/Operator.sol\":14213:14227  valueRemaining */\n      dup5\n        /* \".deps/npm/@chainlink/contracts/src/v0.7/Operator.sol\":14213:14231  valueRemaining.sub */\n      tag_281\n      swap1\n        /* \".deps/npm/@chainlink/contracts/src/v0.7/Operator.sol\":14213:14243  valueRemaining.sub(sendAmount) */\n      swap2\n      swap1\n      0xffffffff\n      and\n      jump\t// in\n    tag_280:\n        /* \".deps/npm/@chainlink/contracts/src/v0.7/Operator.sol\":14196:14243  valueRemaining = valueRemaining.sub(sendAmount) */\n      swap3\n      pop\n        /* \".deps/npm/@chainlink/contracts/src/v0.7/Operator.sol\":14251:14260  receivers */\n      dup7\n      dup7\n        /* \".deps/npm/@chainlink/contracts/src/v0.7/Operator.sol\":14261:14262  i */\n      dup4\n        /* \".deps/npm/@chainlink/contracts/src/v0.7/Operator.sol\":14251:14263  receivers[i] */\n      dup2\n      dup2\n      lt\n      tag_282\n      jumpi\n      invalid\n    tag_282:\n      swap1\n      pop\n      0x20\n      mul\n      add\n      calldataload\n      0xffffffffffffffffffffffffffffffffffffffff\n      and\n        /* \".deps/npm/@chainlink/contracts/src/v0.7/Operator.sol\":14251:14272  receivers[i].transfer */\n      0xffffffffffffffffffffffffffffffffffffffff\n      and\n        /* \".deps/npm/@chainlink/contracts/src/v0.7/Operator.sol\":14251:14284  receivers[i].transfer(sendAmount) */\n      0x08fc\n        /* \".deps/npm/@chainlink/contracts/src/v0.7/Operator.sol\":14273:14283  sendAmount */\n      dup3\n        /* \".deps/npm/@chainlink/contracts/src/v0.7/Operator.sol\":14251:14284  receivers[i].transfer(sendAmount) */\n      swap1\n      dup2\n      iszero\n      mul\n      swap1\n      mload(0x40)\n      0x00\n      mload(0x40)\n      dup1\n      dup4\n      sub\n      dup2\n      dup6\n      dup9\n      dup9\n      call\n      swap4\n      pop\n      pop\n      pop\n      pop\n      iszero\n      dup1\n      iszero\n      tag_284\n      jumpi\n      returndatasize\n      0x00\n      dup1\n      returndatacopy\n      revert(0x00, returndatasize)\n    tag_284:\n      pop\n        /* \".deps/npm/@chainlink/contracts/src/v0.7/Operator.sol\":14102:14291  for (uint256 i = 0; i < receivers.length; i++) {... */\n      pop\n        /* \".deps/npm/@chainlink/contracts/src/v0.7/Operator.sol\":14144:14147  i++ */\n      dup1\n      dup1\n      0x01\n      add\n      swap2\n      pop\n      pop\n        /* \".deps/npm/@chainlink/contracts/src/v0.7/Operator.sol\":14102:14291  for (uint256 i = 0; i < receivers.length; i++) {... */\n      jump(tag_276)\n    tag_277:\n      pop\n        /* \".deps/npm/@chainlink/contracts/src/v0.7/Operator.sol\":14322:14323  0 */\n      0x00\n        /* \".deps/npm/@chainlink/contracts/src/v0.7/Operator.sol\":14304:14318  valueRemaining */\n      dup2\n        /* \".deps/npm/@chainlink/contracts/src/v0.7/Operator.sol\":14304:14323  valueRemaining == 0 */\n      eq\n        /* \".deps/npm/@chainlink/contracts/src/v0.7/Operator.sol\":14296:14345  require(valueRemaining == 0, \"Too much ETH sent\") */\n      tag_285\n      jumpi\n      mload(0x40)\n      0x08c379a000000000000000000000000000000000000000000000000000000000\n      dup2\n      mstore\n      0x04\n      add\n      dup1\n      dup1\n      0x20\n      add\n      dup3\n      dup2\n      sub\n      dup3\n      mstore\n      0x11\n      dup2\n      mstore\n      0x20\n      add\n      dup1\n      0x546f6f206d756368204554482073656e74000000000000000000000000000000\n      dup2\n      mstore\n      pop\n      0x20\n      add\n      swap2\n      pop\n      pop\n      mload(0x40)\n      dup1\n      swap2\n      sub\n      swap1\n      revert\n    tag_285:\n        /* \".deps/npm/@chainlink/contracts/src/v0.7/Operator.sol\":13848:14350  function distributeFunds(address payable[] calldata receivers, uint256[] calldata amounts) external payable {... */\n      pop\n      pop\n      pop\n      pop\n      pop\n      jump\t// out\n        /* \".deps/npm/@chainlink/contracts/src/v0.7/Operator.sol\":14921:15503  function cancelOracleRequest(... */\n    tag_121:\n        /* \".deps/npm/@chainlink/contracts/src/v0.7/Operator.sol\":15071:15089  bytes31 paramsHash */\n      0x00\n        /* \".deps/npm/@chainlink/contracts/src/v0.7/Operator.sol\":15092:15155  _buildParamsHash(payment, msg.sender, callbackFunc, expiration) */\n      tag_287\n        /* \".deps/npm/@chainlink/contracts/src/v0.7/Operator.sol\":15109:15116  payment */\n      dup5\n        /* \".deps/npm/@chainlink/contracts/src/v0.7/Operator.sol\":15118:15128  msg.sender */\n      caller\n        /* \".deps/npm/@chainlink/contracts/src/v0.7/Operator.sol\":15130:15142  callbackFunc */\n      dup6\n        /* \".deps/npm/@chainlink/contracts/src/v0.7/Operator.sol\":15144:15154  expiration */\n      dup6\n        /* \".deps/npm/@chainlink/contracts/src/v0.7/Operator.sol\":15092:15108  _buildParamsHash */\n      tag_288\n        /* \".deps/npm/@chainlink/contracts/src/v0.7/Operator.sol\":15092:15155  _buildParamsHash(payment, msg.sender, callbackFunc, expiration) */\n      jump\t// in\n    tag_287:\n        /* \".deps/npm/@chainlink/contracts/src/v0.7/Operator.sol\":15071:15155  bytes31 paramsHash = _buildParamsHash(payment, msg.sender, callbackFunc, expiration) */\n      swap1\n      pop\n        /* \".deps/npm/@chainlink/contracts/src/v0.7/Operator.sol\":15208:15218  paramsHash */\n      dup1\n        /* \".deps/npm/@chainlink/contracts/src/v0.7/Operator.sol\":15169:15218  s_commitments[requestId].paramsHash == paramsHash */\n      not(0xff)\n      and\n        /* \".deps/npm/@chainlink/contracts/src/v0.7/Operator.sol\":15169:15182  s_commitments */\n      0x04\n        /* \".deps/npm/@chainlink/contracts/src/v0.7/Operator.sol\":15169:15193  s_commitments[requestId] */\n      0x00\n        /* \".deps/npm/@chainlink/contracts/src/v0.7/Operator.sol\":15183:15192  requestId */\n      dup8\n        /* \".deps/npm/@chainlink/contracts/src/v0.7/Operator.sol\":15169:15193  s_commitments[requestId] */\n      dup2\n      mstore\n      0x20\n      add\n      swap1\n      dup2\n      mstore\n      0x20\n      add\n      0x00\n      keccak256\n        /* \".deps/npm/@chainlink/contracts/src/v0.7/Operator.sol\":15169:15204  s_commitments[requestId].paramsHash */\n      0x00\n      add\n      0x00\n      swap1\n      sload\n      swap1\n      0x0100\n      exp\n      swap1\n      div\n      0x08\n      shl\n        /* \".deps/npm/@chainlink/contracts/src/v0.7/Operator.sol\":15169:15218  s_commitments[requestId].paramsHash == paramsHash */\n      not(0xff)\n      and\n      eq\n        /* \".deps/npm/@chainlink/contracts/src/v0.7/Operator.sol\":15161:15253  require(s_commitments[requestId].paramsHash == paramsHash, \"Params do not match request ID\") */\n      tag_289\n      jumpi\n      mload(0x40)\n      0x08c379a000000000000000000000000000000000000000000000000000000000\n      dup2\n      mstore\n      0x04\n      add\n      dup1\n      dup1\n      0x20\n      add\n      dup3\n      dup2\n      sub\n      dup3\n      mstore\n      0x1e\n      dup2\n      mstore\n      0x20\n      add\n      dup1\n      0x506172616d7320646f206e6f74206d6174636820726571756573742049440000\n      dup2\n      mstore\n      pop\n      0x20\n      add\n      swap2\n      pop\n      pop\n      mload(0x40)\n      dup1\n      swap2\n      sub\n      swap1\n      revert\n    tag_289:\n        /* \".deps/npm/@chainlink/contracts/src/v0.7/Operator.sol\":15331:15346  block.timestamp */\n      timestamp\n        /* \".deps/npm/@chainlink/contracts/src/v0.7/Operator.sol\":15317:15327  expiration */\n      dup3\n        /* \".deps/npm/@chainlink/contracts/src/v0.7/Operator.sol\":15317:15346  expiration <= block.timestamp */\n      gt\n      iszero\n        /* \".deps/npm/@chainlink/contracts/src/v0.7/Operator.sol\":15309:15373  require(expiration <= block.timestamp, \"Request is not expired\") */\n      tag_290\n      jumpi\n      mload(0x40)\n      0x08c379a000000000000000000000000000000000000000000000000000000000\n      dup2\n      mstore\n      0x04\n      add\n      dup1\n      dup1\n      0x20\n      add\n      dup3\n      dup2\n      sub\n      dup3\n      mstore\n      0x16\n      dup2\n      mstore\n      0x20\n      add\n      dup1\n      0x52657175657374206973206e6f74206578706972656400000000000000000000\n      dup2\n      mstore\n      pop\n      0x20\n      add\n      swap2\n      pop\n      pop\n      mload(0x40)\n      dup1\n      swap2\n      sub\n      swap1\n      revert\n    tag_290:\n        /* \".deps/npm/@chainlink/contracts/src/v0.7/Operator.sol\":15387:15400  s_commitments */\n      0x04\n        /* \".deps/npm/@chainlink/contracts/src/v0.7/Operator.sol\":15387:15411  s_commitments[requestId] */\n      0x00\n        /* \".deps/npm/@chainlink/contracts/src/v0.7/Operator.sol\":15401:15410  requestId */\n      dup7\n        /* \".deps/npm/@chainlink/contracts/src/v0.7/Operator.sol\":15387:15411  s_commitments[requestId] */\n      dup2\n      mstore\n      0x20\n      add\n      swap1\n      dup2\n      mstore\n      0x20\n      add\n      0x00\n      keccak256\n      0x00\n        /* \".deps/npm/@chainlink/contracts/src/v0.7/Operator.sol\":15380:15411  delete s_commitments[requestId] */\n      dup1\n      dup3\n      add\n      exp(0x0100, 0x00)\n      dup2\n      sload\n      swap1\n      0xffffffffffffffffffffffffffffffffffffffffffffffffffffffffffffff\n      mul\n      not\n      and\n      swap1\n      sstore\n      0x00\n      dup3\n      add\n      exp(0x0100, 0x1f)\n      dup2\n      sload\n      swap1\n      0xff\n      mul\n      not\n      and\n      swap1\n      sstore\n      pop\n      pop\n        /* \".deps/npm/@chainlink/contracts/src/v0.7/Operator.sol\":15442:15451  requestId */\n      dup5\n        /* \".deps/npm/@chainlink/contracts/src/v0.7/Operator.sol\":15422:15452  CancelOracleRequest(requestId) */\n      0xa7842b9ec549398102c0d91b1b9919b2f20558aefdadf57528a95c6cd3292e93\n      mload(0x40)\n      mload(0x40)\n      dup1\n      swap2\n      sub\n      swap1\n      log2\n        /* \".deps/npm/@chainlink/contracts/src/v0.7/Operator.sol\":15459:15468  linkToken */\n      immutable(\"0x5fb12ad98b8d13e095aa2296ce90e81ce800e34edf3e5203ac6ed2bf74255f6c\")\n        /* \".deps/npm/@chainlink/contracts/src/v0.7/Operator.sol\":15459:15477  linkToken.transfer */\n      0xffffffffffffffffffffffffffffffffffffffff\n      and\n      0xa9059cbb\n        /* \".deps/npm/@chainlink/contracts/src/v0.7/Operator.sol\":15478:15488  msg.sender */\n      caller\n        /* \".deps/npm/@chainlink/contracts/src/v0.7/Operator.sol\":15490:15497  payment */\n      dup7\n        /* \".deps/npm/@chainlink/contracts/src/v0.7/Operator.sol\":15459:15498  linkToken.transfer(msg.sender, payment) */\n      mload(0x40)\n      dup4\n      0xffffffff\n      and\n      0xe0\n      shl\n      dup2\n      mstore\n      0x04\n      add\n      dup1\n      dup4\n      0xffffffffffffffffffffffffffffffffffffffff\n      and\n      dup2\n      mstore\n      0x20\n      add\n      dup3\n      dup2\n      mstore\n      0x20\n      add\n      swap3\n      pop\n      pop\n      pop\n      0x20\n      mload(0x40)\n      dup1\n      dup4\n      sub\n      dup2\n      0x00\n      dup8\n      dup1\n      extcodesize\n      iszero\n      dup1\n      iszero\n      tag_291\n      jumpi\n      0x00\n      dup1\n      revert\n    tag_291:\n      pop\n      gas\n      call\n      iszero\n      dup1\n      iszero\n      tag_293\n      jumpi\n      returndatasize\n      0x00\n      dup1\n      returndatacopy\n      revert(0x00, returndatasize)\n    tag_293:\n      pop\n      pop\n      pop\n      pop\n      mload(0x40)\n      returndatasize\n      0x20\n      dup2\n      lt\n      iszero\n      tag_294\n      jumpi\n      0x00\n      dup1\n      revert\n    tag_294:\n      dup2\n      add\n      swap1\n      dup1\n      dup1\n      mload\n      swap1\n      0x20\n      add\n      swap1\n      swap3\n      swap2\n      swap1\n      pop\n      pop\n      pop\n      pop\n        /* \".deps/npm/@chainlink/contracts/src/v0.7/Operator.sol\":14921:15503  function cancelOracleRequest(... */\n      pop\n      pop\n      pop\n      pop\n      pop\n      jump\t// out\n        /* \".deps/npm/@chainlink/contracts/src/v0.7/ConfirmedOwnerWithProposal.sol\":1016:1281  function acceptOwnership() external override {... */\n    tag_124:\n        /* \".deps/npm/@chainlink/contracts/src/v0.7/ConfirmedOwnerWithProposal.sol\":1089:1103  s_pendingOwner */\n      0x03\n      0x00\n      swap1\n      sload\n      swap1\n      0x0100\n      exp\n      swap1\n      div\n      0xffffffffffffffffffffffffffffffffffffffff\n      and\n        /* \".deps/npm/@chainlink/contracts/src/v0.7/ConfirmedOwnerWithProposal.sol\":1075:1103  msg.sender == s_pendingOwner */\n      0xffffffffffffffffffffffffffffffffffffffff\n      and\n        /* \".deps/npm/@chainlink/contracts/src/v0.7/ConfirmedOwnerWithProposal.sol\":1075:1085  msg.sender */\n      caller\n        /* \".deps/npm/@chainlink/contracts/src/v0.7/ConfirmedOwnerWithProposal.sol\":1075:1103  msg.sender == s_pendingOwner */\n      0xffffffffffffffffffffffffffffffffffffffff\n      and\n      eq\n        /* \".deps/npm/@chainlink/contracts/src/v0.7/ConfirmedOwnerWithProposal.sol\":1067:1130  require(msg.sender == s_pendingOwner, \"Must be proposed owner\") */\n      tag_296\n      jumpi\n      mload(0x40)\n      0x08c379a000000000000000000000000000000000000000000000000000000000\n      dup2\n      mstore\n      0x04\n      add\n      dup1\n      dup1\n      0x20\n      add\n      dup3\n      dup2\n      sub\n      dup3\n      mstore\n      0x16\n      dup2\n      mstore\n      0x20\n      add\n      dup1\n      0x4d7573742062652070726f706f736564206f776e657200000000000000000000\n      dup2\n      mstore\n      pop\n      0x20\n      add\n      swap2\n      pop\n      pop\n      mload(0x40)\n      dup1\n      swap2\n      sub\n      swap1\n      revert\n    tag_296:\n        /* \".deps/npm/@chainlink/contracts/src/v0.7/ConfirmedOwnerWithProposal.sol\":1137:1153  address oldOwner */\n      0x00\n        /* \".deps/npm/@chainlink/contracts/src/v0.7/ConfirmedOwnerWithProposal.sol\":1156:1163  s_owner */\n      0x02\n      0x00\n      swap1\n      sload\n      swap1\n      0x0100\n      exp\n      swap1\n      div\n      0xffffffffffffffffffffffffffffffffffffffff\n      and\n        /* \".deps/npm/@chainlink/contracts/src/v0.7/ConfirmedOwnerWithProposal.sol\":1137:1163  address oldOwner = s_owner */\n      swap1\n      pop\n        /* \".deps/npm/@chainlink/contracts/src/v0.7/ConfirmedOwnerWithProposal.sol\":1179:1189  msg.sender */\n      caller\n        /* \".deps/npm/@chainlink/contracts/src/v0.7/ConfirmedOwnerWithProposal.sol\":1169:1176  s_owner */\n      0x02\n      0x00\n        /* \".deps/npm/@chainlink/contracts/src/v0.7/ConfirmedOwnerWithProposal.sol\":1169:1189  s_owner = msg.sender */\n      0x0100\n      exp\n      dup2\n      sload\n      dup2\n      0xffffffffffffffffffffffffffffffffffffffff\n      mul\n      not\n      and\n      swap1\n      dup4\n      0xffffffffffffffffffffffffffffffffffffffff\n      and\n      mul\n      or\n      swap1\n      sstore\n      pop\n        /* \".deps/npm/@chainlink/contracts/src/v0.7/ConfirmedOwnerWithProposal.sol\":1220:1221  0 */\n      0x00\n        /* \".deps/npm/@chainlink/contracts/src/v0.7/ConfirmedOwnerWithProposal.sol\":1195:1209  s_pendingOwner */\n      0x03\n      0x00\n        /* \".deps/npm/@chainlink/contracts/src/v0.7/ConfirmedOwnerWithProposal.sol\":1195:1222  s_pendingOwner = address(0) */\n      0x0100\n      exp\n      dup2\n      sload\n      dup2\n      0xffffffffffffffffffffffffffffffffffffffff\n      mul\n      not\n      and\n      swap1\n      dup4\n      0xffffffffffffffffffffffffffffffffffffffff\n      and\n      mul\n      or\n      swap1\n      sstore\n      pop\n        /* \".deps/npm/@chainlink/contracts/src/v0.7/ConfirmedOwnerWithProposal.sol\":1265:1275  msg.sender */\n      caller\n        /* \".deps/npm/@chainlink/contracts/src/v0.7/ConfirmedOwnerWithProposal.sol\":1234:1276  OwnershipTransferred(oldOwner, msg.sender) */\n      0xffffffffffffffffffffffffffffffffffffffff\n      and\n        /* \".deps/npm/@chainlink/contracts/src/v0.7/ConfirmedOwnerWithProposal.sol\":1255:1263  oldOwner */\n      dup2\n        /* \".deps/npm/@chainlink/contracts/src/v0.7/ConfirmedOwnerWithProposal.sol\":1234:1276  OwnershipTransferred(oldOwner, msg.sender) */\n      0xffffffffffffffffffffffffffffffffffffffff\n      and\n      0x8be0079c531659141344cd1fd0a4f28419497f9722a3daafe3b4186f6b6457e0\n      mload(0x40)\n      mload(0x40)\n      dup1\n      swap2\n      sub\n      swap1\n      log3\n        /* \".deps/npm/@chainlink/contracts/src/v0.7/ConfirmedOwnerWithProposal.sol\":1016:1281  function acceptOwnership() external override {... */\n      pop\n      jump\t// out\n        /* \".deps/npm/@chainlink/contracts/src/v0.7/ConfirmedOwnerWithProposal.sol\":1332:1413  function owner() public view override returns (address) {... */\n    tag_127:\n        /* \".deps/npm/@chainlink/contracts/src/v0.7/ConfirmedOwnerWithProposal.sol\":1379:1386  address */\n      0x00\n        /* \".deps/npm/@chainlink/contracts/src/v0.7/ConfirmedOwnerWithProposal.sol\":1401:1408  s_owner */\n      0x02\n      0x00\n      swap1\n      sload\n      swap1\n      0x0100\n      exp\n      swap1\n      div\n      0xffffffffffffffffffffffffffffffffffffffff\n      and\n        /* \".deps/npm/@chainlink/contracts/src/v0.7/ConfirmedOwnerWithProposal.sol\":1394:1408  return s_owner */\n      swap1\n      pop\n        /* \".deps/npm/@chainlink/contracts/src/v0.7/ConfirmedOwnerWithProposal.sol\":1332:1413  function owner() public view override returns (address) {... */\n      swap1\n      jump\t// out\n        /* \".deps/npm/@chainlink/contracts/src/v0.7/Operator.sol\":13202:13437  function ownerTransferAndCall(... */\n    tag_134:\n        /* \".deps/npm/@chainlink/contracts/src/v0.7/Operator.sol\":13363:13375  bool success */\n      0x00\n        /* \".deps/npm/@chainlink/contracts/src/v0.7/ConfirmedOwnerWithProposal.sol\":1956:1976  _validateOwnership() */\n      tag_299\n        /* \".deps/npm/@chainlink/contracts/src/v0.7/ConfirmedOwnerWithProposal.sol\":1956:1974  _validateOwnership */\n      tag_191\n        /* \".deps/npm/@chainlink/contracts/src/v0.7/ConfirmedOwnerWithProposal.sol\":1956:1976  _validateOwnership() */\n      jump\t// in\n    tag_299:\n        /* \".deps/npm/@chainlink/contracts/src/v0.7/Operator.sol\":13347:13352  value */\n      dup4\n        /* \".deps/npm/@chainlink/contracts/src/v0.7/Operator.sol\":22260:22266  amount */\n      dup1\n        /* \".deps/npm/@chainlink/contracts/src/v0.7/Operator.sol\":22239:22256  _fundsAvailable() */\n      tag_301\n        /* \".deps/npm/@chainlink/contracts/src/v0.7/Operator.sol\":22239:22254  _fundsAvailable */\n      tag_248\n        /* \".deps/npm/@chainlink/contracts/src/v0.7/Operator.sol\":22239:22256  _fundsAvailable() */\n      jump\t// in\n    tag_301:\n        /* \".deps/npm/@chainlink/contracts/src/v0.7/Operator.sol\":22239:22266  _fundsAvailable() >= amount */\n      lt\n      iszero\n        /* \".deps/npm/@chainlink/contracts/src/v0.7/Operator.sol\":22231:22324  require(_fundsAvailable() >= amount, \"Amount requested is greater than withdrawable balance\") */\n      tag_302\n      jumpi\n      mload(0x40)\n      0x08c379a000000000000000000000000000000000000000000000000000000000\n      dup2\n      mstore\n      0x04\n      add\n      dup1\n      dup1\n      0x20\n      add\n      dup3\n      dup2\n      sub\n      dup3\n      mstore\n      0x35\n      dup2\n      mstore\n      0x20\n      add\n      dup1\n      data_87cfc663fcf6403059a83571137d56c7da4a1aa2a371627fe8ecf960f50e10c2\n      0x35\n      swap2\n      codecopy\n      0x40\n      add\n      swap2\n      pop\n      pop\n      mload(0x40)\n      dup1\n      swap2\n      sub\n      swap1\n      revert\n    tag_302:\n        /* \".deps/npm/@chainlink/contracts/src/v0.7/Operator.sol\":13390:13399  linkToken */\n      immutable(\"0x5fb12ad98b8d13e095aa2296ce90e81ce800e34edf3e5203ac6ed2bf74255f6c\")\n        /* \".deps/npm/@chainlink/contracts/src/v0.7/Operator.sol\":13390:13415  linkToken.transferAndCall */\n      0xffffffffffffffffffffffffffffffffffffffff\n      and\n      0x4000aea0\n        /* \".deps/npm/@chainlink/contracts/src/v0.7/Operator.sol\":13416:13418  to */\n      dup8\n        /* \".deps/npm/@chainlink/contracts/src/v0.7/Operator.sol\":13420:13425  value */\n      dup8\n        /* \".deps/npm/@chainlink/contracts/src/v0.7/Operator.sol\":13427:13431  data */\n      dup8\n      dup8\n        /* \".deps/npm/@chainlink/contracts/src/v0.7/Operator.sol\":13390:13432  linkToken.transferAndCall(to, value, data) */\n      mload(0x40)\n      dup6\n      0xffffffff\n      and\n      0xe0\n      shl\n      dup2\n      mstore\n      0x04\n      add\n      dup1\n      dup6\n      0xffffffffffffffffffffffffffffffffffffffff\n      and\n      dup2\n      mstore\n      0x20\n      add\n      dup5\n      dup2\n      mstore\n      0x20\n      add\n      dup1\n      0x20\n      add\n      dup3\n      dup2\n      sub\n      dup3\n      mstore\n      dup5\n      dup5\n      dup3\n      dup2\n      dup2\n      mstore\n      0x20\n      add\n      swap3\n      pop\n      dup1\n      dup3\n      dup5\n      calldatacopy\n      0x00\n      dup2\n      dup5\n      add\n      mstore\n      not(0x1f)\n      0x1f\n      dup3\n      add\n      and\n      swap1\n      pop\n      dup1\n      dup4\n      add\n      swap3\n      pop\n      pop\n      pop\n      swap6\n      pop\n      pop\n      pop\n      pop\n      pop\n      pop\n      0x20\n      mload(0x40)\n      dup1\n      dup4\n      sub\n      dup2\n      0x00\n      dup8\n      dup1\n      extcodesize\n      iszero\n      dup1\n      iszero\n      tag_304\n      jumpi\n      0x00\n      dup1\n      revert\n    tag_304:\n      pop\n      gas\n      call\n      iszero\n      dup1\n      iszero\n      tag_306\n      jumpi\n      returndatasize\n      0x00\n      dup1\n      returndatacopy\n      revert(0x00, returndatasize)\n    tag_306:\n      pop\n      pop\n      pop\n      pop\n      mload(0x40)\n      returndatasize\n      0x20\n      dup2\n      lt\n      iszero\n      tag_307\n      jumpi\n      0x00\n      dup1\n      revert\n    tag_307:\n      dup2\n      add\n      swap1\n      dup1\n      dup1\n      mload\n      swap1\n      0x20\n      add\n      swap1\n      swap3\n      swap2\n      swap1\n      pop\n      pop\n      pop\n        /* \".deps/npm/@chainlink/contracts/src/v0.7/Operator.sol\":13383:13432  return linkToken.transferAndCall(to, value, data) */\n      swap2\n      pop\n        /* \".deps/npm/@chainlink/contracts/src/v0.7/ConfirmedOwnerWithProposal.sol\":1982:1983  _ */\n      pop\n        /* \".deps/npm/@chainlink/contracts/src/v0.7/Operator.sol\":13202:13437  function ownerTransferAndCall(... */\n      swap5\n      swap4\n      pop\n      pop\n      pop\n      pop\n      jump\t// out\n        /* \".deps/npm/@chainlink/contracts/src/v0.7/LinkTokenReceiver.sol\":476:1091  function onTokenTransfer(... */\n    tag_141:\n        /* \".deps/npm/@chainlink/contracts/src/v0.7/LinkTokenReceiver.sol\":1455:1474  getChainlinkToken() */\n      tag_309\n        /* \".deps/npm/@chainlink/contracts/src/v0.7/LinkTokenReceiver.sol\":1455:1472  getChainlinkToken */\n      tag_47\n        /* \".deps/npm/@chainlink/contracts/src/v0.7/LinkTokenReceiver.sol\":1455:1474  getChainlinkToken() */\n      jump\t// in\n    tag_309:\n        /* \".deps/npm/@chainlink/contracts/src/v0.7/LinkTokenReceiver.sol\":1441:1474  msg.sender == getChainlinkToken() */\n      0xffffffffffffffffffffffffffffffffffffffff\n      and\n        /* \".deps/npm/@chainlink/contracts/src/v0.7/LinkTokenReceiver.sol\":1441:1451  msg.sender */\n      caller\n        /* \".deps/npm/@chainlink/contracts/src/v0.7/LinkTokenReceiver.sol\":1441:1474  msg.sender == getChainlinkToken() */\n      0xffffffffffffffffffffffffffffffffffffffff\n      and\n      eq\n        /* \".deps/npm/@chainlink/contracts/src/v0.7/LinkTokenReceiver.sol\":1433:1498  require(msg.sender == getChainlinkToken(), \"Must use LINK token\") */\n      tag_310\n      jumpi\n      mload(0x40)\n      0x08c379a000000000000000000000000000000000000000000000000000000000\n      dup2\n      mstore\n      0x04\n      add\n      dup1\n      dup1\n      0x20\n      add\n      dup3\n      dup2\n      sub\n      dup3\n      mstore\n      0x13\n      dup2\n      mstore\n      0x20\n      add\n      dup1\n      0x4d75737420757365204c494e4b20746f6b656e00000000000000000000000000\n      dup2\n      mstore\n      pop\n      0x20\n      add\n      swap2\n      pop\n      pop\n      mload(0x40)\n      dup1\n      swap2\n      sub\n      swap1\n      revert\n    tag_310:\n        /* \".deps/npm/@chainlink/contracts/src/v0.7/LinkTokenReceiver.sol\":618:622  data */\n      dup1\n        /* \".deps/npm/@chainlink/contracts/src/v0.7/LinkTokenReceiver.sol\":1729:1748  bytes4 funcSelector */\n      0x00\n        /* \".deps/npm/@chainlink/contracts/src/v0.7/LinkTokenReceiver.sol\":1860:1862  32 */\n      0x20\n        /* \".deps/npm/@chainlink/contracts/src/v0.7/LinkTokenReceiver.sol\":1854:1858  data */\n      dup3\n        /* \".deps/npm/@chainlink/contracts/src/v0.7/LinkTokenReceiver.sol\":1850:1863  add(data, 32) */\n      add\n        /* \".deps/npm/@chainlink/contracts/src/v0.7/LinkTokenReceiver.sol\":1844:1864  mload(add(data, 32)) */\n      mload\n        /* \".deps/npm/@chainlink/contracts/src/v0.7/LinkTokenReceiver.sol\":1828:1864  funcSelector := mload(add(data, 32)) */\n      swap1\n      pop\n        /* \".deps/npm/@chainlink/contracts/src/v0.7/LinkTokenReceiver.sol\":1875:1923  _validateTokenTransferAction(funcSelector, data) */\n      tag_312\n        /* \".deps/npm/@chainlink/contracts/src/v0.7/LinkTokenReceiver.sol\":1904:1916  funcSelector */\n      dup2\n        /* \".deps/npm/@chainlink/contracts/src/v0.7/LinkTokenReceiver.sol\":1918:1922  data */\n      dup4\n        /* \".deps/npm/@chainlink/contracts/src/v0.7/LinkTokenReceiver.sol\":1875:1903  _validateTokenTransferAction */\n      tag_313\n        /* \".deps/npm/@chainlink/contracts/src/v0.7/LinkTokenReceiver.sol\":1875:1923  _validateTokenTransferAction(funcSelector, data) */\n      jump\t// in\n    tag_312:\n        /* \".deps/npm/@chainlink/contracts/src/v0.7/LinkTokenReceiver.sol\":726:732  sender */\n      dup5\n        /* \".deps/npm/@chainlink/contracts/src/v0.7/LinkTokenReceiver.sol\":721:723  36 */\n      0x24\n        /* \".deps/npm/@chainlink/contracts/src/v0.7/LinkTokenReceiver.sol\":715:719  data */\n      dup5\n        /* \".deps/npm/@chainlink/contracts/src/v0.7/LinkTokenReceiver.sol\":711:724  add(data, 36) */\n      add\n        /* \".deps/npm/@chainlink/contracts/src/v0.7/LinkTokenReceiver.sol\":704:733  mstore(add(data, 36), sender) */\n      mstore\n        /* \".deps/npm/@chainlink/contracts/src/v0.7/LinkTokenReceiver.sol\":854:860  amount */\n      dup4\n        /* \".deps/npm/@chainlink/contracts/src/v0.7/LinkTokenReceiver.sol\":849:851  68 */\n      0x44\n        /* \".deps/npm/@chainlink/contracts/src/v0.7/LinkTokenReceiver.sol\":843:847  data */\n      dup5\n        /* \".deps/npm/@chainlink/contracts/src/v0.7/LinkTokenReceiver.sol\":839:852  add(data, 68) */\n      add\n        /* \".deps/npm/@chainlink/contracts/src/v0.7/LinkTokenReceiver.sol\":832:861  mstore(add(data, 68), amount) */\n      mstore\n        /* \".deps/npm/@chainlink/contracts/src/v0.7/LinkTokenReceiver.sol\":963:975  bool success */\n      0x00\n        /* \".deps/npm/@chainlink/contracts/src/v0.7/LinkTokenReceiver.sol\":989:993  this */\n      address\n        /* \".deps/npm/@chainlink/contracts/src/v0.7/LinkTokenReceiver.sol\":981:1007  address(this).delegatecall */\n      0xffffffffffffffffffffffffffffffffffffffff\n      and\n        /* \".deps/npm/@chainlink/contracts/src/v0.7/LinkTokenReceiver.sol\":1008:1012  data */\n      dup5\n        /* \".deps/npm/@chainlink/contracts/src/v0.7/LinkTokenReceiver.sol\":981:1013  address(this).delegatecall(data) */\n      mload(0x40)\n      dup1\n      dup3\n      dup1\n      mload\n      swap1\n      0x20\n      add\n      swap1\n      dup1\n      dup4\n      dup4\n    tag_315:\n      0x20\n      dup4\n      lt\n      tag_317\n      jumpi\n      dup1\n      mload\n      dup3\n      mstore\n      0x20\n      dup3\n      add\n      swap2\n      pop\n      0x20\n      dup2\n      add\n      swap1\n      pop\n      0x20\n      dup4\n      sub\n      swap3\n      pop\n      jump(tag_315)\n    tag_317:\n      0x01\n      dup4\n      0x20\n      sub\n      0x0100\n      exp\n      sub\n      dup1\n      not\n      dup3\n      mload\n      and\n      dup2\n      dup5\n      mload\n      and\n      dup1\n      dup3\n      or\n      dup6\n      mstore\n      pop\n      pop\n      pop\n      pop\n      pop\n      pop\n      swap1\n      pop\n      add\n      swap2\n      pop\n      pop\n      0x00\n      mload(0x40)\n      dup1\n      dup4\n      sub\n      dup2\n      dup6\n      gas\n      delegatecall\n      swap2\n      pop\n      pop\n      returndatasize\n      dup1\n      0x00\n      dup2\n      eq\n      tag_320\n      jumpi\n      mload(0x40)\n      swap2\n      pop\n      and(add(returndatasize, 0x3f), not(0x1f))\n      dup3\n      add\n      0x40\n      mstore\n      returndatasize\n      dup3\n      mstore\n      returndatasize\n      0x00\n      0x20\n      dup5\n      add\n      returndatacopy\n      jump(tag_319)\n    tag_320:\n      0x60\n      swap2\n      pop\n    tag_319:\n      pop\n        /* \".deps/npm/@chainlink/contracts/src/v0.7/LinkTokenReceiver.sol\":962:1013  (bool success, ) = address(this).delegatecall(data) */\n      pop\n      swap1\n      pop\n        /* \".deps/npm/@chainlink/contracts/src/v0.7/LinkTokenReceiver.sol\":1050:1057  success */\n      dup1\n        /* \".deps/npm/@chainlink/contracts/src/v0.7/LinkTokenReceiver.sol\":1042:1086  require(success, \"Unable to create request\") */\n      tag_321\n      jumpi\n      mload(0x40)\n      0x08c379a000000000000000000000000000000000000000000000000000000000\n      dup2\n      mstore\n      0x04\n      add\n      dup1\n      dup1\n      0x20\n      add\n      dup3\n      dup2\n      sub\n      dup3\n      mstore\n      0x18\n      dup2\n      mstore\n      0x20\n      add\n      dup1\n      0x556e61626c6520746f2063726561746520726571756573740000000000000000\n      dup2\n      mstore\n      pop\n      0x20\n      add\n      swap2\n      pop\n      pop\n      mload(0x40)\n      dup1\n      swap2\n      sub\n      swap1\n      revert\n    tag_321:\n        /* \".deps/npm/@chainlink/contracts/src/v0.7/LinkTokenReceiver.sol\":1929:1930  _ */\n      pop\n        /* \".deps/npm/@chainlink/contracts/src/v0.7/LinkTokenReceiver.sol\":1504:1505  _ */\n      pop\n      pop\n        /* \".deps/npm/@chainlink/contracts/src/v0.7/LinkTokenReceiver.sol\":476:1091  function onTokenTransfer(... */\n      pop\n      pop\n      pop\n      jump\t// out\n        /* \".deps/npm/@chainlink/contracts/src/v0.7/Operator.sol\":16097:16749  function cancelOracleRequestByRequester(... */\n    tag_145:\n        /* \".deps/npm/@chainlink/contracts/src/v0.7/Operator.sol\":16245:16262  bytes32 requestId */\n      0x00\n        /* \".deps/npm/@chainlink/contracts/src/v0.7/Operator.sol\":16292:16302  msg.sender */\n      caller\n        /* \".deps/npm/@chainlink/contracts/src/v0.7/Operator.sol\":16304:16309  nonce */\n      dup6\n        /* \".deps/npm/@chainlink/contracts/src/v0.7/Operator.sol\":16275:16310  abi.encodePacked(msg.sender, nonce) */\n      add(0x20, mload(0x40))\n      dup1\n      dup4\n      0xffffffffffffffffffffffffffffffffffffffff\n      and\n      0x60\n      shl\n      dup2\n      mstore\n      0x14\n      add\n      dup3\n      dup2\n      mstore\n      0x20\n      add\n      swap3\n      pop\n      pop\n      pop\n      mload(0x40)\n      0x20\n      dup2\n      dup4\n      sub\n      sub\n      dup2\n      mstore\n      swap1\n      0x40\n      mstore\n        /* \".deps/npm/@chainlink/contracts/src/v0.7/Operator.sol\":16265:16311  keccak256(abi.encodePacked(msg.sender, nonce)) */\n      dup1\n      mload\n      swap1\n      0x20\n      add\n      keccak256\n        /* \".deps/npm/@chainlink/contracts/src/v0.7/Operator.sol\":16245:16311  bytes32 requestId = keccak256(abi.encodePacked(msg.sender, nonce)) */\n      swap1\n      pop\n        /* \".deps/npm/@chainlink/contracts/src/v0.7/Operator.sol\":16317:16335  bytes31 paramsHash */\n      0x00\n        /* \".deps/npm/@chainlink/contracts/src/v0.7/Operator.sol\":16338:16401  _buildParamsHash(payment, msg.sender, callbackFunc, expiration) */\n      tag_323\n        /* \".deps/npm/@chainlink/contracts/src/v0.7/Operator.sol\":16355:16362  payment */\n      dup6\n        /* \".deps/npm/@chainlink/contracts/src/v0.7/Operator.sol\":16364:16374  msg.sender */\n      caller\n        /* \".deps/npm/@chainlink/contracts/src/v0.7/Operator.sol\":16376:16388  callbackFunc */\n      dup7\n        /* \".deps/npm/@chainlink/contracts/src/v0.7/Operator.sol\":16390:16400  expiration */\n      dup7\n        /* \".deps/npm/@chainlink/contracts/src/v0.7/Operator.sol\":16338:16354  _buildParamsHash */\n      tag_288\n        /* \".deps/npm/@chainlink/contracts/src/v0.7/Operator.sol\":16338:16401  _buildParamsHash(payment, msg.sender, callbackFunc, expiration) */\n      jump\t// in\n    tag_323:\n        /* \".deps/npm/@chainlink/contracts/src/v0.7/Operator.sol\":16317:16401  bytes31 paramsHash = _buildParamsHash(payment, msg.sender, callbackFunc, expiration) */\n      swap1\n      pop\n        /* \".deps/npm/@chainlink/contracts/src/v0.7/Operator.sol\":16454:16464  paramsHash */\n      dup1\n        /* \".deps/npm/@chainlink/contracts/src/v0.7/Operator.sol\":16415:16464  s_commitments[requestId].paramsHash == paramsHash */\n      not(0xff)\n      and\n        /* \".deps/npm/@chainlink/contracts/src/v0.7/Operator.sol\":16415:16428  s_commitments */\n      0x04\n        /* \".deps/npm/@chainlink/contracts/src/v0.7/Operator.sol\":16415:16439  s_commitments[requestId] */\n      0x00\n        /* \".deps/npm/@chainlink/contracts/src/v0.7/Operator.sol\":16429:16438  requestId */\n      dup5\n        /* \".deps/npm/@chainlink/contracts/src/v0.7/Operator.sol\":16415:16439  s_commitments[requestId] */\n      dup2\n      mstore\n      0x20\n      add\n      swap1\n      dup2\n      mstore\n      0x20\n      add\n      0x00\n      keccak256\n        /* \".deps/npm/@chainlink/contracts/src/v0.7/Operator.sol\":16415:16450  s_commitments[requestId].paramsHash */\n      0x00\n      add\n      0x00\n      swap1\n      sload\n      swap1\n      0x0100\n      exp\n      swap1\n      div\n      0x08\n      shl\n        /* \".deps/npm/@chainlink/contracts/src/v0.7/Operator.sol\":16415:16464  s_commitments[requestId].paramsHash == paramsHash */\n      not(0xff)\n      and\n      eq\n        /* \".deps/npm/@chainlink/contracts/src/v0.7/Operator.sol\":16407:16499  require(s_commitments[requestId].paramsHash == paramsHash, \"Params do not match request ID\") */\n      tag_324\n      jumpi\n      mload(0x40)\n      0x08c379a000000000000000000000000000000000000000000000000000000000\n      dup2\n      mstore\n      0x04\n      add\n      dup1\n      dup1\n      0x20\n      add\n      dup3\n      dup2\n      sub\n      dup3\n      mstore\n      0x1e\n      dup2\n      mstore\n      0x20\n      add\n      dup1\n      0x506172616d7320646f206e6f74206d6174636820726571756573742049440000\n      dup2\n      mstore\n      pop\n      0x20\n      add\n      swap2\n      pop\n      pop\n      mload(0x40)\n      dup1\n      swap2\n      sub\n      swap1\n      revert\n    tag_324:\n        /* \".deps/npm/@chainlink/contracts/src/v0.7/Operator.sol\":16577:16592  block.timestamp */\n      timestamp\n        /* \".deps/npm/@chainlink/contracts/src/v0.7/Operator.sol\":16563:16573  expiration */\n      dup4\n        /* \".deps/npm/@chainlink/contracts/src/v0.7/Operator.sol\":16563:16592  expiration <= block.timestamp */\n      gt\n      iszero\n        /* \".deps/npm/@chainlink/contracts/src/v0.7/Operator.sol\":16555:16619  require(expiration <= block.timestamp, \"Request is not expired\") */\n      tag_325\n      jumpi\n      mload(0x40)\n      0x08c379a000000000000000000000000000000000000000000000000000000000\n      dup2\n      mstore\n      0x04\n      add\n      dup1\n      dup1\n      0x20\n      add\n      dup3\n      dup2\n      sub\n      dup3\n      mstore\n      0x16\n      dup2\n      mstore\n      0x20\n      add\n      dup1\n      0x52657175657374206973206e6f74206578706972656400000000000000000000\n      dup2\n      mstore\n      pop\n      0x20\n      add\n      swap2\n      pop\n      pop\n      mload(0x40)\n      dup1\n      swap2\n      sub\n      swap1\n      revert\n    tag_325:\n        /* \".deps/npm/@chainlink/contracts/src/v0.7/Operator.sol\":16633:16646  s_commitments */\n      0x04\n        /* \".deps/npm/@chainlink/contracts/src/v0.7/Operator.sol\":16633:16657  s_commitments[requestId] */\n      0x00\n        /* \".deps/npm/@chainlink/contracts/src/v0.7/Operator.sol\":16647:16656  requestId */\n      dup4\n        /* \".deps/npm/@chainlink/contracts/src/v0.7/Operator.sol\":16633:16657  s_commitments[requestId] */\n      dup2\n      mstore\n      0x20\n      add\n      swap1\n      dup2\n      mstore\n      0x20\n      add\n      0x00\n      keccak256\n      0x00\n        /* \".deps/npm/@chainlink/contracts/src/v0.7/Operator.sol\":16626:16657  delete s_commitments[requestId] */\n      dup1\n      dup3\n      add\n      exp(0x0100, 0x00)\n      dup2\n      sload\n      swap1\n      0xffffffffffffffffffffffffffffffffffffffffffffffffffffffffffffff\n      mul\n      not\n      and\n      swap1\n      sstore\n      0x00\n      dup3\n      add\n      exp(0x0100, 0x1f)\n      dup2\n      sload\n      swap1\n      0xff\n      mul\n      not\n      and\n      swap1\n      sstore\n      pop\n      pop\n        /* \".deps/npm/@chainlink/contracts/src/v0.7/Operator.sol\":16688:16697  requestId */\n      dup2\n        /* \".deps/npm/@chainlink/contracts/src/v0.7/Operator.sol\":16668:16698  CancelOracleRequest(requestId) */\n      0xa7842b9ec549398102c0d91b1b9919b2f20558aefdadf57528a95c6cd3292e93\n      mload(0x40)\n      mload(0x40)\n      dup1\n      swap2\n      sub\n      swap1\n      log2\n        /* \".deps/npm/@chainlink/contracts/src/v0.7/Operator.sol\":16705:16714  linkToken */\n      immutable(\"0x5fb12ad98b8d13e095aa2296ce90e81ce800e34edf3e5203ac6ed2bf74255f6c\")\n        /* \".deps/npm/@chainlink/contracts/src/v0.7/Operator.sol\":16705:16723  linkToken.transfer */\n      0xffffffffffffffffffffffffffffffffffffffff\n      and\n      0xa9059cbb\n        /* \".deps/npm/@chainlink/contracts/src/v0.7/Operator.sol\":16724:16734  msg.sender */\n      caller\n        /* \".deps/npm/@chainlink/contracts/src/v0.7/Operator.sol\":16736:16743  payment */\n      dup8\n        /* \".deps/npm/@chainlink/contracts/src/v0.7/Operator.sol\":16705:16744  linkToken.transfer(msg.sender, payment) */\n      mload(0x40)\n      dup4\n      0xffffffff\n      and\n      0xe0\n      shl\n      dup2\n      mstore\n      0x04\n      add\n      dup1\n      dup4\n      0xffffffffffffffffffffffffffffffffffffffff\n      and\n      dup2\n      mstore\n      0x20\n      add\n      dup3\n      dup2\n      mstore\n      0x20\n      add\n      swap3\n      pop\n      pop\n      pop\n      0x20\n      mload(0x40)\n      dup1\n      dup4\n      sub\n      dup2\n      0x00\n      dup8\n      dup1\n      extcodesize\n      iszero\n      dup1\n      iszero\n      tag_326\n      jumpi\n      0x00\n      dup1\n      revert\n    tag_326:\n      pop\n      gas\n      call\n      iszero\n      dup1\n      iszero\n      tag_328\n      jumpi\n      returndatasize\n      0x00\n      dup1\n      returndatacopy\n      revert(0x00, returndatasize)\n    tag_328:\n      pop\n      pop\n      pop\n      pop\n      mload(0x40)\n      returndatasize\n      0x20\n      dup2\n      lt\n      iszero\n      tag_329\n      jumpi\n      0x00\n      dup1\n      revert\n    tag_329:\n      dup2\n      add\n      swap1\n      dup1\n      dup1\n      mload\n      swap1\n      0x20\n      add\n      swap1\n      swap3\n      swap2\n      swap1\n      pop\n      pop\n      pop\n      pop\n        /* \".deps/npm/@chainlink/contracts/src/v0.7/Operator.sol\":16097:16749  function cancelOracleRequestByRequester(... */\n      pop\n      pop\n      pop\n      pop\n      pop\n      pop\n      jump\t// out\n        /* \".deps/npm/@chainlink/contracts/src/v0.7/AuthorizedReceiver.sol\":543:1296  function setAuthorizedSenders(address[] calldata senders) external override validateAuthorizedSenderSetter {... */\n    tag_152:\n        /* \".deps/npm/@chainlink/contracts/src/v0.7/AuthorizedReceiver.sol\":2585:2611  _canSetAuthorizedSenders() */\n      tag_331\n        /* \".deps/npm/@chainlink/contracts/src/v0.7/AuthorizedReceiver.sol\":2585:2609  _canSetAuthorizedSenders */\n      tag_177\n        /* \".deps/npm/@chainlink/contracts/src/v0.7/AuthorizedReceiver.sol\":2585:2611  _canSetAuthorizedSenders() */\n      jump\t// in\n    tag_331:\n        /* \".deps/npm/@chainlink/contracts/src/v0.7/AuthorizedReceiver.sol\":2577:2645  require(_canSetAuthorizedSenders(), \"Cannot set authorized senders\") */\n      tag_332\n      jumpi\n      mload(0x40)\n      0x08c379a000000000000000000000000000000000000000000000000000000000\n      dup2\n      mstore\n      0x04\n      add\n      dup1\n      dup1\n      0x20\n      add\n      dup3\n      dup2\n      sub\n      dup3\n      mstore\n      0x1d\n      dup2\n      mstore\n      0x20\n      add\n      dup1\n      0x43616e6e6f742073657420617574686f72697a65642073656e64657273000000\n      dup2\n      mstore\n      pop\n      0x20\n      add\n      swap2\n      pop\n      pop\n      mload(0x40)\n      dup1\n      swap2\n      sub\n      swap1\n      revert\n    tag_332:\n        /* \".deps/npm/@chainlink/contracts/src/v0.7/AuthorizedReceiver.sol\":681:682  0 */\n      0x00\n        /* \".deps/npm/@chainlink/contracts/src/v0.7/AuthorizedReceiver.sol\":664:671  senders */\n      dup3\n      dup3\n        /* \".deps/npm/@chainlink/contracts/src/v0.7/AuthorizedReceiver.sol\":664:678  senders.length */\n      swap1\n      pop\n        /* \".deps/npm/@chainlink/contracts/src/v0.7/AuthorizedReceiver.sol\":664:682  senders.length > 0 */\n      gt\n        /* \".deps/npm/@chainlink/contracts/src/v0.7/AuthorizedReceiver.sol\":656:714  require(senders.length > 0, \"Must have at least 1 sender\") */\n      tag_334\n      jumpi\n      mload(0x40)\n      0x08c379a000000000000000000000000000000000000000000000000000000000\n      dup2\n      mstore\n      0x04\n      add\n      dup1\n      dup1\n      0x20\n      add\n      dup3\n      dup2\n      sub\n      dup3\n      mstore\n      0x1b\n      dup2\n      mstore\n      0x20\n      add\n      dup1\n      0x4d7573742068617665206174206c6561737420312073656e6465720000000000\n      dup2\n      mstore\n      pop\n      0x20\n      add\n      swap2\n      pop\n      pop\n      mload(0x40)\n      dup1\n      swap2\n      sub\n      swap1\n      revert\n    tag_334:\n        /* \".deps/npm/@chainlink/contracts/src/v0.7/AuthorizedReceiver.sol\":768:799  uint256 authorizedSendersLength */\n      0x00\n        /* \".deps/npm/@chainlink/contracts/src/v0.7/AuthorizedReceiver.sol\":802:824  s_authorizedSenderList */\n      0x01\n        /* \".deps/npm/@chainlink/contracts/src/v0.7/AuthorizedReceiver.sol\":802:831  s_authorizedSenderList.length */\n      dup1\n      sload\n      swap1\n      pop\n        /* \".deps/npm/@chainlink/contracts/src/v0.7/AuthorizedReceiver.sol\":768:831  uint256 authorizedSendersLength = s_authorizedSenderList.length */\n      swap1\n      pop\n        /* \".deps/npm/@chainlink/contracts/src/v0.7/AuthorizedReceiver.sol\":842:851  uint256 i */\n      0x00\n        /* \".deps/npm/@chainlink/contracts/src/v0.7/AuthorizedReceiver.sol\":837:960  for (uint256 i = 0; i < authorizedSendersLength; i++) {... */\n    tag_335:\n        /* \".deps/npm/@chainlink/contracts/src/v0.7/AuthorizedReceiver.sol\":861:884  authorizedSendersLength */\n      dup2\n        /* \".deps/npm/@chainlink/contracts/src/v0.7/AuthorizedReceiver.sol\":857:858  i */\n      dup2\n        /* \".deps/npm/@chainlink/contracts/src/v0.7/AuthorizedReceiver.sol\":857:884  i < authorizedSendersLength */\n      lt\n        /* \".deps/npm/@chainlink/contracts/src/v0.7/AuthorizedReceiver.sol\":837:960  for (uint256 i = 0; i < authorizedSendersLength; i++) {... */\n      iszero\n      tag_336\n      jumpi\n        /* \".deps/npm/@chainlink/contracts/src/v0.7/AuthorizedReceiver.sol\":948:953  false */\n      0x00\n        /* \".deps/npm/@chainlink/contracts/src/v0.7/AuthorizedReceiver.sol\":899:918  s_authorizedSenders */\n      dup1\n        /* \".deps/npm/@chainlink/contracts/src/v0.7/AuthorizedReceiver.sol\":899:945  s_authorizedSenders[s_authorizedSenderList[i]] */\n      0x00\n        /* \".deps/npm/@chainlink/contracts/src/v0.7/AuthorizedReceiver.sol\":919:941  s_authorizedSenderList */\n      0x01\n        /* \".deps/npm/@chainlink/contracts/src/v0.7/AuthorizedReceiver.sol\":942:943  i */\n      dup5\n        /* \".deps/npm/@chainlink/contracts/src/v0.7/AuthorizedReceiver.sol\":919:944  s_authorizedSenderList[i] */\n      dup2\n      sload\n      dup2\n      lt\n      tag_338\n      jumpi\n      invalid\n    tag_338:\n      swap1\n      0x00\n      mstore\n      keccak256(0x00, 0x20)\n      add\n      0x00\n      swap1\n      sload\n      swap1\n      0x0100\n      exp\n      swap1\n      div\n      0xffffffffffffffffffffffffffffffffffffffff\n      and\n        /* \".deps/npm/@chainlink/contracts/src/v0.7/AuthorizedReceiver.sol\":899:945  s_authorizedSenders[s_authorizedSenderList[i]] */\n      0xffffffffffffffffffffffffffffffffffffffff\n      and\n      0xffffffffffffffffffffffffffffffffffffffff\n      and\n      dup2\n      mstore\n      0x20\n      add\n      swap1\n      dup2\n      mstore\n      0x20\n      add\n      0x00\n      keccak256\n      0x00\n        /* \".deps/npm/@chainlink/contracts/src/v0.7/AuthorizedReceiver.sol\":899:953  s_authorizedSenders[s_authorizedSenderList[i]] = false */\n      0x0100\n      exp\n      dup2\n      sload\n      dup2\n      0xff\n      mul\n      not\n      and\n      swap1\n      dup4\n      iszero\n      iszero\n      mul\n      or\n      swap1\n      sstore\n      pop\n        /* \".deps/npm/@chainlink/contracts/src/v0.7/AuthorizedReceiver.sol\":886:889  i++ */\n      dup1\n      dup1\n      0x01\n      add\n      swap2\n      pop\n      pop\n        /* \".deps/npm/@chainlink/contracts/src/v0.7/AuthorizedReceiver.sol\":837:960  for (uint256 i = 0; i < authorizedSendersLength; i++) {... */\n      jump(tag_335)\n    tag_336:\n      pop\n        /* \".deps/npm/@chainlink/contracts/src/v0.7/AuthorizedReceiver.sol\":993:1002  uint256 i */\n      0x00\n        /* \".deps/npm/@chainlink/contracts/src/v0.7/AuthorizedReceiver.sol\":988:1178  for (uint256 i = 0; i < senders.length; i++) {... */\n    tag_340:\n        /* \".deps/npm/@chainlink/contracts/src/v0.7/AuthorizedReceiver.sol\":1012:1019  senders */\n      dup4\n      dup4\n        /* \".deps/npm/@chainlink/contracts/src/v0.7/AuthorizedReceiver.sol\":1012:1026  senders.length */\n      swap1\n      pop\n        /* \".deps/npm/@chainlink/contracts/src/v0.7/AuthorizedReceiver.sol\":1008:1009  i */\n      dup2\n        /* \".deps/npm/@chainlink/contracts/src/v0.7/AuthorizedReceiver.sol\":1008:1026  i < senders.length */\n      lt\n        /* \".deps/npm/@chainlink/contracts/src/v0.7/AuthorizedReceiver.sol\":988:1178  for (uint256 i = 0; i < senders.length; i++) {... */\n      iszero\n      tag_341\n      jumpi\n        /* \".deps/npm/@chainlink/contracts/src/v0.7/AuthorizedReceiver.sol\":1084:1089  false */\n      0x00\n        /* \".deps/npm/@chainlink/contracts/src/v0.7/AuthorizedReceiver.sol\":1049:1089  s_authorizedSenders[senders[i]] == false */\n      iszero\n      iszero\n        /* \".deps/npm/@chainlink/contracts/src/v0.7/AuthorizedReceiver.sol\":1049:1068  s_authorizedSenders */\n      0x00\n        /* \".deps/npm/@chainlink/contracts/src/v0.7/AuthorizedReceiver.sol\":1049:1080  s_authorizedSenders[senders[i]] */\n      dup1\n        /* \".deps/npm/@chainlink/contracts/src/v0.7/AuthorizedReceiver.sol\":1069:1076  senders */\n      dup7\n      dup7\n        /* \".deps/npm/@chainlink/contracts/src/v0.7/AuthorizedReceiver.sol\":1077:1078  i */\n      dup6\n        /* \".deps/npm/@chainlink/contracts/src/v0.7/AuthorizedReceiver.sol\":1069:1079  senders[i] */\n      dup2\n      dup2\n      lt\n      tag_343\n      jumpi\n      invalid\n    tag_343:\n      swap1\n      pop\n      0x20\n      mul\n      add\n      calldataload\n      0xffffffffffffffffffffffffffffffffffffffff\n      and\n        /* \".deps/npm/@chainlink/contracts/src/v0.7/AuthorizedReceiver.sol\":1049:1080  s_authorizedSenders[senders[i]] */\n      0xffffffffffffffffffffffffffffffffffffffff\n      and\n      0xffffffffffffffffffffffffffffffffffffffff\n      and\n      dup2\n      mstore\n      0x20\n      add\n      swap1\n      dup2\n      mstore\n      0x20\n      add\n      0x00\n      keccak256\n      0x00\n      swap1\n      sload\n      swap1\n      0x0100\n      exp\n      swap1\n      div\n      0xff\n      and\n        /* \".deps/npm/@chainlink/contracts/src/v0.7/AuthorizedReceiver.sol\":1049:1089  s_authorizedSenders[senders[i]] == false */\n      iszero\n      iszero\n      eq\n        /* \".deps/npm/@chainlink/contracts/src/v0.7/AuthorizedReceiver.sol\":1041:1125  require(s_authorizedSenders[senders[i]] == false, \"Must not have duplicate senders\") */\n      tag_344\n      jumpi\n      mload(0x40)\n      0x08c379a000000000000000000000000000000000000000000000000000000000\n      dup2\n      mstore\n      0x04\n      add\n      dup1\n      dup1\n      0x20\n      add\n      dup3\n      dup2\n      sub\n      dup3\n      mstore\n      0x1f\n      dup2\n      mstore\n      0x20\n      add\n      dup1\n      0x4d757374206e6f742068617665206475706c69636174652073656e6465727300\n      dup2\n      mstore\n      pop\n      0x20\n      add\n      swap2\n      pop\n      pop\n      mload(0x40)\n      dup1\n      swap2\n      sub\n      swap1\n      revert\n    tag_344:\n        /* \".deps/npm/@chainlink/contracts/src/v0.7/AuthorizedReceiver.sol\":1167:1171  true */\n      0x01\n        /* \".deps/npm/@chainlink/contracts/src/v0.7/AuthorizedReceiver.sol\":1133:1152  s_authorizedSenders */\n      0x00\n        /* \".deps/npm/@chainlink/contracts/src/v0.7/AuthorizedReceiver.sol\":1133:1164  s_authorizedSenders[senders[i]] */\n      dup1\n        /* \".deps/npm/@chainlink/contracts/src/v0.7/AuthorizedReceiver.sol\":1153:1160  senders */\n      dup7\n      dup7\n        /* \".deps/npm/@chainlink/contracts/src/v0.7/AuthorizedReceiver.sol\":1161:1162  i */\n      dup6\n        /* \".deps/npm/@chainlink/contracts/src/v0.7/AuthorizedReceiver.sol\":1153:1163  senders[i] */\n      dup2\n      dup2\n      lt\n      tag_345\n      jumpi\n      invalid\n    tag_345:\n      swap1\n      pop\n      0x20\n      mul\n      add\n      calldataload\n      0xffffffffffffffffffffffffffffffffffffffff\n      and\n        /* \".deps/npm/@chainlink/contracts/src/v0.7/AuthorizedReceiver.sol\":1133:1164  s_authorizedSenders[senders[i]] */\n      0xffffffffffffffffffffffffffffffffffffffff\n      and\n      0xffffffffffffffffffffffffffffffffffffffff\n      and\n      dup2\n      mstore\n      0x20\n      add\n      swap1\n      dup2\n      mstore\n      0x20\n      add\n      0x00\n      keccak256\n      0x00\n        /* \".deps/npm/@chainlink/contracts/src/v0.7/AuthorizedReceiver.sol\":1133:1171  s_authorizedSenders[senders[i]] = true */\n      0x0100\n      exp\n      dup2\n      sload\n      dup2\n      0xff\n      mul\n      not\n      and\n      swap1\n      dup4\n      iszero\n      iszero\n      mul\n      or\n      swap1\n      sstore\n      pop\n        /* \".deps/npm/@chainlink/contracts/src/v0.7/AuthorizedReceiver.sol\":1028:1031  i++ */\n      dup1\n      dup1\n      0x01\n      add\n      swap2\n      pop\n      pop\n        /* \".deps/npm/@chainlink/contracts/src/v0.7/AuthorizedReceiver.sol\":988:1178  for (uint256 i = 0; i < senders.length; i++) {... */\n      jump(tag_340)\n    tag_341:\n      pop\n        /* \".deps/npm/@chainlink/contracts/src/v0.7/AuthorizedReceiver.sol\":1228:1235  senders */\n      dup3\n      dup3\n        /* \".deps/npm/@chainlink/contracts/src/v0.7/AuthorizedReceiver.sol\":1203:1225  s_authorizedSenderList */\n      0x01\n        /* \".deps/npm/@chainlink/contracts/src/v0.7/AuthorizedReceiver.sol\":1203:1235  s_authorizedSenderList = senders */\n      swap2\n      swap1\n      tag_346\n      swap3\n      swap2\n      swap1\n      tag_347\n      jump\t// in\n    tag_346:\n      pop\n        /* \".deps/npm/@chainlink/contracts/src/v0.7/AuthorizedReceiver.sol\":1246:1291  AuthorizedSendersChanged(senders, msg.sender) */\n      0xf263cfb3e4298332e776194610cf9fdc09ccb3ada8b9aa39764d882e11fbf0a0\n        /* \".deps/npm/@chainlink/contracts/src/v0.7/AuthorizedReceiver.sol\":1271:1278  senders */\n      dup4\n      dup4\n        /* \".deps/npm/@chainlink/contracts/src/v0.7/AuthorizedReceiver.sol\":1280:1290  msg.sender */\n      caller\n        /* \".deps/npm/@chainlink/contracts/src/v0.7/AuthorizedReceiver.sol\":1246:1291  AuthorizedSendersChanged(senders, msg.sender) */\n      mload(0x40)\n      dup1\n      dup1\n      0x20\n      add\n      dup4\n      0xffffffffffffffffffffffffffffffffffffffff\n      and\n      dup2\n      mstore\n      0x20\n      add\n      dup3\n      dup2\n      sub\n      dup3\n      mstore\n      dup6\n      dup6\n      dup3\n      dup2\n      dup2\n      mstore\n      0x20\n      add\n      swap3\n      pop\n      0x20\n      mul\n      dup1\n      dup3\n      dup5\n      calldatacopy\n      0x00\n      dup2\n      dup5\n      add\n      mstore\n      not(0x1f)\n      0x1f\n      dup3\n      add\n      and\n      swap1\n      pop\n      dup1\n      dup4\n      add\n      swap3\n      pop\n      pop\n      pop\n      swap5\n      pop\n      pop\n      pop\n      pop\n      pop\n      mload(0x40)\n      dup1\n      swap2\n      sub\n      swap1\n      log1\n        /* \".deps/npm/@chainlink/contracts/src/v0.7/AuthorizedReceiver.sol\":2651:2652  _ */\n      pop\n        /* \".deps/npm/@chainlink/contracts/src/v0.7/AuthorizedReceiver.sol\":543:1296  function setAuthorizedSenders(address[] calldata senders) external override validateAuthorizedSenderSetter {... */\n      pop\n      pop\n      jump\t// out\n        /* \".deps/npm/@chainlink/contracts/src/v0.7/ConfirmedOwnerWithProposal.sol\":826:924  function transferOwnership(address to) public override onlyOwner {... */\n    tag_156:\n        /* \".deps/npm/@chainlink/contracts/src/v0.7/ConfirmedOwnerWithProposal.sol\":1956:1976  _validateOwnership() */\n      tag_349\n        /* \".deps/npm/@chainlink/contracts/src/v0.7/ConfirmedOwnerWithProposal.sol\":1956:1974  _validateOwnership */\n      tag_191\n        /* \".deps/npm/@chainlink/contracts/src/v0.7/ConfirmedOwnerWithProposal.sol\":1956:1976  _validateOwnership() */\n      jump\t// in\n    tag_349:\n        /* \".deps/npm/@chainlink/contracts/src/v0.7/ConfirmedOwnerWithProposal.sol\":897:919  _transferOwnership(to) */\n      tag_351\n        /* \".deps/npm/@chainlink/contracts/src/v0.7/ConfirmedOwnerWithProposal.sol\":916:918  to */\n      dup2\n        /* \".deps/npm/@chainlink/contracts/src/v0.7/ConfirmedOwnerWithProposal.sol\":897:915  _transferOwnership */\n      tag_352\n        /* \".deps/npm/@chainlink/contracts/src/v0.7/ConfirmedOwnerWithProposal.sol\":897:919  _transferOwnership(to) */\n      jump\t// in\n    tag_351:\n        /* \".deps/npm/@chainlink/contracts/src/v0.7/ConfirmedOwnerWithProposal.sol\":826:924  function transferOwnership(address to) public override onlyOwner {... */\n      pop\n      jump\t// out\n        /* \".deps/npm/@chainlink/contracts/src/v0.7/Operator.sol\":11909:12133  function withdraw(address recipient, uint256 amount)... */\n    tag_160:\n        /* \".deps/npm/@chainlink/contracts/src/v0.7/ConfirmedOwnerWithProposal.sol\":1956:1976  _validateOwnership() */\n      tag_354\n        /* \".deps/npm/@chainlink/contracts/src/v0.7/ConfirmedOwnerWithProposal.sol\":1956:1974  _validateOwnership */\n      tag_191\n        /* \".deps/npm/@chainlink/contracts/src/v0.7/ConfirmedOwnerWithProposal.sol\":1956:1976  _validateOwnership() */\n      jump\t// in\n    tag_354:\n        /* \".deps/npm/@chainlink/contracts/src/v0.7/Operator.sol\":12067:12073  amount */\n      dup1\n        /* \".deps/npm/@chainlink/contracts/src/v0.7/Operator.sol\":22260:22266  amount */\n      dup1\n        /* \".deps/npm/@chainlink/contracts/src/v0.7/Operator.sol\":22239:22256  _fundsAvailable() */\n      tag_356\n        /* \".deps/npm/@chainlink/contracts/src/v0.7/Operator.sol\":22239:22254  _fundsAvailable */\n      tag_248\n        /* \".deps/npm/@chainlink/contracts/src/v0.7/Operator.sol\":22239:22256  _fundsAvailable() */\n      jump\t// in\n    tag_356:\n        /* \".deps/npm/@chainlink/contracts/src/v0.7/Operator.sol\":22239:22266  _fundsAvailable() >= amount */\n      lt\n      iszero\n        /* \".deps/npm/@chainlink/contracts/src/v0.7/Operator.sol\":22231:22324  require(_fundsAvailable() >= amount, \"Amount requested is greater than withdrawable balance\") */\n      tag_357\n      jumpi\n      mload(0x40)\n      0x08c379a000000000000000000000000000000000000000000000000000000000\n      dup2\n      mstore\n      0x04\n      add\n      dup1\n      dup1\n      0x20\n      add\n      dup3\n      dup2\n      sub\n      dup3\n      mstore\n      0x35\n      dup2\n      mstore\n      0x20\n      add\n      dup1\n      data_87cfc663fcf6403059a83571137d56c7da4a1aa2a371627fe8ecf960f50e10c2\n      0x35\n      swap2\n      codecopy\n      0x40\n      add\n      swap2\n      pop\n      pop\n      mload(0x40)\n      dup1\n      swap2\n      sub\n      swap1\n      revert\n    tag_357:\n        /* \".deps/npm/@chainlink/contracts/src/v0.7/Operator.sol\":12090:12099  linkToken */\n      immutable(\"0x5fb12ad98b8d13e095aa2296ce90e81ce800e34edf3e5203ac6ed2bf74255f6c\")\n        /* \".deps/npm/@chainlink/contracts/src/v0.7/Operator.sol\":12090:12108  linkToken.transfer */\n      0xffffffffffffffffffffffffffffffffffffffff\n      and\n      0xa9059cbb\n        /* \".deps/npm/@chainlink/contracts/src/v0.7/Operator.sol\":12109:12118  recipient */\n      dup5\n        /* \".deps/npm/@chainlink/contracts/src/v0.7/Operator.sol\":12120:12126  amount */\n      dup5\n        /* \".deps/npm/@chainlink/contracts/src/v0.7/Operator.sol\":12090:12127  linkToken.transfer(recipient, amount) */\n      mload(0x40)\n      dup4\n      0xffffffff\n      and\n      0xe0\n      shl\n      dup2\n      mstore\n      0x04\n      add\n      dup1\n      dup4\n      0xffffffffffffffffffffffffffffffffffffffff\n      and\n      dup2\n      mstore\n      0x20\n      add\n      dup3\n      dup2\n      mstore\n      0x20\n      add\n      swap3\n      pop\n      pop\n      pop\n      0x20\n      mload(0x40)\n      dup1\n      dup4\n      sub\n      dup2\n      0x00\n      dup8\n      dup1\n      extcodesize\n      iszero\n      dup1\n      iszero\n      tag_359\n      jumpi\n      0x00\n      dup1\n      revert\n    tag_359:\n      pop\n      gas\n      call\n      iszero\n      dup1\n      iszero\n      tag_361\n      jumpi\n      returndatasize\n      0x00\n      dup1\n      returndatacopy\n      revert(0x00, returndatasize)\n    tag_361:\n      pop\n      pop\n      pop\n      pop\n      mload(0x40)\n      returndatasize\n      0x20\n      dup2\n      lt\n      iszero\n      tag_362\n      jumpi\n      0x00\n      dup1\n      revert\n    tag_362:\n      dup2\n      add\n      swap1\n      dup1\n      dup1\n      mload\n      swap1\n      0x20\n      add\n      swap1\n      swap3\n      swap2\n      swap1\n      pop\n      pop\n      pop\n        /* \".deps/npm/@chainlink/contracts/src/v0.7/Operator.sol\":12083:12128  assert(linkToken.transfer(recipient, amount)) */\n      tag_363\n      jumpi\n      invalid\n    tag_363:\n        /* \".deps/npm/@chainlink/contracts/src/v0.7/ConfirmedOwnerWithProposal.sol\":1982:1983  _ */\n      pop\n        /* \".deps/npm/@chainlink/contracts/src/v0.7/Operator.sol\":11909:12133  function withdraw(address recipient, uint256 amount)... */\n      pop\n      pop\n      jump\t// out\n        /* \".deps/npm/@chainlink/contracts/src/v0.7/AuthorizedReceiver.sol\":1715:1840  function isAuthorizedSender(address sender) public view override returns (bool) {... */\n    tag_164:\n        /* \".deps/npm/@chainlink/contracts/src/v0.7/AuthorizedReceiver.sol\":1789:1793  bool */\n      0x00\n        /* \".deps/npm/@chainlink/contracts/src/v0.7/AuthorizedReceiver.sol\":1808:1827  s_authorizedSenders */\n      dup1\n        /* \".deps/npm/@chainlink/contracts/src/v0.7/AuthorizedReceiver.sol\":1808:1835  s_authorizedSenders[sender] */\n      0x00\n        /* \".deps/npm/@chainlink/contracts/src/v0.7/AuthorizedReceiver.sol\":1828:1834  sender */\n      dup4\n        /* \".deps/npm/@chainlink/contracts/src/v0.7/AuthorizedReceiver.sol\":1808:1835  s_authorizedSenders[sender] */\n      0xffffffffffffffffffffffffffffffffffffffff\n      and\n      0xffffffffffffffffffffffffffffffffffffffff\n      and\n      dup2\n      mstore\n      0x20\n      add\n      swap1\n      dup2\n      mstore\n      0x20\n      add\n      0x00\n      keccak256\n      0x00\n      swap1\n      sload\n      swap1\n      0x0100\n      exp\n      swap1\n      div\n      0xff\n      and\n        /* \".deps/npm/@chainlink/contracts/src/v0.7/AuthorizedReceiver.sol\":1801:1835  return s_authorizedSenders[sender] */\n      swap1\n      pop\n        /* \".deps/npm/@chainlink/contracts/src/v0.7/AuthorizedReceiver.sol\":1715:1840  function isAuthorizedSender(address sender) public view override returns (bool) {... */\n      swap2\n      swap1\n      pop\n      jump\t// out\n        /* \".deps/npm/@chainlink/contracts/src/v0.7/Operator.sol\":10612:10955  function setAuthorizedSendersOn(address[] calldata targets, address[] calldata senders)... */\n    tag_174:\n        /* \".deps/npm/@chainlink/contracts/src/v0.7/AuthorizedReceiver.sol\":2585:2611  _canSetAuthorizedSenders() */\n      tag_366\n        /* \".deps/npm/@chainlink/contracts/src/v0.7/AuthorizedReceiver.sol\":2585:2609  _canSetAuthorizedSenders */\n      tag_177\n        /* \".deps/npm/@chainlink/contracts/src/v0.7/AuthorizedReceiver.sol\":2585:2611  _canSetAuthorizedSenders() */\n      jump\t// in\n    tag_366:\n        /* \".deps/npm/@chainlink/contracts/src/v0.7/AuthorizedReceiver.sol\":2577:2645  require(_canSetAuthorizedSenders(), \"Cannot set authorized senders\") */\n      tag_367\n      jumpi\n      mload(0x40)\n      0x08c379a000000000000000000000000000000000000000000000000000000000\n      dup2\n      mstore\n      0x04\n      add\n      dup1\n      dup1\n      0x20\n      add\n      dup3\n      dup2\n      sub\n      dup3\n      mstore\n      0x1d\n      dup2\n      mstore\n      0x20\n      add\n      dup1\n      0x43616e6e6f742073657420617574686f72697a65642073656e64657273000000\n      dup2\n      mstore\n      pop\n      0x20\n      add\n      swap2\n      pop\n      pop\n      mload(0x40)\n      dup1\n      swap2\n      sub\n      swap1\n      revert\n    tag_367:\n        /* \".deps/npm/@chainlink/contracts/src/v0.7/Operator.sol\":10754:10815  TargetsUpdatedAuthorizedSenders(targets, senders, msg.sender) */\n      0x1bb185903e2cb2f1b303523128b60e314dea81df4f8d9b7351cadd344f6e7727\n        /* \".deps/npm/@chainlink/contracts/src/v0.7/Operator.sol\":10786:10793  targets */\n      dup5\n      dup5\n        /* \".deps/npm/@chainlink/contracts/src/v0.7/Operator.sol\":10795:10802  senders */\n      dup5\n      dup5\n        /* \".deps/npm/@chainlink/contracts/src/v0.7/Operator.sol\":10804:10814  msg.sender */\n      caller\n        /* \".deps/npm/@chainlink/contracts/src/v0.7/Operator.sol\":10754:10815  TargetsUpdatedAuthorizedSenders(targets, senders, msg.sender) */\n      mload(0x40)\n      dup1\n      dup1\n      0x20\n      add\n      dup1\n      0x20\n      add\n      dup5\n      0xffffffffffffffffffffffffffffffffffffffff\n      and\n      dup2\n      mstore\n      0x20\n      add\n      dup4\n      dup2\n      sub\n      dup4\n      mstore\n      dup9\n      dup9\n      dup3\n      dup2\n      dup2\n      mstore\n      0x20\n      add\n      swap3\n      pop\n      0x20\n      mul\n      dup1\n      dup3\n      dup5\n      calldatacopy\n      0x00\n      dup2\n      dup5\n      add\n      mstore\n      not(0x1f)\n      0x1f\n      dup3\n      add\n      and\n      swap1\n      pop\n      dup1\n      dup4\n      add\n      swap3\n      pop\n      pop\n      pop\n      dup4\n      dup2\n      sub\n      dup3\n      mstore\n      dup7\n      dup7\n      dup3\n      dup2\n      dup2\n      mstore\n      0x20\n      add\n      swap3\n      pop\n      0x20\n      mul\n      dup1\n      dup3\n      dup5\n      calldatacopy\n      0x00\n      dup2\n      dup5\n      add\n      mstore\n      not(0x1f)\n      0x1f\n      dup3\n      add\n      and\n      swap1\n      pop\n      dup1\n      dup4\n      add\n      swap3\n      pop\n      pop\n      pop\n      swap8\n      pop\n      pop\n      pop\n      pop\n      pop\n      pop\n      pop\n      pop\n      mload(0x40)\n      dup1\n      swap2\n      sub\n      swap1\n      log1\n        /* \".deps/npm/@chainlink/contracts/src/v0.7/Operator.sol\":10827:10836  uint256 i */\n      0x00\n        /* \".deps/npm/@chainlink/contracts/src/v0.7/Operator.sol\":10822:10951  for (uint256 i = 0; i < targets.length; i++) {... */\n    tag_369:\n        /* \".deps/npm/@chainlink/contracts/src/v0.7/Operator.sol\":10846:10853  targets */\n      dup5\n      dup5\n        /* \".deps/npm/@chainlink/contracts/src/v0.7/Operator.sol\":10846:10860  targets.length */\n      swap1\n      pop\n        /* \".deps/npm/@chainlink/contracts/src/v0.7/Operator.sol\":10842:10843  i */\n      dup2\n        /* \".deps/npm/@chainlink/contracts/src/v0.7/Operator.sol\":10842:10860  i < targets.length */\n      lt\n        /* \".deps/npm/@chainlink/contracts/src/v0.7/Operator.sol\":10822:10951  for (uint256 i = 0; i < targets.length; i++) {... */\n      iszero\n      tag_370\n      jumpi\n        /* \".deps/npm/@chainlink/contracts/src/v0.7/Operator.sol\":10903:10910  targets */\n      dup5\n      dup5\n        /* \".deps/npm/@chainlink/contracts/src/v0.7/Operator.sol\":10911:10912  i */\n      dup3\n        /* \".deps/npm/@chainlink/contracts/src/v0.7/Operator.sol\":10903:10913  targets[i] */\n      dup2\n      dup2\n      lt\n      tag_372\n      jumpi\n      invalid\n    tag_372:\n      swap1\n      pop\n      0x20\n      mul\n      add\n      calldataload\n      0xffffffffffffffffffffffffffffffffffffffff\n      and\n        /* \".deps/npm/@chainlink/contracts/src/v0.7/Operator.sol\":10875:10935  AuthorizedReceiverInterface(targets[i]).setAuthorizedSenders */\n      0xffffffffffffffffffffffffffffffffffffffff\n      and\n      0xee56997b\n        /* \".deps/npm/@chainlink/contracts/src/v0.7/Operator.sol\":10936:10943  senders */\n      dup5\n      dup5\n        /* \".deps/npm/@chainlink/contracts/src/v0.7/Operator.sol\":10875:10944  AuthorizedReceiverInterface(targets[i]).setAuthorizedSenders(senders) */\n      mload(0x40)\n      dup4\n      0xffffffff\n      and\n      0xe0\n      shl\n      dup2\n      mstore\n      0x04\n      add\n      dup1\n      dup1\n      0x20\n      add\n      dup3\n      dup2\n      sub\n      dup3\n      mstore\n      dup5\n      dup5\n      dup3\n      dup2\n      dup2\n      mstore\n      0x20\n      add\n      swap3\n      pop\n      0x20\n      mul\n      dup1\n      dup3\n      dup5\n      calldatacopy\n      0x00\n      dup2\n      dup5\n      add\n      mstore\n      not(0x1f)\n      0x1f\n      dup3\n      add\n      and\n      swap1\n      pop\n      dup1\n      dup4\n      add\n      swap3\n      pop\n      pop\n      pop\n      swap4\n      pop\n      pop\n      pop\n      pop\n      0x00\n      mload(0x40)\n      dup1\n      dup4\n      sub\n      dup2\n      0x00\n      dup8\n      dup1\n      extcodesize\n      iszero\n      dup1\n      iszero\n      tag_373\n      jumpi\n      0x00\n      dup1\n      revert\n    tag_373:\n      pop\n      gas\n      call\n      iszero\n      dup1\n      iszero\n      tag_375\n      jumpi\n      returndatasize\n      0x00\n      dup1\n      returndatacopy\n      revert(0x00, returndatasize)\n    tag_375:\n      pop\n      pop\n      pop\n      pop\n        /* \".deps/npm/@chainlink/contracts/src/v0.7/Operator.sol\":10862:10865  i++ */\n      dup1\n      dup1\n      0x01\n      add\n      swap2\n      pop\n      pop\n        /* \".deps/npm/@chainlink/contracts/src/v0.7/Operator.sol\":10822:10951  for (uint256 i = 0; i < targets.length; i++) {... */\n      jump(tag_369)\n    tag_370:\n      pop\n        /* \".deps/npm/@chainlink/contracts/src/v0.7/Operator.sol\":10612:10955  function setAuthorizedSendersOn(address[] calldata targets, address[] calldata senders)... */\n      pop\n      pop\n      pop\n      pop\n      jump\t// out\n        /* \".deps/npm/@chainlink/contracts/src/v0.7/Operator.sol\":21374:21521  function _canSetAuthorizedSenders() internal view override returns (bool) {... */\n    tag_177:\n        /* \".deps/npm/@chainlink/contracts/src/v0.7/Operator.sol\":21442:21446  bool */\n      0x00\n        /* \".deps/npm/@chainlink/contracts/src/v0.7/Operator.sol\":21461:21491  isAuthorizedSender(msg.sender) */\n      tag_377\n        /* \".deps/npm/@chainlink/contracts/src/v0.7/Operator.sol\":21480:21490  msg.sender */\n      caller\n        /* \".deps/npm/@chainlink/contracts/src/v0.7/Operator.sol\":21461:21479  isAuthorizedSender */\n      tag_164\n        /* \".deps/npm/@chainlink/contracts/src/v0.7/Operator.sol\":21461:21491  isAuthorizedSender(msg.sender) */\n      jump\t// in\n    tag_377:\n        /* \".deps/npm/@chainlink/contracts/src/v0.7/Operator.sol\":21461:21516  isAuthorizedSender(msg.sender) || owner() == msg.sender */\n      dup1\n      tag_378\n      jumpi\n      pop\n        /* \".deps/npm/@chainlink/contracts/src/v0.7/Operator.sol\":21506:21516  msg.sender */\n      caller\n        /* \".deps/npm/@chainlink/contracts/src/v0.7/Operator.sol\":21495:21516  owner() == msg.sender */\n      0xffffffffffffffffffffffffffffffffffffffff\n      and\n        /* \".deps/npm/@chainlink/contracts/src/v0.7/Operator.sol\":21495:21502  owner() */\n      tag_379\n        /* \".deps/npm/@chainlink/contracts/src/v0.7/Operator.sol\":21495:21500  owner */\n      tag_127\n        /* \".deps/npm/@chainlink/contracts/src/v0.7/Operator.sol\":21495:21502  owner() */\n      jump\t// in\n    tag_379:\n        /* \".deps/npm/@chainlink/contracts/src/v0.7/Operator.sol\":21495:21516  owner() == msg.sender */\n      0xffffffffffffffffffffffffffffffffffffffff\n      and\n      eq\n        /* \".deps/npm/@chainlink/contracts/src/v0.7/Operator.sol\":21461:21516  isAuthorizedSender(msg.sender) || owner() == msg.sender */\n    tag_378:\n        /* \".deps/npm/@chainlink/contracts/src/v0.7/Operator.sol\":21454:21516  return isAuthorizedSender(msg.sender) || owner() == msg.sender */\n      swap1\n      pop\n        /* \".deps/npm/@chainlink/contracts/src/v0.7/Operator.sol\":21374:21521  function _canSetAuthorizedSenders() internal view override returns (bool) {... */\n      swap1\n      jump\t// out\n        /* \".deps/npm/@chainlink/contracts/src/v0.7/ConfirmedOwnerWithProposal.sol\":1730:1841  function _validateOwnership() internal view {... */\n    tag_191:\n        /* \".deps/npm/@chainlink/contracts/src/v0.7/ConfirmedOwnerWithProposal.sol\":1802:1809  s_owner */\n      0x02\n      0x00\n      swap1\n      sload\n      swap1\n      0x0100\n      exp\n      swap1\n      div\n      0xffffffffffffffffffffffffffffffffffffffff\n      and\n        /* \".deps/npm/@chainlink/contracts/src/v0.7/ConfirmedOwnerWithProposal.sol\":1788:1809  msg.sender == s_owner */\n      0xffffffffffffffffffffffffffffffffffffffff\n      and\n        /* \".deps/npm/@chainlink/contracts/src/v0.7/ConfirmedOwnerWithProposal.sol\":1788:1798  msg.sender */\n      caller\n        /* \".deps/npm/@chainlink/contracts/src/v0.7/ConfirmedOwnerWithProposal.sol\":1788:1809  msg.sender == s_owner */\n      0xffffffffffffffffffffffffffffffffffffffff\n      and\n      eq\n        /* \".deps/npm/@chainlink/contracts/src/v0.7/ConfirmedOwnerWithProposal.sol\":1780:1836  require(msg.sender == s_owner, \"Only callable by owner\") */\n      tag_381\n      jumpi\n      mload(0x40)\n      0x08c379a000000000000000000000000000000000000000000000000000000000\n      dup2\n      mstore\n      0x04\n      add\n      dup1\n      dup1\n      0x20\n      add\n      dup3\n      dup2\n      sub\n      dup3\n      mstore\n      0x16\n      dup2\n      mstore\n      0x20\n      add\n      dup1\n      0x4f6e6c792063616c6c61626c65206279206f776e657200000000000000000000\n      dup2\n      mstore\n      pop\n      0x20\n      add\n      swap2\n      pop\n      pop\n      mload(0x40)\n      dup1\n      swap2\n      sub\n      swap1\n      revert\n    tag_381:\n        /* \".deps/npm/@chainlink/contracts/src/v0.7/ConfirmedOwnerWithProposal.sol\":1730:1841  function _validateOwnership() internal view {... */\n      jump\t// out\n        /* \".deps/npm/@chainlink/contracts/src/v0.7/vendor/Address.sol\":802:1195  function isContract(address account) internal view returns (bool) {... */\n    tag_196:\n        /* \".deps/npm/@chainlink/contracts/src/v0.7/vendor/Address.sol\":862:866  bool */\n      0x00\n        /* \".deps/npm/@chainlink/contracts/src/v0.7/vendor/Address.sol\":1049:1061  uint256 size */\n      dup1\n        /* \".deps/npm/@chainlink/contracts/src/v0.7/vendor/Address.sol\":1156:1163  account */\n      dup3\n        /* \".deps/npm/@chainlink/contracts/src/v0.7/vendor/Address.sol\":1144:1164  extcodesize(account) */\n      extcodesize\n        /* \".deps/npm/@chainlink/contracts/src/v0.7/vendor/Address.sol\":1136:1164  size := extcodesize(account) */\n      swap1\n      pop\n        /* \".deps/npm/@chainlink/contracts/src/v0.7/vendor/Address.sol\":1189:1190  0 */\n      0x00\n        /* \".deps/npm/@chainlink/contracts/src/v0.7/vendor/Address.sol\":1182:1186  size */\n      dup2\n        /* \".deps/npm/@chainlink/contracts/src/v0.7/vendor/Address.sol\":1182:1190  size > 0 */\n      gt\n        /* \".deps/npm/@chainlink/contracts/src/v0.7/vendor/Address.sol\":1175:1190  return size > 0 */\n      swap2\n      pop\n      pop\n        /* \".deps/npm/@chainlink/contracts/src/v0.7/vendor/Address.sol\":802:1195  function isContract(address account) internal view returns (bool) {... */\n      swap2\n      swap1\n      pop\n      jump\t// out\n        /* \".deps/npm/@chainlink/contracts/src/v0.7/Operator.sol\":17943:18747  function _verifyAndProcessOracleRequest(... */\n    tag_212:\n        /* \".deps/npm/@chainlink/contracts/src/v0.7/Operator.sol\":18184:18201  bytes32 requestId */\n      0x00\n        /* \".deps/npm/@chainlink/contracts/src/v0.7/Operator.sol\":18203:18221  uint256 expiration */\n      dup1\n        /* \".deps/npm/@chainlink/contracts/src/v0.7/Operator.sol\":18158:18173  callbackAddress */\n      dup6\n        /* \".deps/npm/@chainlink/contracts/src/v0.7/Operator.sol\":22798:22807  linkToken */\n      immutable(\"0x5fb12ad98b8d13e095aa2296ce90e81ce800e34edf3e5203ac6ed2bf74255f6c\")\n        /* \".deps/npm/@chainlink/contracts/src/v0.7/Operator.sol\":22784:22808  to != address(linkToken) */\n      0xffffffffffffffffffffffffffffffffffffffff\n      and\n        /* \".deps/npm/@chainlink/contracts/src/v0.7/Operator.sol\":22784:22786  to */\n      dup2\n        /* \".deps/npm/@chainlink/contracts/src/v0.7/Operator.sol\":22784:22808  to != address(linkToken) */\n      0xffffffffffffffffffffffffffffffffffffffff\n      and\n      eq\n      iszero\n        /* \".deps/npm/@chainlink/contracts/src/v0.7/Operator.sol\":22776:22832  require(to != address(linkToken), \"Cannot call to LINK\") */\n      tag_384\n      jumpi\n      mload(0x40)\n      0x08c379a000000000000000000000000000000000000000000000000000000000\n      dup2\n      mstore\n      0x04\n      add\n      dup1\n      dup1\n      0x20\n      add\n      dup3\n      dup2\n      sub\n      dup3\n      mstore\n      0x13\n      dup2\n      mstore\n      0x20\n      add\n      dup1\n      0x43616e6e6f742063616c6c20746f204c494e4b00000000000000000000000000\n      dup2\n      mstore\n      pop\n      0x20\n      add\n      swap2\n      pop\n      pop\n      mload(0x40)\n      dup1\n      swap2\n      sub\n      swap1\n      revert\n    tag_384:\n        /* \".deps/npm/@chainlink/contracts/src/v0.7/Operator.sol\":18268:18274  sender */\n      dup9\n        /* \".deps/npm/@chainlink/contracts/src/v0.7/Operator.sol\":18276:18281  nonce */\n      dup6\n        /* \".deps/npm/@chainlink/contracts/src/v0.7/Operator.sol\":18251:18282  abi.encodePacked(sender, nonce) */\n      add(0x20, mload(0x40))\n      dup1\n      dup4\n      0xffffffffffffffffffffffffffffffffffffffff\n      and\n      0x60\n      shl\n      dup2\n      mstore\n      0x14\n      add\n      dup3\n      dup2\n      mstore\n      0x20\n      add\n      swap3\n      pop\n      pop\n      pop\n      mload(0x40)\n      0x20\n      dup2\n      dup4\n      sub\n      sub\n      dup2\n      mstore\n      swap1\n      0x40\n      mstore\n        /* \".deps/npm/@chainlink/contracts/src/v0.7/Operator.sol\":18241:18283  keccak256(abi.encodePacked(sender, nonce)) */\n      dup1\n      mload\n      swap1\n      0x20\n      add\n      keccak256\n        /* \".deps/npm/@chainlink/contracts/src/v0.7/Operator.sol\":18229:18283  requestId = keccak256(abi.encodePacked(sender, nonce)) */\n      swap3\n      pop\n        /* \".deps/npm/@chainlink/contracts/src/v0.7/Operator.sol\":18336:18337  0 */\n      0x00\n        /* \".deps/npm/@chainlink/contracts/src/v0.7/Operator.sol\":18297:18337  s_commitments[requestId].paramsHash == 0 */\n      0x08\n      shl\n        /* \".deps/npm/@chainlink/contracts/src/v0.7/Operator.sol\":18297:18310  s_commitments */\n      0x04\n        /* \".deps/npm/@chainlink/contracts/src/v0.7/Operator.sol\":18297:18321  s_commitments[requestId] */\n      0x00\n        /* \".deps/npm/@chainlink/contracts/src/v0.7/Operator.sol\":18311:18320  requestId */\n      dup6\n        /* \".deps/npm/@chainlink/contracts/src/v0.7/Operator.sol\":18297:18321  s_commitments[requestId] */\n      dup2\n      mstore\n      0x20\n      add\n      swap1\n      dup2\n      mstore\n      0x20\n      add\n      0x00\n      keccak256\n        /* \".deps/npm/@chainlink/contracts/src/v0.7/Operator.sol\":18297:18332  s_commitments[requestId].paramsHash */\n      0x00\n      add\n      0x00\n      swap1\n      sload\n      swap1\n      0x0100\n      exp\n      swap1\n      div\n      0x08\n      shl\n        /* \".deps/npm/@chainlink/contracts/src/v0.7/Operator.sol\":18297:18337  s_commitments[requestId].paramsHash == 0 */\n      not(0xff)\n      and\n      eq\n        /* \".deps/npm/@chainlink/contracts/src/v0.7/Operator.sol\":18289:18362  require(s_commitments[requestId].paramsHash == 0, \"Must use a unique ID\") */\n      tag_386\n      jumpi\n      mload(0x40)\n      0x08c379a000000000000000000000000000000000000000000000000000000000\n      dup2\n      mstore\n      0x04\n      add\n      dup1\n      dup1\n      0x20\n      add\n      dup3\n      dup2\n      sub\n      dup3\n      mstore\n      0x14\n      dup2\n      mstore\n      0x20\n      add\n      dup1\n      0x4d75737420757365206120756e69717565204944000000000000000000000000\n      dup2\n      mstore\n      pop\n      0x20\n      add\n      swap2\n      pop\n      pop\n      mload(0x40)\n      dup1\n      swap2\n      sub\n      swap1\n      revert\n    tag_386:\n        /* \".deps/npm/@chainlink/contracts/src/v0.7/Operator.sol\":18431:18465  block.timestamp.add(getExpiryTime) */\n      tag_387\n        /* \".deps/npm/@chainlink/contracts/src/v0.7/Operator.sol\":848:857  5 minutes */\n      0x012c\n        /* \".deps/npm/@chainlink/contracts/src/v0.7/Operator.sol\":18431:18446  block.timestamp */\n      timestamp\n        /* \".deps/npm/@chainlink/contracts/src/v0.7/Operator.sol\":18431:18450  block.timestamp.add */\n      tag_388\n      swap1\n        /* \".deps/npm/@chainlink/contracts/src/v0.7/Operator.sol\":18431:18465  block.timestamp.add(getExpiryTime) */\n      swap2\n      swap1\n      0xffffffff\n      and\n      jump\t// in\n    tag_387:\n        /* \".deps/npm/@chainlink/contracts/src/v0.7/Operator.sol\":18418:18465  expiration = block.timestamp.add(getExpiryTime) */\n      swap2\n      pop\n        /* \".deps/npm/@chainlink/contracts/src/v0.7/Operator.sol\":18471:18489  bytes31 paramsHash */\n      0x00\n        /* \".deps/npm/@chainlink/contracts/src/v0.7/Operator.sol\":18492:18566  _buildParamsHash(payment, callbackAddress, callbackFunctionId, expiration) */\n      tag_389\n        /* \".deps/npm/@chainlink/contracts/src/v0.7/Operator.sol\":18509:18516  payment */\n      dup10\n        /* \".deps/npm/@chainlink/contracts/src/v0.7/Operator.sol\":18518:18533  callbackAddress */\n      dup10\n        /* \".deps/npm/@chainlink/contracts/src/v0.7/Operator.sol\":18535:18553  callbackFunctionId */\n      dup10\n        /* \".deps/npm/@chainlink/contracts/src/v0.7/Operator.sol\":18555:18565  expiration */\n      dup7\n        /* \".deps/npm/@chainlink/contracts/src/v0.7/Operator.sol\":18492:18508  _buildParamsHash */\n      tag_288\n        /* \".deps/npm/@chainlink/contracts/src/v0.7/Operator.sol\":18492:18566  _buildParamsHash(payment, callbackAddress, callbackFunctionId, expiration) */\n      jump\t// in\n    tag_389:\n        /* \".deps/npm/@chainlink/contracts/src/v0.7/Operator.sol\":18471:18566  bytes31 paramsHash = _buildParamsHash(payment, callbackAddress, callbackFunctionId, expiration) */\n      swap1\n      pop\n        /* \".deps/npm/@chainlink/contracts/src/v0.7/Operator.sol\":18599:18652  Commitment(paramsHash, _safeCastToUint8(dataVersion)) */\n      mload(0x40)\n      dup1\n      0x40\n      add\n      0x40\n      mstore\n      dup1\n        /* \".deps/npm/@chainlink/contracts/src/v0.7/Operator.sol\":18610:18620  paramsHash */\n      dup3\n        /* \".deps/npm/@chainlink/contracts/src/v0.7/Operator.sol\":18599:18652  Commitment(paramsHash, _safeCastToUint8(dataVersion)) */\n      not(0xff)\n      and\n      dup2\n      mstore\n      0x20\n      add\n        /* \".deps/npm/@chainlink/contracts/src/v0.7/Operator.sol\":18622:18651  _safeCastToUint8(dataVersion) */\n      tag_390\n        /* \".deps/npm/@chainlink/contracts/src/v0.7/Operator.sol\":18639:18650  dataVersion */\n      dup8\n        /* \".deps/npm/@chainlink/contracts/src/v0.7/Operator.sol\":18622:18638  _safeCastToUint8 */\n      tag_391\n        /* \".deps/npm/@chainlink/contracts/src/v0.7/Operator.sol\":18622:18651  _safeCastToUint8(dataVersion) */\n      jump\t// in\n    tag_390:\n        /* \".deps/npm/@chainlink/contracts/src/v0.7/Operator.sol\":18599:18652  Commitment(paramsHash, _safeCastToUint8(dataVersion)) */\n      0xff\n      and\n      dup2\n      mstore\n      pop\n        /* \".deps/npm/@chainlink/contracts/src/v0.7/Operator.sol\":18572:18585  s_commitments */\n      0x04\n        /* \".deps/npm/@chainlink/contracts/src/v0.7/Operator.sol\":18572:18596  s_commitments[requestId] */\n      0x00\n        /* \".deps/npm/@chainlink/contracts/src/v0.7/Operator.sol\":18586:18595  requestId */\n      dup7\n        /* \".deps/npm/@chainlink/contracts/src/v0.7/Operator.sol\":18572:18596  s_commitments[requestId] */\n      dup2\n      mstore\n      0x20\n      add\n      swap1\n      dup2\n      mstore\n      0x20\n      add\n      0x00\n      keccak256\n        /* \".deps/npm/@chainlink/contracts/src/v0.7/Operator.sol\":18572:18652  s_commitments[requestId] = Commitment(paramsHash, _safeCastToUint8(dataVersion)) */\n      0x00\n      dup3\n      add\n      mload\n      dup2\n      0x00\n      add\n      exp(0x0100, 0x00)\n      dup2\n      sload\n      dup2\n      0xffffffffffffffffffffffffffffffffffffffffffffffffffffffffffffff\n      mul\n      not\n      and\n      swap1\n      dup4\n      0x08\n      shr\n      mul\n      or\n      swap1\n      sstore\n      pop\n      0x20\n      dup3\n      add\n      mload\n      dup2\n      0x00\n      add\n      exp(0x0100, 0x1f)\n      dup2\n      sload\n      dup2\n      0xff\n      mul\n      not\n      and\n      swap1\n      dup4\n      0xff\n      and\n      mul\n      or\n      swap1\n      sstore\n      pop\n      swap1\n      pop\n      pop\n        /* \".deps/npm/@chainlink/contracts/src/v0.7/Operator.sol\":18677:18706  s_tokensInEscrow.add(payment) */\n      tag_392\n        /* \".deps/npm/@chainlink/contracts/src/v0.7/Operator.sol\":18698:18705  payment */\n      dup10\n        /* \".deps/npm/@chainlink/contracts/src/v0.7/Operator.sol\":18677:18693  s_tokensInEscrow */\n      sload(0x06)\n        /* \".deps/npm/@chainlink/contracts/src/v0.7/Operator.sol\":18677:18697  s_tokensInEscrow.add */\n      tag_388\n      swap1\n        /* \".deps/npm/@chainlink/contracts/src/v0.7/Operator.sol\":18677:18706  s_tokensInEscrow.add(payment) */\n      swap2\n      swap1\n      0xffffffff\n      and\n      jump\t// in\n    tag_392:\n        /* \".deps/npm/@chainlink/contracts/src/v0.7/Operator.sol\":18658:18674  s_tokensInEscrow */\n      0x06\n        /* \".deps/npm/@chainlink/contracts/src/v0.7/Operator.sol\":18658:18706  s_tokensInEscrow = s_tokensInEscrow.add(payment) */\n      dup2\n      swap1\n      sstore\n      pop\n        /* \".deps/npm/@chainlink/contracts/src/v0.7/Operator.sol\":18712:18742  return (requestId, expiration) */\n      pop\n        /* \".deps/npm/@chainlink/contracts/src/v0.7/Operator.sol\":17943:18747  function _verifyAndProcessOracleRequest(... */\n      pop\n      swap7\n      pop\n      swap7\n      swap5\n      pop\n      pop\n      pop\n      pop\n      pop\n      jump\t// out\n        /* \".deps/npm/@chainlink/contracts/src/v0.7/AuthorizedReceiver.sol\":2142:2270  function _validateIsAuthorizedSender() internal view {... */\n    tag_231:\n        /* \".deps/npm/@chainlink/contracts/src/v0.7/AuthorizedReceiver.sol\":2209:2239  isAuthorizedSender(msg.sender) */\n      tag_394\n        /* \".deps/npm/@chainlink/contracts/src/v0.7/AuthorizedReceiver.sol\":2228:2238  msg.sender */\n      caller\n        /* \".deps/npm/@chainlink/contracts/src/v0.7/AuthorizedReceiver.sol\":2209:2227  isAuthorizedSender */\n      tag_164\n        /* \".deps/npm/@chainlink/contracts/src/v0.7/AuthorizedReceiver.sol\":2209:2239  isAuthorizedSender(msg.sender) */\n      jump\t// in\n    tag_394:\n        /* \".deps/npm/@chainlink/contracts/src/v0.7/AuthorizedReceiver.sol\":2201:2265  require(isAuthorizedSender(msg.sender), \"Not authorized sender\") */\n      tag_395\n      jumpi\n      mload(0x40)\n      0x08c379a000000000000000000000000000000000000000000000000000000000\n      dup2\n      mstore\n      0x04\n      add\n      dup1\n      dup1\n      0x20\n      add\n      dup3\n      dup2\n      sub\n      dup3\n      mstore\n      0x15\n      dup2\n      mstore\n      0x20\n      add\n      dup1\n      0x4e6f7420617574686f72697a65642073656e6465720000000000000000000000\n      dup2\n      mstore\n      pop\n      0x20\n      add\n      swap2\n      pop\n      pop\n      mload(0x40)\n      dup1\n      swap2\n      sub\n      swap1\n      revert\n    tag_395:\n        /* \".deps/npm/@chainlink/contracts/src/v0.7/AuthorizedReceiver.sol\":2142:2270  function _validateIsAuthorizedSender() internal view {... */\n      jump\t// out\n        /* \".deps/npm/@chainlink/contracts/src/v0.7/Operator.sol\":19260:19880  function _verifyOracleRequestAndProcessPayment(... */\n    tag_238:\n        /* \".deps/npm/@chainlink/contracts/src/v0.7/Operator.sol\":19479:19497  bytes31 paramsHash */\n      0x00\n        /* \".deps/npm/@chainlink/contracts/src/v0.7/Operator.sol\":19500:19574  _buildParamsHash(payment, callbackAddress, callbackFunctionId, expiration) */\n      tag_397\n        /* \".deps/npm/@chainlink/contracts/src/v0.7/Operator.sol\":19517:19524  payment */\n      dup7\n        /* \".deps/npm/@chainlink/contracts/src/v0.7/Operator.sol\":19526:19541  callbackAddress */\n      dup7\n        /* \".deps/npm/@chainlink/contracts/src/v0.7/Operator.sol\":19543:19561  callbackFunctionId */\n      dup7\n        /* \".deps/npm/@chainlink/contracts/src/v0.7/Operator.sol\":19563:19573  expiration */\n      dup7\n        /* \".deps/npm/@chainlink/contracts/src/v0.7/Operator.sol\":19500:19516  _buildParamsHash */\n      tag_288\n        /* \".deps/npm/@chainlink/contracts/src/v0.7/Operator.sol\":19500:19574  _buildParamsHash(payment, callbackAddress, callbackFunctionId, expiration) */\n      jump\t// in\n    tag_397:\n        /* \".deps/npm/@chainlink/contracts/src/v0.7/Operator.sol\":19479:19574  bytes31 paramsHash = _buildParamsHash(payment, callbackAddress, callbackFunctionId, expiration) */\n      swap1\n      pop\n        /* \".deps/npm/@chainlink/contracts/src/v0.7/Operator.sol\":19627:19637  paramsHash */\n      dup1\n        /* \".deps/npm/@chainlink/contracts/src/v0.7/Operator.sol\":19588:19637  s_commitments[requestId].paramsHash == paramsHash */\n      not(0xff)\n      and\n        /* \".deps/npm/@chainlink/contracts/src/v0.7/Operator.sol\":19588:19601  s_commitments */\n      0x04\n        /* \".deps/npm/@chainlink/contracts/src/v0.7/Operator.sol\":19588:19612  s_commitments[requestId] */\n      0x00\n        /* \".deps/npm/@chainlink/contracts/src/v0.7/Operator.sol\":19602:19611  requestId */\n      dup10\n        /* \".deps/npm/@chainlink/contracts/src/v0.7/Operator.sol\":19588:19612  s_commitments[requestId] */\n      dup2\n      mstore\n      0x20\n      add\n      swap1\n      dup2\n      mstore\n      0x20\n      add\n      0x00\n      keccak256\n        /* \".deps/npm/@chainlink/contracts/src/v0.7/Operator.sol\":19588:19623  s_commitments[requestId].paramsHash */\n      0x00\n      add\n      0x00\n      swap1\n      sload\n      swap1\n      0x0100\n      exp\n      swap1\n      div\n      0x08\n      shl\n        /* \".deps/npm/@chainlink/contracts/src/v0.7/Operator.sol\":19588:19637  s_commitments[requestId].paramsHash == paramsHash */\n      not(0xff)\n      and\n      eq\n        /* \".deps/npm/@chainlink/contracts/src/v0.7/Operator.sol\":19580:19672  require(s_commitments[requestId].paramsHash == paramsHash, \"Params do not match request ID\") */\n      tag_398\n      jumpi\n      mload(0x40)\n      0x08c379a000000000000000000000000000000000000000000000000000000000\n      dup2\n      mstore\n      0x04\n      add\n      dup1\n      dup1\n      0x20\n      add\n      dup3\n      dup2\n      sub\n      dup3\n      mstore\n      0x1e\n      dup2\n      mstore\n      0x20\n      add\n      dup1\n      0x506172616d7320646f206e6f74206d6174636820726571756573742049440000\n      dup2\n      mstore\n      pop\n      0x20\n      add\n      swap2\n      pop\n      pop\n      mload(0x40)\n      dup1\n      swap2\n      sub\n      swap1\n      revert\n    tag_398:\n        /* \".deps/npm/@chainlink/contracts/src/v0.7/Operator.sol\":19726:19755  _safeCastToUint8(dataVersion) */\n      tag_399\n        /* \".deps/npm/@chainlink/contracts/src/v0.7/Operator.sol\":19743:19754  dataVersion */\n      dup3\n        /* \".deps/npm/@chainlink/contracts/src/v0.7/Operator.sol\":19726:19742  _safeCastToUint8 */\n      tag_391\n        /* \".deps/npm/@chainlink/contracts/src/v0.7/Operator.sol\":19726:19755  _safeCastToUint8(dataVersion) */\n      jump\t// in\n    tag_399:\n        /* \".deps/npm/@chainlink/contracts/src/v0.7/Operator.sol\":19686:19755  s_commitments[requestId].dataVersion <= _safeCastToUint8(dataVersion) */\n      0xff\n      and\n        /* \".deps/npm/@chainlink/contracts/src/v0.7/Operator.sol\":19686:19699  s_commitments */\n      0x04\n        /* \".deps/npm/@chainlink/contracts/src/v0.7/Operator.sol\":19686:19710  s_commitments[requestId] */\n      0x00\n        /* \".deps/npm/@chainlink/contracts/src/v0.7/Operator.sol\":19700:19709  requestId */\n      dup10\n        /* \".deps/npm/@chainlink/contracts/src/v0.7/Operator.sol\":19686:19710  s_commitments[requestId] */\n      dup2\n      mstore\n      0x20\n      add\n      swap1\n      dup2\n      mstore\n      0x20\n      add\n      0x00\n      keccak256\n        /* \".deps/npm/@chainlink/contracts/src/v0.7/Operator.sol\":19686:19722  s_commitments[requestId].dataVersion */\n      0x00\n      add\n      0x1f\n      swap1\n      sload\n      swap1\n      0x0100\n      exp\n      swap1\n      div\n      0xff\n      and\n        /* \".deps/npm/@chainlink/contracts/src/v0.7/Operator.sol\":19686:19755  s_commitments[requestId].dataVersion <= _safeCastToUint8(dataVersion) */\n      0xff\n      and\n      gt\n      iszero\n        /* \".deps/npm/@chainlink/contracts/src/v0.7/Operator.sol\":19678:19784  require(s_commitments[requestId].dataVersion <= _safeCastToUint8(dataVersion), \"Data versions must match\") */\n      tag_400\n      jumpi\n      mload(0x40)\n      0x08c379a000000000000000000000000000000000000000000000000000000000\n      dup2\n      mstore\n      0x04\n      add\n      dup1\n      dup1\n      0x20\n      add\n      dup3\n      dup2\n      sub\n      dup3\n      mstore\n      0x18\n      dup2\n      mstore\n      0x20\n      add\n      dup1\n      0x446174612076657273696f6e73206d757374206d617463680000000000000000\n      dup2\n      mstore\n      pop\n      0x20\n      add\n      swap2\n      pop\n      pop\n      mload(0x40)\n      dup1\n      swap2\n      sub\n      swap1\n      revert\n    tag_400:\n        /* \".deps/npm/@chainlink/contracts/src/v0.7/Operator.sol\":19809:19838  s_tokensInEscrow.sub(payment) */\n      tag_401\n        /* \".deps/npm/@chainlink/contracts/src/v0.7/Operator.sol\":19830:19837  payment */\n      dup7\n        /* \".deps/npm/@chainlink/contracts/src/v0.7/Operator.sol\":19809:19825  s_tokensInEscrow */\n      sload(0x06)\n        /* \".deps/npm/@chainlink/contracts/src/v0.7/Operator.sol\":19809:19829  s_tokensInEscrow.sub */\n      tag_281\n      swap1\n        /* \".deps/npm/@chainlink/contracts/src/v0.7/Operator.sol\":19809:19838  s_tokensInEscrow.sub(payment) */\n      swap2\n      swap1\n      0xffffffff\n      and\n      jump\t// in\n    tag_401:\n        /* \".deps/npm/@chainlink/contracts/src/v0.7/Operator.sol\":19790:19806  s_tokensInEscrow */\n      0x06\n        /* \".deps/npm/@chainlink/contracts/src/v0.7/Operator.sol\":19790:19838  s_tokensInEscrow = s_tokensInEscrow.sub(payment) */\n      dup2\n      swap1\n      sstore\n      pop\n        /* \".deps/npm/@chainlink/contracts/src/v0.7/Operator.sol\":19851:19864  s_commitments */\n      0x04\n        /* \".deps/npm/@chainlink/contracts/src/v0.7/Operator.sol\":19851:19875  s_commitments[requestId] */\n      0x00\n        /* \".deps/npm/@chainlink/contracts/src/v0.7/Operator.sol\":19865:19874  requestId */\n      dup9\n        /* \".deps/npm/@chainlink/contracts/src/v0.7/Operator.sol\":19851:19875  s_commitments[requestId] */\n      dup2\n      mstore\n      0x20\n      add\n      swap1\n      dup2\n      mstore\n      0x20\n      add\n      0x00\n      keccak256\n      0x00\n        /* \".deps/npm/@chainlink/contracts/src/v0.7/Operator.sol\":19844:19875  delete s_commitments[requestId] */\n      dup1\n      dup3\n      add\n      exp(0x0100, 0x00)\n      dup2\n      sload\n      swap1\n      0xffffffffffffffffffffffffffffffffffffffffffffffffffffffffffffff\n      mul\n      not\n      and\n      swap1\n      sstore\n      0x00\n      dup3\n      add\n      exp(0x0100, 0x1f)\n      dup2\n      sload\n      swap1\n      0xff\n      mul\n      not\n      and\n      swap1\n      sstore\n      pop\n      pop\n        /* \".deps/npm/@chainlink/contracts/src/v0.7/Operator.sol\":19260:19880  function _verifyOracleRequestAndProcessPayment(... */\n      pop\n      pop\n      pop\n      pop\n      pop\n      pop\n      pop\n      jump\t// out\n        /* \".deps/npm/@chainlink/contracts/src/v0.7/Operator.sol\":21051:21249  function _fundsAvailable() private view returns (uint256) {... */\n    tag_248:\n        /* \".deps/npm/@chainlink/contracts/src/v0.7/Operator.sol\":21100:21107  uint256 */\n      0x00\n        /* \".deps/npm/@chainlink/contracts/src/v0.7/Operator.sol\":21115:21131  uint256 inEscrow */\n      dup1\n        /* \".deps/npm/@chainlink/contracts/src/v0.7/Operator.sol\":21134:21183  s_tokensInEscrow.sub(ONE_FOR_CONSISTENT_GAS_COST) */\n      tag_403\n        /* \".deps/npm/@chainlink/contracts/src/v0.7/Operator.sol\":1341:1342  1 */\n      0x01\n        /* \".deps/npm/@chainlink/contracts/src/v0.7/Operator.sol\":21134:21150  s_tokensInEscrow */\n      sload(0x06)\n        /* \".deps/npm/@chainlink/contracts/src/v0.7/Operator.sol\":21134:21154  s_tokensInEscrow.sub */\n      tag_281\n      swap1\n        /* \".deps/npm/@chainlink/contracts/src/v0.7/Operator.sol\":21134:21183  s_tokensInEscrow.sub(ONE_FOR_CONSISTENT_GAS_COST) */\n      swap2\n      swap1\n      0xffffffff\n      and\n      jump\t// in\n    tag_403:\n        /* \".deps/npm/@chainlink/contracts/src/v0.7/Operator.sol\":21115:21183  uint256 inEscrow = s_tokensInEscrow.sub(ONE_FOR_CONSISTENT_GAS_COST) */\n      swap1\n      pop\n        /* \".deps/npm/@chainlink/contracts/src/v0.7/Operator.sol\":21196:21244  linkToken.balanceOf(address(this)).sub(inEscrow) */\n      tag_404\n        /* \".deps/npm/@chainlink/contracts/src/v0.7/Operator.sol\":21235:21243  inEscrow */\n      dup2\n        /* \".deps/npm/@chainlink/contracts/src/v0.7/Operator.sol\":21196:21205  linkToken */\n      immutable(\"0x5fb12ad98b8d13e095aa2296ce90e81ce800e34edf3e5203ac6ed2bf74255f6c\")\n        /* \".deps/npm/@chainlink/contracts/src/v0.7/Operator.sol\":21196:21215  linkToken.balanceOf */\n      0xffffffffffffffffffffffffffffffffffffffff\n      and\n      0x70a08231\n        /* \".deps/npm/@chainlink/contracts/src/v0.7/Operator.sol\":21224:21228  this */\n      address\n        /* \".deps/npm/@chainlink/contracts/src/v0.7/Operator.sol\":21196:21230  linkToken.balanceOf(address(this)) */\n      mload(0x40)\n      dup3\n      0xffffffff\n      and\n      0xe0\n      shl\n      dup2\n      mstore\n      0x04\n      add\n      dup1\n      dup3\n      0xffffffffffffffffffffffffffffffffffffffff\n      and\n      dup2\n      mstore\n      0x20\n      add\n      swap2\n      pop\n      pop\n      0x20\n      mload(0x40)\n      dup1\n      dup4\n      sub\n      dup2\n      dup7\n      dup1\n      extcodesize\n      iszero\n      dup1\n      iszero\n      tag_405\n      jumpi\n      0x00\n      dup1\n      revert\n    tag_405:\n      pop\n      gas\n      staticcall\n      iszero\n      dup1\n      iszero\n      tag_407\n      jumpi\n      returndatasize\n      0x00\n      dup1\n      returndatacopy\n      revert(0x00, returndatasize)\n    tag_407:\n      pop\n      pop\n      pop\n      pop\n      mload(0x40)\n      returndatasize\n      0x20\n      dup2\n      lt\n      iszero\n      tag_408\n      jumpi\n      0x00\n      dup1\n      revert\n    tag_408:\n      dup2\n      add\n      swap1\n      dup1\n      dup1\n      mload\n      swap1\n      0x20\n      add\n      swap1\n      swap3\n      swap2\n      swap1\n      pop\n      pop\n      pop\n        /* \".deps/npm/@chainlink/contracts/src/v0.7/Operator.sol\":21196:21234  linkToken.balanceOf(address(this)).sub */\n      tag_281\n      swap1\n        /* \".deps/npm/@chainlink/contracts/src/v0.7/Operator.sol\":21196:21244  linkToken.balanceOf(address(this)).sub(inEscrow) */\n      swap2\n      swap1\n      0xffffffff\n      and\n      jump\t// in\n    tag_404:\n        /* \".deps/npm/@chainlink/contracts/src/v0.7/Operator.sol\":21189:21244  return linkToken.balanceOf(address(this)).sub(inEscrow) */\n      swap2\n      pop\n      pop\n        /* \".deps/npm/@chainlink/contracts/src/v0.7/Operator.sol\":21051:21249  function _fundsAvailable() private view returns (uint256) {... */\n      swap1\n      jump\t// out\n        /* \".deps/npm/@chainlink/contracts/src/v0.7/vendor/SafeMathChainlink.sol\":1261:1426  function sub(uint256 a, uint256 b) internal pure returns (uint256) {... */\n    tag_281:\n        /* \".deps/npm/@chainlink/contracts/src/v0.7/vendor/SafeMathChainlink.sol\":1319:1326  uint256 */\n      0x00\n        /* \".deps/npm/@chainlink/contracts/src/v0.7/vendor/SafeMathChainlink.sol\":1347:1348  a */\n      dup3\n        /* \".deps/npm/@chainlink/contracts/src/v0.7/vendor/SafeMathChainlink.sol\":1342:1343  b */\n      dup3\n        /* \".deps/npm/@chainlink/contracts/src/v0.7/vendor/SafeMathChainlink.sol\":1342:1348  b <= a */\n      gt\n      iszero\n        /* \".deps/npm/@chainlink/contracts/src/v0.7/vendor/SafeMathChainlink.sol\":1334:1383  require(b <= a, \"SafeMath: subtraction overflow\") */\n      tag_410\n      jumpi\n      mload(0x40)\n      0x08c379a000000000000000000000000000000000000000000000000000000000\n      dup2\n      mstore\n      0x04\n      add\n      dup1\n      dup1\n      0x20\n      add\n      dup3\n      dup2\n      sub\n      dup3\n      mstore\n      0x1e\n      dup2\n      mstore\n      0x20\n      add\n      dup1\n      0x536166654d6174683a207375627472616374696f6e206f766572666c6f770000\n      dup2\n      mstore\n      pop\n      0x20\n      add\n      swap2\n      pop\n      pop\n      mload(0x40)\n      dup1\n      swap2\n      sub\n      swap1\n      revert\n    tag_410:\n        /* \".deps/npm/@chainlink/contracts/src/v0.7/vendor/SafeMathChainlink.sol\":1389:1398  uint256 c */\n      0x00\n        /* \".deps/npm/@chainlink/contracts/src/v0.7/vendor/SafeMathChainlink.sol\":1405:1406  b */\n      dup3\n        /* \".deps/npm/@chainlink/contracts/src/v0.7/vendor/SafeMathChainlink.sol\":1401:1402  a */\n      dup5\n        /* \".deps/npm/@chainlink/contracts/src/v0.7/vendor/SafeMathChainlink.sol\":1401:1406  a - b */\n      sub\n        /* \".deps/npm/@chainlink/contracts/src/v0.7/vendor/SafeMathChainlink.sol\":1389:1406  uint256 c = a - b */\n      swap1\n      pop\n        /* \".deps/npm/@chainlink/contracts/src/v0.7/vendor/SafeMathChainlink.sol\":1420:1421  c */\n      dup1\n        /* \".deps/npm/@chainlink/contracts/src/v0.7/vendor/SafeMathChainlink.sol\":1413:1421  return c */\n      swap2\n      pop\n      pop\n        /* \".deps/npm/@chainlink/contracts/src/v0.7/vendor/SafeMathChainlink.sol\":1261:1426  function sub(uint256 a, uint256 b) internal pure returns (uint256) {... */\n      swap3\n      swap2\n      pop\n      pop\n      jump\t// out\n        /* \".deps/npm/@chainlink/contracts/src/v0.7/Operator.sol\":20350:20629  function _buildParamsHash(... */\n    tag_288:\n        /* \".deps/npm/@chainlink/contracts/src/v0.7/Operator.sol\":20508:20515  bytes31 */\n      0x00\n        /* \".deps/npm/@chainlink/contracts/src/v0.7/Operator.sol\":20565:20572  payment */\n      dup5\n        /* \".deps/npm/@chainlink/contracts/src/v0.7/Operator.sol\":20574:20589  callbackAddress */\n      dup5\n        /* \".deps/npm/@chainlink/contracts/src/v0.7/Operator.sol\":20591:20609  callbackFunctionId */\n      dup5\n        /* \".deps/npm/@chainlink/contracts/src/v0.7/Operator.sol\":20611:20621  expiration */\n      dup5\n        /* \".deps/npm/@chainlink/contracts/src/v0.7/Operator.sol\":20548:20622  abi.encodePacked(payment, callbackAddress, callbackFunctionId, expiration) */\n      add(0x20, mload(0x40))\n      dup1\n      dup6\n      dup2\n      mstore\n      0x20\n      add\n      dup5\n      0xffffffffffffffffffffffffffffffffffffffff\n      and\n      0x60\n      shl\n      dup2\n      mstore\n      0x14\n      add\n      dup4\n      not(0xffffffffffffffffffffffffffffffffffffffffffffffffffffffff)\n      and\n      dup2\n      mstore\n      0x04\n      add\n      dup3\n      dup2\n      mstore\n      0x20\n      add\n      swap5\n      pop\n      pop\n      pop\n      pop\n      pop\n      mload(0x40)\n      0x20\n      dup2\n      dup4\n      sub\n      sub\n      dup2\n      mstore\n      swap1\n      0x40\n      mstore\n        /* \".deps/npm/@chainlink/contracts/src/v0.7/Operator.sol\":20538:20623  keccak256(abi.encodePacked(payment, callbackAddress, callbackFunctionId, expiration)) */\n      dup1\n      mload\n      swap1\n      0x20\n      add\n      keccak256\n        /* \".deps/npm/@chainlink/contracts/src/v0.7/Operator.sol\":20523:20624  return bytes31(keccak256(abi.encodePacked(payment, callbackAddress, callbackFunctionId, expiration))) */\n      swap1\n      pop\n        /* \".deps/npm/@chainlink/contracts/src/v0.7/Operator.sol\":20350:20629  function _buildParamsHash(... */\n      swap5\n      swap4\n      pop\n      pop\n      pop\n      pop\n      jump\t// out\n        /* \".deps/npm/@chainlink/contracts/src/v0.7/Operator.sol\":17219:17554  function _validateTokenTransferAction(bytes4 funcSelector, bytes memory data) internal pure override {... */\n    tag_313:\n        /* \".deps/npm/@chainlink/contracts/src/v0.7/Operator.sol\":1078:1079  2 */\n      0x02\n        /* \".deps/npm/@chainlink/contracts/src/v0.7/Operator.sol\":1152:1154  32 */\n      0x20\n        /* \".deps/npm/@chainlink/contracts/src/v0.7/Operator.sol\":1152:1179  32 * EXPECTED_REQUEST_WORDS */\n      mul\n        /* \".deps/npm/@chainlink/contracts/src/v0.7/Operator.sol\":1023:1024  4 */\n      0x04\n        /* \".deps/npm/@chainlink/contracts/src/v0.7/Operator.sol\":1133:1180  SELECTOR_LENGTH + (32 * EXPECTED_REQUEST_WORDS) */\n      add\n        /* \".deps/npm/@chainlink/contracts/src/v0.7/Operator.sol\":17334:17338  data */\n      dup2\n        /* \".deps/npm/@chainlink/contracts/src/v0.7/Operator.sol\":17334:17345  data.length */\n      mload\n        /* \".deps/npm/@chainlink/contracts/src/v0.7/Operator.sol\":17334:17371  data.length >= MINIMUM_REQUEST_LENGTH */\n      lt\n      iszero\n        /* \".deps/npm/@chainlink/contracts/src/v0.7/Operator.sol\":17326:17398  require(data.length >= MINIMUM_REQUEST_LENGTH, \"Invalid request length\") */\n      tag_413\n      jumpi\n      mload(0x40)\n      0x08c379a000000000000000000000000000000000000000000000000000000000\n      dup2\n      mstore\n      0x04\n      add\n      dup1\n      dup1\n      0x20\n      add\n      dup3\n      dup2\n      sub\n      dup3\n      mstore\n      0x16\n      dup2\n      mstore\n      0x20\n      add\n      dup1\n      0x496e76616c69642072657175657374206c656e67746800000000000000000000\n      dup2\n      mstore\n      pop\n      0x20\n      add\n      swap2\n      pop\n      pop\n      mload(0x40)\n      dup1\n      swap2\n      sub\n      swap1\n      revert\n    tag_413:\n        /* \".deps/npm/@chainlink/contracts/src/v0.7/Operator.sol\":1634:1663  this.operatorRequest.selector */\n      shl(0xe0, 0x3c6d41b9)\n        /* \".deps/npm/@chainlink/contracts/src/v0.7/Operator.sol\":17419:17460  funcSelector == OPERATOR_REQUEST_SELECTOR */\n      not(0xffffffffffffffffffffffffffffffffffffffffffffffffffffffff)\n      and\n        /* \".deps/npm/@chainlink/contracts/src/v0.7/Operator.sol\":17419:17431  funcSelector */\n      dup3\n        /* \".deps/npm/@chainlink/contracts/src/v0.7/Operator.sol\":17419:17460  funcSelector == OPERATOR_REQUEST_SELECTOR */\n      not(0xffffffffffffffffffffffffffffffffffffffffffffffffffffffff)\n      and\n      eq\n        /* \".deps/npm/@chainlink/contracts/src/v0.7/Operator.sol\":17419:17503  funcSelector == OPERATOR_REQUEST_SELECTOR || funcSelector == ORACLE_REQUEST_SELECTOR */\n      dup1\n      tag_414\n      jumpi\n      pop\n        /* \".deps/npm/@chainlink/contracts/src/v0.7/Operator.sol\":1473:1500  this.oracleRequest.selector */\n      shl(0xe0, 0x40429946)\n        /* \".deps/npm/@chainlink/contracts/src/v0.7/Operator.sol\":17464:17503  funcSelector == ORACLE_REQUEST_SELECTOR */\n      not(0xffffffffffffffffffffffffffffffffffffffffffffffffffffffff)\n      and\n        /* \".deps/npm/@chainlink/contracts/src/v0.7/Operator.sol\":17464:17476  funcSelector */\n      dup3\n        /* \".deps/npm/@chainlink/contracts/src/v0.7/Operator.sol\":17464:17503  funcSelector == ORACLE_REQUEST_SELECTOR */\n      not(0xffffffffffffffffffffffffffffffffffffffffffffffffffffffff)\n      and\n      eq\n        /* \".deps/npm/@chainlink/contracts/src/v0.7/Operator.sol\":17419:17503  funcSelector == OPERATOR_REQUEST_SELECTOR || funcSelector == ORACLE_REQUEST_SELECTOR */\n    tag_414:\n        /* \".deps/npm/@chainlink/contracts/src/v0.7/Operator.sol\":17404:17549  require(... */\n      tag_415\n      jumpi\n      mload(0x40)\n      0x08c379a000000000000000000000000000000000000000000000000000000000\n      dup2\n      mstore\n      0x04\n      add\n      dup1\n      dup1\n      0x20\n      add\n      dup3\n      dup2\n      sub\n      dup3\n      mstore\n      0x1e\n      dup2\n      mstore\n      0x20\n      add\n      dup1\n      0x4d757374207573652077686974656c69737465642066756e6374696f6e730000\n      dup2\n      mstore\n      pop\n      0x20\n      add\n      swap2\n      pop\n      pop\n      mload(0x40)\n      dup1\n      swap2\n      sub\n      swap1\n      revert\n    tag_415:\n        /* \".deps/npm/@chainlink/contracts/src/v0.7/Operator.sol\":17219:17554  function _validateTokenTransferAction(bytes4 funcSelector, bytes memory data) internal pure override {... */\n      pop\n      pop\n      jump\t// out\n        /* \".deps/npm/@chainlink/contracts/src/v0.7/ConfirmedOwnerWithProposal.sol\":1497:1685  function _transferOwnership(address to) private {... */\n    tag_352:\n        /* \".deps/npm/@chainlink/contracts/src/v0.7/ConfirmedOwnerWithProposal.sol\":1565:1575  msg.sender */\n      caller\n        /* \".deps/npm/@chainlink/contracts/src/v0.7/ConfirmedOwnerWithProposal.sol\":1559:1575  to != msg.sender */\n      0xffffffffffffffffffffffffffffffffffffffff\n      and\n        /* \".deps/npm/@chainlink/contracts/src/v0.7/ConfirmedOwnerWithProposal.sol\":1559:1561  to */\n      dup2\n        /* \".deps/npm/@chainlink/contracts/src/v0.7/ConfirmedOwnerWithProposal.sol\":1559:1575  to != msg.sender */\n      0xffffffffffffffffffffffffffffffffffffffff\n      and\n      eq\n      iszero\n        /* \".deps/npm/@chainlink/contracts/src/v0.7/ConfirmedOwnerWithProposal.sol\":1551:1603  require(to != msg.sender, \"Cannot transfer to self\") */\n      tag_417\n      jumpi\n      mload(0x40)\n      0x08c379a000000000000000000000000000000000000000000000000000000000\n      dup2\n      mstore\n      0x04\n      add\n      dup1\n      dup1\n      0x20\n      add\n      dup3\n      dup2\n      sub\n      dup3\n      mstore\n      0x17\n      dup2\n      mstore\n      0x20\n      add\n      dup1\n      0x43616e6e6f74207472616e7366657220746f2073656c66000000000000000000\n      dup2\n      mstore\n      pop\n      0x20\n      add\n      swap2\n      pop\n      pop\n      mload(0x40)\n      dup1\n      swap2\n      sub\n      swap1\n      revert\n    tag_417:\n        /* \".deps/npm/@chainlink/contracts/src/v0.7/ConfirmedOwnerWithProposal.sol\":1627:1629  to */\n      dup1\n        /* \".deps/npm/@chainlink/contracts/src/v0.7/ConfirmedOwnerWithProposal.sol\":1610:1624  s_pendingOwner */\n      0x03\n      0x00\n        /* \".deps/npm/@chainlink/contracts/src/v0.7/ConfirmedOwnerWithProposal.sol\":1610:1629  s_pendingOwner = to */\n      0x0100\n      exp\n      dup2\n      sload\n      dup2\n      0xffffffffffffffffffffffffffffffffffffffff\n      mul\n      not\n      and\n      swap1\n      dup4\n      0xffffffffffffffffffffffffffffffffffffffff\n      and\n      mul\n      or\n      swap1\n      sstore\n      pop\n        /* \".deps/npm/@chainlink/contracts/src/v0.7/ConfirmedOwnerWithProposal.sol\":1677:1679  to */\n      dup1\n        /* \".deps/npm/@chainlink/contracts/src/v0.7/ConfirmedOwnerWithProposal.sol\":1641:1680  OwnershipTransferRequested(s_owner, to) */\n      0xffffffffffffffffffffffffffffffffffffffff\n      and\n        /* \".deps/npm/@chainlink/contracts/src/v0.7/ConfirmedOwnerWithProposal.sol\":1668:1675  s_owner */\n      0x02\n      0x00\n      swap1\n      sload\n      swap1\n      0x0100\n      exp\n      swap1\n      div\n      0xffffffffffffffffffffffffffffffffffffffff\n      and\n        /* \".deps/npm/@chainlink/contracts/src/v0.7/ConfirmedOwnerWithProposal.sol\":1641:1680  OwnershipTransferRequested(s_owner, to) */\n      0xffffffffffffffffffffffffffffffffffffffff\n      and\n      0xed8889f560326eb138920d842192f0eb3dd22b4f139c87a2c57538e05bae1278\n      mload(0x40)\n      mload(0x40)\n      dup1\n      swap2\n      sub\n      swap1\n      log3\n        /* \".deps/npm/@chainlink/contracts/src/v0.7/ConfirmedOwnerWithProposal.sol\":1497:1685  function _transferOwnership(address to) private {... */\n      pop\n      jump\t// out\n        /* \".deps/npm/@chainlink/contracts/src/v0.7/vendor/SafeMathChainlink.sol\":855:1017  function add(uint256 a, uint256 b) internal pure returns (uint256) {... */\n    tag_388:\n        /* \".deps/npm/@chainlink/contracts/src/v0.7/vendor/SafeMathChainlink.sol\":913:920  uint256 */\n      0x00\n        /* \".deps/npm/@chainlink/contracts/src/v0.7/vendor/SafeMathChainlink.sol\":928:937  uint256 c */\n      dup1\n        /* \".deps/npm/@chainlink/contracts/src/v0.7/vendor/SafeMathChainlink.sol\":944:945  b */\n      dup3\n        /* \".deps/npm/@chainlink/contracts/src/v0.7/vendor/SafeMathChainlink.sol\":940:941  a */\n      dup5\n        /* \".deps/npm/@chainlink/contracts/src/v0.7/vendor/SafeMathChainlink.sol\":940:945  a + b */\n      add\n        /* \".deps/npm/@chainlink/contracts/src/v0.7/vendor/SafeMathChainlink.sol\":928:945  uint256 c = a + b */\n      swap1\n      pop\n        /* \".deps/npm/@chainlink/contracts/src/v0.7/vendor/SafeMathChainlink.sol\":964:965  a */\n      dup4\n        /* \".deps/npm/@chainlink/contracts/src/v0.7/vendor/SafeMathChainlink.sol\":959:960  c */\n      dup2\n        /* \".deps/npm/@chainlink/contracts/src/v0.7/vendor/SafeMathChainlink.sol\":959:965  c >= a */\n      lt\n      iszero\n        /* \".deps/npm/@chainlink/contracts/src/v0.7/vendor/SafeMathChainlink.sol\":951:997  require(c >= a, \"SafeMath: addition overflow\") */\n      tag_419\n      jumpi\n      mload(0x40)\n      0x08c379a000000000000000000000000000000000000000000000000000000000\n      dup2\n      mstore\n      0x04\n      add\n      dup1\n      dup1\n      0x20\n      add\n      dup3\n      dup2\n      sub\n      dup3\n      mstore\n      0x1b\n      dup2\n      mstore\n      0x20\n      add\n      dup1\n      0x536166654d6174683a206164646974696f6e206f766572666c6f770000000000\n      dup2\n      mstore\n      pop\n      0x20\n      add\n      swap2\n      pop\n      pop\n      mload(0x40)\n      dup1\n      swap2\n      sub\n      swap1\n      revert\n    tag_419:\n        /* \".deps/npm/@chainlink/contracts/src/v0.7/vendor/SafeMathChainlink.sol\":1011:1012  c */\n      dup1\n        /* \".deps/npm/@chainlink/contracts/src/v0.7/vendor/SafeMathChainlink.sol\":1004:1012  return c */\n      swap2\n      pop\n      pop\n        /* \".deps/npm/@chainlink/contracts/src/v0.7/vendor/SafeMathChainlink.sol\":855:1017  function add(uint256 a, uint256 b) internal pure returns (uint256) {... */\n      swap3\n      swap2\n      pop\n      pop\n      jump\t// out\n        /* \".deps/npm/@chainlink/contracts/src/v0.7/Operator.sol\":20740:20913  function _safeCastToUint8(uint256 number) internal pure returns (uint8) {... */\n    tag_391:\n        /* \".deps/npm/@chainlink/contracts/src/v0.7/Operator.sol\":20805:20810  uint8 */\n      0x00\n        /* \".deps/npm/@chainlink/contracts/src/v0.7/Operator.sol\":909:912  256 */\n      0x0100\n        /* \".deps/npm/@chainlink/contracts/src/v0.7/Operator.sol\":20826:20832  number */\n      dup3\n        /* \".deps/npm/@chainlink/contracts/src/v0.7/Operator.sol\":20826:20855  number < MAXIMUM_DATA_VERSION */\n      lt\n        /* \".deps/npm/@chainlink/contracts/src/v0.7/Operator.sol\":20818:20882  require(number < MAXIMUM_DATA_VERSION, \"number too big to cast\") */\n      tag_421\n      jumpi\n      mload(0x40)\n      0x08c379a000000000000000000000000000000000000000000000000000000000\n      dup2\n      mstore\n      0x04\n      add\n      dup1\n      dup1\n      0x20\n      add\n      dup3\n      dup2\n      sub\n      dup3\n      mstore\n      0x16\n      dup2\n      mstore\n      0x20\n      add\n      dup1\n      0x6e756d62657220746f6f2062696720746f206361737400000000000000000000\n      dup2\n      mstore\n      pop\n      0x20\n      add\n      swap2\n      pop\n      pop\n      mload(0x40)\n      dup1\n      swap2\n      sub\n      swap1\n      revert\n    tag_421:\n        /* \".deps/npm/@chainlink/contracts/src/v0.7/Operator.sol\":20901:20907  number */\n      dup2\n        /* \".deps/npm/@chainlink/contracts/src/v0.7/Operator.sol\":20888:20908  return uint8(number) */\n      swap1\n      pop\n        /* \".deps/npm/@chainlink/contracts/src/v0.7/Operator.sol\":20740:20913  function _safeCastToUint8(uint256 number) internal pure returns (uint8) {... */\n      swap2\n      swap1\n      pop\n      jump\t// out\n    tag_347:\n      dup3\n      dup1\n      sload\n      dup3\n      dup3\n      sstore\n      swap1\n      0x00\n      mstore\n      keccak256(0x00, 0x20)\n      swap1\n      dup2\n      add\n      swap3\n      dup3\n      iszero\n      tag_422\n      jumpi\n      swap2\n      0x20\n      mul\n      dup3\n      add\n    tag_423:\n      dup3\n      dup2\n      gt\n      iszero\n      tag_424\n      jumpi\n      dup3\n      calldataload\n      0xffffffffffffffffffffffffffffffffffffffff\n      and\n      dup3\n      exp(0x0100, 0x00)\n      dup2\n      sload\n      dup2\n      0xffffffffffffffffffffffffffffffffffffffff\n      mul\n      not\n      and\n      swap1\n      dup4\n      0xffffffffffffffffffffffffffffffffffffffff\n      and\n      mul\n      or\n      swap1\n      sstore\n      pop\n      swap2\n      0x20\n      add\n      swap2\n      swap1\n      0x01\n      add\n      swap1\n      jump(tag_423)\n    tag_424:\n    tag_422:\n      pop\n      swap1\n      pop\n      tag_425\n      swap2\n      swap1\n      tag_426\n      jump\t// in\n    tag_425:\n      pop\n      swap1\n      jump\t// out\n    tag_426:\n    tag_427:\n      dup1\n      dup3\n      gt\n      iszero\n      tag_428\n      jumpi\n      0x00\n      dup2\n      0x00\n      swap1\n      sstore\n      pop\n      0x01\n      add\n      jump(tag_427)\n    tag_428:\n      pop\n      swap1\n      jump\t// out\n    stop\n    data_87cfc663fcf6403059a83571137d56c7da4a1aa2a371627fe8ecf960f50e10c2 416d6f756e74207265717565737465642069732067726561746572207468616e20776974686472617761626c652062616c616e6365\n\n    auxdata: 0xa26469706673582212203d50eb53e7468e4a707558da9fcf25a320607d94f04edd9a637f8d4d51bb4fe664736f6c63430007060033\n}\n",
				"bytecode": {
					"linkReferences": {},
					"object": "60a060405260016006553480156200001657600080fd5b506040516200469738038062004697833981810160405260408110156200003c57600080fd5b810190808051906020019092919080519060200190929190505050808060008073ffffffffffffffffffffffffffffffffffffffff168273ffffffffffffffffffffffffffffffffffffffff161415620000fe576040517f08c379a00000000000000000000000000000000000000000000000000000000081526004018080602001828103825260188152602001807f43616e6e6f7420736574206f776e657220746f207a65726f000000000000000081525060200191505060405180910390fd5b81600260006101000a81548173ffffffffffffffffffffffffffffffffffffffff021916908373ffffffffffffffffffffffffffffffffffffffff160217905550600073ffffffffffffffffffffffffffffffffffffffff168173ffffffffffffffffffffffffffffffffffffffff161462000186576200018581620001c860201b60201c565b5b5050508173ffffffffffffffffffffffffffffffffffffffff1660808173ffffffffffffffffffffffffffffffffffffffff1660601b8152505050506200032b565b3373ffffffffffffffffffffffffffffffffffffffff168173ffffffffffffffffffffffffffffffffffffffff1614156200026b576040517f08c379a00000000000000000000000000000000000000000000000000000000081526004018080602001828103825260178152602001807f43616e6e6f74207472616e7366657220746f2073656c6600000000000000000081525060200191505060405180910390fd5b80600360006101000a81548173ffffffffffffffffffffffffffffffffffffffff021916908373ffffffffffffffffffffffffffffffffffffffff1602179055508073ffffffffffffffffffffffffffffffffffffffff16600260009054906101000a900473ffffffffffffffffffffffffffffffffffffffff1673ffffffffffffffffffffffffffffffffffffffff167fed8889f560326eb138920d842192f0eb3dd22b4f139c87a2c57538e05bae127860405160405180910390a350565b60805160601c61432b6200036c600039806111cf5280611414528061256c528061289f5280612d9e52806132b752806137255280613c2d525061432b6000f3fe6080604052600436106101665760003560e01c80636ae0bc76116100d1578063a4c0ed361161008a578063f2fde38b11610064578063f2fde38b14610dc9578063f3fef3a314610e1a578063fa00763a14610e75578063fc4a03ed14610edc57610166565b8063a4c0ed3614610bd9578063eb007d9914610ccb578063ee56997b14610d4357610166565b80636ae0bc76146108725780636bd59ec0146109755780636ee4d55314610a4357806379ba509714610abb5780638da5cb5b14610ad2578063902fc37014610b1357610166565b80633c6d41b9116101235780633c6d41b9146103ff5780633ec5bc14146104f6578063404299461461059c5780634ab0d190146106b4578063501883011461076c5780635ffa62881461079757610166565b806301994b991461016b578063033f49f7146101f1578063165d35e114610297578063181f5a77146102d85780632408afaa1461036857806325cb5bc0146103d4575b600080fd5b34801561017757600080fd5b506101ef6004803603602081101561018e57600080fd5b81019080803590602001906401000000008111156101ab57600080fd5b8201836020820111156101bd57600080fd5b803590602001918460208302840111640100000000831117156101df57600080fd5b9091929391929390505050610fb7565b005b3480156101fd57600080fd5b506102956004803603604081101561021457600080fd5b81019080803573ffffffffffffffffffffffffffffffffffffffff1690602001909291908035906020019064010000000081111561025157600080fd5b82018360208201111561026357600080fd5b8035906020019184600183028401116401000000008311171561028557600080fd5b90919293919293905050506111c4565b005b3480156102a357600080fd5b506102ac611410565b604051808273ffffffffffffffffffffffffffffffffffffffff16815260200191505060405180910390f35b3480156102e457600080fd5b506102ed611438565b6040518080602001828103825283818151815260200191508051906020019080838360005b8381101561032d578082015181840152602081019050610312565b50505050905090810190601f16801561035a5780820380516001836020036101000a031916815260200191505b509250505060405180910390f35b34801561037457600080fd5b5061037d611475565b6040518080602001828103825283818151815260200191508051906020019060200280838360005b838110156103c05780820151818401526020810190506103a5565b505050509050019250505060405180910390f35b3480156103e057600080fd5b506103e9611503565b6040518082815260200191505060405180910390f35b34801561040b57600080fd5b506104f4600480360360e081101561042257600080fd5b81019080803573ffffffffffffffffffffffffffffffffffffffff169060200190929190803590602001909291908035906020019092919080357bffffffffffffffffffffffffffffffffffffffffffffffffffffffff191690602001909291908035906020019092919080359060200190929190803590602001906401000000008111156104b057600080fd5b8201836020820111156104c257600080fd5b803590602001918460018302840111640100000000831117156104e457600080fd5b9091929391929390505050611509565b005b34801561050257600080fd5b5061059a6004803603604081101561051957600080fd5b810190808035906020019064010000000081111561053657600080fd5b82018360208201111561054857600080fd5b8035906020019184602083028401116401000000008311171561056a57600080fd5b9091929391929390803573ffffffffffffffffffffffffffffffffffffffff1690602001909291905050506116b9565b005b3480156105a857600080fd5b506106b260048036036101008110156105c057600080fd5b81019080803573ffffffffffffffffffffffffffffffffffffffff1690602001909291908035906020019092919080359060200190929190803573ffffffffffffffffffffffffffffffffffffffff16906020019092919080357bffffffffffffffffffffffffffffffffffffffffffffffffffffffff1916906020019092919080359060200190929190803590602001909291908035906020019064010000000081111561066e57600080fd5b82018360208201111561068057600080fd5b803590602001918460018302840111640100000000831117156106a257600080fd5b909192939192939050505061180b565b005b3480156106c057600080fd5b50610754600480360360c08110156106d757600080fd5b810190808035906020019092919080359060200190929190803573ffffffffffffffffffffffffffffffffffffffff16906020019092919080357bffffffffffffffffffffffffffffffffffffffffffffffffffffffff1916906020019092919080359060200190929190803590602001909291905050506119bc565b60405180821515815260200191505060405180910390f35b34801561077857600080fd5b50610781611d1c565b6040518082815260200191505060405180910390f35b3480156107a357600080fd5b50610870600480360360408110156107ba57600080fd5b81019080803590602001906401000000008111156107d757600080fd5b8201836020820111156107e957600080fd5b8035906020019184602083028401116401000000008311171561080b57600080fd5b90919293919293908035906020019064010000000081111561082c57600080fd5b82018360208201111561083e57600080fd5b8035906020019184602083028401116401000000008311171561086057600080fd5b9091929391929390505050611d2b565b005b34801561087e57600080fd5b5061095d600480360360c081101561089557600080fd5b810190808035906020019092919080359060200190929190803573ffffffffffffffffffffffffffffffffffffffff16906020019092919080357bffffffffffffffffffffffffffffffffffffffffffffffffffffffff19169060200190929190803590602001909291908035906020019064010000000081111561091957600080fd5b82018360208201111561092b57600080fd5b8035906020019184600183028401116401000000008311171561094d57600080fd5b9091929391929390505050611dc1565b60405180821515815260200191505060405180910390f35b610a416004803603604081101561098b57600080fd5b81019080803590602001906401000000008111156109a857600080fd5b8201836020820111156109ba57600080fd5b803590602001918460208302840111640100000000831117156109dc57600080fd5b9091929391929390803590602001906401000000008111156109fd57600080fd5b820183602082011115610a0f57600080fd5b80359060200191846020830284011164010000000083111715610a3157600080fd5b90919293919293905050506121f7565b005b348015610a4f57600080fd5b50610ab960048036036080811015610a6657600080fd5b81019080803590602001909291908035906020019092919080357bffffffffffffffffffffffffffffffffffffffffffffffffffffffff19169060200190929190803590602001909291905050506123bb565b005b348015610ac757600080fd5b50610ad061263e565b005b348015610ade57600080fd5b50610ae7612808565b604051808273ffffffffffffffffffffffffffffffffffffffff16815260200191505060405180910390f35b348015610b1f57600080fd5b50610bc160048036036060811015610b3657600080fd5b81019080803573ffffffffffffffffffffffffffffffffffffffff1690602001909291908035906020019092919080359060200190640100000000811115610b7d57600080fd5b820183602082011115610b8f57600080fd5b80359060200191846001830284011164010000000083111715610bb157600080fd5b9091929391929390505050612832565b60405180821515815260200191505060405180910390f35b348015610be557600080fd5b50610cc960048036036060811015610bfc57600080fd5b81019080803573ffffffffffffffffffffffffffffffffffffffff1690602001909291908035906020019092919080359060200190640100000000811115610c4357600080fd5b820183602082011115610c5557600080fd5b80359060200191846001830284011164010000000083111715610c7757600080fd5b91908080601f016020809104026020016040519081016040528093929190818152602001838380828437600081840152601f19601f8201169050808301925050505050505091929192905050506129a8565b005b348015610cd757600080fd5b50610d4160048036036080811015610cee57600080fd5b81019080803590602001909291908035906020019092919080357bffffffffffffffffffffffffffffffffffffffffffffffffffffffff1916906020019092919080359060200190929190505050612ba1565b005b348015610d4f57600080fd5b50610dc760048036036020811015610d6657600080fd5b8101908080359060200190640100000000811115610d8357600080fd5b820183602082011115610d9557600080fd5b80359060200191846020830284011164010000000083111715610db757600080fd5b9091929391929390505050612e71565b005b348015610dd557600080fd5b50610e1860048036036020811015610dec57600080fd5b81019080803573ffffffffffffffffffffffffffffffffffffffff169060200190929190505050613238565b005b348015610e2657600080fd5b50610e7360048036036040811015610e3d57600080fd5b81019080803573ffffffffffffffffffffffffffffffffffffffff1690602001909291908035906020019092919050505061324c565b005b348015610e8157600080fd5b50610ec460048036036020811015610e9857600080fd5b81019080803573ffffffffffffffffffffffffffffffffffffffff16906020019092919050505061338c565b60405180821515815260200191505060405180910390f35b348015610ee857600080fd5b50610fb560048036036040811015610eff57600080fd5b8101908080359060200190640100000000811115610f1c57600080fd5b820183602082011115610f2e57600080fd5b80359060200191846020830284011164010000000083111715610f5057600080fd5b909192939192939080359060200190640100000000811115610f7157600080fd5b820183602082011115610f8357600080fd5b80359060200191846020830284011164010000000083111715610fa557600080fd5b90919293919293905050506133e1565b005b610fbf6135fa565b611031576040517f08c379a000000000000000000000000000000000000000000000000000000000815260040180806020018281038252601d8152602001807f43616e6e6f742073657420617574686f72697a65642073656e6465727300000081525060200191505060405180910390fd5b60005b828290508110156111bf5760016005600085858581811061105157fe5b9050602002013573ffffffffffffffffffffffffffffffffffffffff1673ffffffffffffffffffffffffffffffffffffffff1673ffffffffffffffffffffffffffffffffffffffff16815260200190815260200160002060006101000a81548160ff0219169083151502179055508282828181106110cb57fe5b9050602002013573ffffffffffffffffffffffffffffffffffffffff1673ffffffffffffffffffffffffffffffffffffffff167f615a0c1cb00a60d4acd77ec67acf2f17f223ef0932d591052fabc33643fe7e8260405160405180910390a282828281811061113657fe5b9050602002013573ffffffffffffffffffffffffffffffffffffffff1673ffffffffffffffffffffffffffffffffffffffff166379ba50976040518163ffffffff1660e01b8152600401600060405180830381600087803b15801561119a57600080fd5b505af11580156111ae573d6000803e3d6000fd5b505050508080600101915050611034565b505050565b6111cc613647565b827f000000000000000000000000000000000000000000000000000000000000000073ffffffffffffffffffffffffffffffffffffffff168173ffffffffffffffffffffffffffffffffffffffff16141561128f576040517f08c379a00000000000000000000000000000000000000000000000000000000081526004018080602001828103825260138152602001807f43616e6e6f742063616c6c20746f204c494e4b0000000000000000000000000081525060200191505060405180910390fd5b6112ae8473ffffffffffffffffffffffffffffffffffffffff1661370c565b611320576040517f08c379a000000000000000000000000000000000000000000000000000000000815260040180806020018281038252601a8152602001807f4d75737420666f727761726420746f206120636f6e747261637400000000000081525060200191505060405180910390fd5b60008473ffffffffffffffffffffffffffffffffffffffff1684846040518083838082843780830192505050925050506000604051808303816000865af19150503d806000811461138d576040519150601f19603f3d011682016040523d82523d6000602084013e611392565b606091505b5050905080611409576040517f08c379a00000000000000000000000000000000000000000000000000000000081526004018080602001828103825260158152602001807f466f727761726465642063616c6c206661696c6564000000000000000000000081525060200191505060405180910390fd5b5050505050565b60007f0000000000000000000000000000000000000000000000000000000000000000905090565b60606040518060400160405280600e81526020017f4f70657261746f7220312e302e30000000000000000000000000000000000000815250905090565b606060018054806020026020016040519081016040528092919081815260200182805480156114f957602002820191906000526020600020905b8160009054906101000a900473ffffffffffffffffffffffffffffffffffffffff1673ffffffffffffffffffffffffffffffffffffffff16815260200190600101908083116114af575b5050505050905090565b61012c81565b611511611410565b73ffffffffffffffffffffffffffffffffffffffff163373ffffffffffffffffffffffffffffffffffffffff16146115b1576040517f08c379a00000000000000000000000000000000000000000000000000000000081526004018080602001828103825260138152602001807f4d75737420757365204c494e4b20746f6b656e0000000000000000000000000081525060200191505060405180910390fd5b6000806115c28a8a8c8a8a8a61371f565b91509150877fd8d7ecc4800d25fa53ce0372f13a416d98907a7ef3d8d3bdd79cf4fe75529c658b848c8e8c878c8c8c604051808a73ffffffffffffffffffffffffffffffffffffffff1681526020018981526020018881526020018773ffffffffffffffffffffffffffffffffffffffff168152602001867bffffffffffffffffffffffffffffffffffffffffffffffffffffffff19168152602001858152602001848152602001806020018281038252848482818152602001925080828437600081840152601f19601f8201169050808301925050509a505050505050505050505060405180910390a250505050505050505050565b6116c1613647565b60005b83839050811015611805576000600560008686858181106116e157fe5b9050602002013573ffffffffffffffffffffffffffffffffffffffff1673ffffffffffffffffffffffffffffffffffffffff1673ffffffffffffffffffffffffffffffffffffffff16815260200190815260200160002060006101000a81548160ff02191690831515021790555083838281811061175b57fe5b9050602002013573ffffffffffffffffffffffffffffffffffffffff1673ffffffffffffffffffffffffffffffffffffffff1663f2fde38b836040518263ffffffff1660e01b8152600401808273ffffffffffffffffffffffffffffffffffffffff168152602001915050600060405180830381600087803b1580156117e057600080fd5b505af11580156117f4573d6000803e3d6000fd5b5050505080806001019150506116c4565b50505050565b611813611410565b73ffffffffffffffffffffffffffffffffffffffff163373ffffffffffffffffffffffffffffffffffffffff16146118b3576040517f08c379a00000000000000000000000000000000000000000000000000000000081526004018080602001828103825260138152602001807f4d75737420757365204c494e4b20746f6b656e0000000000000000000000000081525060200191505060405180910390fd5b6000806118c48b8b8a8a8a8a61371f565b91509150887fd8d7ecc4800d25fa53ce0372f13a416d98907a7ef3d8d3bdd79cf4fe75529c658c848d8f8c878c8c8c604051808a73ffffffffffffffffffffffffffffffffffffffff1681526020018981526020018881526020018773ffffffffffffffffffffffffffffffffffffffff168152602001867bffffffffffffffffffffffffffffffffffffffffffffffffffffffff19168152602001858152602001848152602001806020018281038252848482818152602001925080828437600081840152601f19601f8201169050808301925050509a505050505050505050505060405180910390a25050505050505050505050565b60006119c66139b8565b86600060081b6004600083815260200190815260200160002060000160009054906101000a900460081b60ff19161415611a68576040517f08c379a000000000000000000000000000000000000000000000000000000000815260040180806020018281038252601b8152602001807f4d757374206861766520612076616c696420726571756573744964000000000081525060200191505060405180910390fd5b85600560008273ffffffffffffffffffffffffffffffffffffffff1673ffffffffffffffffffffffffffffffffffffffff16815260200190815260200160002060009054906101000a900460ff1615611b29576040517f08c379a000000000000000000000000000000000000000000000000000000000815260040180806020018281038252601a8152602001807f43616e6e6f742063616c6c206f776e656420636f6e747261637400000000000081525060200191505060405180910390fd5b611b3889898989896001613a35565b887f9e9bc7616d42c2835d05ae617e508454e63b30b934be8aa932ebc125e0e58a6460405160405180910390a262061a805a1015611bde576040517f08c379a00000000000000000000000000000000000000000000000000000000081526004018080602001828103825260208152602001807f4d7573742070726f7669646520636f6e73756d657220656e6f7567682067617381525060200191505060405180910390fd5b60008773ffffffffffffffffffffffffffffffffffffffff16878b876040516024018083815260200182815260200192505050604051602081830303815290604052907bffffffffffffffffffffffffffffffffffffffffffffffffffffffff19166020820180517bffffffffffffffffffffffffffffffffffffffffffffffffffffffff83818316178352505050506040518082805190602001908083835b60208310611ca15780518252602082019150602081019050602083039250611c7e565b6001836020036101000a0380198251168184511680821785525050505050509050019150506000604051808303816000865af19150503d8060008114611d03576040519150601f19603f3d011682016040523d82523d6000602084013e611d08565b606091505b505090508093505050509695505050505050565b6000611d26613c0c565b905090565b611d336135fa565b611da5576040517f08c379a000000000000000000000000000000000000000000000000000000000815260040180806020018281038252601d8152602001807f43616e6e6f742073657420617574686f72697a65642073656e6465727300000081525060200191505060405180910390fd5b611daf8484610fb7565b611dbb848484846133e1565b50505050565b6000611dcb6139b8565b87600060081b6004600083815260200190815260200160002060000160009054906101000a900460081b60ff19161415611e6d576040517f08c379a000000000000000000000000000000000000000000000000000000000815260040180806020018281038252601b8152602001807f4d757374206861766520612076616c696420726571756573744964000000000081525060200191505060405180910390fd5b86600560008273ffffffffffffffffffffffffffffffffffffffff1673ffffffffffffffffffffffffffffffffffffffff16815260200190815260200160002060009054906101000a900460ff1615611f2e576040517f08c379a000000000000000000000000000000000000000000000000000000000815260040180806020018281038252601a8152602001807f43616e6e6f742063616c6c206f776e656420636f6e747261637400000000000081525060200191505060405180910390fd5b8985856020828290501015611fab576040517f08c379a000000000000000000000000000000000000000000000000000000000815260040180806020018281038252601b8152602001807f526573706f6e7365206d757374206265203e203332206279746573000000000081525060200191505060405180910390fd5b600082359050808414612026576040517f08c379a000000000000000000000000000000000000000000000000000000000815260040180806020018281038252601c8152602001807f466972737420776f7264206d757374206265207265717565737449640000000081525060200191505060405180910390fd5b6120358e8e8e8e8e6002613a35565b8d7f9e9bc7616d42c2835d05ae617e508454e63b30b934be8aa932ebc125e0e58a6460405160405180910390a262061a805a10156120db576040517f08c379a00000000000000000000000000000000000000000000000000000000081526004018080602001828103825260208152602001807f4d7573742070726f7669646520636f6e73756d657220656e6f7567682067617381525060200191505060405180910390fd5b60008c73ffffffffffffffffffffffffffffffffffffffff168c8b8b60405160200180847bffffffffffffffffffffffffffffffffffffffffffffffffffffffff191681526004018383808284378083019250505093505050506040516020818303038152906040526040518082805190602001908083835b602083106121775780518252602082019150602081019050602083039250612154565b6001836020036101000a0380198251168184511680821785525050505050509050019150506000604051808303816000865af19150503d80600081146121d9576040519150601f19603f3d011682016040523d82523d6000602084013e6121de565b606091505b5050905080975050505050505050979650505050505050565b60008484905011801561220f57508181905084849050145b612281576040517f08c379a00000000000000000000000000000000000000000000000000000000081526004018080602001828103825260178152602001807f496e76616c6964206172726179206c656e67746828732900000000000000000081525060200191505060405180910390fd5b600034905060005b8585905081101561233d5760008484838181106122a257fe5b9050602002013590506122be8184613d0190919063ffffffff16565b92508686838181106122cc57fe5b9050602002013573ffffffffffffffffffffffffffffffffffffffff1673ffffffffffffffffffffffffffffffffffffffff166108fc829081150290604051600060405180830381858888f1935050505015801561232e573d6000803e3d6000fd5b50508080600101915050612289565b50600081146123b4576040517f08c379a00000000000000000000000000000000000000000000000000000000081526004018080602001828103825260118152602001807f546f6f206d756368204554482073656e7400000000000000000000000000000081525060200191505060405180910390fd5b5050505050565b60006123c984338585613d8a565b90508060ff19166004600087815260200190815260200160002060000160009054906101000a900460081b60ff19161461246b576040517f08c379a000000000000000000000000000000000000000000000000000000000815260040180806020018281038252601e8152602001807f506172616d7320646f206e6f74206d617463682072657175657374204944000081525060200191505060405180910390fd5b428211156124e1576040517f08c379a00000000000000000000000000000000000000000000000000000000081526004018080602001828103825260168152602001807f52657175657374206973206e6f7420657870697265640000000000000000000081525060200191505060405180910390fd5b60046000868152602001908152602001600020600080820160006101000a8154907effffffffffffffffffffffffffffffffffffffffffffffffffffffffffffff021916905560008201601f6101000a81549060ff02191690555050847fa7842b9ec549398102c0d91b1b9919b2f20558aefdadf57528a95c6cd3292e9360405160405180910390a27f000000000000000000000000000000000000000000000000000000000000000073ffffffffffffffffffffffffffffffffffffffff1663a9059cbb33866040518363ffffffff1660e01b8152600401808373ffffffffffffffffffffffffffffffffffffffff16815260200182815260200192505050602060405180830381600087803b1580156125fb57600080fd5b505af115801561260f573d6000803e3d6000fd5b505050506040513d602081101561262557600080fd5b8101908080519060200190929190505050505050505050565b600360009054906101000a900473ffffffffffffffffffffffffffffffffffffffff1673ffffffffffffffffffffffffffffffffffffffff163373ffffffffffffffffffffffffffffffffffffffff1614612701576040517f08c379a00000000000000000000000000000000000000000000000000000000081526004018080602001828103825260168152602001807f4d7573742062652070726f706f736564206f776e65720000000000000000000081525060200191505060405180910390fd5b6000600260009054906101000a900473ffffffffffffffffffffffffffffffffffffffff16905033600260006101000a81548173ffffffffffffffffffffffffffffffffffffffff021916908373ffffffffffffffffffffffffffffffffffffffff1602179055506000600360006101000a81548173ffffffffffffffffffffffffffffffffffffffff021916908373ffffffffffffffffffffffffffffffffffffffff1602179055503373ffffffffffffffffffffffffffffffffffffffff168173ffffffffffffffffffffffffffffffffffffffff167f8be0079c531659141344cd1fd0a4f28419497f9722a3daafe3b4186f6b6457e060405160405180910390a350565b6000600260009054906101000a900473ffffffffffffffffffffffffffffffffffffffff16905090565b600061283c613647565b8380612846613c0c565b101561289d576040517f08c379a00000000000000000000000000000000000000000000000000000000081526004018080602001828103825260358152602001806142c16035913960400191505060405180910390fd5b7f000000000000000000000000000000000000000000000000000000000000000073ffffffffffffffffffffffffffffffffffffffff16634000aea0878787876040518563ffffffff1660e01b8152600401808573ffffffffffffffffffffffffffffffffffffffff168152602001848152602001806020018281038252848482818152602001925080828437600081840152601f19601f82011690508083019250505095505050505050602060405180830381600087803b15801561296257600080fd5b505af1158015612976573d6000803e3d6000fd5b505050506040513d602081101561298c57600080fd5b8101908080519060200190929190505050915050949350505050565b6129b0611410565b73ffffffffffffffffffffffffffffffffffffffff163373ffffffffffffffffffffffffffffffffffffffff1614612a50576040517f08c379a00000000000000000000000000000000000000000000000000000000081526004018080602001828103825260138152602001807f4d75737420757365204c494e4b20746f6b656e0000000000000000000000000081525060200191505060405180910390fd5b80600060208201519050612a648183613e0d565b84602484015283604484015260003073ffffffffffffffffffffffffffffffffffffffff16846040518082805190602001908083835b60208310612abd5780518252602082019150602081019050602083039250612a9a565b6001836020036101000a038019825116818451168082178552505050505050905001915050600060405180830381855af49150503d8060008114612b1d576040519150601f19603f3d011682016040523d82523d6000602084013e612b22565b606091505b5050905080612b99576040517f08c379a00000000000000000000000000000000000000000000000000000000081526004018080602001828103825260188152602001807f556e61626c6520746f206372656174652072657175657374000000000000000081525060200191505060405180910390fd5b505050505050565b60003385604051602001808373ffffffffffffffffffffffffffffffffffffffff1660601b8152601401828152602001925050506040516020818303038152906040528051906020012090506000612bfb85338686613d8a565b90508060ff19166004600084815260200190815260200160002060000160009054906101000a900460081b60ff191614612c9d576040517f08c379a000000000000000000000000000000000000000000000000000000000815260040180806020018281038252601e8152602001807f506172616d7320646f206e6f74206d617463682072657175657374204944000081525060200191505060405180910390fd5b42831115612d13576040517f08c379a00000000000000000000000000000000000000000000000000000000081526004018080602001828103825260168152602001807f52657175657374206973206e6f7420657870697265640000000000000000000081525060200191505060405180910390fd5b60046000838152602001908152602001600020600080820160006101000a8154907effffffffffffffffffffffffffffffffffffffffffffffffffffffffffffff021916905560008201601f6101000a81549060ff02191690555050817fa7842b9ec549398102c0d91b1b9919b2f20558aefdadf57528a95c6cd3292e9360405160405180910390a27f000000000000000000000000000000000000000000000000000000000000000073ffffffffffffffffffffffffffffffffffffffff1663a9059cbb33876040518363ffffffff1660e01b8152600401808373ffffffffffffffffffffffffffffffffffffffff16815260200182815260200192505050602060405180830381600087803b158015612e2d57600080fd5b505af1158015612e41573d6000803e3d6000fd5b505050506040513d6020811015612e5757600080fd5b810190808051906020019092919050505050505050505050565b612e796135fa565b612eeb576040517f08c379a000000000000000000000000000000000000000000000000000000000815260040180806020018281038252601d8152602001807f43616e6e6f742073657420617574686f72697a65642073656e6465727300000081525060200191505060405180910390fd5b60008282905011612f64576040517f08c379a000000000000000000000000000000000000000000000000000000000815260040180806020018281038252601b8152602001807f4d7573742068617665206174206c6561737420312073656e646572000000000081525060200191505060405180910390fd5b6000600180549050905060005b8181101561301457600080600060018481548110612f8b57fe5b9060005260206000200160009054906101000a900473ffffffffffffffffffffffffffffffffffffffff1673ffffffffffffffffffffffffffffffffffffffff1673ffffffffffffffffffffffffffffffffffffffff16815260200190815260200160002060006101000a81548160ff0219169083151502179055508080600101915050612f71565b5060005b8383905081101561319c576000151560008086868581811061303657fe5b9050602002013573ffffffffffffffffffffffffffffffffffffffff1673ffffffffffffffffffffffffffffffffffffffff1673ffffffffffffffffffffffffffffffffffffffff16815260200190815260200160002060009054906101000a900460ff16151514613110576040517f08c379a000000000000000000000000000000000000000000000000000000000815260040180806020018281038252601f8152602001807f4d757374206e6f742068617665206475706c69636174652073656e646572730081525060200191505060405180910390fd5b600160008086868581811061312157fe5b9050602002013573ffffffffffffffffffffffffffffffffffffffff1673ffffffffffffffffffffffffffffffffffffffff1673ffffffffffffffffffffffffffffffffffffffff16815260200190815260200160002060006101000a81548160ff0219169083151502179055508080600101915050613018565b508282600191906131ae929190614203565b507ff263cfb3e4298332e776194610cf9fdc09ccb3ada8b9aa39764d882e11fbf0a083833360405180806020018373ffffffffffffffffffffffffffffffffffffffff1681526020018281038252858582818152602001925060200280828437600081840152601f19601f82011690508083019250505094505050505060405180910390a1505050565b613240613647565b61324981613f98565b50565b613254613647565b808061325e613c0c565b10156132b5576040517f08c379a00000000000000000000000000000000000000000000000000000000081526004018080602001828103825260358152602001806142c16035913960400191505060405180910390fd5b7f000000000000000000000000000000000000000000000000000000000000000073ffffffffffffffffffffffffffffffffffffffff1663a9059cbb84846040518363ffffffff1660e01b8152600401808373ffffffffffffffffffffffffffffffffffffffff16815260200182815260200192505050602060405180830381600087803b15801561334657600080fd5b505af115801561335a573d6000803e3d6000fd5b505050506040513d602081101561337057600080fd5b810190808051906020019092919050505061338757fe5b505050565b60008060008373ffffffffffffffffffffffffffffffffffffffff1673ffffffffffffffffffffffffffffffffffffffff16815260200190815260200160002060009054906101000a900460ff169050919050565b6133e96135fa565b61345b576040517f08c379a000000000000000000000000000000000000000000000000000000000815260040180806020018281038252601d8152602001807f43616e6e6f742073657420617574686f72697a65642073656e6465727300000081525060200191505060405180910390fd5b7f1bb185903e2cb2f1b303523128b60e314dea81df4f8d9b7351cadd344f6e772784848484336040518080602001806020018473ffffffffffffffffffffffffffffffffffffffff1681526020018381038352888882818152602001925060200280828437600081840152601f19601f8201169050808301925050508381038252868682818152602001925060200280828437600081840152601f19601f82011690508083019250505097505050505050505060405180910390a160005b848490508110156135f35784848281811061353057fe5b9050602002013573ffffffffffffffffffffffffffffffffffffffff1673ffffffffffffffffffffffffffffffffffffffff1663ee56997b84846040518363ffffffff1660e01b815260040180806020018281038252848482818152602001925060200280828437600081840152601f19601f8201169050808301925050509350505050600060405180830381600087803b1580156135ce57600080fd5b505af11580156135e2573d6000803e3d6000fd5b505050508080600101915050613519565b5050505050565b60006136053361338c565b8061364257503373ffffffffffffffffffffffffffffffffffffffff1661362a612808565b73ffffffffffffffffffffffffffffffffffffffff16145b905090565b600260009054906101000a900473ffffffffffffffffffffffffffffffffffffffff1673ffffffffffffffffffffffffffffffffffffffff163373ffffffffffffffffffffffffffffffffffffffff161461370a576040517f08c379a00000000000000000000000000000000000000000000000000000000081526004018080602001828103825260168152602001807f4f6e6c792063616c6c61626c65206279206f776e65720000000000000000000081525060200191505060405180910390fd5b565b600080823b905060008111915050919050565b600080857f000000000000000000000000000000000000000000000000000000000000000073ffffffffffffffffffffffffffffffffffffffff168173ffffffffffffffffffffffffffffffffffffffff1614156137e5576040517f08c379a00000000000000000000000000000000000000000000000000000000081526004018080602001828103825260138152602001807f43616e6e6f742063616c6c20746f204c494e4b0000000000000000000000000081525060200191505060405180910390fd5b8885604051602001808373ffffffffffffffffffffffffffffffffffffffff1660601b815260140182815260200192505050604051602081830303815290604052805190602001209250600060081b6004600085815260200190815260200160002060000160009054906101000a900460081b60ff1916146138cf576040517f08c379a00000000000000000000000000000000000000000000000000000000081526004018080602001828103825260148152602001807f4d75737420757365206120756e6971756520494400000000000000000000000081525060200191505060405180910390fd5b6138e461012c426140fa90919063ffffffff16565b915060006138f489898986613d8a565b905060405180604001604052808260ff1916815260200161391487614182565b60ff168152506004600086815260200190815260200160002060008201518160000160006101000a8154817effffffffffffffffffffffffffffffffffffffffffffffffffffffffffffff021916908360081c0217905550602082015181600001601f6101000a81548160ff021916908360ff1602179055509050506139a5896006546140fa90919063ffffffff16565b6006819055505050965096945050505050565b6139c13361338c565b613a33576040517f08c379a00000000000000000000000000000000000000000000000000000000081526004018080602001828103825260158152602001807f4e6f7420617574686f72697a65642073656e646572000000000000000000000081525060200191505060405180910390fd5b565b6000613a4386868686613d8a565b90508060ff19166004600089815260200190815260200160002060000160009054906101000a900460081b60ff191614613ae5576040517f08c379a000000000000000000000000000000000000000000000000000000000815260040180806020018281038252601e8152602001807f506172616d7320646f206e6f74206d617463682072657175657374204944000081525060200191505060405180910390fd5b613aee82614182565b60ff1660046000898152602001908152602001600020600001601f9054906101000a900460ff1660ff161115613b8c576040517f08c379a00000000000000000000000000000000000000000000000000000000081526004018080602001828103825260188152602001807f446174612076657273696f6e73206d757374206d61746368000000000000000081525060200191505060405180910390fd5b613ba186600654613d0190919063ffffffff16565b60068190555060046000888152602001908152602001600020600080820160006101000a8154907effffffffffffffffffffffffffffffffffffffffffffffffffffffffffffff021916905560008201601f6101000a81549060ff0219169055505050505050505050565b600080613c256001600654613d0190919063ffffffff16565b9050613cfb817f000000000000000000000000000000000000000000000000000000000000000073ffffffffffffffffffffffffffffffffffffffff166370a08231306040518263ffffffff1660e01b8152600401808273ffffffffffffffffffffffffffffffffffffffff16815260200191505060206040518083038186803b158015613cb257600080fd5b505afa158015613cc6573d6000803e3d6000fd5b505050506040513d6020811015613cdc57600080fd5b8101908080519060200190929190505050613d0190919063ffffffff16565b91505090565b600082821115613d79576040517f08c379a000000000000000000000000000000000000000000000000000000000815260040180806020018281038252601e8152602001807f536166654d6174683a207375627472616374696f6e206f766572666c6f77000081525060200191505060405180910390fd5b600082840390508091505092915050565b600084848484604051602001808581526020018473ffffffffffffffffffffffffffffffffffffffff1660601b8152601401837bffffffffffffffffffffffffffffffffffffffffffffffffffffffff19168152600401828152602001945050505050604051602081830303815290604052805190602001209050949350505050565b600260200260040181511015613e8b576040517f08c379a00000000000000000000000000000000000000000000000000000000081526004018080602001828103825260168152602001807f496e76616c69642072657175657374206c656e6774680000000000000000000081525060200191505060405180910390fd5b633c6d41b960e01b7bffffffffffffffffffffffffffffffffffffffffffffffffffffffff1916827bffffffffffffffffffffffffffffffffffffffffffffffffffffffff19161480613f225750634042994660e01b7bffffffffffffffffffffffffffffffffffffffffffffffffffffffff1916827bffffffffffffffffffffffffffffffffffffffffffffffffffffffff1916145b613f94576040517f08c379a000000000000000000000000000000000000000000000000000000000815260040180806020018281038252601e8152602001807f4d757374207573652077686974656c69737465642066756e6374696f6e73000081525060200191505060405180910390fd5b5050565b3373ffffffffffffffffffffffffffffffffffffffff168173ffffffffffffffffffffffffffffffffffffffff16141561403a576040517f08c379a00000000000000000000000000000000000000000000000000000000081526004018080602001828103825260178152602001807f43616e6e6f74207472616e7366657220746f2073656c6600000000000000000081525060200191505060405180910390fd5b80600360006101000a81548173ffffffffffffffffffffffffffffffffffffffff021916908373ffffffffffffffffffffffffffffffffffffffff1602179055508073ffffffffffffffffffffffffffffffffffffffff16600260009054906101000a900473ffffffffffffffffffffffffffffffffffffffff1673ffffffffffffffffffffffffffffffffffffffff167fed8889f560326eb138920d842192f0eb3dd22b4f139c87a2c57538e05bae127860405160405180910390a350565b600080828401905083811015614178576040517f08c379a000000000000000000000000000000000000000000000000000000000815260040180806020018281038252601b8152602001807f536166654d6174683a206164646974696f6e206f766572666c6f77000000000081525060200191505060405180910390fd5b8091505092915050565b600061010082106141fb576040517f08c379a00000000000000000000000000000000000000000000000000000000081526004018080602001828103825260168152602001807f6e756d62657220746f6f2062696720746f20636173740000000000000000000081525060200191505060405180910390fd5b819050919050565b828054828255906000526020600020908101928215614292579160200282015b8281111561429157823573ffffffffffffffffffffffffffffffffffffffff168260006101000a81548173ffffffffffffffffffffffffffffffffffffffff021916908373ffffffffffffffffffffffffffffffffffffffff16021790555091602001919060010190614223565b5b50905061429f91906142a3565b5090565b5b808211156142bc5760008160009055506001016142a4565b509056fe416d6f756e74207265717565737465642069732067726561746572207468616e20776974686472617761626c652062616c616e6365a26469706673582212203d50eb53e7468e4a707558da9fcf25a320607d94f04edd9a637f8d4d51bb4fe664736f6c63430007060033",
					"opcodes": "PUSH1 0xA0 PUSH1 0x40 MSTORE PUSH1 0x1 PUSH1 0x6 SSTORE CALLVALUE DUP1 ISZERO PUSH3 0x16 JUMPI PUSH1 0x0 DUP1 REVERT JUMPDEST POP PUSH1 0x40 MLOAD PUSH3 0x4697 CODESIZE SUB DUP1 PUSH3 0x4697 DUP4 CODECOPY DUP2 DUP2 ADD PUSH1 0x40 MSTORE PUSH1 0x40 DUP2 LT ISZERO PUSH3 0x3C JUMPI PUSH1 0x0 DUP1 REVERT JUMPDEST DUP2 ADD SWAP1 DUP1 DUP1 MLOAD SWAP1 PUSH1 0x20 ADD SWAP1 SWAP3 SWAP2 SWAP1 DUP1 MLOAD SWAP1 PUSH1 0x20 ADD SWAP1 SWAP3 SWAP2 SWAP1 POP POP POP DUP1 DUP1 PUSH1 0x0 DUP1 PUSH20 0xFFFFFFFFFFFFFFFFFFFFFFFFFFFFFFFFFFFFFFFF AND DUP3 PUSH20 0xFFFFFFFFFFFFFFFFFFFFFFFFFFFFFFFFFFFFFFFF AND EQ ISZERO PUSH3 0xFE JUMPI PUSH1 0x40 MLOAD PUSH32 0x8C379A000000000000000000000000000000000000000000000000000000000 DUP2 MSTORE PUSH1 0x4 ADD DUP1 DUP1 PUSH1 0x20 ADD DUP3 DUP2 SUB DUP3 MSTORE PUSH1 0x18 DUP2 MSTORE PUSH1 0x20 ADD DUP1 PUSH32 0x43616E6E6F7420736574206F776E657220746F207A65726F0000000000000000 DUP2 MSTORE POP PUSH1 0x20 ADD SWAP2 POP POP PUSH1 0x40 MLOAD DUP1 SWAP2 SUB SWAP1 REVERT JUMPDEST DUP2 PUSH1 0x2 PUSH1 0x0 PUSH2 0x100 EXP DUP2 SLOAD DUP2 PUSH20 0xFFFFFFFFFFFFFFFFFFFFFFFFFFFFFFFFFFFFFFFF MUL NOT AND SWAP1 DUP4 PUSH20 0xFFFFFFFFFFFFFFFFFFFFFFFFFFFFFFFFFFFFFFFF AND MUL OR SWAP1 SSTORE POP PUSH1 0x0 PUSH20 0xFFFFFFFFFFFFFFFFFFFFFFFFFFFFFFFFFFFFFFFF AND DUP2 PUSH20 0xFFFFFFFFFFFFFFFFFFFFFFFFFFFFFFFFFFFFFFFF AND EQ PUSH3 0x186 JUMPI PUSH3 0x185 DUP2 PUSH3 0x1C8 PUSH1 0x20 SHL PUSH1 0x20 SHR JUMP JUMPDEST JUMPDEST POP POP POP DUP2 PUSH20 0xFFFFFFFFFFFFFFFFFFFFFFFFFFFFFFFFFFFFFFFF AND PUSH1 0x80 DUP2 PUSH20 0xFFFFFFFFFFFFFFFFFFFFFFFFFFFFFFFFFFFFFFFF AND PUSH1 0x60 SHL DUP2 MSTORE POP POP POP POP PUSH3 0x32B JUMP JUMPDEST CALLER PUSH20 0xFFFFFFFFFFFFFFFFFFFFFFFFFFFFFFFFFFFFFFFF AND DUP2 PUSH20 0xFFFFFFFFFFFFFFFFFFFFFFFFFFFFFFFFFFFFFFFF AND EQ ISZERO PUSH3 0x26B JUMPI PUSH1 0x40 MLOAD PUSH32 0x8C379A000000000000000000000000000000000000000000000000000000000 DUP2 MSTORE PUSH1 0x4 ADD DUP1 DUP1 PUSH1 0x20 ADD DUP3 DUP2 SUB DUP3 MSTORE PUSH1 0x17 DUP2 MSTORE PUSH1 0x20 ADD DUP1 PUSH32 0x43616E6E6F74207472616E7366657220746F2073656C66000000000000000000 DUP2 MSTORE POP PUSH1 0x20 ADD SWAP2 POP POP PUSH1 0x40 MLOAD DUP1 SWAP2 SUB SWAP1 REVERT JUMPDEST DUP1 PUSH1 0x3 PUSH1 0x0 PUSH2 0x100 EXP DUP2 SLOAD DUP2 PUSH20 0xFFFFFFFFFFFFFFFFFFFFFFFFFFFFFFFFFFFFFFFF MUL NOT AND SWAP1 DUP4 PUSH20 0xFFFFFFFFFFFFFFFFFFFFFFFFFFFFFFFFFFFFFFFF AND MUL OR SWAP1 SSTORE POP DUP1 PUSH20 0xFFFFFFFFFFFFFFFFFFFFFFFFFFFFFFFFFFFFFFFF AND PUSH1 0x2 PUSH1 0x0 SWAP1 SLOAD SWAP1 PUSH2 0x100 EXP SWAP1 DIV PUSH20 0xFFFFFFFFFFFFFFFFFFFFFFFFFFFFFFFFFFFFFFFF AND PUSH20 0xFFFFFFFFFFFFFFFFFFFFFFFFFFFFFFFFFFFFFFFF AND PUSH32 0xED8889F560326EB138920D842192F0EB3DD22B4F139C87A2C57538E05BAE1278 PUSH1 0x40 MLOAD PUSH1 0x40 MLOAD DUP1 SWAP2 SUB SWAP1 LOG3 POP JUMP JUMPDEST PUSH1 0x80 MLOAD PUSH1 0x60 SHR PUSH2 0x432B PUSH3 0x36C PUSH1 0x0 CODECOPY DUP1 PUSH2 0x11CF MSTORE DUP1 PUSH2 0x1414 MSTORE DUP1 PUSH2 0x256C MSTORE DUP1 PUSH2 0x289F MSTORE DUP1 PUSH2 0x2D9E MSTORE DUP1 PUSH2 0x32B7 MSTORE DUP1 PUSH2 0x3725 MSTORE DUP1 PUSH2 0x3C2D MSTORE POP PUSH2 0x432B PUSH1 0x0 RETURN INVALID PUSH1 0x80 PUSH1 0x40 MSTORE PUSH1 0x4 CALLDATASIZE LT PUSH2 0x166 JUMPI PUSH1 0x0 CALLDATALOAD PUSH1 0xE0 SHR DUP1 PUSH4 0x6AE0BC76 GT PUSH2 0xD1 JUMPI DUP1 PUSH4 0xA4C0ED36 GT PUSH2 0x8A JUMPI DUP1 PUSH4 0xF2FDE38B GT PUSH2 0x64 JUMPI DUP1 PUSH4 0xF2FDE38B EQ PUSH2 0xDC9 JUMPI DUP1 PUSH4 0xF3FEF3A3 EQ PUSH2 0xE1A JUMPI DUP1 PUSH4 0xFA00763A EQ PUSH2 0xE75 JUMPI DUP1 PUSH4 0xFC4A03ED EQ PUSH2 0xEDC JUMPI PUSH2 0x166 JUMP JUMPDEST DUP1 PUSH4 0xA4C0ED36 EQ PUSH2 0xBD9 JUMPI DUP1 PUSH4 0xEB007D99 EQ PUSH2 0xCCB JUMPI DUP1 PUSH4 0xEE56997B EQ PUSH2 0xD43 JUMPI PUSH2 0x166 JUMP JUMPDEST DUP1 PUSH4 0x6AE0BC76 EQ PUSH2 0x872 JUMPI DUP1 PUSH4 0x6BD59EC0 EQ PUSH2 0x975 JUMPI DUP1 PUSH4 0x6EE4D553 EQ PUSH2 0xA43 JUMPI DUP1 PUSH4 0x79BA5097 EQ PUSH2 0xABB JUMPI DUP1 PUSH4 0x8DA5CB5B EQ PUSH2 0xAD2 JUMPI DUP1 PUSH4 0x902FC370 EQ PUSH2 0xB13 JUMPI PUSH2 0x166 JUMP JUMPDEST DUP1 PUSH4 0x3C6D41B9 GT PUSH2 0x123 JUMPI DUP1 PUSH4 0x3C6D41B9 EQ PUSH2 0x3FF JUMPI DUP1 PUSH4 0x3EC5BC14 EQ PUSH2 0x4F6 JUMPI DUP1 PUSH4 0x40429946 EQ PUSH2 0x59C JUMPI DUP1 PUSH4 0x4AB0D190 EQ PUSH2 0x6B4 JUMPI DUP1 PUSH4 0x50188301 EQ PUSH2 0x76C JUMPI DUP1 PUSH4 0x5FFA6288 EQ PUSH2 0x797 JUMPI PUSH2 0x166 JUMP JUMPDEST DUP1 PUSH4 0x1994B99 EQ PUSH2 0x16B JUMPI DUP1 PUSH4 0x33F49F7 EQ PUSH2 0x1F1 JUMPI DUP1 PUSH4 0x165D35E1 EQ PUSH2 0x297 JUMPI DUP1 PUSH4 0x181F5A77 EQ PUSH2 0x2D8 JUMPI DUP1 PUSH4 0x2408AFAA EQ PUSH2 0x368 JUMPI DUP1 PUSH4 0x25CB5BC0 EQ PUSH2 0x3D4 JUMPI JUMPDEST PUSH1 0x0 DUP1 REVERT JUMPDEST CALLVALUE DUP1 ISZERO PUSH2 0x177 JUMPI PUSH1 0x0 DUP1 REVERT JUMPDEST POP PUSH2 0x1EF PUSH1 0x4 DUP1 CALLDATASIZE SUB PUSH1 0x20 DUP2 LT ISZERO PUSH2 0x18E JUMPI PUSH1 0x0 DUP1 REVERT JUMPDEST DUP2 ADD SWAP1 DUP1 DUP1 CALLDATALOAD SWAP1 PUSH1 0x20 ADD SWAP1 PUSH5 0x100000000 DUP2 GT ISZERO PUSH2 0x1AB JUMPI PUSH1 0x0 DUP1 REVERT JUMPDEST DUP3 ADD DUP4 PUSH1 0x20 DUP3 ADD GT ISZERO PUSH2 0x1BD JUMPI PUSH1 0x0 DUP1 REVERT JUMPDEST DUP1 CALLDATALOAD SWAP1 PUSH1 0x20 ADD SWAP2 DUP5 PUSH1 0x20 DUP4 MUL DUP5 ADD GT PUSH5 0x100000000 DUP4 GT OR ISZERO PUSH2 0x1DF JUMPI PUSH1 0x0 DUP1 REVERT JUMPDEST SWAP1 SWAP2 SWAP3 SWAP4 SWAP2 SWAP3 SWAP4 SWAP1 POP POP POP PUSH2 0xFB7 JUMP JUMPDEST STOP JUMPDEST CALLVALUE DUP1 ISZERO PUSH2 0x1FD JUMPI PUSH1 0x0 DUP1 REVERT JUMPDEST POP PUSH2 0x295 PUSH1 0x4 DUP1 CALLDATASIZE SUB PUSH1 0x40 DUP2 LT ISZERO PUSH2 0x214 JUMPI PUSH1 0x0 DUP1 REVERT JUMPDEST DUP2 ADD SWAP1 DUP1 DUP1 CALLDATALOAD PUSH20 0xFFFFFFFFFFFFFFFFFFFFFFFFFFFFFFFFFFFFFFFF AND SWAP1 PUSH1 0x20 ADD SWAP1 SWAP3 SWAP2 SWAP1 DUP1 CALLDATALOAD SWAP1 PUSH1 0x20 ADD SWAP1 PUSH5 0x100000000 DUP2 GT ISZERO PUSH2 0x251 JUMPI PUSH1 0x0 DUP1 REVERT JUMPDEST DUP3 ADD DUP4 PUSH1 0x20 DUP3 ADD GT ISZERO PUSH2 0x263 JUMPI PUSH1 0x0 DUP1 REVERT JUMPDEST DUP1 CALLDATALOAD SWAP1 PUSH1 0x20 ADD SWAP2 DUP5 PUSH1 0x1 DUP4 MUL DUP5 ADD GT PUSH5 0x100000000 DUP4 GT OR ISZERO PUSH2 0x285 JUMPI PUSH1 0x0 DUP1 REVERT JUMPDEST SWAP1 SWAP2 SWAP3 SWAP4 SWAP2 SWAP3 SWAP4 SWAP1 POP POP POP PUSH2 0x11C4 JUMP JUMPDEST STOP JUMPDEST CALLVALUE DUP1 ISZERO PUSH2 0x2A3 JUMPI PUSH1 0x0 DUP1 REVERT JUMPDEST POP PUSH2 0x2AC PUSH2 0x1410 JUMP JUMPDEST PUSH1 0x40 MLOAD DUP1 DUP3 PUSH20 0xFFFFFFFFFFFFFFFFFFFFFFFFFFFFFFFFFFFFFFFF AND DUP2 MSTORE PUSH1 0x20 ADD SWAP2 POP POP PUSH1 0x40 MLOAD DUP1 SWAP2 SUB SWAP1 RETURN JUMPDEST CALLVALUE DUP1 ISZERO PUSH2 0x2E4 JUMPI PUSH1 0x0 DUP1 REVERT JUMPDEST POP PUSH2 0x2ED PUSH2 0x1438 JUMP JUMPDEST PUSH1 0x40 MLOAD DUP1 DUP1 PUSH1 0x20 ADD DUP3 DUP2 SUB DUP3 MSTORE DUP4 DUP2 DUP2 MLOAD DUP2 MSTORE PUSH1 0x20 ADD SWAP2 POP DUP1 MLOAD SWAP1 PUSH1 0x20 ADD SWAP1 DUP1 DUP4 DUP4 PUSH1 0x0 JUMPDEST DUP4 DUP2 LT ISZERO PUSH2 0x32D JUMPI DUP1 DUP3 ADD MLOAD DUP2 DUP5 ADD MSTORE PUSH1 0x20 DUP2 ADD SWAP1 POP PUSH2 0x312 JUMP JUMPDEST POP POP POP POP SWAP1 POP SWAP1 DUP2 ADD SWAP1 PUSH1 0x1F AND DUP1 ISZERO PUSH2 0x35A JUMPI DUP1 DUP3 SUB DUP1 MLOAD PUSH1 0x1 DUP4 PUSH1 0x20 SUB PUSH2 0x100 EXP SUB NOT AND DUP2 MSTORE PUSH1 0x20 ADD SWAP2 POP JUMPDEST POP SWAP3 POP POP POP PUSH1 0x40 MLOAD DUP1 SWAP2 SUB SWAP1 RETURN JUMPDEST CALLVALUE DUP1 ISZERO PUSH2 0x374 JUMPI PUSH1 0x0 DUP1 REVERT JUMPDEST POP PUSH2 0x37D PUSH2 0x1475 JUMP JUMPDEST PUSH1 0x40 MLOAD DUP1 DUP1 PUSH1 0x20 ADD DUP3 DUP2 SUB DUP3 MSTORE DUP4 DUP2 DUP2 MLOAD DUP2 MSTORE PUSH1 0x20 ADD SWAP2 POP DUP1 MLOAD SWAP1 PUSH1 0x20 ADD SWAP1 PUSH1 0x20 MUL DUP1 DUP4 DUP4 PUSH1 0x0 JUMPDEST DUP4 DUP2 LT ISZERO PUSH2 0x3C0 JUMPI DUP1 DUP3 ADD MLOAD DUP2 DUP5 ADD MSTORE PUSH1 0x20 DUP2 ADD SWAP1 POP PUSH2 0x3A5 JUMP JUMPDEST POP POP POP POP SWAP1 POP ADD SWAP3 POP POP POP PUSH1 0x40 MLOAD DUP1 SWAP2 SUB SWAP1 RETURN JUMPDEST CALLVALUE DUP1 ISZERO PUSH2 0x3E0 JUMPI PUSH1 0x0 DUP1 REVERT JUMPDEST POP PUSH2 0x3E9 PUSH2 0x1503 JUMP JUMPDEST PUSH1 0x40 MLOAD DUP1 DUP3 DUP2 MSTORE PUSH1 0x20 ADD SWAP2 POP POP PUSH1 0x40 MLOAD DUP1 SWAP2 SUB SWAP1 RETURN JUMPDEST CALLVALUE DUP1 ISZERO PUSH2 0x40B JUMPI PUSH1 0x0 DUP1 REVERT JUMPDEST POP PUSH2 0x4F4 PUSH1 0x4 DUP1 CALLDATASIZE SUB PUSH1 0xE0 DUP2 LT ISZERO PUSH2 0x422 JUMPI PUSH1 0x0 DUP1 REVERT JUMPDEST DUP2 ADD SWAP1 DUP1 DUP1 CALLDATALOAD PUSH20 0xFFFFFFFFFFFFFFFFFFFFFFFFFFFFFFFFFFFFFFFF AND SWAP1 PUSH1 0x20 ADD SWAP1 SWAP3 SWAP2 SWAP1 DUP1 CALLDATALOAD SWAP1 PUSH1 0x20 ADD SWAP1 SWAP3 SWAP2 SWAP1 DUP1 CALLDATALOAD SWAP1 PUSH1 0x20 ADD SWAP1 SWAP3 SWAP2 SWAP1 DUP1 CALLDATALOAD PUSH28 0xFFFFFFFFFFFFFFFFFFFFFFFFFFFFFFFFFFFFFFFFFFFFFFFFFFFFFFFF NOT AND SWAP1 PUSH1 0x20 ADD SWAP1 SWAP3 SWAP2 SWAP1 DUP1 CALLDATALOAD SWAP1 PUSH1 0x20 ADD SWAP1 SWAP3 SWAP2 SWAP1 DUP1 CALLDATALOAD SWAP1 PUSH1 0x20 ADD SWAP1 SWAP3 SWAP2 SWAP1 DUP1 CALLDATALOAD SWAP1 PUSH1 0x20 ADD SWAP1 PUSH5 0x100000000 DUP2 GT ISZERO PUSH2 0x4B0 JUMPI PUSH1 0x0 DUP1 REVERT JUMPDEST DUP3 ADD DUP4 PUSH1 0x20 DUP3 ADD GT ISZERO PUSH2 0x4C2 JUMPI PUSH1 0x0 DUP1 REVERT JUMPDEST DUP1 CALLDATALOAD SWAP1 PUSH1 0x20 ADD SWAP2 DUP5 PUSH1 0x1 DUP4 MUL DUP5 ADD GT PUSH5 0x100000000 DUP4 GT OR ISZERO PUSH2 0x4E4 JUMPI PUSH1 0x0 DUP1 REVERT JUMPDEST SWAP1 SWAP2 SWAP3 SWAP4 SWAP2 SWAP3 SWAP4 SWAP1 POP POP POP PUSH2 0x1509 JUMP JUMPDEST STOP JUMPDEST CALLVALUE DUP1 ISZERO PUSH2 0x502 JUMPI PUSH1 0x0 DUP1 REVERT JUMPDEST POP PUSH2 0x59A PUSH1 0x4 DUP1 CALLDATASIZE SUB PUSH1 0x40 DUP2 LT ISZERO PUSH2 0x519 JUMPI PUSH1 0x0 DUP1 REVERT JUMPDEST DUP2 ADD SWAP1 DUP1 DUP1 CALLDATALOAD SWAP1 PUSH1 0x20 ADD SWAP1 PUSH5 0x100000000 DUP2 GT ISZERO PUSH2 0x536 JUMPI PUSH1 0x0 DUP1 REVERT JUMPDEST DUP3 ADD DUP4 PUSH1 0x20 DUP3 ADD GT ISZERO PUSH2 0x548 JUMPI PUSH1 0x0 DUP1 REVERT JUMPDEST DUP1 CALLDATALOAD SWAP1 PUSH1 0x20 ADD SWAP2 DUP5 PUSH1 0x20 DUP4 MUL DUP5 ADD GT PUSH5 0x100000000 DUP4 GT OR ISZERO PUSH2 0x56A JUMPI PUSH1 0x0 DUP1 REVERT JUMPDEST SWAP1 SWAP2 SWAP3 SWAP4 SWAP2 SWAP3 SWAP4 SWAP1 DUP1 CALLDATALOAD PUSH20 0xFFFFFFFFFFFFFFFFFFFFFFFFFFFFFFFFFFFFFFFF AND SWAP1 PUSH1 0x20 ADD SWAP1 SWAP3 SWAP2 SWAP1 POP POP POP PUSH2 0x16B9 JUMP JUMPDEST STOP JUMPDEST CALLVALUE DUP1 ISZERO PUSH2 0x5A8 JUMPI PUSH1 0x0 DUP1 REVERT JUMPDEST POP PUSH2 0x6B2 PUSH1 0x4 DUP1 CALLDATASIZE SUB PUSH2 0x100 DUP2 LT ISZERO PUSH2 0x5C0 JUMPI PUSH1 0x0 DUP1 REVERT JUMPDEST DUP2 ADD SWAP1 DUP1 DUP1 CALLDATALOAD PUSH20 0xFFFFFFFFFFFFFFFFFFFFFFFFFFFFFFFFFFFFFFFF AND SWAP1 PUSH1 0x20 ADD SWAP1 SWAP3 SWAP2 SWAP1 DUP1 CALLDATALOAD SWAP1 PUSH1 0x20 ADD SWAP1 SWAP3 SWAP2 SWAP1 DUP1 CALLDATALOAD SWAP1 PUSH1 0x20 ADD SWAP1 SWAP3 SWAP2 SWAP1 DUP1 CALLDATALOAD PUSH20 0xFFFFFFFFFFFFFFFFFFFFFFFFFFFFFFFFFFFFFFFF AND SWAP1 PUSH1 0x20 ADD SWAP1 SWAP3 SWAP2 SWAP1 DUP1 CALLDATALOAD PUSH28 0xFFFFFFFFFFFFFFFFFFFFFFFFFFFFFFFFFFFFFFFFFFFFFFFFFFFFFFFF NOT AND SWAP1 PUSH1 0x20 ADD SWAP1 SWAP3 SWAP2 SWAP1 DUP1 CALLDATALOAD SWAP1 PUSH1 0x20 ADD SWAP1 SWAP3 SWAP2 SWAP1 DUP1 CALLDATALOAD SWAP1 PUSH1 0x20 ADD SWAP1 SWAP3 SWAP2 SWAP1 DUP1 CALLDATALOAD SWAP1 PUSH1 0x20 ADD SWAP1 PUSH5 0x100000000 DUP2 GT ISZERO PUSH2 0x66E JUMPI PUSH1 0x0 DUP1 REVERT JUMPDEST DUP3 ADD DUP4 PUSH1 0x20 DUP3 ADD GT ISZERO PUSH2 0x680 JUMPI PUSH1 0x0 DUP1 REVERT JUMPDEST DUP1 CALLDATALOAD SWAP1 PUSH1 0x20 ADD SWAP2 DUP5 PUSH1 0x1 DUP4 MUL DUP5 ADD GT PUSH5 0x100000000 DUP4 GT OR ISZERO PUSH2 0x6A2 JUMPI PUSH1 0x0 DUP1 REVERT JUMPDEST SWAP1 SWAP2 SWAP3 SWAP4 SWAP2 SWAP3 SWAP4 SWAP1 POP POP POP PUSH2 0x180B JUMP JUMPDEST STOP JUMPDEST CALLVALUE DUP1 ISZERO PUSH2 0x6C0 JUMPI PUSH1 0x0 DUP1 REVERT JUMPDEST POP PUSH2 0x754 PUSH1 0x4 DUP1 CALLDATASIZE SUB PUSH1 0xC0 DUP2 LT ISZERO PUSH2 0x6D7 JUMPI PUSH1 0x0 DUP1 REVERT JUMPDEST DUP2 ADD SWAP1 DUP1 DUP1 CALLDATALOAD SWAP1 PUSH1 0x20 ADD SWAP1 SWAP3 SWAP2 SWAP1 DUP1 CALLDATALOAD SWAP1 PUSH1 0x20 ADD SWAP1 SWAP3 SWAP2 SWAP1 DUP1 CALLDATALOAD PUSH20 0xFFFFFFFFFFFFFFFFFFFFFFFFFFFFFFFFFFFFFFFF AND SWAP1 PUSH1 0x20 ADD SWAP1 SWAP3 SWAP2 SWAP1 DUP1 CALLDATALOAD PUSH28 0xFFFFFFFFFFFFFFFFFFFFFFFFFFFFFFFFFFFFFFFFFFFFFFFFFFFFFFFF NOT AND SWAP1 PUSH1 0x20 ADD SWAP1 SWAP3 SWAP2 SWAP1 DUP1 CALLDATALOAD SWAP1 PUSH1 0x20 ADD SWAP1 SWAP3 SWAP2 SWAP1 DUP1 CALLDATALOAD SWAP1 PUSH1 0x20 ADD SWAP1 SWAP3 SWAP2 SWAP1 POP POP POP PUSH2 0x19BC JUMP JUMPDEST PUSH1 0x40 MLOAD DUP1 DUP3 ISZERO ISZERO DUP2 MSTORE PUSH1 0x20 ADD SWAP2 POP POP PUSH1 0x40 MLOAD DUP1 SWAP2 SUB SWAP1 RETURN JUMPDEST CALLVALUE DUP1 ISZERO PUSH2 0x778 JUMPI PUSH1 0x0 DUP1 REVERT JUMPDEST POP PUSH2 0x781 PUSH2 0x1D1C JUMP JUMPDEST PUSH1 0x40 MLOAD DUP1 DUP3 DUP2 MSTORE PUSH1 0x20 ADD SWAP2 POP POP PUSH1 0x40 MLOAD DUP1 SWAP2 SUB SWAP1 RETURN JUMPDEST CALLVALUE DUP1 ISZERO PUSH2 0x7A3 JUMPI PUSH1 0x0 DUP1 REVERT JUMPDEST POP PUSH2 0x870 PUSH1 0x4 DUP1 CALLDATASIZE SUB PUSH1 0x40 DUP2 LT ISZERO PUSH2 0x7BA JUMPI PUSH1 0x0 DUP1 REVERT JUMPDEST DUP2 ADD SWAP1 DUP1 DUP1 CALLDATALOAD SWAP1 PUSH1 0x20 ADD SWAP1 PUSH5 0x100000000 DUP2 GT ISZERO PUSH2 0x7D7 JUMPI PUSH1 0x0 DUP1 REVERT JUMPDEST DUP3 ADD DUP4 PUSH1 0x20 DUP3 ADD GT ISZERO PUSH2 0x7E9 JUMPI PUSH1 0x0 DUP1 REVERT JUMPDEST DUP1 CALLDATALOAD SWAP1 PUSH1 0x20 ADD SWAP2 DUP5 PUSH1 0x20 DUP4 MUL DUP5 ADD GT PUSH5 0x100000000 DUP4 GT OR ISZERO PUSH2 0x80B JUMPI PUSH1 0x0 DUP1 REVERT JUMPDEST SWAP1 SWAP2 SWAP3 SWAP4 SWAP2 SWAP3 SWAP4 SWAP1 DUP1 CALLDATALOAD SWAP1 PUSH1 0x20 ADD SWAP1 PUSH5 0x100000000 DUP2 GT ISZERO PUSH2 0x82C JUMPI PUSH1 0x0 DUP1 REVERT JUMPDEST DUP3 ADD DUP4 PUSH1 0x20 DUP3 ADD GT ISZERO PUSH2 0x83E JUMPI PUSH1 0x0 DUP1 REVERT JUMPDEST DUP1 CALLDATALOAD SWAP1 PUSH1 0x20 ADD SWAP2 DUP5 PUSH1 0x20 DUP4 MUL DUP5 ADD GT PUSH5 0x100000000 DUP4 GT OR ISZERO PUSH2 0x860 JUMPI PUSH1 0x0 DUP1 REVERT JUMPDEST SWAP1 SWAP2 SWAP3 SWAP4 SWAP2 SWAP3 SWAP4 SWAP1 POP POP POP PUSH2 0x1D2B JUMP JUMPDEST STOP JUMPDEST CALLVALUE DUP1 ISZERO PUSH2 0x87E JUMPI PUSH1 0x0 DUP1 REVERT JUMPDEST POP PUSH2 0x95D PUSH1 0x4 DUP1 CALLDATASIZE SUB PUSH1 0xC0 DUP2 LT ISZERO PUSH2 0x895 JUMPI PUSH1 0x0 DUP1 REVERT JUMPDEST DUP2 ADD SWAP1 DUP1 DUP1 CALLDATALOAD SWAP1 PUSH1 0x20 ADD SWAP1 SWAP3 SWAP2 SWAP1 DUP1 CALLDATALOAD SWAP1 PUSH1 0x20 ADD SWAP1 SWAP3 SWAP2 SWAP1 DUP1 CALLDATALOAD PUSH20 0xFFFFFFFFFFFFFFFFFFFFFFFFFFFFFFFFFFFFFFFF AND SWAP1 PUSH1 0x20 ADD SWAP1 SWAP3 SWAP2 SWAP1 DUP1 CALLDATALOAD PUSH28 0xFFFFFFFFFFFFFFFFFFFFFFFFFFFFFFFFFFFFFFFFFFFFFFFFFFFFFFFF NOT AND SWAP1 PUSH1 0x20 ADD SWAP1 SWAP3 SWAP2 SWAP1 DUP1 CALLDATALOAD SWAP1 PUSH1 0x20 ADD SWAP1 SWAP3 SWAP2 SWAP1 DUP1 CALLDATALOAD SWAP1 PUSH1 0x20 ADD SWAP1 PUSH5 0x100000000 DUP2 GT ISZERO PUSH2 0x919 JUMPI PUSH1 0x0 DUP1 REVERT JUMPDEST DUP3 ADD DUP4 PUSH1 0x20 DUP3 ADD GT ISZERO PUSH2 0x92B JUMPI PUSH1 0x0 DUP1 REVERT JUMPDEST DUP1 CALLDATALOAD SWAP1 PUSH1 0x20 ADD SWAP2 DUP5 PUSH1 0x1 DUP4 MUL DUP5 ADD GT PUSH5 0x100000000 DUP4 GT OR ISZERO PUSH2 0x94D JUMPI PUSH1 0x0 DUP1 REVERT JUMPDEST SWAP1 SWAP2 SWAP3 SWAP4 SWAP2 SWAP3 SWAP4 SWAP1 POP POP POP PUSH2 0x1DC1 JUMP JUMPDEST PUSH1 0x40 MLOAD DUP1 DUP3 ISZERO ISZERO DUP2 MSTORE PUSH1 0x20 ADD SWAP2 POP POP PUSH1 0x40 MLOAD DUP1 SWAP2 SUB SWAP1 RETURN JUMPDEST PUSH2 0xA41 PUSH1 0x4 DUP1 CALLDATASIZE SUB PUSH1 0x40 DUP2 LT ISZERO PUSH2 0x98B JUMPI PUSH1 0x0 DUP1 REVERT JUMPDEST DUP2 ADD SWAP1 DUP1 DUP1 CALLDATALOAD SWAP1 PUSH1 0x20 ADD SWAP1 PUSH5 0x100000000 DUP2 GT ISZERO PUSH2 0x9A8 JUMPI PUSH1 0x0 DUP1 REVERT JUMPDEST DUP3 ADD DUP4 PUSH1 0x20 DUP3 ADD GT ISZERO PUSH2 0x9BA JUMPI PUSH1 0x0 DUP1 REVERT JUMPDEST DUP1 CALLDATALOAD SWAP1 PUSH1 0x20 ADD SWAP2 DUP5 PUSH1 0x20 DUP4 MUL DUP5 ADD GT PUSH5 0x100000000 DUP4 GT OR ISZERO PUSH2 0x9DC JUMPI PUSH1 0x0 DUP1 REVERT JUMPDEST SWAP1 SWAP2 SWAP3 SWAP4 SWAP2 SWAP3 SWAP4 SWAP1 DUP1 CALLDATALOAD SWAP1 PUSH1 0x20 ADD SWAP1 PUSH5 0x100000000 DUP2 GT ISZERO PUSH2 0x9FD JUMPI PUSH1 0x0 DUP1 REVERT JUMPDEST DUP3 ADD DUP4 PUSH1 0x20 DUP3 ADD GT ISZERO PUSH2 0xA0F JUMPI PUSH1 0x0 DUP1 REVERT JUMPDEST DUP1 CALLDATALOAD SWAP1 PUSH1 0x20 ADD SWAP2 DUP5 PUSH1 0x20 DUP4 MUL DUP5 ADD GT PUSH5 0x100000000 DUP4 GT OR ISZERO PUSH2 0xA31 JUMPI PUSH1 0x0 DUP1 REVERT JUMPDEST SWAP1 SWAP2 SWAP3 SWAP4 SWAP2 SWAP3 SWAP4 SWAP1 POP POP POP PUSH2 0x21F7 JUMP JUMPDEST STOP JUMPDEST CALLVALUE DUP1 ISZERO PUSH2 0xA4F JUMPI PUSH1 0x0 DUP1 REVERT JUMPDEST POP PUSH2 0xAB9 PUSH1 0x4 DUP1 CALLDATASIZE SUB PUSH1 0x80 DUP2 LT ISZERO PUSH2 0xA66 JUMPI PUSH1 0x0 DUP1 REVERT JUMPDEST DUP2 ADD SWAP1 DUP1 DUP1 CALLDATALOAD SWAP1 PUSH1 0x20 ADD SWAP1 SWAP3 SWAP2 SWAP1 DUP1 CALLDATALOAD SWAP1 PUSH1 0x20 ADD SWAP1 SWAP3 SWAP2 SWAP1 DUP1 CALLDATALOAD PUSH28 0xFFFFFFFFFFFFFFFFFFFFFFFFFFFFFFFFFFFFFFFFFFFFFFFFFFFFFFFF NOT AND SWAP1 PUSH1 0x20 ADD SWAP1 SWAP3 SWAP2 SWAP1 DUP1 CALLDATALOAD SWAP1 PUSH1 0x20 ADD SWAP1 SWAP3 SWAP2 SWAP1 POP POP POP PUSH2 0x23BB JUMP JUMPDEST STOP JUMPDEST CALLVALUE DUP1 ISZERO PUSH2 0xAC7 JUMPI PUSH1 0x0 DUP1 REVERT JUMPDEST POP PUSH2 0xAD0 PUSH2 0x263E JUMP JUMPDEST STOP JUMPDEST CALLVALUE DUP1 ISZERO PUSH2 0xADE JUMPI PUSH1 0x0 DUP1 REVERT JUMPDEST POP PUSH2 0xAE7 PUSH2 0x2808 JUMP JUMPDEST PUSH1 0x40 MLOAD DUP1 DUP3 PUSH20 0xFFFFFFFFFFFFFFFFFFFFFFFFFFFFFFFFFFFFFFFF AND DUP2 MSTORE PUSH1 0x20 ADD SWAP2 POP POP PUSH1 0x40 MLOAD DUP1 SWAP2 SUB SWAP1 RETURN JUMPDEST CALLVALUE DUP1 ISZERO PUSH2 0xB1F JUMPI PUSH1 0x0 DUP1 REVERT JUMPDEST POP PUSH2 0xBC1 PUSH1 0x4 DUP1 CALLDATASIZE SUB PUSH1 0x60 DUP2 LT ISZERO PUSH2 0xB36 JUMPI PUSH1 0x0 DUP1 REVERT JUMPDEST DUP2 ADD SWAP1 DUP1 DUP1 CALLDATALOAD PUSH20 0xFFFFFFFFFFFFFFFFFFFFFFFFFFFFFFFFFFFFFFFF AND SWAP1 PUSH1 0x20 ADD SWAP1 SWAP3 SWAP2 SWAP1 DUP1 CALLDATALOAD SWAP1 PUSH1 0x20 ADD SWAP1 SWAP3 SWAP2 SWAP1 DUP1 CALLDATALOAD SWAP1 PUSH1 0x20 ADD SWAP1 PUSH5 0x100000000 DUP2 GT ISZERO PUSH2 0xB7D JUMPI PUSH1 0x0 DUP1 REVERT JUMPDEST DUP3 ADD DUP4 PUSH1 0x20 DUP3 ADD GT ISZERO PUSH2 0xB8F JUMPI PUSH1 0x0 DUP1 REVERT JUMPDEST DUP1 CALLDATALOAD SWAP1 PUSH1 0x20 ADD SWAP2 DUP5 PUSH1 0x1 DUP4 MUL DUP5 ADD GT PUSH5 0x100000000 DUP4 GT OR ISZERO PUSH2 0xBB1 JUMPI PUSH1 0x0 DUP1 REVERT JUMPDEST SWAP1 SWAP2 SWAP3 SWAP4 SWAP2 SWAP3 SWAP4 SWAP1 POP POP POP PUSH2 0x2832 JUMP JUMPDEST PUSH1 0x40 MLOAD DUP1 DUP3 ISZERO ISZERO DUP2 MSTORE PUSH1 0x20 ADD SWAP2 POP POP PUSH1 0x40 MLOAD DUP1 SWAP2 SUB SWAP1 RETURN JUMPDEST CALLVALUE DUP1 ISZERO PUSH2 0xBE5 JUMPI PUSH1 0x0 DUP1 REVERT JUMPDEST POP PUSH2 0xCC9 PUSH1 0x4 DUP1 CALLDATASIZE SUB PUSH1 0x60 DUP2 LT ISZERO PUSH2 0xBFC JUMPI PUSH1 0x0 DUP1 REVERT JUMPDEST DUP2 ADD SWAP1 DUP1 DUP1 CALLDATALOAD PUSH20 0xFFFFFFFFFFFFFFFFFFFFFFFFFFFFFFFFFFFFFFFF AND SWAP1 PUSH1 0x20 ADD SWAP1 SWAP3 SWAP2 SWAP1 DUP1 CALLDATALOAD SWAP1 PUSH1 0x20 ADD SWAP1 SWAP3 SWAP2 SWAP1 DUP1 CALLDATALOAD SWAP1 PUSH1 0x20 ADD SWAP1 PUSH5 0x100000000 DUP2 GT ISZERO PUSH2 0xC43 JUMPI PUSH1 0x0 DUP1 REVERT JUMPDEST DUP3 ADD DUP4 PUSH1 0x20 DUP3 ADD GT ISZERO PUSH2 0xC55 JUMPI PUSH1 0x0 DUP1 REVERT JUMPDEST DUP1 CALLDATALOAD SWAP1 PUSH1 0x20 ADD SWAP2 DUP5 PUSH1 0x1 DUP4 MUL DUP5 ADD GT PUSH5 0x100000000 DUP4 GT OR ISZERO PUSH2 0xC77 JUMPI PUSH1 0x0 DUP1 REVERT JUMPDEST SWAP2 SWAP1 DUP1 DUP1 PUSH1 0x1F ADD PUSH1 0x20 DUP1 SWAP2 DIV MUL PUSH1 0x20 ADD PUSH1 0x40 MLOAD SWAP1 DUP2 ADD PUSH1 0x40 MSTORE DUP1 SWAP4 SWAP3 SWAP2 SWAP1 DUP2 DUP2 MSTORE PUSH1 0x20 ADD DUP4 DUP4 DUP1 DUP3 DUP5 CALLDATACOPY PUSH1 0x0 DUP2 DUP5 ADD MSTORE PUSH1 0x1F NOT PUSH1 0x1F DUP3 ADD AND SWAP1 POP DUP1 DUP4 ADD SWAP3 POP POP POP POP POP POP POP SWAP2 SWAP3 SWAP2 SWAP3 SWAP1 POP POP POP PUSH2 0x29A8 JUMP JUMPDEST STOP JUMPDEST CALLVALUE DUP1 ISZERO PUSH2 0xCD7 JUMPI PUSH1 0x0 DUP1 REVERT JUMPDEST POP PUSH2 0xD41 PUSH1 0x4 DUP1 CALLDATASIZE SUB PUSH1 0x80 DUP2 LT ISZERO PUSH2 0xCEE JUMPI PUSH1 0x0 DUP1 REVERT JUMPDEST DUP2 ADD SWAP1 DUP1 DUP1 CALLDATALOAD SWAP1 PUSH1 0x20 ADD SWAP1 SWAP3 SWAP2 SWAP1 DUP1 CALLDATALOAD SWAP1 PUSH1 0x20 ADD SWAP1 SWAP3 SWAP2 SWAP1 DUP1 CALLDATALOAD PUSH28 0xFFFFFFFFFFFFFFFFFFFFFFFFFFFFFFFFFFFFFFFFFFFFFFFFFFFFFFFF NOT AND SWAP1 PUSH1 0x20 ADD SWAP1 SWAP3 SWAP2 SWAP1 DUP1 CALLDATALOAD SWAP1 PUSH1 0x20 ADD SWAP1 SWAP3 SWAP2 SWAP1 POP POP POP PUSH2 0x2BA1 JUMP JUMPDEST STOP JUMPDEST CALLVALUE DUP1 ISZERO PUSH2 0xD4F JUMPI PUSH1 0x0 DUP1 REVERT JUMPDEST POP PUSH2 0xDC7 PUSH1 0x4 DUP1 CALLDATASIZE SUB PUSH1 0x20 DUP2 LT ISZERO PUSH2 0xD66 JUMPI PUSH1 0x0 DUP1 REVERT JUMPDEST DUP2 ADD SWAP1 DUP1 DUP1 CALLDATALOAD SWAP1 PUSH1 0x20 ADD SWAP1 PUSH5 0x100000000 DUP2 GT ISZERO PUSH2 0xD83 JUMPI PUSH1 0x0 DUP1 REVERT JUMPDEST DUP3 ADD DUP4 PUSH1 0x20 DUP3 ADD GT ISZERO PUSH2 0xD95 JUMPI PUSH1 0x0 DUP1 REVERT JUMPDEST DUP1 CALLDATALOAD SWAP1 PUSH1 0x20 ADD SWAP2 DUP5 PUSH1 0x20 DUP4 MUL DUP5 ADD GT PUSH5 0x100000000 DUP4 GT OR ISZERO PUSH2 0xDB7 JUMPI PUSH1 0x0 DUP1 REVERT JUMPDEST SWAP1 SWAP2 SWAP3 SWAP4 SWAP2 SWAP3 SWAP4 SWAP1 POP POP POP PUSH2 0x2E71 JUMP JUMPDEST STOP JUMPDEST CALLVALUE DUP1 ISZERO PUSH2 0xDD5 JUMPI PUSH1 0x0 DUP1 REVERT JUMPDEST POP PUSH2 0xE18 PUSH1 0x4 DUP1 CALLDATASIZE SUB PUSH1 0x20 DUP2 LT ISZERO PUSH2 0xDEC JUMPI PUSH1 0x0 DUP1 REVERT JUMPDEST DUP2 ADD SWAP1 DUP1 DUP1 CALLDATALOAD PUSH20 0xFFFFFFFFFFFFFFFFFFFFFFFFFFFFFFFFFFFFFFFF AND SWAP1 PUSH1 0x20 ADD SWAP1 SWAP3 SWAP2 SWAP1 POP POP POP PUSH2 0x3238 JUMP JUMPDEST STOP JUMPDEST CALLVALUE DUP1 ISZERO PUSH2 0xE26 JUMPI PUSH1 0x0 DUP1 REVERT JUMPDEST POP PUSH2 0xE73 PUSH1 0x4 DUP1 CALLDATASIZE SUB PUSH1 0x40 DUP2 LT ISZERO PUSH2 0xE3D JUMPI PUSH1 0x0 DUP1 REVERT JUMPDEST DUP2 ADD SWAP1 DUP1 DUP1 CALLDATALOAD PUSH20 0xFFFFFFFFFFFFFFFFFFFFFFFFFFFFFFFFFFFFFFFF AND SWAP1 PUSH1 0x20 ADD SWAP1 SWAP3 SWAP2 SWAP1 DUP1 CALLDATALOAD SWAP1 PUSH1 0x20 ADD SWAP1 SWAP3 SWAP2 SWAP1 POP POP POP PUSH2 0x324C JUMP JUMPDEST STOP JUMPDEST CALLVALUE DUP1 ISZERO PUSH2 0xE81 JUMPI PUSH1 0x0 DUP1 REVERT JUMPDEST POP PUSH2 0xEC4 PUSH1 0x4 DUP1 CALLDATASIZE SUB PUSH1 0x20 DUP2 LT ISZERO PUSH2 0xE98 JUMPI PUSH1 0x0 DUP1 REVERT JUMPDEST DUP2 ADD SWAP1 DUP1 DUP1 CALLDATALOAD PUSH20 0xFFFFFFFFFFFFFFFFFFFFFFFFFFFFFFFFFFFFFFFF AND SWAP1 PUSH1 0x20 ADD SWAP1 SWAP3 SWAP2 SWAP1 POP POP POP PUSH2 0x338C JUMP JUMPDEST PUSH1 0x40 MLOAD DUP1 DUP3 ISZERO ISZERO DUP2 MSTORE PUSH1 0x20 ADD SWAP2 POP POP PUSH1 0x40 MLOAD DUP1 SWAP2 SUB SWAP1 RETURN JUMPDEST CALLVALUE DUP1 ISZERO PUSH2 0xEE8 JUMPI PUSH1 0x0 DUP1 REVERT JUMPDEST POP PUSH2 0xFB5 PUSH1 0x4 DUP1 CALLDATASIZE SUB PUSH1 0x40 DUP2 LT ISZERO PUSH2 0xEFF JUMPI PUSH1 0x0 DUP1 REVERT JUMPDEST DUP2 ADD SWAP1 DUP1 DUP1 CALLDATALOAD SWAP1 PUSH1 0x20 ADD SWAP1 PUSH5 0x100000000 DUP2 GT ISZERO PUSH2 0xF1C JUMPI PUSH1 0x0 DUP1 REVERT JUMPDEST DUP3 ADD DUP4 PUSH1 0x20 DUP3 ADD GT ISZERO PUSH2 0xF2E JUMPI PUSH1 0x0 DUP1 REVERT JUMPDEST DUP1 CALLDATALOAD SWAP1 PUSH1 0x20 ADD SWAP2 DUP5 PUSH1 0x20 DUP4 MUL DUP5 ADD GT PUSH5 0x100000000 DUP4 GT OR ISZERO PUSH2 0xF50 JUMPI PUSH1 0x0 DUP1 REVERT JUMPDEST SWAP1 SWAP2 SWAP3 SWAP4 SWAP2 SWAP3 SWAP4 SWAP1 DUP1 CALLDATALOAD SWAP1 PUSH1 0x20 ADD SWAP1 PUSH5 0x100000000 DUP2 GT ISZERO PUSH2 0xF71 JUMPI PUSH1 0x0 DUP1 REVERT JUMPDEST DUP3 ADD DUP4 PUSH1 0x20 DUP3 ADD GT ISZERO PUSH2 0xF83 JUMPI PUSH1 0x0 DUP1 REVERT JUMPDEST DUP1 CALLDATALOAD SWAP1 PUSH1 0x20 ADD SWAP2 DUP5 PUSH1 0x20 DUP4 MUL DUP5 ADD GT PUSH5 0x100000000 DUP4 GT OR ISZERO PUSH2 0xFA5 JUMPI PUSH1 0x0 DUP1 REVERT JUMPDEST SWAP1 SWAP2 SWAP3 SWAP4 SWAP2 SWAP3 SWAP4 SWAP1 POP POP POP PUSH2 0x33E1 JUMP JUMPDEST STOP JUMPDEST PUSH2 0xFBF PUSH2 0x35FA JUMP JUMPDEST PUSH2 0x1031 JUMPI PUSH1 0x40 MLOAD PUSH32 0x8C379A000000000000000000000000000000000000000000000000000000000 DUP2 MSTORE PUSH1 0x4 ADD DUP1 DUP1 PUSH1 0x20 ADD DUP3 DUP2 SUB DUP3 MSTORE PUSH1 0x1D DUP2 MSTORE PUSH1 0x20 ADD DUP1 PUSH32 0x43616E6E6F742073657420617574686F72697A65642073656E64657273000000 DUP2 MSTORE POP PUSH1 0x20 ADD SWAP2 POP POP PUSH1 0x40 MLOAD DUP1 SWAP2 SUB SWAP1 REVERT JUMPDEST PUSH1 0x0 JUMPDEST DUP3 DUP3 SWAP1 POP DUP2 LT ISZERO PUSH2 0x11BF JUMPI PUSH1 0x1 PUSH1 0x5 PUSH1 0x0 DUP6 DUP6 DUP6 DUP2 DUP2 LT PUSH2 0x1051 JUMPI INVALID JUMPDEST SWAP1 POP PUSH1 0x20 MUL ADD CALLDATALOAD PUSH20 0xFFFFFFFFFFFFFFFFFFFFFFFFFFFFFFFFFFFFFFFF AND PUSH20 0xFFFFFFFFFFFFFFFFFFFFFFFFFFFFFFFFFFFFFFFF AND PUSH20 0xFFFFFFFFFFFFFFFFFFFFFFFFFFFFFFFFFFFFFFFF AND DUP2 MSTORE PUSH1 0x20 ADD SWAP1 DUP2 MSTORE PUSH1 0x20 ADD PUSH1 0x0 KECCAK256 PUSH1 0x0 PUSH2 0x100 EXP DUP2 SLOAD DUP2 PUSH1 0xFF MUL NOT AND SWAP1 DUP4 ISZERO ISZERO MUL OR SWAP1 SSTORE POP DUP3 DUP3 DUP3 DUP2 DUP2 LT PUSH2 0x10CB JUMPI INVALID JUMPDEST SWAP1 POP PUSH1 0x20 MUL ADD CALLDATALOAD PUSH20 0xFFFFFFFFFFFFFFFFFFFFFFFFFFFFFFFFFFFFFFFF AND PUSH20 0xFFFFFFFFFFFFFFFFFFFFFFFFFFFFFFFFFFFFFFFF AND PUSH32 0x615A0C1CB00A60D4ACD77EC67ACF2F17F223EF0932D591052FABC33643FE7E82 PUSH1 0x40 MLOAD PUSH1 0x40 MLOAD DUP1 SWAP2 SUB SWAP1 LOG2 DUP3 DUP3 DUP3 DUP2 DUP2 LT PUSH2 0x1136 JUMPI INVALID JUMPDEST SWAP1 POP PUSH1 0x20 MUL ADD CALLDATALOAD PUSH20 0xFFFFFFFFFFFFFFFFFFFFFFFFFFFFFFFFFFFFFFFF AND PUSH20 0xFFFFFFFFFFFFFFFFFFFFFFFFFFFFFFFFFFFFFFFF AND PUSH4 0x79BA5097 PUSH1 0x40 MLOAD DUP2 PUSH4 0xFFFFFFFF AND PUSH1 0xE0 SHL DUP2 MSTORE PUSH1 0x4 ADD PUSH1 0x0 PUSH1 0x40 MLOAD DUP1 DUP4 SUB DUP2 PUSH1 0x0 DUP8 DUP1 EXTCODESIZE ISZERO DUP1 ISZERO PUSH2 0x119A JUMPI PUSH1 0x0 DUP1 REVERT JUMPDEST POP GAS CALL ISZERO DUP1 ISZERO PUSH2 0x11AE JUMPI RETURNDATASIZE PUSH1 0x0 DUP1 RETURNDATACOPY RETURNDATASIZE PUSH1 0x0 REVERT JUMPDEST POP POP POP POP DUP1 DUP1 PUSH1 0x1 ADD SWAP2 POP POP PUSH2 0x1034 JUMP JUMPDEST POP POP POP JUMP JUMPDEST PUSH2 0x11CC PUSH2 0x3647 JUMP JUMPDEST DUP3 PUSH32 0x0 PUSH20 0xFFFFFFFFFFFFFFFFFFFFFFFFFFFFFFFFFFFFFFFF AND DUP2 PUSH20 0xFFFFFFFFFFFFFFFFFFFFFFFFFFFFFFFFFFFFFFFF AND EQ ISZERO PUSH2 0x128F JUMPI PUSH1 0x40 MLOAD PUSH32 0x8C379A000000000000000000000000000000000000000000000000000000000 DUP2 MSTORE PUSH1 0x4 ADD DUP1 DUP1 PUSH1 0x20 ADD DUP3 DUP2 SUB DUP3 MSTORE PUSH1 0x13 DUP2 MSTORE PUSH1 0x20 ADD DUP1 PUSH32 0x43616E6E6F742063616C6C20746F204C494E4B00000000000000000000000000 DUP2 MSTORE POP PUSH1 0x20 ADD SWAP2 POP POP PUSH1 0x40 MLOAD DUP1 SWAP2 SUB SWAP1 REVERT JUMPDEST PUSH2 0x12AE DUP5 PUSH20 0xFFFFFFFFFFFFFFFFFFFFFFFFFFFFFFFFFFFFFFFF AND PUSH2 0x370C JUMP JUMPDEST PUSH2 0x1320 JUMPI PUSH1 0x40 MLOAD PUSH32 0x8C379A000000000000000000000000000000000000000000000000000000000 DUP2 MSTORE PUSH1 0x4 ADD DUP1 DUP1 PUSH1 0x20 ADD DUP3 DUP2 SUB DUP3 MSTORE PUSH1 0x1A DUP2 MSTORE PUSH1 0x20 ADD DUP1 PUSH32 0x4D75737420666F727761726420746F206120636F6E7472616374000000000000 DUP2 MSTORE POP PUSH1 0x20 ADD SWAP2 POP POP PUSH1 0x40 MLOAD DUP1 SWAP2 SUB SWAP1 REVERT JUMPDEST PUSH1 0x0 DUP5 PUSH20 0xFFFFFFFFFFFFFFFFFFFFFFFFFFFFFFFFFFFFFFFF AND DUP5 DUP5 PUSH1 0x40 MLOAD DUP1 DUP4 DUP4 DUP1 DUP3 DUP5 CALLDATACOPY DUP1 DUP4 ADD SWAP3 POP POP POP SWAP3 POP POP POP PUSH1 0x0 PUSH1 0x40 MLOAD DUP1 DUP4 SUB DUP2 PUSH1 0x0 DUP7 GAS CALL SWAP2 POP POP RETURNDATASIZE DUP1 PUSH1 0x0 DUP2 EQ PUSH2 0x138D JUMPI PUSH1 0x40 MLOAD SWAP2 POP PUSH1 0x1F NOT PUSH1 0x3F RETURNDATASIZE ADD AND DUP3 ADD PUSH1 0x40 MSTORE RETURNDATASIZE DUP3 MSTORE RETURNDATASIZE PUSH1 0x0 PUSH1 0x20 DUP5 ADD RETURNDATACOPY PUSH2 0x1392 JUMP JUMPDEST PUSH1 0x60 SWAP2 POP JUMPDEST POP POP SWAP1 POP DUP1 PUSH2 0x1409 JUMPI PUSH1 0x40 MLOAD PUSH32 0x8C379A000000000000000000000000000000000000000000000000000000000 DUP2 MSTORE PUSH1 0x4 ADD DUP1 DUP1 PUSH1 0x20 ADD DUP3 DUP2 SUB DUP3 MSTORE PUSH1 0x15 DUP2 MSTORE PUSH1 0x20 ADD DUP1 PUSH32 0x466F727761726465642063616C6C206661696C65640000000000000000000000 DUP2 MSTORE POP PUSH1 0x20 ADD SWAP2 POP POP PUSH1 0x40 MLOAD DUP1 SWAP2 SUB SWAP1 REVERT JUMPDEST POP POP POP POP POP JUMP JUMPDEST PUSH1 0x0 PUSH32 0x0 SWAP1 POP SWAP1 JUMP JUMPDEST PUSH1 0x60 PUSH1 0x40 MLOAD DUP1 PUSH1 0x40 ADD PUSH1 0x40 MSTORE DUP1 PUSH1 0xE DUP2 MSTORE PUSH1 0x20 ADD PUSH32 0x4F70657261746F7220312E302E30000000000000000000000000000000000000 DUP2 MSTORE POP SWAP1 POP SWAP1 JUMP JUMPDEST PUSH1 0x60 PUSH1 0x1 DUP1 SLOAD DUP1 PUSH1 0x20 MUL PUSH1 0x20 ADD PUSH1 0x40 MLOAD SWAP1 DUP2 ADD PUSH1 0x40 MSTORE DUP1 SWAP3 SWAP2 SWAP1 DUP2 DUP2 MSTORE PUSH1 0x20 ADD DUP3 DUP1 SLOAD DUP1 ISZERO PUSH2 0x14F9 JUMPI PUSH1 0x20 MUL DUP3 ADD SWAP2 SWAP1 PUSH1 0x0 MSTORE PUSH1 0x20 PUSH1 0x0 KECCAK256 SWAP1 JUMPDEST DUP2 PUSH1 0x0 SWAP1 SLOAD SWAP1 PUSH2 0x100 EXP SWAP1 DIV PUSH20 0xFFFFFFFFFFFFFFFFFFFFFFFFFFFFFFFFFFFFFFFF AND PUSH20 0xFFFFFFFFFFFFFFFFFFFFFFFFFFFFFFFFFFFFFFFF AND DUP2 MSTORE PUSH1 0x20 ADD SWAP1 PUSH1 0x1 ADD SWAP1 DUP1 DUP4 GT PUSH2 0x14AF JUMPI JUMPDEST POP POP POP POP POP SWAP1 POP SWAP1 JUMP JUMPDEST PUSH2 0x12C DUP2 JUMP JUMPDEST PUSH2 0x1511 PUSH2 0x1410 JUMP JUMPDEST PUSH20 0xFFFFFFFFFFFFFFFFFFFFFFFFFFFFFFFFFFFFFFFF AND CALLER PUSH20 0xFFFFFFFFFFFFFFFFFFFFFFFFFFFFFFFFFFFFFFFF AND EQ PUSH2 0x15B1 JUMPI PUSH1 0x40 MLOAD PUSH32 0x8C379A000000000000000000000000000000000000000000000000000000000 DUP2 MSTORE PUSH1 0x4 ADD DUP1 DUP1 PUSH1 0x20 ADD DUP3 DUP2 SUB DUP3 MSTORE PUSH1 0x13 DUP2 MSTORE PUSH1 0x20 ADD DUP1 PUSH32 0x4D75737420757365204C494E4B20746F6B656E00000000000000000000000000 DUP2 MSTORE POP PUSH1 0x20 ADD SWAP2 POP POP PUSH1 0x40 MLOAD DUP1 SWAP2 SUB SWAP1 REVERT JUMPDEST PUSH1 0x0 DUP1 PUSH2 0x15C2 DUP11 DUP11 DUP13 DUP11 DUP11 DUP11 PUSH2 0x371F JUMP JUMPDEST SWAP2 POP SWAP2 POP DUP8 PUSH32 0xD8D7ECC4800D25FA53CE0372F13A416D98907A7EF3D8D3BDD79CF4FE75529C65 DUP12 DUP5 DUP13 DUP15 DUP13 DUP8 DUP13 DUP13 DUP13 PUSH1 0x40 MLOAD DUP1 DUP11 PUSH20 0xFFFFFFFFFFFFFFFFFFFFFFFFFFFFFFFFFFFFFFFF AND DUP2 MSTORE PUSH1 0x20 ADD DUP10 DUP2 MSTORE PUSH1 0x20 ADD DUP9 DUP2 MSTORE PUSH1 0x20 ADD DUP8 PUSH20 0xFFFFFFFFFFFFFFFFFFFFFFFFFFFFFFFFFFFFFFFF AND DUP2 MSTORE PUSH1 0x20 ADD DUP7 PUSH28 0xFFFFFFFFFFFFFFFFFFFFFFFFFFFFFFFFFFFFFFFFFFFFFFFFFFFFFFFF NOT AND DUP2 MSTORE PUSH1 0x20 ADD DUP6 DUP2 MSTORE PUSH1 0x20 ADD DUP5 DUP2 MSTORE PUSH1 0x20 ADD DUP1 PUSH1 0x20 ADD DUP3 DUP2 SUB DUP3 MSTORE DUP5 DUP5 DUP3 DUP2 DUP2 MSTORE PUSH1 0x20 ADD SWAP3 POP DUP1 DUP3 DUP5 CALLDATACOPY PUSH1 0x0 DUP2 DUP5 ADD MSTORE PUSH1 0x1F NOT PUSH1 0x1F DUP3 ADD AND SWAP1 POP DUP1 DUP4 ADD SWAP3 POP POP POP SWAP11 POP POP POP POP POP POP POP POP POP POP POP PUSH1 0x40 MLOAD DUP1 SWAP2 SUB SWAP1 LOG2 POP POP POP POP POP POP POP POP POP POP JUMP JUMPDEST PUSH2 0x16C1 PUSH2 0x3647 JUMP JUMPDEST PUSH1 0x0 JUMPDEST DUP4 DUP4 SWAP1 POP DUP2 LT ISZERO PUSH2 0x1805 JUMPI PUSH1 0x0 PUSH1 0x5 PUSH1 0x0 DUP7 DUP7 DUP6 DUP2 DUP2 LT PUSH2 0x16E1 JUMPI INVALID JUMPDEST SWAP1 POP PUSH1 0x20 MUL ADD CALLDATALOAD PUSH20 0xFFFFFFFFFFFFFFFFFFFFFFFFFFFFFFFFFFFFFFFF AND PUSH20 0xFFFFFFFFFFFFFFFFFFFFFFFFFFFFFFFFFFFFFFFF AND PUSH20 0xFFFFFFFFFFFFFFFFFFFFFFFFFFFFFFFFFFFFFFFF AND DUP2 MSTORE PUSH1 0x20 ADD SWAP1 DUP2 MSTORE PUSH1 0x20 ADD PUSH1 0x0 KECCAK256 PUSH1 0x0 PUSH2 0x100 EXP DUP2 SLOAD DUP2 PUSH1 0xFF MUL NOT AND SWAP1 DUP4 ISZERO ISZERO MUL OR SWAP1 SSTORE POP DUP4 DUP4 DUP3 DUP2 DUP2 LT PUSH2 0x175B JUMPI INVALID JUMPDEST SWAP1 POP PUSH1 0x20 MUL ADD CALLDATALOAD PUSH20 0xFFFFFFFFFFFFFFFFFFFFFFFFFFFFFFFFFFFFFFFF AND PUSH20 0xFFFFFFFFFFFFFFFFFFFFFFFFFFFFFFFFFFFFFFFF AND PUSH4 0xF2FDE38B DUP4 PUSH1 0x40 MLOAD DUP3 PUSH4 0xFFFFFFFF AND PUSH1 0xE0 SHL DUP2 MSTORE PUSH1 0x4 ADD DUP1 DUP3 PUSH20 0xFFFFFFFFFFFFFFFFFFFFFFFFFFFFFFFFFFFFFFFF AND DUP2 MSTORE PUSH1 0x20 ADD SWAP2 POP POP PUSH1 0x0 PUSH1 0x40 MLOAD DUP1 DUP4 SUB DUP2 PUSH1 0x0 DUP8 DUP1 EXTCODESIZE ISZERO DUP1 ISZERO PUSH2 0x17E0 JUMPI PUSH1 0x0 DUP1 REVERT JUMPDEST POP GAS CALL ISZERO DUP1 ISZERO PUSH2 0x17F4 JUMPI RETURNDATASIZE PUSH1 0x0 DUP1 RETURNDATACOPY RETURNDATASIZE PUSH1 0x0 REVERT JUMPDEST POP POP POP POP DUP1 DUP1 PUSH1 0x1 ADD SWAP2 POP POP PUSH2 0x16C4 JUMP JUMPDEST POP POP POP POP JUMP JUMPDEST PUSH2 0x1813 PUSH2 0x1410 JUMP JUMPDEST PUSH20 0xFFFFFFFFFFFFFFFFFFFFFFFFFFFFFFFFFFFFFFFF AND CALLER PUSH20 0xFFFFFFFFFFFFFFFFFFFFFFFFFFFFFFFFFFFFFFFF AND EQ PUSH2 0x18B3 JUMPI PUSH1 0x40 MLOAD PUSH32 0x8C379A000000000000000000000000000000000000000000000000000000000 DUP2 MSTORE PUSH1 0x4 ADD DUP1 DUP1 PUSH1 0x20 ADD DUP3 DUP2 SUB DUP3 MSTORE PUSH1 0x13 DUP2 MSTORE PUSH1 0x20 ADD DUP1 PUSH32 0x4D75737420757365204C494E4B20746F6B656E00000000000000000000000000 DUP2 MSTORE POP PUSH1 0x20 ADD SWAP2 POP POP PUSH1 0x40 MLOAD DUP1 SWAP2 SUB SWAP1 REVERT JUMPDEST PUSH1 0x0 DUP1 PUSH2 0x18C4 DUP12 DUP12 DUP11 DUP11 DUP11 DUP11 PUSH2 0x371F JUMP JUMPDEST SWAP2 POP SWAP2 POP DUP9 PUSH32 0xD8D7ECC4800D25FA53CE0372F13A416D98907A7EF3D8D3BDD79CF4FE75529C65 DUP13 DUP5 DUP14 DUP16 DUP13 DUP8 DUP13 DUP13 DUP13 PUSH1 0x40 MLOAD DUP1 DUP11 PUSH20 0xFFFFFFFFFFFFFFFFFFFFFFFFFFFFFFFFFFFFFFFF AND DUP2 MSTORE PUSH1 0x20 ADD DUP10 DUP2 MSTORE PUSH1 0x20 ADD DUP9 DUP2 MSTORE PUSH1 0x20 ADD DUP8 PUSH20 0xFFFFFFFFFFFFFFFFFFFFFFFFFFFFFFFFFFFFFFFF AND DUP2 MSTORE PUSH1 0x20 ADD DUP7 PUSH28 0xFFFFFFFFFFFFFFFFFFFFFFFFFFFFFFFFFFFFFFFFFFFFFFFFFFFFFFFF NOT AND DUP2 MSTORE PUSH1 0x20 ADD DUP6 DUP2 MSTORE PUSH1 0x20 ADD DUP5 DUP2 MSTORE PUSH1 0x20 ADD DUP1 PUSH1 0x20 ADD DUP3 DUP2 SUB DUP3 MSTORE DUP5 DUP5 DUP3 DUP2 DUP2 MSTORE PUSH1 0x20 ADD SWAP3 POP DUP1 DUP3 DUP5 CALLDATACOPY PUSH1 0x0 DUP2 DUP5 ADD MSTORE PUSH1 0x1F NOT PUSH1 0x1F DUP3 ADD AND SWAP1 POP DUP1 DUP4 ADD SWAP3 POP POP POP SWAP11 POP POP POP POP POP POP POP POP POP POP POP PUSH1 0x40 MLOAD DUP1 SWAP2 SUB SWAP1 LOG2 POP POP POP POP POP POP POP POP POP POP POP JUMP JUMPDEST PUSH1 0x0 PUSH2 0x19C6 PUSH2 0x39B8 JUMP JUMPDEST DUP7 PUSH1 0x0 PUSH1 0x8 SHL PUSH1 0x4 PUSH1 0x0 DUP4 DUP2 MSTORE PUSH1 0x20 ADD SWAP1 DUP2 MSTORE PUSH1 0x20 ADD PUSH1 0x0 KECCAK256 PUSH1 0x0 ADD PUSH1 0x0 SWAP1 SLOAD SWAP1 PUSH2 0x100 EXP SWAP1 DIV PUSH1 0x8 SHL PUSH1 0xFF NOT AND EQ ISZERO PUSH2 0x1A68 JUMPI PUSH1 0x40 MLOAD PUSH32 0x8C379A000000000000000000000000000000000000000000000000000000000 DUP2 MSTORE PUSH1 0x4 ADD DUP1 DUP1 PUSH1 0x20 ADD DUP3 DUP2 SUB DUP3 MSTORE PUSH1 0x1B DUP2 MSTORE PUSH1 0x20 ADD DUP1 PUSH32 0x4D757374206861766520612076616C6964207265717565737449640000000000 DUP2 MSTORE POP PUSH1 0x20 ADD SWAP2 POP POP PUSH1 0x40 MLOAD DUP1 SWAP2 SUB SWAP1 REVERT JUMPDEST DUP6 PUSH1 0x5 PUSH1 0x0 DUP3 PUSH20 0xFFFFFFFFFFFFFFFFFFFFFFFFFFFFFFFFFFFFFFFF AND PUSH20 0xFFFFFFFFFFFFFFFFFFFFFFFFFFFFFFFFFFFFFFFF AND DUP2 MSTORE PUSH1 0x20 ADD SWAP1 DUP2 MSTORE PUSH1 0x20 ADD PUSH1 0x0 KECCAK256 PUSH1 0x0 SWAP1 SLOAD SWAP1 PUSH2 0x100 EXP SWAP1 DIV PUSH1 0xFF AND ISZERO PUSH2 0x1B29 JUMPI PUSH1 0x40 MLOAD PUSH32 0x8C379A000000000000000000000000000000000000000000000000000000000 DUP2 MSTORE PUSH1 0x4 ADD DUP1 DUP1 PUSH1 0x20 ADD DUP3 DUP2 SUB DUP3 MSTORE PUSH1 0x1A DUP2 MSTORE PUSH1 0x20 ADD DUP1 PUSH32 0x43616E6E6F742063616C6C206F776E656420636F6E7472616374000000000000 DUP2 MSTORE POP PUSH1 0x20 ADD SWAP2 POP POP PUSH1 0x40 MLOAD DUP1 SWAP2 SUB SWAP1 REVERT JUMPDEST PUSH2 0x1B38 DUP10 DUP10 DUP10 DUP10 DUP10 PUSH1 0x1 PUSH2 0x3A35 JUMP JUMPDEST DUP9 PUSH32 0x9E9BC7616D42C2835D05AE617E508454E63B30B934BE8AA932EBC125E0E58A64 PUSH1 0x40 MLOAD PUSH1 0x40 MLOAD DUP1 SWAP2 SUB SWAP1 LOG2 PUSH3 0x61A80 GAS LT ISZERO PUSH2 0x1BDE JUMPI PUSH1 0x40 MLOAD PUSH32 0x8C379A000000000000000000000000000000000000000000000000000000000 DUP2 MSTORE PUSH1 0x4 ADD DUP1 DUP1 PUSH1 0x20 ADD DUP3 DUP2 SUB DUP3 MSTORE PUSH1 0x20 DUP2 MSTORE PUSH1 0x20 ADD DUP1 PUSH32 0x4D7573742070726F7669646520636F6E73756D657220656E6F75676820676173 DUP2 MSTORE POP PUSH1 0x20 ADD SWAP2 POP POP PUSH1 0x40 MLOAD DUP1 SWAP2 SUB SWAP1 REVERT JUMPDEST PUSH1 0x0 DUP8 PUSH20 0xFFFFFFFFFFFFFFFFFFFFFFFFFFFFFFFFFFFFFFFF AND DUP8 DUP12 DUP8 PUSH1 0x40 MLOAD PUSH1 0x24 ADD DUP1 DUP4 DUP2 MSTORE PUSH1 0x20 ADD DUP3 DUP2 MSTORE PUSH1 0x20 ADD SWAP3 POP POP POP PUSH1 0x40 MLOAD PUSH1 0x20 DUP2 DUP4 SUB SUB DUP2 MSTORE SWAP1 PUSH1 0x40 MSTORE SWAP1 PUSH28 0xFFFFFFFFFFFFFFFFFFFFFFFFFFFFFFFFFFFFFFFFFFFFFFFFFFFFFFFF NOT AND PUSH1 0x20 DUP3 ADD DUP1 MLOAD PUSH28 0xFFFFFFFFFFFFFFFFFFFFFFFFFFFFFFFFFFFFFFFFFFFFFFFFFFFFFFFF DUP4 DUP2 DUP4 AND OR DUP4 MSTORE POP POP POP POP PUSH1 0x40 MLOAD DUP1 DUP3 DUP1 MLOAD SWAP1 PUSH1 0x20 ADD SWAP1 DUP1 DUP4 DUP4 JUMPDEST PUSH1 0x20 DUP4 LT PUSH2 0x1CA1 JUMPI DUP1 MLOAD DUP3 MSTORE PUSH1 0x20 DUP3 ADD SWAP2 POP PUSH1 0x20 DUP2 ADD SWAP1 POP PUSH1 0x20 DUP4 SUB SWAP3 POP PUSH2 0x1C7E JUMP JUMPDEST PUSH1 0x1 DUP4 PUSH1 0x20 SUB PUSH2 0x100 EXP SUB DUP1 NOT DUP3 MLOAD AND DUP2 DUP5 MLOAD AND DUP1 DUP3 OR DUP6 MSTORE POP POP POP POP POP POP SWAP1 POP ADD SWAP2 POP POP PUSH1 0x0 PUSH1 0x40 MLOAD DUP1 DUP4 SUB DUP2 PUSH1 0x0 DUP7 GAS CALL SWAP2 POP POP RETURNDATASIZE DUP1 PUSH1 0x0 DUP2 EQ PUSH2 0x1D03 JUMPI PUSH1 0x40 MLOAD SWAP2 POP PUSH1 0x1F NOT PUSH1 0x3F RETURNDATASIZE ADD AND DUP3 ADD PUSH1 0x40 MSTORE RETURNDATASIZE DUP3 MSTORE RETURNDATASIZE PUSH1 0x0 PUSH1 0x20 DUP5 ADD RETURNDATACOPY PUSH2 0x1D08 JUMP JUMPDEST PUSH1 0x60 SWAP2 POP JUMPDEST POP POP SWAP1 POP DUP1 SWAP4 POP POP POP POP SWAP7 SWAP6 POP POP POP POP POP POP JUMP JUMPDEST PUSH1 0x0 PUSH2 0x1D26 PUSH2 0x3C0C JUMP JUMPDEST SWAP1 POP SWAP1 JUMP JUMPDEST PUSH2 0x1D33 PUSH2 0x35FA JUMP JUMPDEST PUSH2 0x1DA5 JUMPI PUSH1 0x40 MLOAD PUSH32 0x8C379A000000000000000000000000000000000000000000000000000000000 DUP2 MSTORE PUSH1 0x4 ADD DUP1 DUP1 PUSH1 0x20 ADD DUP3 DUP2 SUB DUP3 MSTORE PUSH1 0x1D DUP2 MSTORE PUSH1 0x20 ADD DUP1 PUSH32 0x43616E6E6F742073657420617574686F72697A65642073656E64657273000000 DUP2 MSTORE POP PUSH1 0x20 ADD SWAP2 POP POP PUSH1 0x40 MLOAD DUP1 SWAP2 SUB SWAP1 REVERT JUMPDEST PUSH2 0x1DAF DUP5 DUP5 PUSH2 0xFB7 JUMP JUMPDEST PUSH2 0x1DBB DUP5 DUP5 DUP5 DUP5 PUSH2 0x33E1 JUMP JUMPDEST POP POP POP POP JUMP JUMPDEST PUSH1 0x0 PUSH2 0x1DCB PUSH2 0x39B8 JUMP JUMPDEST DUP8 PUSH1 0x0 PUSH1 0x8 SHL PUSH1 0x4 PUSH1 0x0 DUP4 DUP2 MSTORE PUSH1 0x20 ADD SWAP1 DUP2 MSTORE PUSH1 0x20 ADD PUSH1 0x0 KECCAK256 PUSH1 0x0 ADD PUSH1 0x0 SWAP1 SLOAD SWAP1 PUSH2 0x100 EXP SWAP1 DIV PUSH1 0x8 SHL PUSH1 0xFF NOT AND EQ ISZERO PUSH2 0x1E6D JUMPI PUSH1 0x40 MLOAD PUSH32 0x8C379A000000000000000000000000000000000000000000000000000000000 DUP2 MSTORE PUSH1 0x4 ADD DUP1 DUP1 PUSH1 0x20 ADD DUP3 DUP2 SUB DUP3 MSTORE PUSH1 0x1B DUP2 MSTORE PUSH1 0x20 ADD DUP1 PUSH32 0x4D757374206861766520612076616C6964207265717565737449640000000000 DUP2 MSTORE POP PUSH1 0x20 ADD SWAP2 POP POP PUSH1 0x40 MLOAD DUP1 SWAP2 SUB SWAP1 REVERT JUMPDEST DUP7 PUSH1 0x5 PUSH1 0x0 DUP3 PUSH20 0xFFFFFFFFFFFFFFFFFFFFFFFFFFFFFFFFFFFFFFFF AND PUSH20 0xFFFFFFFFFFFFFFFFFFFFFFFFFFFFFFFFFFFFFFFF AND DUP2 MSTORE PUSH1 0x20 ADD SWAP1 DUP2 MSTORE PUSH1 0x20 ADD PUSH1 0x0 KECCAK256 PUSH1 0x0 SWAP1 SLOAD SWAP1 PUSH2 0x100 EXP SWAP1 DIV PUSH1 0xFF AND ISZERO PUSH2 0x1F2E JUMPI PUSH1 0x40 MLOAD PUSH32 0x8C379A000000000000000000000000000000000000000000000000000000000 DUP2 MSTORE PUSH1 0x4 ADD DUP1 DUP1 PUSH1 0x20 ADD DUP3 DUP2 SUB DUP3 MSTORE PUSH1 0x1A DUP2 MSTORE PUSH1 0x20 ADD DUP1 PUSH32 0x43616E6E6F742063616C6C206F776E656420636F6E7472616374000000000000 DUP2 MSTORE POP PUSH1 0x20 ADD SWAP2 POP POP PUSH1 0x40 MLOAD DUP1 SWAP2 SUB SWAP1 REVERT JUMPDEST DUP10 DUP6 DUP6 PUSH1 0x20 DUP3 DUP3 SWAP1 POP LT ISZERO PUSH2 0x1FAB JUMPI PUSH1 0x40 MLOAD PUSH32 0x8C379A000000000000000000000000000000000000000000000000000000000 DUP2 MSTORE PUSH1 0x4 ADD DUP1 DUP1 PUSH1 0x20 ADD DUP3 DUP2 SUB DUP3 MSTORE PUSH1 0x1B DUP2 MSTORE PUSH1 0x20 ADD DUP1 PUSH32 0x526573706F6E7365206D757374206265203E2033322062797465730000000000 DUP2 MSTORE POP PUSH1 0x20 ADD SWAP2 POP POP PUSH1 0x40 MLOAD DUP1 SWAP2 SUB SWAP1 REVERT JUMPDEST PUSH1 0x0 DUP3 CALLDATALOAD SWAP1 POP DUP1 DUP5 EQ PUSH2 0x2026 JUMPI PUSH1 0x40 MLOAD PUSH32 0x8C379A000000000000000000000000000000000000000000000000000000000 DUP2 MSTORE PUSH1 0x4 ADD DUP1 DUP1 PUSH1 0x20 ADD DUP3 DUP2 SUB DUP3 MSTORE PUSH1 0x1C DUP2 MSTORE PUSH1 0x20 ADD DUP1 PUSH32 0x466972737420776F7264206D7573742062652072657175657374496400000000 DUP2 MSTORE POP PUSH1 0x20 ADD SWAP2 POP POP PUSH1 0x40 MLOAD DUP1 SWAP2 SUB SWAP1 REVERT JUMPDEST PUSH2 0x2035 DUP15 DUP15 DUP15 DUP15 DUP15 PUSH1 0x2 PUSH2 0x3A35 JUMP JUMPDEST DUP14 PUSH32 0x9E9BC7616D42C2835D05AE617E508454E63B30B934BE8AA932EBC125E0E58A64 PUSH1 0x40 MLOAD PUSH1 0x40 MLOAD DUP1 SWAP2 SUB SWAP1 LOG2 PUSH3 0x61A80 GAS LT ISZERO PUSH2 0x20DB JUMPI PUSH1 0x40 MLOAD PUSH32 0x8C379A000000000000000000000000000000000000000000000000000000000 DUP2 MSTORE PUSH1 0x4 ADD DUP1 DUP1 PUSH1 0x20 ADD DUP3 DUP2 SUB DUP3 MSTORE PUSH1 0x20 DUP2 MSTORE PUSH1 0x20 ADD DUP1 PUSH32 0x4D7573742070726F7669646520636F6E73756D657220656E6F75676820676173 DUP2 MSTORE POP PUSH1 0x20 ADD SWAP2 POP POP PUSH1 0x40 MLOAD DUP1 SWAP2 SUB SWAP1 REVERT JUMPDEST PUSH1 0x0 DUP13 PUSH20 0xFFFFFFFFFFFFFFFFFFFFFFFFFFFFFFFFFFFFFFFF AND DUP13 DUP12 DUP12 PUSH1 0x40 MLOAD PUSH1 0x20 ADD DUP1 DUP5 PUSH28 0xFFFFFFFFFFFFFFFFFFFFFFFFFFFFFFFFFFFFFFFFFFFFFFFFFFFFFFFF NOT AND DUP2 MSTORE PUSH1 0x4 ADD DUP4 DUP4 DUP1 DUP3 DUP5 CALLDATACOPY DUP1 DUP4 ADD SWAP3 POP POP POP SWAP4 POP POP POP POP PUSH1 0x40 MLOAD PUSH1 0x20 DUP2 DUP4 SUB SUB DUP2 MSTORE SWAP1 PUSH1 0x40 MSTORE PUSH1 0x40 MLOAD DUP1 DUP3 DUP1 MLOAD SWAP1 PUSH1 0x20 ADD SWAP1 DUP1 DUP4 DUP4 JUMPDEST PUSH1 0x20 DUP4 LT PUSH2 0x2177 JUMPI DUP1 MLOAD DUP3 MSTORE PUSH1 0x20 DUP3 ADD SWAP2 POP PUSH1 0x20 DUP2 ADD SWAP1 POP PUSH1 0x20 DUP4 SUB SWAP3 POP PUSH2 0x2154 JUMP JUMPDEST PUSH1 0x1 DUP4 PUSH1 0x20 SUB PUSH2 0x100 EXP SUB DUP1 NOT DUP3 MLOAD AND DUP2 DUP5 MLOAD AND DUP1 DUP3 OR DUP6 MSTORE POP POP POP POP POP POP SWAP1 POP ADD SWAP2 POP POP PUSH1 0x0 PUSH1 0x40 MLOAD DUP1 DUP4 SUB DUP2 PUSH1 0x0 DUP7 GAS CALL SWAP2 POP POP RETURNDATASIZE DUP1 PUSH1 0x0 DUP2 EQ PUSH2 0x21D9 JUMPI PUSH1 0x40 MLOAD SWAP2 POP PUSH1 0x1F NOT PUSH1 0x3F RETURNDATASIZE ADD AND DUP3 ADD PUSH1 0x40 MSTORE RETURNDATASIZE DUP3 MSTORE RETURNDATASIZE PUSH1 0x0 PUSH1 0x20 DUP5 ADD RETURNDATACOPY PUSH2 0x21DE JUMP JUMPDEST PUSH1 0x60 SWAP2 POP JUMPDEST POP POP SWAP1 POP DUP1 SWAP8 POP POP POP POP POP POP POP POP SWAP8 SWAP7 POP POP POP POP POP POP POP JUMP JUMPDEST PUSH1 0x0 DUP5 DUP5 SWAP1 POP GT DUP1 ISZERO PUSH2 0x220F JUMPI POP DUP2 DUP2 SWAP1 POP DUP5 DUP5 SWAP1 POP EQ JUMPDEST PUSH2 0x2281 JUMPI PUSH1 0x40 MLOAD PUSH32 0x8C379A000000000000000000000000000000000000000000000000000000000 DUP2 MSTORE PUSH1 0x4 ADD DUP1 DUP1 PUSH1 0x20 ADD DUP3 DUP2 SUB DUP3 MSTORE PUSH1 0x17 DUP2 MSTORE PUSH1 0x20 ADD DUP1 PUSH32 0x496E76616C6964206172726179206C656E677468287329000000000000000000 DUP2 MSTORE POP PUSH1 0x20 ADD SWAP2 POP POP PUSH1 0x40 MLOAD DUP1 SWAP2 SUB SWAP1 REVERT JUMPDEST PUSH1 0x0 CALLVALUE SWAP1 POP PUSH1 0x0 JUMPDEST DUP6 DUP6 SWAP1 POP DUP2 LT ISZERO PUSH2 0x233D JUMPI PUSH1 0x0 DUP5 DUP5 DUP4 DUP2 DUP2 LT PUSH2 0x22A2 JUMPI INVALID JUMPDEST SWAP1 POP PUSH1 0x20 MUL ADD CALLDATALOAD SWAP1 POP PUSH2 0x22BE DUP2 DUP5 PUSH2 0x3D01 SWAP1 SWAP2 SWAP1 PUSH4 0xFFFFFFFF AND JUMP JUMPDEST SWAP3 POP DUP7 DUP7 DUP4 DUP2 DUP2 LT PUSH2 0x22CC JUMPI INVALID JUMPDEST SWAP1 POP PUSH1 0x20 MUL ADD CALLDATALOAD PUSH20 0xFFFFFFFFFFFFFFFFFFFFFFFFFFFFFFFFFFFFFFFF AND PUSH20 0xFFFFFFFFFFFFFFFFFFFFFFFFFFFFFFFFFFFFFFFF AND PUSH2 0x8FC DUP3 SWAP1 DUP2 ISZERO MUL SWAP1 PUSH1 0x40 MLOAD PUSH1 0x0 PUSH1 0x40 MLOAD DUP1 DUP4 SUB DUP2 DUP6 DUP9 DUP9 CALL SWAP4 POP POP POP POP ISZERO DUP1 ISZERO PUSH2 0x232E JUMPI RETURNDATASIZE PUSH1 0x0 DUP1 RETURNDATACOPY RETURNDATASIZE PUSH1 0x0 REVERT JUMPDEST POP POP DUP1 DUP1 PUSH1 0x1 ADD SWAP2 POP POP PUSH2 0x2289 JUMP JUMPDEST POP PUSH1 0x0 DUP2 EQ PUSH2 0x23B4 JUMPI PUSH1 0x40 MLOAD PUSH32 0x8C379A000000000000000000000000000000000000000000000000000000000 DUP2 MSTORE PUSH1 0x4 ADD DUP1 DUP1 PUSH1 0x20 ADD DUP3 DUP2 SUB DUP3 MSTORE PUSH1 0x11 DUP2 MSTORE PUSH1 0x20 ADD DUP1 PUSH32 0x546F6F206D756368204554482073656E74000000000000000000000000000000 DUP2 MSTORE POP PUSH1 0x20 ADD SWAP2 POP POP PUSH1 0x40 MLOAD DUP1 SWAP2 SUB SWAP1 REVERT JUMPDEST POP POP POP POP POP JUMP JUMPDEST PUSH1 0x0 PUSH2 0x23C9 DUP5 CALLER DUP6 DUP6 PUSH2 0x3D8A JUMP JUMPDEST SWAP1 POP DUP1 PUSH1 0xFF NOT AND PUSH1 0x4 PUSH1 0x0 DUP8 DUP2 MSTORE PUSH1 0x20 ADD SWAP1 DUP2 MSTORE PUSH1 0x20 ADD PUSH1 0x0 KECCAK256 PUSH1 0x0 ADD PUSH1 0x0 SWAP1 SLOAD SWAP1 PUSH2 0x100 EXP SWAP1 DIV PUSH1 0x8 SHL PUSH1 0xFF NOT AND EQ PUSH2 0x246B JUMPI PUSH1 0x40 MLOAD PUSH32 0x8C379A000000000000000000000000000000000000000000000000000000000 DUP2 MSTORE PUSH1 0x4 ADD DUP1 DUP1 PUSH1 0x20 ADD DUP3 DUP2 SUB DUP3 MSTORE PUSH1 0x1E DUP2 MSTORE PUSH1 0x20 ADD DUP1 PUSH32 0x506172616D7320646F206E6F74206D6174636820726571756573742049440000 DUP2 MSTORE POP PUSH1 0x20 ADD SWAP2 POP POP PUSH1 0x40 MLOAD DUP1 SWAP2 SUB SWAP1 REVERT JUMPDEST TIMESTAMP DUP3 GT ISZERO PUSH2 0x24E1 JUMPI PUSH1 0x40 MLOAD PUSH32 0x8C379A000000000000000000000000000000000000000000000000000000000 DUP2 MSTORE PUSH1 0x4 ADD DUP1 DUP1 PUSH1 0x20 ADD DUP3 DUP2 SUB DUP3 MSTORE PUSH1 0x16 DUP2 MSTORE PUSH1 0x20 ADD DUP1 PUSH32 0x52657175657374206973206E6F74206578706972656400000000000000000000 DUP2 MSTORE POP PUSH1 0x20 ADD SWAP2 POP POP PUSH1 0x40 MLOAD DUP1 SWAP2 SUB SWAP1 REVERT JUMPDEST PUSH1 0x4 PUSH1 0x0 DUP7 DUP2 MSTORE PUSH1 0x20 ADD SWAP1 DUP2 MSTORE PUSH1 0x20 ADD PUSH1 0x0 KECCAK256 PUSH1 0x0 DUP1 DUP3 ADD PUSH1 0x0 PUSH2 0x100 EXP DUP2 SLOAD SWAP1 PUSH31 0xFFFFFFFFFFFFFFFFFFFFFFFFFFFFFFFFFFFFFFFFFFFFFFFFFFFFFFFFFFFFFF MUL NOT AND SWAP1 SSTORE PUSH1 0x0 DUP3 ADD PUSH1 0x1F PUSH2 0x100 EXP DUP2 SLOAD SWAP1 PUSH1 0xFF MUL NOT AND SWAP1 SSTORE POP POP DUP5 PUSH32 0xA7842B9EC549398102C0D91B1B9919B2F20558AEFDADF57528A95C6CD3292E93 PUSH1 0x40 MLOAD PUSH1 0x40 MLOAD DUP1 SWAP2 SUB SWAP1 LOG2 PUSH32 0x0 PUSH20 0xFFFFFFFFFFFFFFFFFFFFFFFFFFFFFFFFFFFFFFFF AND PUSH4 0xA9059CBB CALLER DUP7 PUSH1 0x40 MLOAD DUP4 PUSH4 0xFFFFFFFF AND PUSH1 0xE0 SHL DUP2 MSTORE PUSH1 0x4 ADD DUP1 DUP4 PUSH20 0xFFFFFFFFFFFFFFFFFFFFFFFFFFFFFFFFFFFFFFFF AND DUP2 MSTORE PUSH1 0x20 ADD DUP3 DUP2 MSTORE PUSH1 0x20 ADD SWAP3 POP POP POP PUSH1 0x20 PUSH1 0x40 MLOAD DUP1 DUP4 SUB DUP2 PUSH1 0x0 DUP8 DUP1 EXTCODESIZE ISZERO DUP1 ISZERO PUSH2 0x25FB JUMPI PUSH1 0x0 DUP1 REVERT JUMPDEST POP GAS CALL ISZERO DUP1 ISZERO PUSH2 0x260F JUMPI RETURNDATASIZE PUSH1 0x0 DUP1 RETURNDATACOPY RETURNDATASIZE PUSH1 0x0 REVERT JUMPDEST POP POP POP POP PUSH1 0x40 MLOAD RETURNDATASIZE PUSH1 0x20 DUP2 LT ISZERO PUSH2 0x2625 JUMPI PUSH1 0x0 DUP1 REVERT JUMPDEST DUP2 ADD SWAP1 DUP1 DUP1 MLOAD SWAP1 PUSH1 0x20 ADD SWAP1 SWAP3 SWAP2 SWAP1 POP POP POP POP POP POP POP POP POP JUMP JUMPDEST PUSH1 0x3 PUSH1 0x0 SWAP1 SLOAD SWAP1 PUSH2 0x100 EXP SWAP1 DIV PUSH20 0xFFFFFFFFFFFFFFFFFFFFFFFFFFFFFFFFFFFFFFFF AND PUSH20 0xFFFFFFFFFFFFFFFFFFFFFFFFFFFFFFFFFFFFFFFF AND CALLER PUSH20 0xFFFFFFFFFFFFFFFFFFFFFFFFFFFFFFFFFFFFFFFF AND EQ PUSH2 0x2701 JUMPI PUSH1 0x40 MLOAD PUSH32 0x8C379A000000000000000000000000000000000000000000000000000000000 DUP2 MSTORE PUSH1 0x4 ADD DUP1 DUP1 PUSH1 0x20 ADD DUP3 DUP2 SUB DUP3 MSTORE PUSH1 0x16 DUP2 MSTORE PUSH1 0x20 ADD DUP1 PUSH32 0x4D7573742062652070726F706F736564206F776E657200000000000000000000 DUP2 MSTORE POP PUSH1 0x20 ADD SWAP2 POP POP PUSH1 0x40 MLOAD DUP1 SWAP2 SUB SWAP1 REVERT JUMPDEST PUSH1 0x0 PUSH1 0x2 PUSH1 0x0 SWAP1 SLOAD SWAP1 PUSH2 0x100 EXP SWAP1 DIV PUSH20 0xFFFFFFFFFFFFFFFFFFFFFFFFFFFFFFFFFFFFFFFF AND SWAP1 POP CALLER PUSH1 0x2 PUSH1 0x0 PUSH2 0x100 EXP DUP2 SLOAD DUP2 PUSH20 0xFFFFFFFFFFFFFFFFFFFFFFFFFFFFFFFFFFFFFFFF MUL NOT AND SWAP1 DUP4 PUSH20 0xFFFFFFFFFFFFFFFFFFFFFFFFFFFFFFFFFFFFFFFF AND MUL OR SWAP1 SSTORE POP PUSH1 0x0 PUSH1 0x3 PUSH1 0x0 PUSH2 0x100 EXP DUP2 SLOAD DUP2 PUSH20 0xFFFFFFFFFFFFFFFFFFFFFFFFFFFFFFFFFFFFFFFF MUL NOT AND SWAP1 DUP4 PUSH20 0xFFFFFFFFFFFFFFFFFFFFFFFFFFFFFFFFFFFFFFFF AND MUL OR SWAP1 SSTORE POP CALLER PUSH20 0xFFFFFFFFFFFFFFFFFFFFFFFFFFFFFFFFFFFFFFFF AND DUP2 PUSH20 0xFFFFFFFFFFFFFFFFFFFFFFFFFFFFFFFFFFFFFFFF AND PUSH32 0x8BE0079C531659141344CD1FD0A4F28419497F9722A3DAAFE3B4186F6B6457E0 PUSH1 0x40 MLOAD PUSH1 0x40 MLOAD DUP1 SWAP2 SUB SWAP1 LOG3 POP JUMP JUMPDEST PUSH1 0x0 PUSH1 0x2 PUSH1 0x0 SWAP1 SLOAD SWAP1 PUSH2 0x100 EXP SWAP1 DIV PUSH20 0xFFFFFFFFFFFFFFFFFFFFFFFFFFFFFFFFFFFFFFFF AND SWAP1 POP SWAP1 JUMP JUMPDEST PUSH1 0x0 PUSH2 0x283C PUSH2 0x3647 JUMP JUMPDEST DUP4 DUP1 PUSH2 0x2846 PUSH2 0x3C0C JUMP JUMPDEST LT ISZERO PUSH2 0x289D JUMPI PUSH1 0x40 MLOAD PUSH32 0x8C379A000000000000000000000000000000000000000000000000000000000 DUP2 MSTORE PUSH1 0x4 ADD DUP1 DUP1 PUSH1 0x20 ADD DUP3 DUP2 SUB DUP3 MSTORE PUSH1 0x35 DUP2 MSTORE PUSH1 0x20 ADD DUP1 PUSH2 0x42C1 PUSH1 0x35 SWAP2 CODECOPY PUSH1 0x40 ADD SWAP2 POP POP PUSH1 0x40 MLOAD DUP1 SWAP2 SUB SWAP1 REVERT JUMPDEST PUSH32 0x0 PUSH20 0xFFFFFFFFFFFFFFFFFFFFFFFFFFFFFFFFFFFFFFFF AND PUSH4 0x4000AEA0 DUP8 DUP8 DUP8 DUP8 PUSH1 0x40 MLOAD DUP6 PUSH4 0xFFFFFFFF AND PUSH1 0xE0 SHL DUP2 MSTORE PUSH1 0x4 ADD DUP1 DUP6 PUSH20 0xFFFFFFFFFFFFFFFFFFFFFFFFFFFFFFFFFFFFFFFF AND DUP2 MSTORE PUSH1 0x20 ADD DUP5 DUP2 MSTORE PUSH1 0x20 ADD DUP1 PUSH1 0x20 ADD DUP3 DUP2 SUB DUP3 MSTORE DUP5 DUP5 DUP3 DUP2 DUP2 MSTORE PUSH1 0x20 ADD SWAP3 POP DUP1 DUP3 DUP5 CALLDATACOPY PUSH1 0x0 DUP2 DUP5 ADD MSTORE PUSH1 0x1F NOT PUSH1 0x1F DUP3 ADD AND SWAP1 POP DUP1 DUP4 ADD SWAP3 POP POP POP SWAP6 POP POP POP POP POP POP PUSH1 0x20 PUSH1 0x40 MLOAD DUP1 DUP4 SUB DUP2 PUSH1 0x0 DUP8 DUP1 EXTCODESIZE ISZERO DUP1 ISZERO PUSH2 0x2962 JUMPI PUSH1 0x0 DUP1 REVERT JUMPDEST POP GAS CALL ISZERO DUP1 ISZERO PUSH2 0x2976 JUMPI RETURNDATASIZE PUSH1 0x0 DUP1 RETURNDATACOPY RETURNDATASIZE PUSH1 0x0 REVERT JUMPDEST POP POP POP POP PUSH1 0x40 MLOAD RETURNDATASIZE PUSH1 0x20 DUP2 LT ISZERO PUSH2 0x298C JUMPI PUSH1 0x0 DUP1 REVERT JUMPDEST DUP2 ADD SWAP1 DUP1 DUP1 MLOAD SWAP1 PUSH1 0x20 ADD SWAP1 SWAP3 SWAP2 SWAP1 POP POP POP SWAP2 POP POP SWAP5 SWAP4 POP POP POP POP JUMP JUMPDEST PUSH2 0x29B0 PUSH2 0x1410 JUMP JUMPDEST PUSH20 0xFFFFFFFFFFFFFFFFFFFFFFFFFFFFFFFFFFFFFFFF AND CALLER PUSH20 0xFFFFFFFFFFFFFFFFFFFFFFFFFFFFFFFFFFFFFFFF AND EQ PUSH2 0x2A50 JUMPI PUSH1 0x40 MLOAD PUSH32 0x8C379A000000000000000000000000000000000000000000000000000000000 DUP2 MSTORE PUSH1 0x4 ADD DUP1 DUP1 PUSH1 0x20 ADD DUP3 DUP2 SUB DUP3 MSTORE PUSH1 0x13 DUP2 MSTORE PUSH1 0x20 ADD DUP1 PUSH32 0x4D75737420757365204C494E4B20746F6B656E00000000000000000000000000 DUP2 MSTORE POP PUSH1 0x20 ADD SWAP2 POP POP PUSH1 0x40 MLOAD DUP1 SWAP2 SUB SWAP1 REVERT JUMPDEST DUP1 PUSH1 0x0 PUSH1 0x20 DUP3 ADD MLOAD SWAP1 POP PUSH2 0x2A64 DUP2 DUP4 PUSH2 0x3E0D JUMP JUMPDEST DUP5 PUSH1 0x24 DUP5 ADD MSTORE DUP4 PUSH1 0x44 DUP5 ADD MSTORE PUSH1 0x0 ADDRESS PUSH20 0xFFFFFFFFFFFFFFFFFFFFFFFFFFFFFFFFFFFFFFFF AND DUP5 PUSH1 0x40 MLOAD DUP1 DUP3 DUP1 MLOAD SWAP1 PUSH1 0x20 ADD SWAP1 DUP1 DUP4 DUP4 JUMPDEST PUSH1 0x20 DUP4 LT PUSH2 0x2ABD JUMPI DUP1 MLOAD DUP3 MSTORE PUSH1 0x20 DUP3 ADD SWAP2 POP PUSH1 0x20 DUP2 ADD SWAP1 POP PUSH1 0x20 DUP4 SUB SWAP3 POP PUSH2 0x2A9A JUMP JUMPDEST PUSH1 0x1 DUP4 PUSH1 0x20 SUB PUSH2 0x100 EXP SUB DUP1 NOT DUP3 MLOAD AND DUP2 DUP5 MLOAD AND DUP1 DUP3 OR DUP6 MSTORE POP POP POP POP POP POP SWAP1 POP ADD SWAP2 POP POP PUSH1 0x0 PUSH1 0x40 MLOAD DUP1 DUP4 SUB DUP2 DUP6 GAS DELEGATECALL SWAP2 POP POP RETURNDATASIZE DUP1 PUSH1 0x0 DUP2 EQ PUSH2 0x2B1D JUMPI PUSH1 0x40 MLOAD SWAP2 POP PUSH1 0x1F NOT PUSH1 0x3F RETURNDATASIZE ADD AND DUP3 ADD PUSH1 0x40 MSTORE RETURNDATASIZE DUP3 MSTORE RETURNDATASIZE PUSH1 0x0 PUSH1 0x20 DUP5 ADD RETURNDATACOPY PUSH2 0x2B22 JUMP JUMPDEST PUSH1 0x60 SWAP2 POP JUMPDEST POP POP SWAP1 POP DUP1 PUSH2 0x2B99 JUMPI PUSH1 0x40 MLOAD PUSH32 0x8C379A000000000000000000000000000000000000000000000000000000000 DUP2 MSTORE PUSH1 0x4 ADD DUP1 DUP1 PUSH1 0x20 ADD DUP3 DUP2 SUB DUP3 MSTORE PUSH1 0x18 DUP2 MSTORE PUSH1 0x20 ADD DUP1 PUSH32 0x556E61626C6520746F2063726561746520726571756573740000000000000000 DUP2 MSTORE POP PUSH1 0x20 ADD SWAP2 POP POP PUSH1 0x40 MLOAD DUP1 SWAP2 SUB SWAP1 REVERT JUMPDEST POP POP POP POP POP POP JUMP JUMPDEST PUSH1 0x0 CALLER DUP6 PUSH1 0x40 MLOAD PUSH1 0x20 ADD DUP1 DUP4 PUSH20 0xFFFFFFFFFFFFFFFFFFFFFFFFFFFFFFFFFFFFFFFF AND PUSH1 0x60 SHL DUP2 MSTORE PUSH1 0x14 ADD DUP3 DUP2 MSTORE PUSH1 0x20 ADD SWAP3 POP POP POP PUSH1 0x40 MLOAD PUSH1 0x20 DUP2 DUP4 SUB SUB DUP2 MSTORE SWAP1 PUSH1 0x40 MSTORE DUP1 MLOAD SWAP1 PUSH1 0x20 ADD KECCAK256 SWAP1 POP PUSH1 0x0 PUSH2 0x2BFB DUP6 CALLER DUP7 DUP7 PUSH2 0x3D8A JUMP JUMPDEST SWAP1 POP DUP1 PUSH1 0xFF NOT AND PUSH1 0x4 PUSH1 0x0 DUP5 DUP2 MSTORE PUSH1 0x20 ADD SWAP1 DUP2 MSTORE PUSH1 0x20 ADD PUSH1 0x0 KECCAK256 PUSH1 0x0 ADD PUSH1 0x0 SWAP1 SLOAD SWAP1 PUSH2 0x100 EXP SWAP1 DIV PUSH1 0x8 SHL PUSH1 0xFF NOT AND EQ PUSH2 0x2C9D JUMPI PUSH1 0x40 MLOAD PUSH32 0x8C379A000000000000000000000000000000000000000000000000000000000 DUP2 MSTORE PUSH1 0x4 ADD DUP1 DUP1 PUSH1 0x20 ADD DUP3 DUP2 SUB DUP3 MSTORE PUSH1 0x1E DUP2 MSTORE PUSH1 0x20 ADD DUP1 PUSH32 0x506172616D7320646F206E6F74206D6174636820726571756573742049440000 DUP2 MSTORE POP PUSH1 0x20 ADD SWAP2 POP POP PUSH1 0x40 MLOAD DUP1 SWAP2 SUB SWAP1 REVERT JUMPDEST TIMESTAMP DUP4 GT ISZERO PUSH2 0x2D13 JUMPI PUSH1 0x40 MLOAD PUSH32 0x8C379A000000000000000000000000000000000000000000000000000000000 DUP2 MSTORE PUSH1 0x4 ADD DUP1 DUP1 PUSH1 0x20 ADD DUP3 DUP2 SUB DUP3 MSTORE PUSH1 0x16 DUP2 MSTORE PUSH1 0x20 ADD DUP1 PUSH32 0x52657175657374206973206E6F74206578706972656400000000000000000000 DUP2 MSTORE POP PUSH1 0x20 ADD SWAP2 POP POP PUSH1 0x40 MLOAD DUP1 SWAP2 SUB SWAP1 REVERT JUMPDEST PUSH1 0x4 PUSH1 0x0 DUP4 DUP2 MSTORE PUSH1 0x20 ADD SWAP1 DUP2 MSTORE PUSH1 0x20 ADD PUSH1 0x0 KECCAK256 PUSH1 0x0 DUP1 DUP3 ADD PUSH1 0x0 PUSH2 0x100 EXP DUP2 SLOAD SWAP1 PUSH31 0xFFFFFFFFFFFFFFFFFFFFFFFFFFFFFFFFFFFFFFFFFFFFFFFFFFFFFFFFFFFFFF MUL NOT AND SWAP1 SSTORE PUSH1 0x0 DUP3 ADD PUSH1 0x1F PUSH2 0x100 EXP DUP2 SLOAD SWAP1 PUSH1 0xFF MUL NOT AND SWAP1 SSTORE POP POP DUP2 PUSH32 0xA7842B9EC549398102C0D91B1B9919B2F20558AEFDADF57528A95C6CD3292E93 PUSH1 0x40 MLOAD PUSH1 0x40 MLOAD DUP1 SWAP2 SUB SWAP1 LOG2 PUSH32 0x0 PUSH20 0xFFFFFFFFFFFFFFFFFFFFFFFFFFFFFFFFFFFFFFFF AND PUSH4 0xA9059CBB CALLER DUP8 PUSH1 0x40 MLOAD DUP4 PUSH4 0xFFFFFFFF AND PUSH1 0xE0 SHL DUP2 MSTORE PUSH1 0x4 ADD DUP1 DUP4 PUSH20 0xFFFFFFFFFFFFFFFFFFFFFFFFFFFFFFFFFFFFFFFF AND DUP2 MSTORE PUSH1 0x20 ADD DUP3 DUP2 MSTORE PUSH1 0x20 ADD SWAP3 POP POP POP PUSH1 0x20 PUSH1 0x40 MLOAD DUP1 DUP4 SUB DUP2 PUSH1 0x0 DUP8 DUP1 EXTCODESIZE ISZERO DUP1 ISZERO PUSH2 0x2E2D JUMPI PUSH1 0x0 DUP1 REVERT JUMPDEST POP GAS CALL ISZERO DUP1 ISZERO PUSH2 0x2E41 JUMPI RETURNDATASIZE PUSH1 0x0 DUP1 RETURNDATACOPY RETURNDATASIZE PUSH1 0x0 REVERT JUMPDEST POP POP POP POP PUSH1 0x40 MLOAD RETURNDATASIZE PUSH1 0x20 DUP2 LT ISZERO PUSH2 0x2E57 JUMPI PUSH1 0x0 DUP1 REVERT JUMPDEST DUP2 ADD SWAP1 DUP1 DUP1 MLOAD SWAP1 PUSH1 0x20 ADD SWAP1 SWAP3 SWAP2 SWAP1 POP POP POP POP POP POP POP POP POP POP JUMP JUMPDEST PUSH2 0x2E79 PUSH2 0x35FA JUMP JUMPDEST PUSH2 0x2EEB JUMPI PUSH1 0x40 MLOAD PUSH32 0x8C379A000000000000000000000000000000000000000000000000000000000 DUP2 MSTORE PUSH1 0x4 ADD DUP1 DUP1 PUSH1 0x20 ADD DUP3 DUP2 SUB DUP3 MSTORE PUSH1 0x1D DUP2 MSTORE PUSH1 0x20 ADD DUP1 PUSH32 0x43616E6E6F742073657420617574686F72697A65642073656E64657273000000 DUP2 MSTORE POP PUSH1 0x20 ADD SWAP2 POP POP PUSH1 0x40 MLOAD DUP1 SWAP2 SUB SWAP1 REVERT JUMPDEST PUSH1 0x0 DUP3 DUP3 SWAP1 POP GT PUSH2 0x2F64 JUMPI PUSH1 0x40 MLOAD PUSH32 0x8C379A000000000000000000000000000000000000000000000000000000000 DUP2 MSTORE PUSH1 0x4 ADD DUP1 DUP1 PUSH1 0x20 ADD DUP3 DUP2 SUB DUP3 MSTORE PUSH1 0x1B DUP2 MSTORE PUSH1 0x20 ADD DUP1 PUSH32 0x4D7573742068617665206174206C6561737420312073656E6465720000000000 DUP2 MSTORE POP PUSH1 0x20 ADD SWAP2 POP POP PUSH1 0x40 MLOAD DUP1 SWAP2 SUB SWAP1 REVERT JUMPDEST PUSH1 0x0 PUSH1 0x1 DUP1 SLOAD SWAP1 POP SWAP1 POP PUSH1 0x0 JUMPDEST DUP2 DUP2 LT ISZERO PUSH2 0x3014 JUMPI PUSH1 0x0 DUP1 PUSH1 0x0 PUSH1 0x1 DUP5 DUP2 SLOAD DUP2 LT PUSH2 0x2F8B JUMPI INVALID JUMPDEST SWAP1 PUSH1 0x0 MSTORE PUSH1 0x20 PUSH1 0x0 KECCAK256 ADD PUSH1 0x0 SWAP1 SLOAD SWAP1 PUSH2 0x100 EXP SWAP1 DIV PUSH20 0xFFFFFFFFFFFFFFFFFFFFFFFFFFFFFFFFFFFFFFFF AND PUSH20 0xFFFFFFFFFFFFFFFFFFFFFFFFFFFFFFFFFFFFFFFF AND PUSH20 0xFFFFFFFFFFFFFFFFFFFFFFFFFFFFFFFFFFFFFFFF AND DUP2 MSTORE PUSH1 0x20 ADD SWAP1 DUP2 MSTORE PUSH1 0x20 ADD PUSH1 0x0 KECCAK256 PUSH1 0x0 PUSH2 0x100 EXP DUP2 SLOAD DUP2 PUSH1 0xFF MUL NOT AND SWAP1 DUP4 ISZERO ISZERO MUL OR SWAP1 SSTORE POP DUP1 DUP1 PUSH1 0x1 ADD SWAP2 POP POP PUSH2 0x2F71 JUMP JUMPDEST POP PUSH1 0x0 JUMPDEST DUP4 DUP4 SWAP1 POP DUP2 LT ISZERO PUSH2 0x319C JUMPI PUSH1 0x0 ISZERO ISZERO PUSH1 0x0 DUP1 DUP7 DUP7 DUP6 DUP2 DUP2 LT PUSH2 0x3036 JUMPI INVALID JUMPDEST SWAP1 POP PUSH1 0x20 MUL ADD CALLDATALOAD PUSH20 0xFFFFFFFFFFFFFFFFFFFFFFFFFFFFFFFFFFFFFFFF AND PUSH20 0xFFFFFFFFFFFFFFFFFFFFFFFFFFFFFFFFFFFFFFFF AND PUSH20 0xFFFFFFFFFFFFFFFFFFFFFFFFFFFFFFFFFFFFFFFF AND DUP2 MSTORE PUSH1 0x20 ADD SWAP1 DUP2 MSTORE PUSH1 0x20 ADD PUSH1 0x0 KECCAK256 PUSH1 0x0 SWAP1 SLOAD SWAP1 PUSH2 0x100 EXP SWAP1 DIV PUSH1 0xFF AND ISZERO ISZERO EQ PUSH2 0x3110 JUMPI PUSH1 0x40 MLOAD PUSH32 0x8C379A000000000000000000000000000000000000000000000000000000000 DUP2 MSTORE PUSH1 0x4 ADD DUP1 DUP1 PUSH1 0x20 ADD DUP3 DUP2 SUB DUP3 MSTORE PUSH1 0x1F DUP2 MSTORE PUSH1 0x20 ADD DUP1 PUSH32 0x4D757374206E6F742068617665206475706C69636174652073656E6465727300 DUP2 MSTORE POP PUSH1 0x20 ADD SWAP2 POP POP PUSH1 0x40 MLOAD DUP1 SWAP2 SUB SWAP1 REVERT JUMPDEST PUSH1 0x1 PUSH1 0x0 DUP1 DUP7 DUP7 DUP6 DUP2 DUP2 LT PUSH2 0x3121 JUMPI INVALID JUMPDEST SWAP1 POP PUSH1 0x20 MUL ADD CALLDATALOAD PUSH20 0xFFFFFFFFFFFFFFFFFFFFFFFFFFFFFFFFFFFFFFFF AND PUSH20 0xFFFFFFFFFFFFFFFFFFFFFFFFFFFFFFFFFFFFFFFF AND PUSH20 0xFFFFFFFFFFFFFFFFFFFFFFFFFFFFFFFFFFFFFFFF AND DUP2 MSTORE PUSH1 0x20 ADD SWAP1 DUP2 MSTORE PUSH1 0x20 ADD PUSH1 0x0 KECCAK256 PUSH1 0x0 PUSH2 0x100 EXP DUP2 SLOAD DUP2 PUSH1 0xFF MUL NOT AND SWAP1 DUP4 ISZERO ISZERO MUL OR SWAP1 SSTORE POP DUP1 DUP1 PUSH1 0x1 ADD SWAP2 POP POP PUSH2 0x3018 JUMP JUMPDEST POP DUP3 DUP3 PUSH1 0x1 SWAP2 SWAP1 PUSH2 0x31AE SWAP3 SWAP2 SWAP1 PUSH2 0x4203 JUMP JUMPDEST POP PUSH32 0xF263CFB3E4298332E776194610CF9FDC09CCB3ADA8B9AA39764D882E11FBF0A0 DUP4 DUP4 CALLER PUSH1 0x40 MLOAD DUP1 DUP1 PUSH1 0x20 ADD DUP4 PUSH20 0xFFFFFFFFFFFFFFFFFFFFFFFFFFFFFFFFFFFFFFFF AND DUP2 MSTORE PUSH1 0x20 ADD DUP3 DUP2 SUB DUP3 MSTORE DUP6 DUP6 DUP3 DUP2 DUP2 MSTORE PUSH1 0x20 ADD SWAP3 POP PUSH1 0x20 MUL DUP1 DUP3 DUP5 CALLDATACOPY PUSH1 0x0 DUP2 DUP5 ADD MSTORE PUSH1 0x1F NOT PUSH1 0x1F DUP3 ADD AND SWAP1 POP DUP1 DUP4 ADD SWAP3 POP POP POP SWAP5 POP POP POP POP POP PUSH1 0x40 MLOAD DUP1 SWAP2 SUB SWAP1 LOG1 POP POP POP JUMP JUMPDEST PUSH2 0x3240 PUSH2 0x3647 JUMP JUMPDEST PUSH2 0x3249 DUP2 PUSH2 0x3F98 JUMP JUMPDEST POP JUMP JUMPDEST PUSH2 0x3254 PUSH2 0x3647 JUMP JUMPDEST DUP1 DUP1 PUSH2 0x325E PUSH2 0x3C0C JUMP JUMPDEST LT ISZERO PUSH2 0x32B5 JUMPI PUSH1 0x40 MLOAD PUSH32 0x8C379A000000000000000000000000000000000000000000000000000000000 DUP2 MSTORE PUSH1 0x4 ADD DUP1 DUP1 PUSH1 0x20 ADD DUP3 DUP2 SUB DUP3 MSTORE PUSH1 0x35 DUP2 MSTORE PUSH1 0x20 ADD DUP1 PUSH2 0x42C1 PUSH1 0x35 SWAP2 CODECOPY PUSH1 0x40 ADD SWAP2 POP POP PUSH1 0x40 MLOAD DUP1 SWAP2 SUB SWAP1 REVERT JUMPDEST PUSH32 0x0 PUSH20 0xFFFFFFFFFFFFFFFFFFFFFFFFFFFFFFFFFFFFFFFF AND PUSH4 0xA9059CBB DUP5 DUP5 PUSH1 0x40 MLOAD DUP4 PUSH4 0xFFFFFFFF AND PUSH1 0xE0 SHL DUP2 MSTORE PUSH1 0x4 ADD DUP1 DUP4 PUSH20 0xFFFFFFFFFFFFFFFFFFFFFFFFFFFFFFFFFFFFFFFF AND DUP2 MSTORE PUSH1 0x20 ADD DUP3 DUP2 MSTORE PUSH1 0x20 ADD SWAP3 POP POP POP PUSH1 0x20 PUSH1 0x40 MLOAD DUP1 DUP4 SUB DUP2 PUSH1 0x0 DUP8 DUP1 EXTCODESIZE ISZERO DUP1 ISZERO PUSH2 0x3346 JUMPI PUSH1 0x0 DUP1 REVERT JUMPDEST POP GAS CALL ISZERO DUP1 ISZERO PUSH2 0x335A JUMPI RETURNDATASIZE PUSH1 0x0 DUP1 RETURNDATACOPY RETURNDATASIZE PUSH1 0x0 REVERT JUMPDEST POP POP POP POP PUSH1 0x40 MLOAD RETURNDATASIZE PUSH1 0x20 DUP2 LT ISZERO PUSH2 0x3370 JUMPI PUSH1 0x0 DUP1 REVERT JUMPDEST DUP2 ADD SWAP1 DUP1 DUP1 MLOAD SWAP1 PUSH1 0x20 ADD SWAP1 SWAP3 SWAP2 SWAP1 POP POP POP PUSH2 0x3387 JUMPI INVALID JUMPDEST POP POP POP JUMP JUMPDEST PUSH1 0x0 DUP1 PUSH1 0x0 DUP4 PUSH20 0xFFFFFFFFFFFFFFFFFFFFFFFFFFFFFFFFFFFFFFFF AND PUSH20 0xFFFFFFFFFFFFFFFFFFFFFFFFFFFFFFFFFFFFFFFF AND DUP2 MSTORE PUSH1 0x20 ADD SWAP1 DUP2 MSTORE PUSH1 0x20 ADD PUSH1 0x0 KECCAK256 PUSH1 0x0 SWAP1 SLOAD SWAP1 PUSH2 0x100 EXP SWAP1 DIV PUSH1 0xFF AND SWAP1 POP SWAP2 SWAP1 POP JUMP JUMPDEST PUSH2 0x33E9 PUSH2 0x35FA JUMP JUMPDEST PUSH2 0x345B JUMPI PUSH1 0x40 MLOAD PUSH32 0x8C379A000000000000000000000000000000000000000000000000000000000 DUP2 MSTORE PUSH1 0x4 ADD DUP1 DUP1 PUSH1 0x20 ADD DUP3 DUP2 SUB DUP3 MSTORE PUSH1 0x1D DUP2 MSTORE PUSH1 0x20 ADD DUP1 PUSH32 0x43616E6E6F742073657420617574686F72697A65642073656E64657273000000 DUP2 MSTORE POP PUSH1 0x20 ADD SWAP2 POP POP PUSH1 0x40 MLOAD DUP1 SWAP2 SUB SWAP1 REVERT JUMPDEST PUSH32 0x1BB185903E2CB2F1B303523128B60E314DEA81DF4F8D9B7351CADD344F6E7727 DUP5 DUP5 DUP5 DUP5 CALLER PUSH1 0x40 MLOAD DUP1 DUP1 PUSH1 0x20 ADD DUP1 PUSH1 0x20 ADD DUP5 PUSH20 0xFFFFFFFFFFFFFFFFFFFFFFFFFFFFFFFFFFFFFFFF AND DUP2 MSTORE PUSH1 0x20 ADD DUP4 DUP2 SUB DUP4 MSTORE DUP9 DUP9 DUP3 DUP2 DUP2 MSTORE PUSH1 0x20 ADD SWAP3 POP PUSH1 0x20 MUL DUP1 DUP3 DUP5 CALLDATACOPY PUSH1 0x0 DUP2 DUP5 ADD MSTORE PUSH1 0x1F NOT PUSH1 0x1F DUP3 ADD AND SWAP1 POP DUP1 DUP4 ADD SWAP3 POP POP POP DUP4 DUP2 SUB DUP3 MSTORE DUP7 DUP7 DUP3 DUP2 DUP2 MSTORE PUSH1 0x20 ADD SWAP3 POP PUSH1 0x20 MUL DUP1 DUP3 DUP5 CALLDATACOPY PUSH1 0x0 DUP2 DUP5 ADD MSTORE PUSH1 0x1F NOT PUSH1 0x1F DUP3 ADD AND SWAP1 POP DUP1 DUP4 ADD SWAP3 POP POP POP SWAP8 POP POP POP POP POP POP POP POP PUSH1 0x40 MLOAD DUP1 SWAP2 SUB SWAP1 LOG1 PUSH1 0x0 JUMPDEST DUP5 DUP5 SWAP1 POP DUP2 LT ISZERO PUSH2 0x35F3 JUMPI DUP5 DUP5 DUP3 DUP2 DUP2 LT PUSH2 0x3530 JUMPI INVALID JUMPDEST SWAP1 POP PUSH1 0x20 MUL ADD CALLDATALOAD PUSH20 0xFFFFFFFFFFFFFFFFFFFFFFFFFFFFFFFFFFFFFFFF AND PUSH20 0xFFFFFFFFFFFFFFFFFFFFFFFFFFFFFFFFFFFFFFFF AND PUSH4 0xEE56997B DUP5 DUP5 PUSH1 0x40 MLOAD DUP4 PUSH4 0xFFFFFFFF AND PUSH1 0xE0 SHL DUP2 MSTORE PUSH1 0x4 ADD DUP1 DUP1 PUSH1 0x20 ADD DUP3 DUP2 SUB DUP3 MSTORE DUP5 DUP5 DUP3 DUP2 DUP2 MSTORE PUSH1 0x20 ADD SWAP3 POP PUSH1 0x20 MUL DUP1 DUP3 DUP5 CALLDATACOPY PUSH1 0x0 DUP2 DUP5 ADD MSTORE PUSH1 0x1F NOT PUSH1 0x1F DUP3 ADD AND SWAP1 POP DUP1 DUP4 ADD SWAP3 POP POP POP SWAP4 POP POP POP POP PUSH1 0x0 PUSH1 0x40 MLOAD DUP1 DUP4 SUB DUP2 PUSH1 0x0 DUP8 DUP1 EXTCODESIZE ISZERO DUP1 ISZERO PUSH2 0x35CE JUMPI PUSH1 0x0 DUP1 REVERT JUMPDEST POP GAS CALL ISZERO DUP1 ISZERO PUSH2 0x35E2 JUMPI RETURNDATASIZE PUSH1 0x0 DUP1 RETURNDATACOPY RETURNDATASIZE PUSH1 0x0 REVERT JUMPDEST POP POP POP POP DUP1 DUP1 PUSH1 0x1 ADD SWAP2 POP POP PUSH2 0x3519 JUMP JUMPDEST POP POP POP POP POP JUMP JUMPDEST PUSH1 0x0 PUSH2 0x3605 CALLER PUSH2 0x338C JUMP JUMPDEST DUP1 PUSH2 0x3642 JUMPI POP CALLER PUSH20 0xFFFFFFFFFFFFFFFFFFFFFFFFFFFFFFFFFFFFFFFF AND PUSH2 0x362A PUSH2 0x2808 JUMP JUMPDEST PUSH20 0xFFFFFFFFFFFFFFFFFFFFFFFFFFFFFFFFFFFFFFFF AND EQ JUMPDEST SWAP1 POP SWAP1 JUMP JUMPDEST PUSH1 0x2 PUSH1 0x0 SWAP1 SLOAD SWAP1 PUSH2 0x100 EXP SWAP1 DIV PUSH20 0xFFFFFFFFFFFFFFFFFFFFFFFFFFFFFFFFFFFFFFFF AND PUSH20 0xFFFFFFFFFFFFFFFFFFFFFFFFFFFFFFFFFFFFFFFF AND CALLER PUSH20 0xFFFFFFFFFFFFFFFFFFFFFFFFFFFFFFFFFFFFFFFF AND EQ PUSH2 0x370A JUMPI PUSH1 0x40 MLOAD PUSH32 0x8C379A000000000000000000000000000000000000000000000000000000000 DUP2 MSTORE PUSH1 0x4 ADD DUP1 DUP1 PUSH1 0x20 ADD DUP3 DUP2 SUB DUP3 MSTORE PUSH1 0x16 DUP2 MSTORE PUSH1 0x20 ADD DUP1 PUSH32 0x4F6E6C792063616C6C61626C65206279206F776E657200000000000000000000 DUP2 MSTORE POP PUSH1 0x20 ADD SWAP2 POP POP PUSH1 0x40 MLOAD DUP1 SWAP2 SUB SWAP1 REVERT JUMPDEST JUMP JUMPDEST PUSH1 0x0 DUP1 DUP3 EXTCODESIZE SWAP1 POP PUSH1 0x0 DUP2 GT SWAP2 POP POP SWAP2 SWAP1 POP JUMP JUMPDEST PUSH1 0x0 DUP1 DUP6 PUSH32 0x0 PUSH20 0xFFFFFFFFFFFFFFFFFFFFFFFFFFFFFFFFFFFFFFFF AND DUP2 PUSH20 0xFFFFFFFFFFFFFFFFFFFFFFFFFFFFFFFFFFFFFFFF AND EQ ISZERO PUSH2 0x37E5 JUMPI PUSH1 0x40 MLOAD PUSH32 0x8C379A000000000000000000000000000000000000000000000000000000000 DUP2 MSTORE PUSH1 0x4 ADD DUP1 DUP1 PUSH1 0x20 ADD DUP3 DUP2 SUB DUP3 MSTORE PUSH1 0x13 DUP2 MSTORE PUSH1 0x20 ADD DUP1 PUSH32 0x43616E6E6F742063616C6C20746F204C494E4B00000000000000000000000000 DUP2 MSTORE POP PUSH1 0x20 ADD SWAP2 POP POP PUSH1 0x40 MLOAD DUP1 SWAP2 SUB SWAP1 REVERT JUMPDEST DUP9 DUP6 PUSH1 0x40 MLOAD PUSH1 0x20 ADD DUP1 DUP4 PUSH20 0xFFFFFFFFFFFFFFFFFFFFFFFFFFFFFFFFFFFFFFFF AND PUSH1 0x60 SHL DUP2 MSTORE PUSH1 0x14 ADD DUP3 DUP2 MSTORE PUSH1 0x20 ADD SWAP3 POP POP POP PUSH1 0x40 MLOAD PUSH1 0x20 DUP2 DUP4 SUB SUB DUP2 MSTORE SWAP1 PUSH1 0x40 MSTORE DUP1 MLOAD SWAP1 PUSH1 0x20 ADD KECCAK256 SWAP3 POP PUSH1 0x0 PUSH1 0x8 SHL PUSH1 0x4 PUSH1 0x0 DUP6 DUP2 MSTORE PUSH1 0x20 ADD SWAP1 DUP2 MSTORE PUSH1 0x20 ADD PUSH1 0x0 KECCAK256 PUSH1 0x0 ADD PUSH1 0x0 SWAP1 SLOAD SWAP1 PUSH2 0x100 EXP SWAP1 DIV PUSH1 0x8 SHL PUSH1 0xFF NOT AND EQ PUSH2 0x38CF JUMPI PUSH1 0x40 MLOAD PUSH32 0x8C379A000000000000000000000000000000000000000000000000000000000 DUP2 MSTORE PUSH1 0x4 ADD DUP1 DUP1 PUSH1 0x20 ADD DUP3 DUP2 SUB DUP3 MSTORE PUSH1 0x14 DUP2 MSTORE PUSH1 0x20 ADD DUP1 PUSH32 0x4D75737420757365206120756E69717565204944000000000000000000000000 DUP2 MSTORE POP PUSH1 0x20 ADD SWAP2 POP POP PUSH1 0x40 MLOAD DUP1 SWAP2 SUB SWAP1 REVERT JUMPDEST PUSH2 0x38E4 PUSH2 0x12C TIMESTAMP PUSH2 0x40FA SWAP1 SWAP2 SWAP1 PUSH4 0xFFFFFFFF AND JUMP JUMPDEST SWAP2 POP PUSH1 0x0 PUSH2 0x38F4 DUP10 DUP10 DUP10 DUP7 PUSH2 0x3D8A JUMP JUMPDEST SWAP1 POP PUSH1 0x40 MLOAD DUP1 PUSH1 0x40 ADD PUSH1 0x40 MSTORE DUP1 DUP3 PUSH1 0xFF NOT AND DUP2 MSTORE PUSH1 0x20 ADD PUSH2 0x3914 DUP8 PUSH2 0x4182 JUMP JUMPDEST PUSH1 0xFF AND DUP2 MSTORE POP PUSH1 0x4 PUSH1 0x0 DUP7 DUP2 MSTORE PUSH1 0x20 ADD SWAP1 DUP2 MSTORE PUSH1 0x20 ADD PUSH1 0x0 KECCAK256 PUSH1 0x0 DUP3 ADD MLOAD DUP2 PUSH1 0x0 ADD PUSH1 0x0 PUSH2 0x100 EXP DUP2 SLOAD DUP2 PUSH31 0xFFFFFFFFFFFFFFFFFFFFFFFFFFFFFFFFFFFFFFFFFFFFFFFFFFFFFFFFFFFFFF MUL NOT AND SWAP1 DUP4 PUSH1 0x8 SHR MUL OR SWAP1 SSTORE POP PUSH1 0x20 DUP3 ADD MLOAD DUP2 PUSH1 0x0 ADD PUSH1 0x1F PUSH2 0x100 EXP DUP2 SLOAD DUP2 PUSH1 0xFF MUL NOT AND SWAP1 DUP4 PUSH1 0xFF AND MUL OR SWAP1 SSTORE POP SWAP1 POP POP PUSH2 0x39A5 DUP10 PUSH1 0x6 SLOAD PUSH2 0x40FA SWAP1 SWAP2 SWAP1 PUSH4 0xFFFFFFFF AND JUMP JUMPDEST PUSH1 0x6 DUP2 SWAP1 SSTORE POP POP POP SWAP7 POP SWAP7 SWAP5 POP POP POP POP POP JUMP JUMPDEST PUSH2 0x39C1 CALLER PUSH2 0x338C JUMP JUMPDEST PUSH2 0x3A33 JUMPI PUSH1 0x40 MLOAD PUSH32 0x8C379A000000000000000000000000000000000000000000000000000000000 DUP2 MSTORE PUSH1 0x4 ADD DUP1 DUP1 PUSH1 0x20 ADD DUP3 DUP2 SUB DUP3 MSTORE PUSH1 0x15 DUP2 MSTORE PUSH1 0x20 ADD DUP1 PUSH32 0x4E6F7420617574686F72697A65642073656E6465720000000000000000000000 DUP2 MSTORE POP PUSH1 0x20 ADD SWAP2 POP POP PUSH1 0x40 MLOAD DUP1 SWAP2 SUB SWAP1 REVERT JUMPDEST JUMP JUMPDEST PUSH1 0x0 PUSH2 0x3A43 DUP7 DUP7 DUP7 DUP7 PUSH2 0x3D8A JUMP JUMPDEST SWAP1 POP DUP1 PUSH1 0xFF NOT AND PUSH1 0x4 PUSH1 0x0 DUP10 DUP2 MSTORE PUSH1 0x20 ADD SWAP1 DUP2 MSTORE PUSH1 0x20 ADD PUSH1 0x0 KECCAK256 PUSH1 0x0 ADD PUSH1 0x0 SWAP1 SLOAD SWAP1 PUSH2 0x100 EXP SWAP1 DIV PUSH1 0x8 SHL PUSH1 0xFF NOT AND EQ PUSH2 0x3AE5 JUMPI PUSH1 0x40 MLOAD PUSH32 0x8C379A000000000000000000000000000000000000000000000000000000000 DUP2 MSTORE PUSH1 0x4 ADD DUP1 DUP1 PUSH1 0x20 ADD DUP3 DUP2 SUB DUP3 MSTORE PUSH1 0x1E DUP2 MSTORE PUSH1 0x20 ADD DUP1 PUSH32 0x506172616D7320646F206E6F74206D6174636820726571756573742049440000 DUP2 MSTORE POP PUSH1 0x20 ADD SWAP2 POP POP PUSH1 0x40 MLOAD DUP1 SWAP2 SUB SWAP1 REVERT JUMPDEST PUSH2 0x3AEE DUP3 PUSH2 0x4182 JUMP JUMPDEST PUSH1 0xFF AND PUSH1 0x4 PUSH1 0x0 DUP10 DUP2 MSTORE PUSH1 0x20 ADD SWAP1 DUP2 MSTORE PUSH1 0x20 ADD PUSH1 0x0 KECCAK256 PUSH1 0x0 ADD PUSH1 0x1F SWAP1 SLOAD SWAP1 PUSH2 0x100 EXP SWAP1 DIV PUSH1 0xFF AND PUSH1 0xFF AND GT ISZERO PUSH2 0x3B8C JUMPI PUSH1 0x40 MLOAD PUSH32 0x8C379A000000000000000000000000000000000000000000000000000000000 DUP2 MSTORE PUSH1 0x4 ADD DUP1 DUP1 PUSH1 0x20 ADD DUP3 DUP2 SUB DUP3 MSTORE PUSH1 0x18 DUP2 MSTORE PUSH1 0x20 ADD DUP1 PUSH32 0x446174612076657273696F6E73206D757374206D617463680000000000000000 DUP2 MSTORE POP PUSH1 0x20 ADD SWAP2 POP POP PUSH1 0x40 MLOAD DUP1 SWAP2 SUB SWAP1 REVERT JUMPDEST PUSH2 0x3BA1 DUP7 PUSH1 0x6 SLOAD PUSH2 0x3D01 SWAP1 SWAP2 SWAP1 PUSH4 0xFFFFFFFF AND JUMP JUMPDEST PUSH1 0x6 DUP2 SWAP1 SSTORE POP PUSH1 0x4 PUSH1 0x0 DUP9 DUP2 MSTORE PUSH1 0x20 ADD SWAP1 DUP2 MSTORE PUSH1 0x20 ADD PUSH1 0x0 KECCAK256 PUSH1 0x0 DUP1 DUP3 ADD PUSH1 0x0 PUSH2 0x100 EXP DUP2 SLOAD SWAP1 PUSH31 0xFFFFFFFFFFFFFFFFFFFFFFFFFFFFFFFFFFFFFFFFFFFFFFFFFFFFFFFFFFFFFF MUL NOT AND SWAP1 SSTORE PUSH1 0x0 DUP3 ADD PUSH1 0x1F PUSH2 0x100 EXP DUP2 SLOAD SWAP1 PUSH1 0xFF MUL NOT AND SWAP1 SSTORE POP POP POP POP POP POP POP POP POP JUMP JUMPDEST PUSH1 0x0 DUP1 PUSH2 0x3C25 PUSH1 0x1 PUSH1 0x6 SLOAD PUSH2 0x3D01 SWAP1 SWAP2 SWAP1 PUSH4 0xFFFFFFFF AND JUMP JUMPDEST SWAP1 POP PUSH2 0x3CFB DUP2 PUSH32 0x0 PUSH20 0xFFFFFFFFFFFFFFFFFFFFFFFFFFFFFFFFFFFFFFFF AND PUSH4 0x70A08231 ADDRESS PUSH1 0x40 MLOAD DUP3 PUSH4 0xFFFFFFFF AND PUSH1 0xE0 SHL DUP2 MSTORE PUSH1 0x4 ADD DUP1 DUP3 PUSH20 0xFFFFFFFFFFFFFFFFFFFFFFFFFFFFFFFFFFFFFFFF AND DUP2 MSTORE PUSH1 0x20 ADD SWAP2 POP POP PUSH1 0x20 PUSH1 0x40 MLOAD DUP1 DUP4 SUB DUP2 DUP7 DUP1 EXTCODESIZE ISZERO DUP1 ISZERO PUSH2 0x3CB2 JUMPI PUSH1 0x0 DUP1 REVERT JUMPDEST POP GAS STATICCALL ISZERO DUP1 ISZERO PUSH2 0x3CC6 JUMPI RETURNDATASIZE PUSH1 0x0 DUP1 RETURNDATACOPY RETURNDATASIZE PUSH1 0x0 REVERT JUMPDEST POP POP POP POP PUSH1 0x40 MLOAD RETURNDATASIZE PUSH1 0x20 DUP2 LT ISZERO PUSH2 0x3CDC JUMPI PUSH1 0x0 DUP1 REVERT JUMPDEST DUP2 ADD SWAP1 DUP1 DUP1 MLOAD SWAP1 PUSH1 0x20 ADD SWAP1 SWAP3 SWAP2 SWAP1 POP POP POP PUSH2 0x3D01 SWAP1 SWAP2 SWAP1 PUSH4 0xFFFFFFFF AND JUMP JUMPDEST SWAP2 POP POP SWAP1 JUMP JUMPDEST PUSH1 0x0 DUP3 DUP3 GT ISZERO PUSH2 0x3D79 JUMPI PUSH1 0x40 MLOAD PUSH32 0x8C379A000000000000000000000000000000000000000000000000000000000 DUP2 MSTORE PUSH1 0x4 ADD DUP1 DUP1 PUSH1 0x20 ADD DUP3 DUP2 SUB DUP3 MSTORE PUSH1 0x1E DUP2 MSTORE PUSH1 0x20 ADD DUP1 PUSH32 0x536166654D6174683A207375627472616374696F6E206F766572666C6F770000 DUP2 MSTORE POP PUSH1 0x20 ADD SWAP2 POP POP PUSH1 0x40 MLOAD DUP1 SWAP2 SUB SWAP1 REVERT JUMPDEST PUSH1 0x0 DUP3 DUP5 SUB SWAP1 POP DUP1 SWAP2 POP POP SWAP3 SWAP2 POP POP JUMP JUMPDEST PUSH1 0x0 DUP5 DUP5 DUP5 DUP5 PUSH1 0x40 MLOAD PUSH1 0x20 ADD DUP1 DUP6 DUP2 MSTORE PUSH1 0x20 ADD DUP5 PUSH20 0xFFFFFFFFFFFFFFFFFFFFFFFFFFFFFFFFFFFFFFFF AND PUSH1 0x60 SHL DUP2 MSTORE PUSH1 0x14 ADD DUP4 PUSH28 0xFFFFFFFFFFFFFFFFFFFFFFFFFFFFFFFFFFFFFFFFFFFFFFFFFFFFFFFF NOT AND DUP2 MSTORE PUSH1 0x4 ADD DUP3 DUP2 MSTORE PUSH1 0x20 ADD SWAP5 POP POP POP POP POP PUSH1 0x40 MLOAD PUSH1 0x20 DUP2 DUP4 SUB SUB DUP2 MSTORE SWAP1 PUSH1 0x40 MSTORE DUP1 MLOAD SWAP1 PUSH1 0x20 ADD KECCAK256 SWAP1 POP SWAP5 SWAP4 POP POP POP POP JUMP JUMPDEST PUSH1 0x2 PUSH1 0x20 MUL PUSH1 0x4 ADD DUP2 MLOAD LT ISZERO PUSH2 0x3E8B JUMPI PUSH1 0x40 MLOAD PUSH32 0x8C379A000000000000000000000000000000000000000000000000000000000 DUP2 MSTORE PUSH1 0x4 ADD DUP1 DUP1 PUSH1 0x20 ADD DUP3 DUP2 SUB DUP3 MSTORE PUSH1 0x16 DUP2 MSTORE PUSH1 0x20 ADD DUP1 PUSH32 0x496E76616C69642072657175657374206C656E67746800000000000000000000 DUP2 MSTORE POP PUSH1 0x20 ADD SWAP2 POP POP PUSH1 0x40 MLOAD DUP1 SWAP2 SUB SWAP1 REVERT JUMPDEST PUSH4 0x3C6D41B9 PUSH1 0xE0 SHL PUSH28 0xFFFFFFFFFFFFFFFFFFFFFFFFFFFFFFFFFFFFFFFFFFFFFFFFFFFFFFFF NOT AND DUP3 PUSH28 0xFFFFFFFFFFFFFFFFFFFFFFFFFFFFFFFFFFFFFFFFFFFFFFFFFFFFFFFF NOT AND EQ DUP1 PUSH2 0x3F22 JUMPI POP PUSH4 0x40429946 PUSH1 0xE0 SHL PUSH28 0xFFFFFFFFFFFFFFFFFFFFFFFFFFFFFFFFFFFFFFFFFFFFFFFFFFFFFFFF NOT AND DUP3 PUSH28 0xFFFFFFFFFFFFFFFFFFFFFFFFFFFFFFFFFFFFFFFFFFFFFFFFFFFFFFFF NOT AND EQ JUMPDEST PUSH2 0x3F94 JUMPI PUSH1 0x40 MLOAD PUSH32 0x8C379A000000000000000000000000000000000000000000000000000000000 DUP2 MSTORE PUSH1 0x4 ADD DUP1 DUP1 PUSH1 0x20 ADD DUP3 DUP2 SUB DUP3 MSTORE PUSH1 0x1E DUP2 MSTORE PUSH1 0x20 ADD DUP1 PUSH32 0x4D757374207573652077686974656C69737465642066756E6374696F6E730000 DUP2 MSTORE POP PUSH1 0x20 ADD SWAP2 POP POP PUSH1 0x40 MLOAD DUP1 SWAP2 SUB SWAP1 REVERT JUMPDEST POP POP JUMP JUMPDEST CALLER PUSH20 0xFFFFFFFFFFFFFFFFFFFFFFFFFFFFFFFFFFFFFFFF AND DUP2 PUSH20 0xFFFFFFFFFFFFFFFFFFFFFFFFFFFFFFFFFFFFFFFF AND EQ ISZERO PUSH2 0x403A JUMPI PUSH1 0x40 MLOAD PUSH32 0x8C379A000000000000000000000000000000000000000000000000000000000 DUP2 MSTORE PUSH1 0x4 ADD DUP1 DUP1 PUSH1 0x20 ADD DUP3 DUP2 SUB DUP3 MSTORE PUSH1 0x17 DUP2 MSTORE PUSH1 0x20 ADD DUP1 PUSH32 0x43616E6E6F74207472616E7366657220746F2073656C66000000000000000000 DUP2 MSTORE POP PUSH1 0x20 ADD SWAP2 POP POP PUSH1 0x40 MLOAD DUP1 SWAP2 SUB SWAP1 REVERT JUMPDEST DUP1 PUSH1 0x3 PUSH1 0x0 PUSH2 0x100 EXP DUP2 SLOAD DUP2 PUSH20 0xFFFFFFFFFFFFFFFFFFFFFFFFFFFFFFFFFFFFFFFF MUL NOT AND SWAP1 DUP4 PUSH20 0xFFFFFFFFFFFFFFFFFFFFFFFFFFFFFFFFFFFFFFFF AND MUL OR SWAP1 SSTORE POP DUP1 PUSH20 0xFFFFFFFFFFFFFFFFFFFFFFFFFFFFFFFFFFFFFFFF AND PUSH1 0x2 PUSH1 0x0 SWAP1 SLOAD SWAP1 PUSH2 0x100 EXP SWAP1 DIV PUSH20 0xFFFFFFFFFFFFFFFFFFFFFFFFFFFFFFFFFFFFFFFF AND PUSH20 0xFFFFFFFFFFFFFFFFFFFFFFFFFFFFFFFFFFFFFFFF AND PUSH32 0xED8889F560326EB138920D842192F0EB3DD22B4F139C87A2C57538E05BAE1278 PUSH1 0x40 MLOAD PUSH1 0x40 MLOAD DUP1 SWAP2 SUB SWAP1 LOG3 POP JUMP JUMPDEST PUSH1 0x0 DUP1 DUP3 DUP5 ADD SWAP1 POP DUP4 DUP2 LT ISZERO PUSH2 0x4178 JUMPI PUSH1 0x40 MLOAD PUSH32 0x8C379A000000000000000000000000000000000000000000000000000000000 DUP2 MSTORE PUSH1 0x4 ADD DUP1 DUP1 PUSH1 0x20 ADD DUP3 DUP2 SUB DUP3 MSTORE PUSH1 0x1B DUP2 MSTORE PUSH1 0x20 ADD DUP1 PUSH32 0x536166654D6174683A206164646974696F6E206F766572666C6F770000000000 DUP2 MSTORE POP PUSH1 0x20 ADD SWAP2 POP POP PUSH1 0x40 MLOAD DUP1 SWAP2 SUB SWAP1 REVERT JUMPDEST DUP1 SWAP2 POP POP SWAP3 SWAP2 POP POP JUMP JUMPDEST PUSH1 0x0 PUSH2 0x100 DUP3 LT PUSH2 0x41FB JUMPI PUSH1 0x40 MLOAD PUSH32 0x8C379A000000000000000000000000000000000000000000000000000000000 DUP2 MSTORE PUSH1 0x4 ADD DUP1 DUP1 PUSH1 0x20 ADD DUP3 DUP2 SUB DUP3 MSTORE PUSH1 0x16 DUP2 MSTORE PUSH1 0x20 ADD DUP1 PUSH32 0x6E756D62657220746F6F2062696720746F206361737400000000000000000000 DUP2 MSTORE POP PUSH1 0x20 ADD SWAP2 POP POP PUSH1 0x40 MLOAD DUP1 SWAP2 SUB SWAP1 REVERT JUMPDEST DUP2 SWAP1 POP SWAP2 SWAP1 POP JUMP JUMPDEST DUP3 DUP1 SLOAD DUP3 DUP3 SSTORE SWAP1 PUSH1 0x0 MSTORE PUSH1 0x20 PUSH1 0x0 KECCAK256 SWAP1 DUP2 ADD SWAP3 DUP3 ISZERO PUSH2 0x4292 JUMPI SWAP2 PUSH1 0x20 MUL DUP3 ADD JUMPDEST DUP3 DUP2 GT ISZERO PUSH2 0x4291 JUMPI DUP3 CALLDATALOAD PUSH20 0xFFFFFFFFFFFFFFFFFFFFFFFFFFFFFFFFFFFFFFFF AND DUP3 PUSH1 0x0 PUSH2 0x100 EXP DUP2 SLOAD DUP2 PUSH20 0xFFFFFFFFFFFFFFFFFFFFFFFFFFFFFFFFFFFFFFFF MUL NOT AND SWAP1 DUP4 PUSH20 0xFFFFFFFFFFFFFFFFFFFFFFFFFFFFFFFFFFFFFFFF AND MUL OR SWAP1 SSTORE POP SWAP2 PUSH1 0x20 ADD SWAP2 SWAP1 PUSH1 0x1 ADD SWAP1 PUSH2 0x4223 JUMP JUMPDEST JUMPDEST POP SWAP1 POP PUSH2 0x429F SWAP2 SWAP1 PUSH2 0x42A3 JUMP JUMPDEST POP SWAP1 JUMP JUMPDEST JUMPDEST DUP1 DUP3 GT ISZERO PUSH2 0x42BC JUMPI PUSH1 0x0 DUP2 PUSH1 0x0 SWAP1 SSTORE POP PUSH1 0x1 ADD PUSH2 0x42A4 JUMP JUMPDEST POP SWAP1 JUMP INVALID COINBASE PUSH14 0x6F756E7420726571756573746564 KECCAK256 PUSH10 0x73206772656174657220 PUSH21 0x68616E20776974686472617761626C652062616C61 PUSH15 0x6365A26469706673582212203D50EB MSTORE8 0xE7 CHAINID DUP15 0x4A PUSH17 0x7558DA9FCF25A320607D94F04EDD9A637F DUP14 0x4D MLOAD 0xBB 0x4F 0xE6 PUSH5 0x736F6C6343 STOP SMOD MOD STOP CALLER "
				},
				"gasEstimates": {
					"creation": {
						"codeDepositCost": "3439000",
						"executionCost": "infinite",
						"totalCost": "infinite"
					},
					"external": {
						"acceptAuthorizedReceivers(address[],address[])": "infinite",
						"acceptOwnableContracts(address[])": "infinite",
						"acceptOwnership()": "45229",
						"cancelOracleRequest(bytes32,uint256,bytes4,uint256)": "infinite",
						"cancelOracleRequestByRequester(uint256,uint256,bytes4,uint256)": "infinite",
						"distributeFunds(address[],uint256[])": "infinite",
						"fulfillOracleRequest(bytes32,uint256,address,bytes4,uint256,bytes32)": "infinite",
						"fulfillOracleRequest2(bytes32,uint256,address,bytes4,uint256,bytes)": "infinite",
						"getAuthorizedSenders()": "infinite",
						"getChainlinkToken()": "infinite",
						"getExpiryTime()": "339",
						"isAuthorizedSender(address)": "1326",
						"onTokenTransfer(address,uint256,bytes)": "infinite",
						"operatorRequest(address,uint256,bytes32,bytes4,uint256,uint256,bytes)": "infinite",
						"oracleRequest(address,uint256,bytes32,address,bytes4,uint256,uint256,bytes)": "infinite",
						"owner()": "1166",
						"ownerForward(address,bytes)": "infinite",
						"ownerTransferAndCall(address,uint256,bytes)": "infinite",
						"setAuthorizedSenders(address[])": "infinite",
						"setAuthorizedSendersOn(address[],address[])": "infinite",
						"transferOwnableContracts(address[],address)": "infinite",
						"transferOwnership(address)": "24486",
						"typeAndVersion()": "infinite",
						"withdraw(address,uint256)": "infinite",
						"withdrawable()": "infinite"
					},
					"internal": {
						"_buildParamsHash(uint256,address,bytes4,uint256)": "infinite",
						"_canSetAuthorizedSenders()": "1907",
						"_fundsAvailable()": "infinite",
						"_safeCastToUint8(uint256)": "infinite",
						"_validateTokenTransferAction(bytes4,bytes memory)": "infinite",
						"_verifyAndProcessOracleRequest(address,uint256,address,bytes4,uint256,uint256)": "infinite",
						"_verifyOracleRequestAndProcessPayment(bytes32,uint256,address,bytes4,uint256,uint256)": "infinite"
					}
				},
				"methodIdentifiers": {
					"acceptAuthorizedReceivers(address[],address[])": "5ffa6288",
					"acceptOwnableContracts(address[])": "01994b99",
					"acceptOwnership()": "79ba5097",
					"cancelOracleRequest(bytes32,uint256,bytes4,uint256)": "6ee4d553",
					"cancelOracleRequestByRequester(uint256,uint256,bytes4,uint256)": "eb007d99",
					"distributeFunds(address[],uint256[])": "6bd59ec0",
					"fulfillOracleRequest(bytes32,uint256,address,bytes4,uint256,bytes32)": "4ab0d190",
					"fulfillOracleRequest2(bytes32,uint256,address,bytes4,uint256,bytes)": "6ae0bc76",
					"getAuthorizedSenders()": "2408afaa",
					"getChainlinkToken()": "165d35e1",
					"getExpiryTime()": "25cb5bc0",
					"isAuthorizedSender(address)": "fa00763a",
					"onTokenTransfer(address,uint256,bytes)": "a4c0ed36",
					"operatorRequest(address,uint256,bytes32,bytes4,uint256,uint256,bytes)": "3c6d41b9",
					"oracleRequest(address,uint256,bytes32,address,bytes4,uint256,uint256,bytes)": "40429946",
					"owner()": "8da5cb5b",
					"ownerForward(address,bytes)": "033f49f7",
					"ownerTransferAndCall(address,uint256,bytes)": "902fc370",
					"setAuthorizedSenders(address[])": "ee56997b",
					"setAuthorizedSendersOn(address[],address[])": "fc4a03ed",
					"transferOwnableContracts(address[],address)": "3ec5bc14",
					"transferOwnership(address)": "f2fde38b",
					"typeAndVersion()": "181f5a77",
					"withdraw(address,uint256)": "f3fef3a3",
					"withdrawable()": "50188301"
				}
			},
			"storageLayout": {
				"storage": [
					{
						"astId": 8,
						"contract": ".deps/npm/@chainlink/contracts/src/v0.7/Operator.sol:Operator",
						"label": "s_authorizedSenders",
						"offset": 0,
						"slot": "0",
						"type": "t_mapping(t_address,t_bool)"
					},
					{
						"astId": 11,
						"contract": ".deps/npm/@chainlink/contracts/src/v0.7/Operator.sol:Operator",
						"label": "s_authorizedSenderList",
						"offset": 0,
						"slot": "1",
						"type": "t_array(t_address)dyn_storage"
					},
					{
						"astId": 196,
						"contract": ".deps/npm/@chainlink/contracts/src/v0.7/Operator.sol:Operator",
						"label": "s_owner",
						"offset": 0,
						"slot": "2",
						"type": "t_address"
					},
					{
						"astId": 198,
						"contract": ".deps/npm/@chainlink/contracts/src/v0.7/Operator.sol:Operator",
						"label": "s_pendingOwner",
						"offset": 0,
						"slot": "3",
						"type": "t_address"
					},
					{
						"astId": 503,
						"contract": ".deps/npm/@chainlink/contracts/src/v0.7/Operator.sol:Operator",
						"label": "s_commitments",
						"offset": 0,
						"slot": "4",
						"type": "t_mapping(t_bytes32,t_struct(Commitment)461_storage)"
					},
					{
						"astId": 507,
						"contract": ".deps/npm/@chainlink/contracts/src/v0.7/Operator.sol:Operator",
						"label": "s_owned",
						"offset": 0,
						"slot": "5",
						"type": "t_mapping(t_address,t_bool)"
					},
					{
						"astId": 510,
						"contract": ".deps/npm/@chainlink/contracts/src/v0.7/Operator.sol:Operator",
						"label": "s_tokensInEscrow",
						"offset": 0,
						"slot": "6",
						"type": "t_uint256"
					}
				],
				"types": {
					"t_address": {
						"encoding": "inplace",
						"label": "address",
						"numberOfBytes": "20"
					},
					"t_array(t_address)dyn_storage": {
						"base": "t_address",
						"encoding": "dynamic_array",
						"label": "address[]",
						"numberOfBytes": "32"
					},
					"t_bool": {
						"encoding": "inplace",
						"label": "bool",
						"numberOfBytes": "1"
					},
					"t_bytes31": {
						"encoding": "inplace",
						"label": "bytes31",
						"numberOfBytes": "31"
					},
					"t_bytes32": {
						"encoding": "inplace",
						"label": "bytes32",
						"numberOfBytes": "32"
					},
					"t_mapping(t_address,t_bool)": {
						"encoding": "mapping",
						"key": "t_address",
						"label": "mapping(address => bool)",
						"numberOfBytes": "32",
						"value": "t_bool"
					},
					"t_mapping(t_bytes32,t_struct(Commitment)461_storage)": {
						"encoding": "mapping",
						"key": "t_bytes32",
						"label": "mapping(bytes32 => struct Operator.Commitment)",
						"numberOfBytes": "32",
						"value": "t_struct(Commitment)461_storage"
					},
					"t_struct(Commitment)461_storage": {
						"encoding": "inplace",
						"label": "struct Operator.Commitment",
						"members": [
							{
								"astId": 458,
								"contract": ".deps/npm/@chainlink/contracts/src/v0.7/Operator.sol:Operator",
								"label": "paramsHash",
								"offset": 0,
								"slot": "0",
								"type": "t_bytes31"
							},
							{
								"astId": 460,
								"contract": ".deps/npm/@chainlink/contracts/src/v0.7/Operator.sol:Operator",
								"label": "dataVersion",
								"offset": 31,
								"slot": "0",
								"type": "t_uint8"
							}
						],
						"numberOfBytes": "32"
					},
					"t_uint256": {
						"encoding": "inplace",
						"label": "uint256",
						"numberOfBytes": "32"
					},
					"t_uint8": {
						"encoding": "inplace",
						"label": "uint8",
						"numberOfBytes": "1"
					}
				}
			},
			"userdoc": {
				"kind": "user",
				"methods": {
					"acceptAuthorizedReceivers(address[],address[])": {
						"notice": "Accepts ownership of ownable contracts and then immediately sets the authorized sender list on each of the newly owned contracts. This is primarily intended for Authorized Forwarders but could possibly be extended to work with future contracts."
					},
					"acceptOwnableContracts(address[])": {
						"notice": "Accept the ownership of an ownable contract. This is primarily intended for Authorized Forwarders but could possibly be extended to work with future contracts."
					},
					"acceptOwnership()": {
						"notice": "Allows an ownership transfer to be completed by the recipient."
					},
					"cancelOracleRequest(bytes32,uint256,bytes4,uint256)": {
						"notice": "Allows recipient to cancel requests sent to this oracle contract. Will transfer the LINK sent for the request back to the recipient address."
					},
					"cancelOracleRequestByRequester(uint256,uint256,bytes4,uint256)": {
						"notice": "Allows requester to cancel requests sent to this oracle contract. Will transfer the LINK sent for the request back to the recipient address."
					},
					"constructor": {
						"notice": "Deploy with the address of the LINK token"
					},
					"distributeFunds(address[],uint256[])": {
						"notice": "Distribute funds to multiple addresses using ETH send to this payable function."
					},
					"fulfillOracleRequest(bytes32,uint256,address,bytes4,uint256,bytes32)": {
						"notice": "Called by the Chainlink node to fulfill requests"
					},
					"fulfillOracleRequest2(bytes32,uint256,address,bytes4,uint256,bytes)": {
						"notice": "Called by the Chainlink node to fulfill requests with multi-word support"
					},
					"getAuthorizedSenders()": {
						"notice": "Retrieve a list of authorized senders"
					},
					"getChainlinkToken()": {
						"notice": "Returns the address of the LINK token"
					},
					"isAuthorizedSender(address)": {
						"notice": "Use this to check if a node is authorized for fulfilling requests"
					},
					"onTokenTransfer(address,uint256,bytes)": {
						"notice": "Called when LINK is sent to the contract via `transferAndCall`"
					},
					"operatorRequest(address,uint256,bytes32,bytes4,uint256,uint256,bytes)": {
						"notice": "Creates the Chainlink request"
					},
					"oracleRequest(address,uint256,bytes32,address,bytes4,uint256,uint256,bytes)": {
						"notice": "Creates the Chainlink request. This is a backwards compatible API with the Oracle.sol contract, but the behavior changes because callbackAddress is assumed to be the same as the request sender."
					},
					"owner()": {
						"notice": "Get the current owner"
					},
					"ownerForward(address,bytes)": {
						"notice": "Forward a call to another contract"
					},
					"ownerTransferAndCall(address,uint256,bytes)": {
						"notice": "Interact with other LinkTokenReceiver contracts by calling transferAndCall"
					},
					"setAuthorizedSenders(address[])": {
						"notice": "Sets the fulfillment permission for a given node. Use `true` to allow, `false` to disallow."
					},
					"setAuthorizedSendersOn(address[],address[])": {
						"notice": "Sets the fulfillment permission for"
					},
					"transferOwnableContracts(address[],address)": {
						"notice": "Transfer the ownership of ownable contracts. This is primarily intended for Authorized Forwarders but could possibly be extended to work with future contracts."
					},
					"transferOwnership(address)": {
						"notice": "Allows an owner to begin transferring ownership to a new address, pending."
					},
					"typeAndVersion()": {
						"notice": "The type and version of this contract"
					},
					"withdraw(address,uint256)": {
						"notice": "Allows the node operator to withdraw earned LINK to a given address"
					},
					"withdrawable()": {
						"notice": "Displays the amount of LINK that is available for the node operator to withdraw"
					}
				},
				"notice": "Node operators can deploy this contract to fulfill requests sent to them",
				"version": 1
			}
		}
	}
}