{
	"contracts/EarthquakeOracle.sol": {
		"EarthquakeOracle": {
			"abi": [
				{
					"inputs": [
						{
							"internalType": "address",
							"name": "_oracle",
							"type": "address"
						},
						{
							"internalType": "address",
							"name": "_link",
							"type": "address"
						}
					],
					"stateMutability": "nonpayable",
					"type": "constructor"
				},
				{
					"inputs": [
						{
							"internalType": "address",
							"name": "owner",
							"type": "address"
						}
					],
					"name": "OwnableInvalidOwner",
					"type": "error"
				},
				{
					"inputs": [
						{
							"internalType": "address",
							"name": "account",
							"type": "address"
						}
					],
					"name": "OwnableUnauthorizedAccount",
					"type": "error"
				},
				{
					"anonymous": false,
					"inputs": [
						{
							"indexed": true,
							"internalType": "bytes32",
							"name": "id",
							"type": "bytes32"
						}
					],
					"name": "ChainlinkCancelled",
					"type": "event"
				},
				{
					"anonymous": false,
					"inputs": [
						{
							"indexed": true,
							"internalType": "bytes32",
							"name": "id",
							"type": "bytes32"
						}
					],
					"name": "ChainlinkFulfilled",
					"type": "event"
				},
				{
					"anonymous": false,
					"inputs": [
						{
							"indexed": true,
							"internalType": "bytes32",
							"name": "id",
							"type": "bytes32"
						}
					],
					"name": "ChainlinkRequested",
					"type": "event"
				},
				{
					"anonymous": false,
					"inputs": [
						{
							"indexed": true,
							"internalType": "address",
							"name": "previousOwner",
							"type": "address"
						},
						{
							"indexed": true,
							"internalType": "address",
							"name": "newOwner",
							"type": "address"
						}
					],
					"name": "OwnershipTransferred",
					"type": "event"
				},
				{
					"inputs": [
						{
							"internalType": "uint256",
							"name": "",
							"type": "uint256"
						}
					],
					"name": "earthquakeInfo",
					"outputs": [
						{
							"internalType": "uint256",
							"name": "prefCode",
							"type": "uint256"
						},
						{
							"internalType": "uint256",
							"name": "maxScale",
							"type": "uint256"
						},
						{
							"internalType": "uint256",
							"name": "quakeScore",
							"type": "uint256"
						}
					],
					"stateMutability": "view",
					"type": "function"
				},
				{
					"inputs": [
						{
							"internalType": "bytes32",
							"name": "_requestId",
							"type": "bytes32"
						},
						{
							"internalType": "bytes",
							"name": "_data",
							"type": "bytes"
						}
					],
					"name": "fulfill",
					"outputs": [],
					"stateMutability": "nonpayable",
					"type": "function"
				},
				{
					"inputs": [],
					"name": "owner",
					"outputs": [
						{
							"internalType": "address",
							"name": "",
							"type": "address"
						}
					],
					"stateMutability": "view",
					"type": "function"
				},
				{
					"inputs": [],
					"name": "renounceOwnership",
					"outputs": [],
					"stateMutability": "nonpayable",
					"type": "function"
				},
				{
					"inputs": [],
					"name": "requestEarthquakeData",
					"outputs": [],
					"stateMutability": "nonpayable",
					"type": "function"
				},
				{
					"inputs": [
						{
							"internalType": "address",
							"name": "newOwner",
							"type": "address"
						}
					],
					"name": "transferOwnership",
					"outputs": [],
					"stateMutability": "nonpayable",
					"type": "function"
				}
			],
			"devdoc": {
				"errors": {
					"OwnableInvalidOwner(address)": [
						{
							"details": "The owner is not a valid owner account. (eg. `address(0)`)"
						}
					],
					"OwnableUnauthorizedAccount(address)": [
						{
							"details": "The caller account is not authorized to perform an operation."
						}
					]
				},
				"kind": "dev",
				"methods": {
					"owner()": {
						"details": "Returns the address of the current owner."
					},
					"renounceOwnership()": {
						"details": "Leaves the contract without owner. It will not be possible to call `onlyOwner` functions. Can only be called by the current owner. NOTE: Renouncing ownership will leave the contract without an owner, thereby disabling any functionality that is only available to the owner."
					},
					"transferOwnership(address)": {
						"details": "Transfers ownership of the contract to a new account (`newOwner`). Can only be called by the current owner."
					}
				},
				"version": 1
			},
			"evm": {
				"assembly": "    /* \"contracts/EarthquakeOracle.sol\":171:1566  contract EarthquakeOracle is ChainlinkClient, Ownable(msg.sender) {... */\n  mstore(0x40, 0x80)\n    /* \"@chainlink/contracts/src/v0.8/ChainlinkClient.sol\":1482:1483  1 */\n  0x01\n    /* \"@chainlink/contracts/src/v0.8/ChainlinkClient.sol\":1449:1483  uint256 private s_requestCount = 1 */\n  0x04\n  sstore\n    /* \"contracts/EarthquakeOracle.sol\":548:725  constructor(address _oracle, address _link) {... */\n  callvalue\n  dup1\n  iszero\n  tag_1\n  jumpi\n  revert(0x00, 0x00)\ntag_1:\n  pop\n  mload(0x40)\n  sub(codesize, bytecodeSize)\n  dup1\n  bytecodeSize\n  dup4\n  codecopy\n  dup2\n  dup2\n  add\n  0x40\n  mstore\n  dup2\n  add\n  swap1\n  tag_2\n  swap2\n  swap1\n  tag_3\n  jump\t// in\ntag_2:\n    /* \"contracts/EarthquakeOracle.sol\":225:235  msg.sender */\n  caller\n    /* \"@openzeppelin/contracts/access/Ownable.sol\":1297:1298  0 */\n  0x00\n    /* \"@openzeppelin/contracts/access/Ownable.sol\":1273:1299  initialOwner == address(0) */\n  0xffffffffffffffffffffffffffffffffffffffff\n  and\n    /* \"@openzeppelin/contracts/access/Ownable.sol\":1273:1285  initialOwner */\n  dup2\n    /* \"@openzeppelin/contracts/access/Ownable.sol\":1273:1299  initialOwner == address(0) */\n  0xffffffffffffffffffffffffffffffffffffffff\n  and\n  sub\n    /* \"@openzeppelin/contracts/access/Ownable.sol\":1269:1364  if (initialOwner == address(0)) {... */\n  tag_7\n  jumpi\n    /* \"@openzeppelin/contracts/access/Ownable.sol\":1350:1351  0 */\n  0x00\n    /* \"@openzeppelin/contracts/access/Ownable.sol\":1322:1353  OwnableInvalidOwner(address(0)) */\n  mload(0x40)\n  0x1e4fbdf700000000000000000000000000000000000000000000000000000000\n  dup2\n  mstore\n  0x04\n  add\n  tag_8\n  swap2\n  swap1\n  tag_9\n  jump\t// in\ntag_8:\n  mload(0x40)\n  dup1\n  swap2\n  sub\n  swap1\n  revert\n    /* \"@openzeppelin/contracts/access/Ownable.sol\":1269:1364  if (initialOwner == address(0)) {... */\ntag_7:\n    /* \"@openzeppelin/contracts/access/Ownable.sol\":1373:1405  _transferOwnership(initialOwner) */\n  tag_10\n    /* \"@openzeppelin/contracts/access/Ownable.sol\":1392:1404  initialOwner */\n  dup2\n    /* \"@openzeppelin/contracts/access/Ownable.sol\":1373:1391  _transferOwnership */\n  shl(0x20, tag_11)\n    /* \"@openzeppelin/contracts/access/Ownable.sol\":1373:1405  _transferOwnership(initialOwner) */\n  0x20\n  shr\n  jump\t// in\ntag_10:\n    /* \"@openzeppelin/contracts/access/Ownable.sol\":1225:1412  constructor(address initialOwner) {... */\n  pop\n    /* \"contracts/EarthquakeOracle.sol\":602:627  _setChainlinkToken(_link) */\n  tag_13\n    /* \"contracts/EarthquakeOracle.sol\":621:626  _link */\n  dup2\n    /* \"contracts/EarthquakeOracle.sol\":602:620  _setChainlinkToken */\n  shl(0x20, tag_14)\n    /* \"contracts/EarthquakeOracle.sol\":602:627  _setChainlinkToken(_link) */\n  0x20\n  shr\n  jump\t// in\ntag_13:\n    /* \"contracts/EarthquakeOracle.sol\":637:665  _setChainlinkOracle(_oracle) */\n  tag_15\n    /* \"contracts/EarthquakeOracle.sol\":657:664  _oracle */\n  dup3\n    /* \"contracts/EarthquakeOracle.sol\":637:656  _setChainlinkOracle */\n  shl(0x20, tag_16)\n    /* \"contracts/EarthquakeOracle.sol\":637:665  _setChainlinkOracle(_oracle) */\n  0x20\n  shr\n  jump\t// in\ntag_15:\n    /* \"contracts/EarthquakeOracle.sol\":675:686  jobId = \"1\" */\n  0x3100000000000000000000000000000000000000000000000000000000000000\n    /* \"contracts/EarthquakeOracle.sol\":675:680  jobId */\n  0x08\n    /* \"contracts/EarthquakeOracle.sol\":675:686  jobId = \"1\" */\n  dup2\n  swap1\n  sstore\n  pop\n    /* \"contracts/EarthquakeOracle.sol\":703:717  0.1 * 10 ** 18 */\n  0x016345785d8a0000\n    /* \"contracts/EarthquakeOracle.sol\":697:700  fee */\n  0x09\n    /* \"contracts/EarthquakeOracle.sol\":697:717  fee = 0.1 * 10 ** 18 */\n  dup2\n  swap1\n  sstore\n  pop\n    /* \"contracts/EarthquakeOracle.sol\":548:725  constructor(address _oracle, address _link) {... */\n  pop\n  pop\n    /* \"contracts/EarthquakeOracle.sol\":171:1566  contract EarthquakeOracle is ChainlinkClient, Ownable(msg.sender) {... */\n  jump(tag_17)\n    /* \"@openzeppelin/contracts/access/Ownable.sol\":2912:3099  function _transferOwnership(address newOwner) internal virtual {... */\ntag_11:\n    /* \"@openzeppelin/contracts/access/Ownable.sol\":2985:3001  address oldOwner */\n  0x00\n    /* \"@openzeppelin/contracts/access/Ownable.sol\":3004:3010  _owner */\n  0x06\n  0x00\n  swap1\n  sload\n  swap1\n  0x0100\n  exp\n  swap1\n  div\n  0xffffffffffffffffffffffffffffffffffffffff\n  and\n    /* \"@openzeppelin/contracts/access/Ownable.sol\":2985:3010  address oldOwner = _owner */\n  swap1\n  pop\n    /* \"@openzeppelin/contracts/access/Ownable.sol\":3029:3037  newOwner */\n  dup2\n    /* \"@openzeppelin/contracts/access/Ownable.sol\":3020:3026  _owner */\n  0x06\n  0x00\n    /* \"@openzeppelin/contracts/access/Ownable.sol\":3020:3037  _owner = newOwner */\n  0x0100\n  exp\n  dup2\n  sload\n  dup2\n  0xffffffffffffffffffffffffffffffffffffffff\n  mul\n  not\n  and\n  swap1\n  dup4\n  0xffffffffffffffffffffffffffffffffffffffff\n  and\n  mul\n  or\n  swap1\n  sstore\n  pop\n    /* \"@openzeppelin/contracts/access/Ownable.sol\":3083:3091  newOwner */\n  dup2\n    /* \"@openzeppelin/contracts/access/Ownable.sol\":3052:3092  OwnershipTransferred(oldOwner, newOwner) */\n  0xffffffffffffffffffffffffffffffffffffffff\n  and\n    /* \"@openzeppelin/contracts/access/Ownable.sol\":3073:3081  oldOwner */\n  dup2\n    /* \"@openzeppelin/contracts/access/Ownable.sol\":3052:3092  OwnershipTransferred(oldOwner, newOwner) */\n  0xffffffffffffffffffffffffffffffffffffffff\n  and\n  0x8be0079c531659141344cd1fd0a4f28419497f9722a3daafe3b4186f6b6457e0\n  mload(0x40)\n  mload(0x40)\n  dup1\n  swap2\n  sub\n  swap1\n  log3\n    /* \"@openzeppelin/contracts/access/Ownable.sol\":2975:3099  {... */\n  pop\n    /* \"@openzeppelin/contracts/access/Ownable.sol\":2912:3099  function _transferOwnership(address newOwner) internal virtual {... */\n  pop\n  jump\t// out\n    /* \"@chainlink/contracts/src/v0.8/ChainlinkClient.sol\":8849:8958  function _setChainlinkToken(address linkAddress) internal {... */\ntag_14:\n    /* \"@chainlink/contracts/src/v0.8/ChainlinkClient.sol\":8941:8952  linkAddress */\n  dup1\n    /* \"@chainlink/contracts/src/v0.8/ChainlinkClient.sol\":8913:8919  s_link */\n  0x02\n  0x00\n    /* \"@chainlink/contracts/src/v0.8/ChainlinkClient.sol\":8913:8953  s_link = LinkTokenInterface(linkAddress) */\n  0x0100\n  exp\n  dup2\n  sload\n  dup2\n  0xffffffffffffffffffffffffffffffffffffffff\n  mul\n  not\n  and\n  swap1\n  dup4\n  0xffffffffffffffffffffffffffffffffffffffff\n  and\n  mul\n  or\n  swap1\n  sstore\n  pop\n    /* \"@chainlink/contracts/src/v0.8/ChainlinkClient.sol\":8849:8958  function _setChainlinkToken(address linkAddress) internal {... */\n  pop\n  jump\t// out\n    /* \"@chainlink/contracts/src/v0.8/ChainlinkClient.sol\":8614:8729  function _setChainlinkOracle(address oracleAddress) internal {... */\ntag_16:\n    /* \"@chainlink/contracts/src/v0.8/ChainlinkClient.sol\":8710:8723  oracleAddress */\n  dup1\n    /* \"@chainlink/contracts/src/v0.8/ChainlinkClient.sol\":8681:8689  s_oracle */\n  0x03\n  0x00\n    /* \"@chainlink/contracts/src/v0.8/ChainlinkClient.sol\":8681:8724  s_oracle = OperatorInterface(oracleAddress) */\n  0x0100\n  exp\n  dup2\n  sload\n  dup2\n  0xffffffffffffffffffffffffffffffffffffffff\n  mul\n  not\n  and\n  swap1\n  dup4\n  0xffffffffffffffffffffffffffffffffffffffff\n  and\n  mul\n  or\n  swap1\n  sstore\n  pop\n    /* \"@chainlink/contracts/src/v0.8/ChainlinkClient.sol\":8614:8729  function _setChainlinkOracle(address oracleAddress) internal {... */\n  pop\n  jump\t// out\n    /* \"#utility.yul\":88:205   */\ntag_22:\n    /* \"#utility.yul\":197:198   */\n  0x00\n    /* \"#utility.yul\":194:195   */\n  0x00\n    /* \"#utility.yul\":187:199   */\n  revert\n    /* \"#utility.yul\":334:460   */\ntag_24:\n    /* \"#utility.yul\":371:378   */\n  0x00\n    /* \"#utility.yul\":411:453   */\n  0xffffffffffffffffffffffffffffffffffffffff\n    /* \"#utility.yul\":404:409   */\n  dup3\n    /* \"#utility.yul\":400:454   */\n  and\n    /* \"#utility.yul\":389:454   */\n  swap1\n  pop\n    /* \"#utility.yul\":334:460   */\n  swap2\n  swap1\n  pop\n  jump\t// out\n    /* \"#utility.yul\":466:562   */\ntag_25:\n    /* \"#utility.yul\":503:510   */\n  0x00\n    /* \"#utility.yul\":532:556   */\n  tag_35\n    /* \"#utility.yul\":550:555   */\n  dup3\n    /* \"#utility.yul\":532:556   */\n  tag_24\n  jump\t// in\ntag_35:\n    /* \"#utility.yul\":521:556   */\n  swap1\n  pop\n    /* \"#utility.yul\":466:562   */\n  swap2\n  swap1\n  pop\n  jump\t// out\n    /* \"#utility.yul\":568:690   */\ntag_26:\n    /* \"#utility.yul\":641:665   */\n  tag_37\n    /* \"#utility.yul\":659:664   */\n  dup2\n    /* \"#utility.yul\":641:665   */\n  tag_25\n  jump\t// in\ntag_37:\n    /* \"#utility.yul\":634:639   */\n  dup2\n    /* \"#utility.yul\":631:666   */\n  eq\n    /* \"#utility.yul\":621:684   */\n  tag_38\n  jumpi\n    /* \"#utility.yul\":680:681   */\n  0x00\n    /* \"#utility.yul\":677:678   */\n  0x00\n    /* \"#utility.yul\":670:682   */\n  revert\n    /* \"#utility.yul\":621:684   */\ntag_38:\n    /* \"#utility.yul\":568:690   */\n  pop\n  jump\t// out\n    /* \"#utility.yul\":696:839   */\ntag_27:\n    /* \"#utility.yul\":753:758   */\n  0x00\n    /* \"#utility.yul\":784:790   */\n  dup2\n    /* \"#utility.yul\":778:791   */\n  mload\n    /* \"#utility.yul\":769:791   */\n  swap1\n  pop\n    /* \"#utility.yul\":800:833   */\n  tag_40\n    /* \"#utility.yul\":827:832   */\n  dup2\n    /* \"#utility.yul\":800:833   */\n  tag_26\n  jump\t// in\ntag_40:\n    /* \"#utility.yul\":696:839   */\n  swap3\n  swap2\n  pop\n  pop\n  jump\t// out\n    /* \"#utility.yul\":845:1352   */\ntag_3:\n    /* \"#utility.yul\":924:930   */\n  0x00\n    /* \"#utility.yul\":932:938   */\n  0x00\n    /* \"#utility.yul\":981:983   */\n  0x40\n    /* \"#utility.yul\":969:978   */\n  dup4\n    /* \"#utility.yul\":960:967   */\n  dup6\n    /* \"#utility.yul\":956:979   */\n  sub\n    /* \"#utility.yul\":952:984   */\n  slt\n    /* \"#utility.yul\":949:1068   */\n  iszero\n  tag_42\n  jumpi\n    /* \"#utility.yul\":987:1066   */\n  tag_43\n  tag_22\n  jump\t// in\ntag_43:\n    /* \"#utility.yul\":949:1068   */\ntag_42:\n    /* \"#utility.yul\":1107:1108   */\n  0x00\n    /* \"#utility.yul\":1132:1196   */\n  tag_44\n    /* \"#utility.yul\":1188:1195   */\n  dup6\n    /* \"#utility.yul\":1179:1185   */\n  dup3\n    /* \"#utility.yul\":1168:1177   */\n  dup7\n    /* \"#utility.yul\":1164:1186   */\n  add\n    /* \"#utility.yul\":1132:1196   */\n  tag_27\n  jump\t// in\ntag_44:\n    /* \"#utility.yul\":1122:1196   */\n  swap3\n  pop\n    /* \"#utility.yul\":1078:1206   */\n  pop\n    /* \"#utility.yul\":1245:1247   */\n  0x20\n    /* \"#utility.yul\":1271:1335   */\n  tag_45\n    /* \"#utility.yul\":1327:1334   */\n  dup6\n    /* \"#utility.yul\":1318:1324   */\n  dup3\n    /* \"#utility.yul\":1307:1316   */\n  dup7\n    /* \"#utility.yul\":1303:1325   */\n  add\n    /* \"#utility.yul\":1271:1335   */\n  tag_27\n  jump\t// in\ntag_45:\n    /* \"#utility.yul\":1261:1335   */\n  swap2\n  pop\n    /* \"#utility.yul\":1216:1345   */\n  pop\n    /* \"#utility.yul\":845:1352   */\n  swap3\n  pop\n  swap3\n  swap1\n  pop\n  jump\t// out\n    /* \"#utility.yul\":1358:1476   */\ntag_28:\n    /* \"#utility.yul\":1445:1469   */\n  tag_47\n    /* \"#utility.yul\":1463:1468   */\n  dup2\n    /* \"#utility.yul\":1445:1469   */\n  tag_25\n  jump\t// in\ntag_47:\n    /* \"#utility.yul\":1440:1443   */\n  dup3\n    /* \"#utility.yul\":1433:1470   */\n  mstore\n    /* \"#utility.yul\":1358:1476   */\n  pop\n  pop\n  jump\t// out\n    /* \"#utility.yul\":1482:1704   */\ntag_9:\n    /* \"#utility.yul\":1575:1579   */\n  0x00\n    /* \"#utility.yul\":1613:1615   */\n  0x20\n    /* \"#utility.yul\":1602:1611   */\n  dup3\n    /* \"#utility.yul\":1598:1616   */\n  add\n    /* \"#utility.yul\":1590:1616   */\n  swap1\n  pop\n    /* \"#utility.yul\":1626:1697   */\n  tag_49\n    /* \"#utility.yul\":1694:1695   */\n  0x00\n    /* \"#utility.yul\":1683:1692   */\n  dup4\n    /* \"#utility.yul\":1679:1696   */\n  add\n    /* \"#utility.yul\":1670:1676   */\n  dup5\n    /* \"#utility.yul\":1626:1697   */\n  tag_28\n  jump\t// in\ntag_49:\n    /* \"#utility.yul\":1482:1704   */\n  swap3\n  swap2\n  pop\n  pop\n  jump\t// out\n    /* \"contracts/EarthquakeOracle.sol\":171:1566  contract EarthquakeOracle is ChainlinkClient, Ownable(msg.sender) {... */\ntag_17:\n  dataSize(sub_0)\n  dup1\n  dataOffset(sub_0)\n  0x00\n  codecopy\n  0x00\n  return\nstop\n\nsub_0: assembly {\n        /* \"contracts/EarthquakeOracle.sol\":171:1566  contract EarthquakeOracle is ChainlinkClient, Ownable(msg.sender) {... */\n      mstore(0x40, 0x80)\n      callvalue\n      dup1\n      iszero\n      tag_1\n      jumpi\n      revert(0x00, 0x00)\n    tag_1:\n      pop\n      jumpi(tag_2, lt(calldatasize, 0x04))\n      shr(0xe0, calldataload(0x00))\n      dup1\n      0x18f20329\n      eq\n      tag_3\n      jumpi\n      dup1\n      0x715018a6\n      eq\n      tag_4\n      jumpi\n      dup1\n      0x7c1de7e1\n      eq\n      tag_5\n      jumpi\n      dup1\n      0x81a72379\n      eq\n      tag_6\n      jumpi\n      dup1\n      0x8da5cb5b\n      eq\n      tag_7\n      jumpi\n      dup1\n      0xf2fde38b\n      eq\n      tag_8\n      jumpi\n    tag_2:\n      revert(0x00, 0x00)\n        /* \"contracts/EarthquakeOracle.sol\":731:1088  function requestEarthquakeData() public {... */\n    tag_3:\n      tag_9\n      tag_10\n      jump\t// in\n    tag_9:\n      stop\n        /* \"@openzeppelin/contracts/access/Ownable.sol\":2293:2394  function renounceOwnership() public virtual onlyOwner {... */\n    tag_4:\n      tag_11\n      tag_12\n      jump\t// in\n    tag_11:\n      stop\n        /* \"contracts/EarthquakeOracle.sol\":1094:1564  function fulfill(bytes32 _requestId, bytes memory _data) public recordChainlinkFulfillment(_requestId) {... */\n    tag_5:\n      tag_13\n      0x04\n      dup1\n      calldatasize\n      sub\n      dup2\n      add\n      swap1\n      tag_14\n      swap2\n      swap1\n      tag_15\n      jump\t// in\n    tag_14:\n      tag_16\n      jump\t// in\n    tag_13:\n      stop\n        /* \"contracts/EarthquakeOracle.sol\":485:541  mapping(uint256 => EarthquakeData) public earthquakeInfo */\n    tag_6:\n      tag_17\n      0x04\n      dup1\n      calldatasize\n      sub\n      dup2\n      add\n      swap1\n      tag_18\n      swap2\n      swap1\n      tag_19\n      jump\t// in\n    tag_18:\n      tag_20\n      jump\t// in\n    tag_17:\n      mload(0x40)\n      tag_21\n      swap4\n      swap3\n      swap2\n      swap1\n      tag_22\n      jump\t// in\n    tag_21:\n      mload(0x40)\n      dup1\n      swap2\n      sub\n      swap1\n      return\n        /* \"@openzeppelin/contracts/access/Ownable.sol\":1638:1723  function owner() public view virtual returns (address) {... */\n    tag_7:\n      tag_23\n      tag_24\n      jump\t// in\n    tag_23:\n      mload(0x40)\n      tag_25\n      swap2\n      swap1\n      tag_26\n      jump\t// in\n    tag_25:\n      mload(0x40)\n      dup1\n      swap2\n      sub\n      swap1\n      return\n        /* \"@openzeppelin/contracts/access/Ownable.sol\":2543:2758  function transferOwnership(address newOwner) public virtual onlyOwner {... */\n    tag_8:\n      tag_27\n      0x04\n      dup1\n      calldatasize\n      sub\n      dup2\n      add\n      swap1\n      tag_28\n      swap2\n      swap1\n      tag_29\n      jump\t// in\n    tag_28:\n      tag_30\n      jump\t// in\n    tag_27:\n      stop\n        /* \"contracts/EarthquakeOracle.sol\":731:1088  function requestEarthquakeData() public {... */\n    tag_10:\n        /* \"contracts/EarthquakeOracle.sol\":781:813  Chainlink.Request memory request */\n      0x00\n        /* \"contracts/EarthquakeOracle.sol\":816:929  _buildChainlinkRequest(... */\n      tag_32\n        /* \"contracts/EarthquakeOracle.sol\":852:857  jobId */\n      sload(0x08)\n        /* \"contracts/EarthquakeOracle.sol\":879:883  this */\n      address\n        /* \"contracts/EarthquakeOracle.sol\":898:919  this.fulfill.selector */\n      shl(0xe0, 0x7c1de7e1)\n        /* \"contracts/EarthquakeOracle.sol\":816:838  _buildChainlinkRequest */\n      tag_33\n        /* \"contracts/EarthquakeOracle.sol\":816:929  _buildChainlinkRequest(... */\n      jump\t// in\n    tag_32:\n        /* \"contracts/EarthquakeOracle.sol\":781:929  Chainlink.Request memory request = _buildChainlinkRequest(... */\n      swap1\n      pop\n        /* \"contracts/EarthquakeOracle.sol\":940:974  Chainlink._add(request, \"get\", \"\") */\n      tag_34\n        /* \"contracts/EarthquakeOracle.sol\":955:962  request */\n      dup2\n        /* \"contracts/EarthquakeOracle.sol\":940:974  Chainlink._add(request, \"get\", \"\") */\n      mload(0x40)\n      dup1\n      0x40\n      add\n      0x40\n      mstore\n      dup1\n      0x03\n      dup2\n      mstore\n      0x20\n      add\n      0x6765740000000000000000000000000000000000000000000000000000000000\n      dup2\n      mstore\n      pop\n      mload(0x40)\n      dup1\n      0x20\n      add\n      0x40\n      mstore\n      dup1\n      0x00\n      dup2\n      mstore\n      pop\n        /* \"contracts/EarthquakeOracle.sol\":940:954  Chainlink._add */\n      tag_35\n        /* \"contracts/EarthquakeOracle.sol\":940:974  Chainlink._add(request, \"get\", \"\") */\n      jump\t// in\n    tag_34:\n        /* \"contracts/EarthquakeOracle.sol\":984:1035  Chainlink._add(request, \"path\", \"data.prefectures\") */\n      tag_36\n        /* \"contracts/EarthquakeOracle.sol\":999:1006  request */\n      dup2\n        /* \"contracts/EarthquakeOracle.sol\":984:1035  Chainlink._add(request, \"path\", \"data.prefectures\") */\n      mload(0x40)\n      dup1\n      0x40\n      add\n      0x40\n      mstore\n      dup1\n      0x04\n      dup2\n      mstore\n      0x20\n      add\n      0x7061746800000000000000000000000000000000000000000000000000000000\n      dup2\n      mstore\n      pop\n      mload(0x40)\n      dup1\n      0x40\n      add\n      0x40\n      mstore\n      dup1\n      0x10\n      dup2\n      mstore\n      0x20\n      add\n      0x646174612e707265666563747572657300000000000000000000000000000000\n      dup2\n      mstore\n      pop\n        /* \"contracts/EarthquakeOracle.sol\":984:998  Chainlink._add */\n      tag_35\n        /* \"contracts/EarthquakeOracle.sol\":984:1035  Chainlink._add(request, \"path\", \"data.prefectures\") */\n      jump\t// in\n    tag_36:\n        /* \"contracts/EarthquakeOracle.sol\":1046:1081  _sendChainlinkRequest(request, fee) */\n      tag_37\n        /* \"contracts/EarthquakeOracle.sol\":1068:1075  request */\n      dup2\n        /* \"contracts/EarthquakeOracle.sol\":1077:1080  fee */\n      sload(0x09)\n        /* \"contracts/EarthquakeOracle.sol\":1046:1067  _sendChainlinkRequest */\n      tag_38\n        /* \"contracts/EarthquakeOracle.sol\":1046:1081  _sendChainlinkRequest(request, fee) */\n      jump\t// in\n    tag_37:\n      pop\n        /* \"contracts/EarthquakeOracle.sol\":771:1088  {... */\n      pop\n        /* \"contracts/EarthquakeOracle.sol\":731:1088  function requestEarthquakeData() public {... */\n      jump\t// out\n        /* \"@openzeppelin/contracts/access/Ownable.sol\":2293:2394  function renounceOwnership() public virtual onlyOwner {... */\n    tag_12:\n        /* \"@openzeppelin/contracts/access/Ownable.sol\":1531:1544  _checkOwner() */\n      tag_40\n        /* \"@openzeppelin/contracts/access/Ownable.sol\":1531:1542  _checkOwner */\n      tag_41\n        /* \"@openzeppelin/contracts/access/Ownable.sol\":1531:1544  _checkOwner() */\n      jump\t// in\n    tag_40:\n        /* \"@openzeppelin/contracts/access/Ownable.sol\":2357:2387  _transferOwnership(address(0)) */\n      tag_43\n        /* \"@openzeppelin/contracts/access/Ownable.sol\":2384:2385  0 */\n      0x00\n        /* \"@openzeppelin/contracts/access/Ownable.sol\":2357:2375  _transferOwnership */\n      tag_44\n        /* \"@openzeppelin/contracts/access/Ownable.sol\":2357:2387  _transferOwnership(address(0)) */\n      jump\t// in\n    tag_43:\n        /* \"@openzeppelin/contracts/access/Ownable.sol\":2293:2394  function renounceOwnership() public virtual onlyOwner {... */\n      jump\t// out\n        /* \"contracts/EarthquakeOracle.sol\":1094:1564  function fulfill(bytes32 _requestId, bytes memory _data) public recordChainlinkFulfillment(_requestId) {... */\n    tag_16:\n        /* \"contracts/EarthquakeOracle.sol\":1185:1195  _requestId */\n      dup2\n        /* \"@chainlink/contracts/src/v0.8/ChainlinkClient.sol\":11913:11930  s_pendingRequests */\n      0x05\n        /* \"@chainlink/contracts/src/v0.8/ChainlinkClient.sol\":11913:11941  s_pendingRequests[requestId] */\n      0x00\n        /* \"@chainlink/contracts/src/v0.8/ChainlinkClient.sol\":11931:11940  requestId */\n      dup3\n        /* \"@chainlink/contracts/src/v0.8/ChainlinkClient.sol\":11913:11941  s_pendingRequests[requestId] */\n      dup2\n      mstore\n      0x20\n      add\n      swap1\n      dup2\n      mstore\n      0x20\n      add\n      0x00\n      keccak256\n      0x00\n      swap1\n      sload\n      swap1\n      0x0100\n      exp\n      swap1\n      div\n      0xffffffffffffffffffffffffffffffffffffffff\n      and\n        /* \"@chainlink/contracts/src/v0.8/ChainlinkClient.sol\":11899:11941  msg.sender == s_pendingRequests[requestId] */\n      0xffffffffffffffffffffffffffffffffffffffff\n      and\n        /* \"@chainlink/contracts/src/v0.8/ChainlinkClient.sol\":11899:11909  msg.sender */\n      caller\n        /* \"@chainlink/contracts/src/v0.8/ChainlinkClient.sol\":11899:11941  msg.sender == s_pendingRequests[requestId] */\n      0xffffffffffffffffffffffffffffffffffffffff\n      and\n      eq\n        /* \"@chainlink/contracts/src/v0.8/ChainlinkClient.sol\":11891:11986  require(msg.sender == s_pendingRequests[requestId], \"Source must be the oracle of the request\") */\n      tag_46\n      jumpi\n      mload(0x40)\n      0x08c379a000000000000000000000000000000000000000000000000000000000\n      dup2\n      mstore\n      0x04\n      add\n      tag_47\n      swap1\n      tag_48\n      jump\t// in\n    tag_47:\n      mload(0x40)\n      dup1\n      swap2\n      sub\n      swap1\n      revert\n    tag_46:\n        /* \"@chainlink/contracts/src/v0.8/ChainlinkClient.sol\":11999:12016  s_pendingRequests */\n      0x05\n        /* \"@chainlink/contracts/src/v0.8/ChainlinkClient.sol\":11999:12027  s_pendingRequests[requestId] */\n      0x00\n        /* \"@chainlink/contracts/src/v0.8/ChainlinkClient.sol\":12017:12026  requestId */\n      dup3\n        /* \"@chainlink/contracts/src/v0.8/ChainlinkClient.sol\":11999:12027  s_pendingRequests[requestId] */\n      dup2\n      mstore\n      0x20\n      add\n      swap1\n      dup2\n      mstore\n      0x20\n      add\n      0x00\n      keccak256\n      0x00\n        /* \"@chainlink/contracts/src/v0.8/ChainlinkClient.sol\":11992:12027  delete s_pendingRequests[requestId] */\n      0x0100\n      exp\n      dup2\n      sload\n      swap1\n      0xffffffffffffffffffffffffffffffffffffffff\n      mul\n      not\n      and\n      swap1\n      sstore\n        /* \"@chainlink/contracts/src/v0.8/ChainlinkClient.sol\":12057:12066  requestId */\n      dup1\n        /* \"@chainlink/contracts/src/v0.8/ChainlinkClient.sol\":12038:12067  ChainlinkFulfilled(requestId) */\n      0x7cc135e0cebb02c3480ae5d74d377283180a2601f8f644edf7987b009316c63a\n      mload(0x40)\n      mload(0x40)\n      dup1\n      swap2\n      sub\n      swap1\n      log2\n        /* \"contracts/EarthquakeOracle.sol\":1286:1321  EarthquakeData[] memory prefectures */\n      0x00\n        /* \"contracts/EarthquakeOracle.sol\":1336:1341  _data */\n      dup3\n        /* \"contracts/EarthquakeOracle.sol\":1325:1362  abi.decode(_data, (EarthquakeData[])) */\n      dup1\n      0x20\n      add\n      swap1\n      mload\n      dup2\n      add\n      swap1\n      tag_50\n      swap2\n      swap1\n      tag_51\n      jump\t// in\n    tag_50:\n        /* \"contracts/EarthquakeOracle.sol\":1285:1362  (EarthquakeData[] memory prefectures) = abi.decode(_data, (EarthquakeData[])) */\n      swap1\n      pop\n        /* \"contracts/EarthquakeOracle.sol\":1436:1442  uint i */\n      0x00\n        /* \"contracts/EarthquakeOracle.sol\":1445:1446  0 */\n      0x00\n        /* \"contracts/EarthquakeOracle.sol\":1436:1446  uint i = 0 */\n      swap1\n      pop\n        /* \"contracts/EarthquakeOracle.sol\":1431:1558  for (uint i = 0; i < prefectures.length; i++) {... */\n    tag_52:\n        /* \"contracts/EarthquakeOracle.sol\":1452:1463  prefectures */\n      dup2\n        /* \"contracts/EarthquakeOracle.sol\":1452:1470  prefectures.length */\n      mload\n        /* \"contracts/EarthquakeOracle.sol\":1448:1449  i */\n      dup2\n        /* \"contracts/EarthquakeOracle.sol\":1448:1470  i < prefectures.length */\n      lt\n        /* \"contracts/EarthquakeOracle.sol\":1431:1558  for (uint i = 0; i < prefectures.length; i++) {... */\n      iszero\n      tag_53\n      jumpi\n        /* \"contracts/EarthquakeOracle.sol\":1533:1544  prefectures */\n      dup2\n        /* \"contracts/EarthquakeOracle.sol\":1545:1546  i */\n      dup2\n        /* \"contracts/EarthquakeOracle.sol\":1533:1547  prefectures[i] */\n      dup2\n      mload\n      dup2\n      lt\n      tag_55\n      jumpi\n      tag_56\n      tag_57\n      jump\t// in\n    tag_56:\n    tag_55:\n      0x20\n      mul\n      0x20\n      add\n      add\n      mload\n        /* \"contracts/EarthquakeOracle.sol\":1491:1505  earthquakeInfo */\n      0x0a\n        /* \"contracts/EarthquakeOracle.sol\":1491:1530  earthquakeInfo[prefectures[i].prefCode] */\n      0x00\n        /* \"contracts/EarthquakeOracle.sol\":1506:1517  prefectures */\n      dup5\n        /* \"contracts/EarthquakeOracle.sol\":1518:1519  i */\n      dup5\n        /* \"contracts/EarthquakeOracle.sol\":1506:1520  prefectures[i] */\n      dup2\n      mload\n      dup2\n      lt\n      tag_58\n      jumpi\n      tag_59\n      tag_57\n      jump\t// in\n    tag_59:\n    tag_58:\n      0x20\n      mul\n      0x20\n      add\n      add\n      mload\n        /* \"contracts/EarthquakeOracle.sol\":1506:1529  prefectures[i].prefCode */\n      0x00\n      add\n      mload\n        /* \"contracts/EarthquakeOracle.sol\":1491:1530  earthquakeInfo[prefectures[i].prefCode] */\n      dup2\n      mstore\n      0x20\n      add\n      swap1\n      dup2\n      mstore\n      0x20\n      add\n      0x00\n      keccak256\n        /* \"contracts/EarthquakeOracle.sol\":1491:1547  earthquakeInfo[prefectures[i].prefCode] = prefectures[i] */\n      0x00\n      dup3\n      add\n      mload\n      dup2\n      0x00\n      add\n      sstore\n      0x20\n      dup3\n      add\n      mload\n      dup2\n      0x01\n      add\n      sstore\n      0x40\n      dup3\n      add\n      mload\n      dup2\n      0x02\n      add\n      sstore\n      swap1\n      pop\n      pop\n        /* \"contracts/EarthquakeOracle.sol\":1472:1475  i++ */\n      dup1\n      dup1\n      0x01\n      add\n      swap2\n      pop\n      pop\n        /* \"contracts/EarthquakeOracle.sol\":1431:1558  for (uint i = 0; i < prefectures.length; i++) {... */\n      jump(tag_52)\n    tag_53:\n      pop\n        /* \"contracts/EarthquakeOracle.sol\":1197:1564  {... */\n      pop\n        /* \"contracts/EarthquakeOracle.sol\":1094:1564  function fulfill(bytes32 _requestId, bytes memory _data) public recordChainlinkFulfillment(_requestId) {... */\n      pop\n      pop\n      pop\n      jump\t// out\n        /* \"contracts/EarthquakeOracle.sol\":485:541  mapping(uint256 => EarthquakeData) public earthquakeInfo */\n    tag_20:\n      mstore(0x20, 0x0a)\n      dup1\n      0x00\n      mstore\n      keccak256(0x00, 0x40)\n      0x00\n      swap2\n      pop\n      swap1\n      pop\n      dup1\n      0x00\n      add\n      sload\n      swap1\n      dup1\n      0x01\n      add\n      sload\n      swap1\n      dup1\n      0x02\n      add\n      sload\n      swap1\n      pop\n      dup4\n      jump\t// out\n        /* \"@openzeppelin/contracts/access/Ownable.sol\":1638:1723  function owner() public view virtual returns (address) {... */\n    tag_24:\n        /* \"@openzeppelin/contracts/access/Ownable.sol\":1684:1691  address */\n      0x00\n        /* \"@openzeppelin/contracts/access/Ownable.sol\":1710:1716  _owner */\n      0x06\n      0x00\n      swap1\n      sload\n      swap1\n      0x0100\n      exp\n      swap1\n      div\n      0xffffffffffffffffffffffffffffffffffffffff\n      and\n        /* \"@openzeppelin/contracts/access/Ownable.sol\":1703:1716  return _owner */\n      swap1\n      pop\n        /* \"@openzeppelin/contracts/access/Ownable.sol\":1638:1723  function owner() public view virtual returns (address) {... */\n      swap1\n      jump\t// out\n        /* \"@openzeppelin/contracts/access/Ownable.sol\":2543:2758  function transferOwnership(address newOwner) public virtual onlyOwner {... */\n    tag_30:\n        /* \"@openzeppelin/contracts/access/Ownable.sol\":1531:1544  _checkOwner() */\n      tag_62\n        /* \"@openzeppelin/contracts/access/Ownable.sol\":1531:1542  _checkOwner */\n      tag_41\n        /* \"@openzeppelin/contracts/access/Ownable.sol\":1531:1544  _checkOwner() */\n      jump\t// in\n    tag_62:\n        /* \"@openzeppelin/contracts/access/Ownable.sol\":2647:2648  0 */\n      0x00\n        /* \"@openzeppelin/contracts/access/Ownable.sol\":2627:2649  newOwner == address(0) */\n      0xffffffffffffffffffffffffffffffffffffffff\n      and\n        /* \"@openzeppelin/contracts/access/Ownable.sol\":2627:2635  newOwner */\n      dup2\n        /* \"@openzeppelin/contracts/access/Ownable.sol\":2627:2649  newOwner == address(0) */\n      0xffffffffffffffffffffffffffffffffffffffff\n      and\n      sub\n        /* \"@openzeppelin/contracts/access/Ownable.sol\":2623:2714  if (newOwner == address(0)) {... */\n      tag_64\n      jumpi\n        /* \"@openzeppelin/contracts/access/Ownable.sol\":2700:2701  0 */\n      0x00\n        /* \"@openzeppelin/contracts/access/Ownable.sol\":2672:2703  OwnableInvalidOwner(address(0)) */\n      mload(0x40)\n      0x1e4fbdf700000000000000000000000000000000000000000000000000000000\n      dup2\n      mstore\n      0x04\n      add\n      tag_65\n      swap2\n      swap1\n      tag_26\n      jump\t// in\n    tag_65:\n      mload(0x40)\n      dup1\n      swap2\n      sub\n      swap1\n      revert\n        /* \"@openzeppelin/contracts/access/Ownable.sol\":2623:2714  if (newOwner == address(0)) {... */\n    tag_64:\n        /* \"@openzeppelin/contracts/access/Ownable.sol\":2723:2751  _transferOwnership(newOwner) */\n      tag_66\n        /* \"@openzeppelin/contracts/access/Ownable.sol\":2742:2750  newOwner */\n      dup2\n        /* \"@openzeppelin/contracts/access/Ownable.sol\":2723:2741  _transferOwnership */\n      tag_44\n        /* \"@openzeppelin/contracts/access/Ownable.sol\":2723:2751  _transferOwnership(newOwner) */\n      jump\t// in\n    tag_66:\n        /* \"@openzeppelin/contracts/access/Ownable.sol\":2543:2758  function transferOwnership(address newOwner) public virtual onlyOwner {... */\n      pop\n      jump\t// out\n        /* \"@chainlink/contracts/src/v0.8/ChainlinkClient.sol\":2041:2326  function _buildChainlinkRequest(... */\n    tag_33:\n        /* \"@chainlink/contracts/src/v0.8/ChainlinkClient.sol\":2184:2208  Chainlink.Request memory */\n      tag_67\n      tag_68\n      jump\t// in\n    tag_67:\n        /* \"@chainlink/contracts/src/v0.8/ChainlinkClient.sol\":2216:2244  Chainlink.Request memory req */\n      tag_70\n      tag_68\n      jump\t// in\n    tag_70:\n        /* \"@chainlink/contracts/src/v0.8/ChainlinkClient.sol\":2257:2321  req._initialize(specId, callbackAddr, callbackFunctionSignature) */\n      tag_71\n        /* \"@chainlink/contracts/src/v0.8/ChainlinkClient.sol\":2273:2279  specId */\n      dup6\n        /* \"@chainlink/contracts/src/v0.8/ChainlinkClient.sol\":2281:2293  callbackAddr */\n      dup6\n        /* \"@chainlink/contracts/src/v0.8/ChainlinkClient.sol\":2295:2320  callbackFunctionSignature */\n      dup6\n        /* \"@chainlink/contracts/src/v0.8/ChainlinkClient.sol\":2257:2260  req */\n      dup5\n        /* \"@chainlink/contracts/src/v0.8/ChainlinkClient.sol\":2257:2272  req._initialize */\n      tag_72\n      swap1\n        /* \"@chainlink/contracts/src/v0.8/ChainlinkClient.sol\":2257:2321  req._initialize(specId, callbackAddr, callbackFunctionSignature) */\n      swap4\n      swap3\n      swap2\n      swap1\n      0xffffffff\n      and\n      jump\t// in\n    tag_71:\n        /* \"@chainlink/contracts/src/v0.8/ChainlinkClient.sol\":2250:2321  return req._initialize(specId, callbackAddr, callbackFunctionSignature) */\n      swap2\n      pop\n      pop\n        /* \"@chainlink/contracts/src/v0.8/ChainlinkClient.sol\":2041:2326  function _buildChainlinkRequest(... */\n      swap4\n      swap3\n      pop\n      pop\n      pop\n      jump\t// out\n        /* \"@chainlink/contracts/src/v0.8/Chainlink.sol\":1994:2154  function _add(Request memory self, string memory key, string memory value) internal pure {... */\n    tag_35:\n        /* \"@chainlink/contracts/src/v0.8/Chainlink.sol\":2089:2115  self.buf.encodeString(key) */\n      tag_74\n        /* \"@chainlink/contracts/src/v0.8/Chainlink.sol\":2111:2114  key */\n      dup3\n        /* \"@chainlink/contracts/src/v0.8/Chainlink.sol\":2089:2093  self */\n      dup5\n        /* \"@chainlink/contracts/src/v0.8/Chainlink.sol\":2089:2097  self.buf */\n      0x80\n      add\n      mload\n        /* \"@chainlink/contracts/src/v0.8/Chainlink.sol\":2089:2110  self.buf.encodeString */\n      tag_75\n      swap1\n        /* \"@chainlink/contracts/src/v0.8/Chainlink.sol\":2089:2115  self.buf.encodeString(key) */\n      swap2\n      swap1\n      0xffffffff\n      and\n      jump\t// in\n    tag_74:\n        /* \"@chainlink/contracts/src/v0.8/Chainlink.sol\":2121:2149  self.buf.encodeString(value) */\n      tag_76\n        /* \"@chainlink/contracts/src/v0.8/Chainlink.sol\":2143:2148  value */\n      dup2\n        /* \"@chainlink/contracts/src/v0.8/Chainlink.sol\":2121:2125  self */\n      dup5\n        /* \"@chainlink/contracts/src/v0.8/Chainlink.sol\":2121:2129  self.buf */\n      0x80\n      add\n      mload\n        /* \"@chainlink/contracts/src/v0.8/Chainlink.sol\":2121:2142  self.buf.encodeString */\n      tag_75\n      swap1\n        /* \"@chainlink/contracts/src/v0.8/Chainlink.sol\":2121:2149  self.buf.encodeString(value) */\n      swap2\n      swap1\n      0xffffffff\n      and\n      jump\t// in\n    tag_76:\n        /* \"@chainlink/contracts/src/v0.8/Chainlink.sol\":1994:2154  function _add(Request memory self, string memory key, string memory value) internal pure {... */\n      pop\n      pop\n      pop\n      jump\t// out\n        /* \"@chainlink/contracts/src/v0.8/ChainlinkClient.sol\":3185:3364  function _sendChainlinkRequest(Chainlink.Request memory req, uint256 payment) internal returns (bytes32) {... */\n    tag_38:\n        /* \"@chainlink/contracts/src/v0.8/ChainlinkClient.sol\":3281:3288  bytes32 */\n      0x00\n        /* \"@chainlink/contracts/src/v0.8/ChainlinkClient.sol\":3303:3359  _sendChainlinkRequestTo(address(s_oracle), req, payment) */\n      tag_78\n        /* \"@chainlink/contracts/src/v0.8/ChainlinkClient.sol\":3335:3343  s_oracle */\n      0x03\n      0x00\n      swap1\n      sload\n      swap1\n      0x0100\n      exp\n      swap1\n      div\n      0xffffffffffffffffffffffffffffffffffffffff\n      and\n        /* \"@chainlink/contracts/src/v0.8/ChainlinkClient.sol\":3346:3349  req */\n      dup5\n        /* \"@chainlink/contracts/src/v0.8/ChainlinkClient.sol\":3351:3358  payment */\n      dup5\n        /* \"@chainlink/contracts/src/v0.8/ChainlinkClient.sol\":3303:3326  _sendChainlinkRequestTo */\n      tag_79\n        /* \"@chainlink/contracts/src/v0.8/ChainlinkClient.sol\":3303:3359  _sendChainlinkRequestTo(address(s_oracle), req, payment) */\n      jump\t// in\n    tag_78:\n        /* \"@chainlink/contracts/src/v0.8/ChainlinkClient.sol\":3296:3359  return _sendChainlinkRequestTo(address(s_oracle), req, payment) */\n      swap1\n      pop\n        /* \"@chainlink/contracts/src/v0.8/ChainlinkClient.sol\":3185:3364  function _sendChainlinkRequest(Chainlink.Request memory req, uint256 payment) internal returns (bytes32) {... */\n      swap3\n      swap2\n      pop\n      pop\n      jump\t// out\n        /* \"@openzeppelin/contracts/access/Ownable.sol\":1796:1958  function _checkOwner() internal view virtual {... */\n    tag_41:\n        /* \"@openzeppelin/contracts/access/Ownable.sol\":1866:1878  _msgSender() */\n      tag_81\n        /* \"@openzeppelin/contracts/access/Ownable.sol\":1866:1876  _msgSender */\n      tag_82\n        /* \"@openzeppelin/contracts/access/Ownable.sol\":1866:1878  _msgSender() */\n      jump\t// in\n    tag_81:\n        /* \"@openzeppelin/contracts/access/Ownable.sol\":1855:1878  owner() != _msgSender() */\n      0xffffffffffffffffffffffffffffffffffffffff\n      and\n        /* \"@openzeppelin/contracts/access/Ownable.sol\":1855:1862  owner() */\n      tag_83\n        /* \"@openzeppelin/contracts/access/Ownable.sol\":1855:1860  owner */\n      tag_24\n        /* \"@openzeppelin/contracts/access/Ownable.sol\":1855:1862  owner() */\n      jump\t// in\n    tag_83:\n        /* \"@openzeppelin/contracts/access/Ownable.sol\":1855:1878  owner() != _msgSender() */\n      0xffffffffffffffffffffffffffffffffffffffff\n      and\n      eq\n        /* \"@openzeppelin/contracts/access/Ownable.sol\":1851:1952  if (owner() != _msgSender()) {... */\n      tag_84\n      jumpi\n        /* \"@openzeppelin/contracts/access/Ownable.sol\":1928:1940  _msgSender() */\n      tag_85\n        /* \"@openzeppelin/contracts/access/Ownable.sol\":1928:1938  _msgSender */\n      tag_82\n        /* \"@openzeppelin/contracts/access/Ownable.sol\":1928:1940  _msgSender() */\n      jump\t// in\n    tag_85:\n        /* \"@openzeppelin/contracts/access/Ownable.sol\":1901:1941  OwnableUnauthorizedAccount(_msgSender()) */\n      mload(0x40)\n      0x118cdaa700000000000000000000000000000000000000000000000000000000\n      dup2\n      mstore\n      0x04\n      add\n      tag_86\n      swap2\n      swap1\n      tag_26\n      jump\t// in\n    tag_86:\n      mload(0x40)\n      dup1\n      swap2\n      sub\n      swap1\n      revert\n        /* \"@openzeppelin/contracts/access/Ownable.sol\":1851:1952  if (owner() != _msgSender()) {... */\n    tag_84:\n        /* \"@openzeppelin/contracts/access/Ownable.sol\":1796:1958  function _checkOwner() internal view virtual {... */\n      jump\t// out\n        /* \"@openzeppelin/contracts/access/Ownable.sol\":2912:3099  function _transferOwnership(address newOwner) internal virtual {... */\n    tag_44:\n        /* \"@openzeppelin/contracts/access/Ownable.sol\":2985:3001  address oldOwner */\n      0x00\n        /* \"@openzeppelin/contracts/access/Ownable.sol\":3004:3010  _owner */\n      0x06\n      0x00\n      swap1\n      sload\n      swap1\n      0x0100\n      exp\n      swap1\n      div\n      0xffffffffffffffffffffffffffffffffffffffff\n      and\n        /* \"@openzeppelin/contracts/access/Ownable.sol\":2985:3010  address oldOwner = _owner */\n      swap1\n      pop\n        /* \"@openzeppelin/contracts/access/Ownable.sol\":3029:3037  newOwner */\n      dup2\n        /* \"@openzeppelin/contracts/access/Ownable.sol\":3020:3026  _owner */\n      0x06\n      0x00\n        /* \"@openzeppelin/contracts/access/Ownable.sol\":3020:3037  _owner = newOwner */\n      0x0100\n      exp\n      dup2\n      sload\n      dup2\n      0xffffffffffffffffffffffffffffffffffffffff\n      mul\n      not\n      and\n      swap1\n      dup4\n      0xffffffffffffffffffffffffffffffffffffffff\n      and\n      mul\n      or\n      swap1\n      sstore\n      pop\n        /* \"@openzeppelin/contracts/access/Ownable.sol\":3083:3091  newOwner */\n      dup2\n        /* \"@openzeppelin/contracts/access/Ownable.sol\":3052:3092  OwnershipTransferred(oldOwner, newOwner) */\n      0xffffffffffffffffffffffffffffffffffffffff\n      and\n        /* \"@openzeppelin/contracts/access/Ownable.sol\":3073:3081  oldOwner */\n      dup2\n        /* \"@openzeppelin/contracts/access/Ownable.sol\":3052:3092  OwnershipTransferred(oldOwner, newOwner) */\n      0xffffffffffffffffffffffffffffffffffffffff\n      and\n      0x8be0079c531659141344cd1fd0a4f28419497f9722a3daafe3b4186f6b6457e0\n      mload(0x40)\n      mload(0x40)\n      dup1\n      swap2\n      sub\n      swap1\n      log3\n        /* \"@openzeppelin/contracts/access/Ownable.sol\":2975:3099  {... */\n      pop\n        /* \"@openzeppelin/contracts/access/Ownable.sol\":2912:3099  function _transferOwnership(address newOwner) internal virtual {... */\n      pop\n      jump\t// out\n        /* \"@chainlink/contracts/src/v0.8/Chainlink.sol\":1028:1380  function _initialize(... */\n    tag_72:\n        /* \"@chainlink/contracts/src/v0.8/Chainlink.sol\":1171:1195  Chainlink.Request memory */\n      tag_88\n      tag_68\n      jump\t// in\n    tag_88:\n        /* \"@chainlink/contracts/src/v0.8/Chainlink.sol\":1203:1252  BufferChainlink.init(self.buf, defaultBufferSize) */\n      tag_90\n        /* \"@chainlink/contracts/src/v0.8/Chainlink.sol\":1224:1228  self */\n      dup6\n        /* \"@chainlink/contracts/src/v0.8/Chainlink.sol\":1224:1232  self.buf */\n      0x80\n      add\n      mload\n        /* \"@chainlink/contracts/src/v0.8/Chainlink.sol\":447:450  256 */\n      0x0100\n        /* \"@chainlink/contracts/src/v0.8/Chainlink.sol\":1203:1223  BufferChainlink.init */\n      tag_91\n        /* \"@chainlink/contracts/src/v0.8/Chainlink.sol\":1203:1252  BufferChainlink.init(self.buf, defaultBufferSize) */\n      jump\t// in\n    tag_90:\n      pop\n        /* \"@chainlink/contracts/src/v0.8/Chainlink.sol\":1268:1273  jobId */\n      dup4\n        /* \"@chainlink/contracts/src/v0.8/Chainlink.sol\":1258:1262  self */\n      dup6\n        /* \"@chainlink/contracts/src/v0.8/Chainlink.sol\":1258:1265  self.id */\n      0x00\n      add\n        /* \"@chainlink/contracts/src/v0.8/Chainlink.sol\":1258:1273  self.id = jobId */\n      dup2\n      dup2\n      mstore\n      pop\n      pop\n        /* \"@chainlink/contracts/src/v0.8/Chainlink.sol\":1302:1314  callbackAddr */\n      dup3\n        /* \"@chainlink/contracts/src/v0.8/Chainlink.sol\":1279:1283  self */\n      dup6\n        /* \"@chainlink/contracts/src/v0.8/Chainlink.sol\":1279:1299  self.callbackAddress */\n      0x20\n      add\n        /* \"@chainlink/contracts/src/v0.8/Chainlink.sol\":1279:1314  self.callbackAddress = callbackAddr */\n      swap1\n      0xffffffffffffffffffffffffffffffffffffffff\n      and\n      swap1\n      dup2\n      0xffffffffffffffffffffffffffffffffffffffff\n      and\n      dup2\n      mstore\n      pop\n      pop\n        /* \"@chainlink/contracts/src/v0.8/Chainlink.sol\":1346:1358  callbackFunc */\n      dup2\n        /* \"@chainlink/contracts/src/v0.8/Chainlink.sol\":1320:1324  self */\n      dup6\n        /* \"@chainlink/contracts/src/v0.8/Chainlink.sol\":1320:1343  self.callbackFunctionId */\n      0x40\n      add\n        /* \"@chainlink/contracts/src/v0.8/Chainlink.sol\":1320:1358  self.callbackFunctionId = callbackFunc */\n      swap1\n      not(0xffffffffffffffffffffffffffffffffffffffffffffffffffffffff)\n      and\n      swap1\n      dup2\n      not(0xffffffffffffffffffffffffffffffffffffffffffffffffffffffff)\n      and\n      dup2\n      mstore\n      pop\n      pop\n        /* \"@chainlink/contracts/src/v0.8/Chainlink.sol\":1371:1375  self */\n      dup5\n        /* \"@chainlink/contracts/src/v0.8/Chainlink.sol\":1364:1375  return self */\n      swap1\n      pop\n        /* \"@chainlink/contracts/src/v0.8/Chainlink.sol\":1028:1380  function _initialize(... */\n      swap5\n      swap4\n      pop\n      pop\n      pop\n      pop\n      jump\t// out\n        /* \"@chainlink/contracts/src/v0.8/vendor/CBORChainlink.sol\":2777:2981  function encodeString(BufferChainlink.buffer memory buf, string memory value) internal pure {... */\n    tag_75:\n        /* \"@chainlink/contracts/src/v0.8/vendor/CBORChainlink.sol\":2875:2946  encodeFixedNumeric(buf, MAJOR_TYPE_STRING, uint64(bytes(value).length)) */\n      tag_93\n        /* \"@chainlink/contracts/src/v0.8/vendor/CBORChainlink.sol\":2894:2897  buf */\n      dup3\n        /* \"@chainlink/contracts/src/v0.8/vendor/CBORChainlink.sol\":383:384  3 */\n      0x03\n        /* \"@chainlink/contracts/src/v0.8/vendor/CBORChainlink.sol\":2931:2936  value */\n      dup4\n        /* \"@chainlink/contracts/src/v0.8/vendor/CBORChainlink.sol\":2925:2944  bytes(value).length */\n      mload\n        /* \"@chainlink/contracts/src/v0.8/vendor/CBORChainlink.sol\":2875:2893  encodeFixedNumeric */\n      tag_94\n        /* \"@chainlink/contracts/src/v0.8/vendor/CBORChainlink.sol\":2875:2946  encodeFixedNumeric(buf, MAJOR_TYPE_STRING, uint64(bytes(value).length)) */\n      jump\t// in\n    tag_93:\n        /* \"@chainlink/contracts/src/v0.8/vendor/CBORChainlink.sol\":2952:2976  buf.append(bytes(value)) */\n      tag_95\n        /* \"@chainlink/contracts/src/v0.8/vendor/CBORChainlink.sol\":2969:2974  value */\n      dup2\n        /* \"@chainlink/contracts/src/v0.8/vendor/CBORChainlink.sol\":2952:2955  buf */\n      dup4\n        /* \"@chainlink/contracts/src/v0.8/vendor/CBORChainlink.sol\":2952:2962  buf.append */\n      tag_96\n      swap1\n        /* \"@chainlink/contracts/src/v0.8/vendor/CBORChainlink.sol\":2952:2976  buf.append(bytes(value)) */\n      swap2\n      swap1\n      0xffffffff\n      and\n      jump\t// in\n    tag_95:\n      pop\n        /* \"@chainlink/contracts/src/v0.8/vendor/CBORChainlink.sol\":2777:2981  function encodeString(BufferChainlink.buffer memory buf, string memory value) internal pure {... */\n      pop\n      pop\n      jump\t// out\n        /* \"@chainlink/contracts/src/v0.8/ChainlinkClient.sol\":3882:4639  function _sendChainlinkRequestTo(... */\n    tag_79:\n        /* \"@chainlink/contracts/src/v0.8/ChainlinkClient.sol\":4019:4036  bytes32 requestId */\n      0x00\n        /* \"@chainlink/contracts/src/v0.8/ChainlinkClient.sol\":4044:4057  uint256 nonce */\n      0x00\n        /* \"@chainlink/contracts/src/v0.8/ChainlinkClient.sol\":4060:4074  s_requestCount */\n      sload(0x04)\n        /* \"@chainlink/contracts/src/v0.8/ChainlinkClient.sol\":4044:4074  uint256 nonce = s_requestCount */\n      swap1\n      pop\n        /* \"@chainlink/contracts/src/v0.8/ChainlinkClient.sol\":4105:4106  1 */\n      0x01\n        /* \"@chainlink/contracts/src/v0.8/ChainlinkClient.sol\":4097:4102  nonce */\n      dup2\n        /* \"@chainlink/contracts/src/v0.8/ChainlinkClient.sol\":4097:4106  nonce + 1 */\n      tag_98\n      swap2\n      swap1\n      tag_99\n      jump\t// in\n    tag_98:\n        /* \"@chainlink/contracts/src/v0.8/ChainlinkClient.sol\":4080:4094  s_requestCount */\n      0x04\n        /* \"@chainlink/contracts/src/v0.8/ChainlinkClient.sol\":4080:4106  s_requestCount = nonce + 1 */\n      dup2\n      swap1\n      sstore\n      pop\n        /* \"@chainlink/contracts/src/v0.8/ChainlinkClient.sol\":4112:4139  bytes memory encodedRequest */\n      0x00\n        /* \"@chainlink/contracts/src/v0.8/ChainlinkClient.sol\":4172:4220  ChainlinkRequestInterface.oracleRequest.selector */\n      shl(0xe0, 0x40429946)\n        /* \"@chainlink/contracts/src/v0.8/ChainlinkClient.sol\":975:976  0 */\n      0x00\n        /* \"@chainlink/contracts/src/v0.8/ChainlinkClient.sol\":919:920  0 */\n      0x00\n        /* \"@chainlink/contracts/src/v0.8/ChainlinkClient.sol\":4441:4444  req */\n      dup8\n        /* \"@chainlink/contracts/src/v0.8/ChainlinkClient.sol\":4441:4447  req.id */\n      0x00\n      add\n      mload\n        /* \"@chainlink/contracts/src/v0.8/ChainlinkClient.sol\":4463:4467  this */\n      address\n        /* \"@chainlink/contracts/src/v0.8/ChainlinkClient.sol\":4476:4479  req */\n      dup10\n        /* \"@chainlink/contracts/src/v0.8/ChainlinkClient.sol\":4476:4498  req.callbackFunctionId */\n      0x40\n      add\n      mload\n        /* \"@chainlink/contracts/src/v0.8/ChainlinkClient.sol\":4506:4511  nonce */\n      dup8\n        /* \"@chainlink/contracts/src/v0.8/ChainlinkClient.sol\":1028:1029  1 */\n      0x01\n        /* \"@chainlink/contracts/src/v0.8/ChainlinkClient.sol\":4546:4549  req */\n      dup13\n        /* \"@chainlink/contracts/src/v0.8/ChainlinkClient.sol\":4546:4553  req.buf */\n      0x80\n      add\n      mload\n        /* \"@chainlink/contracts/src/v0.8/ChainlinkClient.sol\":4546:4557  req.buf.buf */\n      0x00\n      add\n      mload\n        /* \"@chainlink/contracts/src/v0.8/ChainlinkClient.sol\":4142:4563  abi.encodeWithSelector(... */\n      add(0x24, mload(0x40))\n      tag_100\n      swap9\n      swap8\n      swap7\n      swap6\n      swap5\n      swap4\n      swap3\n      swap2\n      swap1\n      tag_101\n      jump\t// in\n    tag_100:\n      mload(0x40)\n      0x20\n      dup2\n      dup4\n      sub\n      sub\n      dup2\n      mstore\n      swap1\n      0x40\n      mstore\n      swap1\n      not(0xffffffffffffffffffffffffffffffffffffffffffffffffffffffff)\n      and\n      0x20\n      dup3\n      add\n      dup1\n      mload\n      0xffffffffffffffffffffffffffffffffffffffffffffffffffffffff\n      dup4\n      dup2\n      dup4\n      and\n      or\n      dup4\n      mstore\n      pop\n      pop\n      pop\n      pop\n        /* \"@chainlink/contracts/src/v0.8/ChainlinkClient.sol\":4112:4563  bytes memory encodedRequest = abi.encodeWithSelector(... */\n      swap1\n      pop\n        /* \"@chainlink/contracts/src/v0.8/ChainlinkClient.sol\":4576:4634  _rawRequest(oracleAddress, nonce, payment, encodedRequest) */\n      tag_102\n        /* \"@chainlink/contracts/src/v0.8/ChainlinkClient.sol\":4588:4601  oracleAddress */\n      dup7\n        /* \"@chainlink/contracts/src/v0.8/ChainlinkClient.sol\":4603:4608  nonce */\n      dup4\n        /* \"@chainlink/contracts/src/v0.8/ChainlinkClient.sol\":4610:4617  payment */\n      dup7\n        /* \"@chainlink/contracts/src/v0.8/ChainlinkClient.sol\":4619:4633  encodedRequest */\n      dup5\n        /* \"@chainlink/contracts/src/v0.8/ChainlinkClient.sol\":4576:4587  _rawRequest */\n      tag_103\n        /* \"@chainlink/contracts/src/v0.8/ChainlinkClient.sol\":4576:4634  _rawRequest(oracleAddress, nonce, payment, encodedRequest) */\n      jump\t// in\n    tag_102:\n        /* \"@chainlink/contracts/src/v0.8/ChainlinkClient.sol\":4569:4634  return _rawRequest(oracleAddress, nonce, payment, encodedRequest) */\n      swap3\n      pop\n      pop\n      pop\n        /* \"@chainlink/contracts/src/v0.8/ChainlinkClient.sol\":3882:4639  function _sendChainlinkRequestTo(... */\n      swap4\n      swap3\n      pop\n      pop\n      pop\n      jump\t// out\n        /* \"@openzeppelin/contracts/utils/Context.sol\":656:752  function _msgSender() internal view virtual returns (address) {... */\n    tag_82:\n        /* \"@openzeppelin/contracts/utils/Context.sol\":709:716  address */\n      0x00\n        /* \"@openzeppelin/contracts/utils/Context.sol\":735:745  msg.sender */\n      caller\n        /* \"@openzeppelin/contracts/utils/Context.sol\":728:745  return msg.sender */\n      swap1\n      pop\n        /* \"@openzeppelin/contracts/utils/Context.sol\":656:752  function _msgSender() internal view virtual returns (address) {... */\n      swap1\n      jump\t// out\n        /* \"@chainlink/contracts/src/v0.8/vendor/BufferChainlink.sol\":1001:1400  function init(buffer memory buf, uint256 capacity) internal pure returns (buffer memory) {... */\n    tag_91:\n        /* \"@chainlink/contracts/src/v0.8/vendor/BufferChainlink.sol\":1075:1088  buffer memory */\n      tag_105\n      tag_106\n      jump\t// in\n    tag_105:\n        /* \"@chainlink/contracts/src/v0.8/vendor/BufferChainlink.sol\":1117:1118  0 */\n      0x00\n        /* \"@chainlink/contracts/src/v0.8/vendor/BufferChainlink.sol\":1111:1113  32 */\n      0x20\n        /* \"@chainlink/contracts/src/v0.8/vendor/BufferChainlink.sol\":1100:1108  capacity */\n      dup4\n        /* \"@chainlink/contracts/src/v0.8/vendor/BufferChainlink.sol\":1100:1113  capacity % 32 */\n      tag_108\n      swap2\n      swap1\n      tag_109\n      jump\t// in\n    tag_108:\n        /* \"@chainlink/contracts/src/v0.8/vendor/BufferChainlink.sol\":1100:1118  capacity % 32 != 0 */\n      eq\n        /* \"@chainlink/contracts/src/v0.8/vendor/BufferChainlink.sol\":1096:1167  if (capacity % 32 != 0) {... */\n      tag_110\n      jumpi\n        /* \"@chainlink/contracts/src/v0.8/vendor/BufferChainlink.sol\":1157:1159  32 */\n      0x20\n        /* \"@chainlink/contracts/src/v0.8/vendor/BufferChainlink.sol\":1146:1154  capacity */\n      dup3\n        /* \"@chainlink/contracts/src/v0.8/vendor/BufferChainlink.sol\":1146:1159  capacity % 32 */\n      tag_111\n      swap2\n      swap1\n      tag_109\n      jump\t// in\n    tag_111:\n        /* \"@chainlink/contracts/src/v0.8/vendor/BufferChainlink.sol\":1140:1142  32 */\n      0x20\n        /* \"@chainlink/contracts/src/v0.8/vendor/BufferChainlink.sol\":1140:1160  32 - (capacity % 32) */\n      tag_112\n      swap2\n      swap1\n      tag_113\n      jump\t// in\n    tag_112:\n        /* \"@chainlink/contracts/src/v0.8/vendor/BufferChainlink.sol\":1128:1160  capacity += 32 - (capacity % 32) */\n      dup3\n      tag_114\n      swap2\n      swap1\n      tag_99\n      jump\t// in\n    tag_114:\n      swap2\n      pop\n        /* \"@chainlink/contracts/src/v0.8/vendor/BufferChainlink.sol\":1096:1167  if (capacity % 32 != 0) {... */\n    tag_110:\n        /* \"@chainlink/contracts/src/v0.8/vendor/BufferChainlink.sol\":1229:1237  capacity */\n      dup2\n        /* \"@chainlink/contracts/src/v0.8/vendor/BufferChainlink.sol\":1214:1217  buf */\n      dup4\n        /* \"@chainlink/contracts/src/v0.8/vendor/BufferChainlink.sol\":1214:1226  buf.capacity */\n      0x20\n      add\n        /* \"@chainlink/contracts/src/v0.8/vendor/BufferChainlink.sol\":1214:1237  buf.capacity = capacity */\n      dup2\n      dup2\n      mstore\n      pop\n      pop\n        /* \"@chainlink/contracts/src/v0.8/vendor/BufferChainlink.sol\":1277:1281  0x40 */\n      0x40\n        /* \"@chainlink/contracts/src/v0.8/vendor/BufferChainlink.sol\":1271:1282  mload(0x40) */\n      mload\n        /* \"@chainlink/contracts/src/v0.8/vendor/BufferChainlink.sol\":1301:1304  ptr */\n      dup1\n        /* \"@chainlink/contracts/src/v0.8/vendor/BufferChainlink.sol\":1296:1299  buf */\n      dup5\n        /* \"@chainlink/contracts/src/v0.8/vendor/BufferChainlink.sol\":1289:1305  mstore(buf, ptr) */\n      mstore\n        /* \"@chainlink/contracts/src/v0.8/vendor/BufferChainlink.sol\":1324:1325  0 */\n      0x00\n        /* \"@chainlink/contracts/src/v0.8/vendor/BufferChainlink.sol\":1319:1322  ptr */\n      dup2\n        /* \"@chainlink/contracts/src/v0.8/vendor/BufferChainlink.sol\":1312:1326  mstore(ptr, 0) */\n      mstore\n        /* \"@chainlink/contracts/src/v0.8/vendor/BufferChainlink.sol\":1363:1371  capacity */\n      dup3\n        /* \"@chainlink/contracts/src/v0.8/vendor/BufferChainlink.sol\":1358:1361  ptr */\n      dup2\n        /* \"@chainlink/contracts/src/v0.8/vendor/BufferChainlink.sol\":1354:1372  add(ptr, capacity) */\n      add\n        /* \"@chainlink/contracts/src/v0.8/vendor/BufferChainlink.sol\":1350:1352  32 */\n      0x20\n        /* \"@chainlink/contracts/src/v0.8/vendor/BufferChainlink.sol\":1346:1373  add(32, add(ptr, capacity)) */\n      add\n        /* \"@chainlink/contracts/src/v0.8/vendor/BufferChainlink.sol\":1340:1344  0x40 */\n      0x40\n        /* \"@chainlink/contracts/src/v0.8/vendor/BufferChainlink.sol\":1333:1374  mstore(0x40, add(32, add(ptr, capacity))) */\n      mstore\n        /* \"@chainlink/contracts/src/v0.8/vendor/BufferChainlink.sol\":1252:1380  {... */\n      pop\n        /* \"@chainlink/contracts/src/v0.8/vendor/BufferChainlink.sol\":1392:1395  buf */\n      dup3\n        /* \"@chainlink/contracts/src/v0.8/vendor/BufferChainlink.sol\":1385:1395  return buf */\n      swap1\n      pop\n        /* \"@chainlink/contracts/src/v0.8/vendor/BufferChainlink.sol\":1001:1400  function init(buffer memory buf, uint256 capacity) internal pure returns (buffer memory) {... */\n      swap3\n      swap2\n      pop\n      pop\n      jump\t// out\n        /* \"@chainlink/contracts/src/v0.8/vendor/CBORChainlink.sol\":682:1307  function encodeFixedNumeric(BufferChainlink.buffer memory buf, uint8 major, uint64 value) private pure {... */\n    tag_94:\n        /* \"@chainlink/contracts/src/v0.8/vendor/CBORChainlink.sol\":803:805  23 */\n      0x17\n        /* \"@chainlink/contracts/src/v0.8/vendor/CBORChainlink.sol\":794:799  value */\n      dup2\n        /* \"@chainlink/contracts/src/v0.8/vendor/CBORChainlink.sol\":794:805  value <= 23 */\n      0xffffffffffffffff\n      and\n      gt\n        /* \"@chainlink/contracts/src/v0.8/vendor/CBORChainlink.sol\":791:1303  if(value <= 23) {... */\n      tag_116\n      jumpi\n        /* \"@chainlink/contracts/src/v0.8/vendor/CBORChainlink.sol\":815:859  buf.appendUint8(uint8((major << 5) | value)) */\n      tag_117\n        /* \"@chainlink/contracts/src/v0.8/vendor/CBORChainlink.sol\":852:857  value */\n      dup2\n        /* \"@chainlink/contracts/src/v0.8/vendor/CBORChainlink.sol\":847:848  5 */\n      0x05\n        /* \"@chainlink/contracts/src/v0.8/vendor/CBORChainlink.sol\":838:843  major */\n      dup5\n        /* \"@chainlink/contracts/src/v0.8/vendor/CBORChainlink.sol\":838:848  major << 5 */\n      0xff\n      and\n      swap1\n      shl\n        /* \"@chainlink/contracts/src/v0.8/vendor/CBORChainlink.sol\":837:857  (major << 5) | value */\n      0xff\n      and\n      or\n        /* \"@chainlink/contracts/src/v0.8/vendor/CBORChainlink.sol\":815:818  buf */\n      dup5\n        /* \"@chainlink/contracts/src/v0.8/vendor/CBORChainlink.sol\":815:830  buf.appendUint8 */\n      tag_118\n      swap1\n        /* \"@chainlink/contracts/src/v0.8/vendor/CBORChainlink.sol\":815:859  buf.appendUint8(uint8((major << 5) | value)) */\n      swap2\n      swap1\n      0xffffffff\n      and\n      jump\t// in\n    tag_117:\n      pop\n        /* \"@chainlink/contracts/src/v0.8/vendor/CBORChainlink.sol\":791:1303  if(value <= 23) {... */\n      jump(tag_119)\n    tag_116:\n        /* \"@chainlink/contracts/src/v0.8/vendor/CBORChainlink.sol\":885:889  0xFF */\n      0xff\n        /* \"@chainlink/contracts/src/v0.8/vendor/CBORChainlink.sol\":876:881  value */\n      dup2\n        /* \"@chainlink/contracts/src/v0.8/vendor/CBORChainlink.sol\":876:889  value <= 0xFF */\n      0xffffffffffffffff\n      and\n      gt\n        /* \"@chainlink/contracts/src/v0.8/vendor/CBORChainlink.sol\":872:1303  if (value <= 0xFF) {... */\n      tag_120\n      jumpi\n        /* \"@chainlink/contracts/src/v0.8/vendor/CBORChainlink.sol\":899:940  buf.appendUint8(uint8((major << 5) | 24)) */\n      tag_121\n        /* \"@chainlink/contracts/src/v0.8/vendor/CBORChainlink.sol\":936:938  24 */\n      0x18\n        /* \"@chainlink/contracts/src/v0.8/vendor/CBORChainlink.sol\":931:932  5 */\n      0x05\n        /* \"@chainlink/contracts/src/v0.8/vendor/CBORChainlink.sol\":922:927  major */\n      dup5\n        /* \"@chainlink/contracts/src/v0.8/vendor/CBORChainlink.sol\":922:932  major << 5 */\n      0xff\n      and\n      swap1\n      shl\n        /* \"@chainlink/contracts/src/v0.8/vendor/CBORChainlink.sol\":921:938  (major << 5) | 24 */\n      or\n        /* \"@chainlink/contracts/src/v0.8/vendor/CBORChainlink.sol\":899:902  buf */\n      dup5\n        /* \"@chainlink/contracts/src/v0.8/vendor/CBORChainlink.sol\":899:914  buf.appendUint8 */\n      tag_118\n      swap1\n        /* \"@chainlink/contracts/src/v0.8/vendor/CBORChainlink.sol\":899:940  buf.appendUint8(uint8((major << 5) | 24)) */\n      swap2\n      swap1\n      0xffffffff\n      and\n      jump\t// in\n    tag_121:\n      pop\n        /* \"@chainlink/contracts/src/v0.8/vendor/CBORChainlink.sol\":948:971  buf.appendInt(value, 1) */\n      tag_122\n        /* \"@chainlink/contracts/src/v0.8/vendor/CBORChainlink.sol\":962:967  value */\n      dup2\n        /* \"@chainlink/contracts/src/v0.8/vendor/CBORChainlink.sol\":948:971  buf.appendInt(value, 1) */\n      0xffffffffffffffff\n      and\n        /* \"@chainlink/contracts/src/v0.8/vendor/CBORChainlink.sol\":969:970  1 */\n      0x01\n        /* \"@chainlink/contracts/src/v0.8/vendor/CBORChainlink.sol\":948:951  buf */\n      dup6\n        /* \"@chainlink/contracts/src/v0.8/vendor/CBORChainlink.sol\":948:961  buf.appendInt */\n      tag_123\n      swap1\n        /* \"@chainlink/contracts/src/v0.8/vendor/CBORChainlink.sol\":948:971  buf.appendInt(value, 1) */\n      swap3\n      swap2\n      swap1\n      0xffffffff\n      and\n      jump\t// in\n    tag_122:\n      pop\n        /* \"@chainlink/contracts/src/v0.8/vendor/CBORChainlink.sol\":872:1303  if (value <= 0xFF) {... */\n      jump(tag_124)\n    tag_120:\n        /* \"@chainlink/contracts/src/v0.8/vendor/CBORChainlink.sol\":997:1003  0xFFFF */\n      0xffff\n        /* \"@chainlink/contracts/src/v0.8/vendor/CBORChainlink.sol\":988:993  value */\n      dup2\n        /* \"@chainlink/contracts/src/v0.8/vendor/CBORChainlink.sol\":988:1003  value <= 0xFFFF */\n      0xffffffffffffffff\n      and\n      gt\n        /* \"@chainlink/contracts/src/v0.8/vendor/CBORChainlink.sol\":984:1303  if (value <= 0xFFFF) {... */\n      tag_125\n      jumpi\n        /* \"@chainlink/contracts/src/v0.8/vendor/CBORChainlink.sol\":1013:1054  buf.appendUint8(uint8((major << 5) | 25)) */\n      tag_126\n        /* \"@chainlink/contracts/src/v0.8/vendor/CBORChainlink.sol\":1050:1052  25 */\n      0x19\n        /* \"@chainlink/contracts/src/v0.8/vendor/CBORChainlink.sol\":1045:1046  5 */\n      0x05\n        /* \"@chainlink/contracts/src/v0.8/vendor/CBORChainlink.sol\":1036:1041  major */\n      dup5\n        /* \"@chainlink/contracts/src/v0.8/vendor/CBORChainlink.sol\":1036:1046  major << 5 */\n      0xff\n      and\n      swap1\n      shl\n        /* \"@chainlink/contracts/src/v0.8/vendor/CBORChainlink.sol\":1035:1052  (major << 5) | 25 */\n      or\n        /* \"@chainlink/contracts/src/v0.8/vendor/CBORChainlink.sol\":1013:1016  buf */\n      dup5\n        /* \"@chainlink/contracts/src/v0.8/vendor/CBORChainlink.sol\":1013:1028  buf.appendUint8 */\n      tag_118\n      swap1\n        /* \"@chainlink/contracts/src/v0.8/vendor/CBORChainlink.sol\":1013:1054  buf.appendUint8(uint8((major << 5) | 25)) */\n      swap2\n      swap1\n      0xffffffff\n      and\n      jump\t// in\n    tag_126:\n      pop\n        /* \"@chainlink/contracts/src/v0.8/vendor/CBORChainlink.sol\":1062:1085  buf.appendInt(value, 2) */\n      tag_127\n        /* \"@chainlink/contracts/src/v0.8/vendor/CBORChainlink.sol\":1076:1081  value */\n      dup2\n        /* \"@chainlink/contracts/src/v0.8/vendor/CBORChainlink.sol\":1062:1085  buf.appendInt(value, 2) */\n      0xffffffffffffffff\n      and\n        /* \"@chainlink/contracts/src/v0.8/vendor/CBORChainlink.sol\":1083:1084  2 */\n      0x02\n        /* \"@chainlink/contracts/src/v0.8/vendor/CBORChainlink.sol\":1062:1065  buf */\n      dup6\n        /* \"@chainlink/contracts/src/v0.8/vendor/CBORChainlink.sol\":1062:1075  buf.appendInt */\n      tag_123\n      swap1\n        /* \"@chainlink/contracts/src/v0.8/vendor/CBORChainlink.sol\":1062:1085  buf.appendInt(value, 2) */\n      swap3\n      swap2\n      swap1\n      0xffffffff\n      and\n      jump\t// in\n    tag_127:\n      pop\n        /* \"@chainlink/contracts/src/v0.8/vendor/CBORChainlink.sol\":984:1303  if (value <= 0xFFFF) {... */\n      jump(tag_128)\n    tag_125:\n        /* \"@chainlink/contracts/src/v0.8/vendor/CBORChainlink.sol\":1111:1121  0xFFFFFFFF */\n      0xffffffff\n        /* \"@chainlink/contracts/src/v0.8/vendor/CBORChainlink.sol\":1102:1107  value */\n      dup2\n        /* \"@chainlink/contracts/src/v0.8/vendor/CBORChainlink.sol\":1102:1121  value <= 0xFFFFFFFF */\n      0xffffffffffffffff\n      and\n      gt\n        /* \"@chainlink/contracts/src/v0.8/vendor/CBORChainlink.sol\":1098:1303  if (value <= 0xFFFFFFFF) {... */\n      tag_129\n      jumpi\n        /* \"@chainlink/contracts/src/v0.8/vendor/CBORChainlink.sol\":1131:1172  buf.appendUint8(uint8((major << 5) | 26)) */\n      tag_130\n        /* \"@chainlink/contracts/src/v0.8/vendor/CBORChainlink.sol\":1168:1170  26 */\n      0x1a\n        /* \"@chainlink/contracts/src/v0.8/vendor/CBORChainlink.sol\":1163:1164  5 */\n      0x05\n        /* \"@chainlink/contracts/src/v0.8/vendor/CBORChainlink.sol\":1154:1159  major */\n      dup5\n        /* \"@chainlink/contracts/src/v0.8/vendor/CBORChainlink.sol\":1154:1164  major << 5 */\n      0xff\n      and\n      swap1\n      shl\n        /* \"@chainlink/contracts/src/v0.8/vendor/CBORChainlink.sol\":1153:1170  (major << 5) | 26 */\n      or\n        /* \"@chainlink/contracts/src/v0.8/vendor/CBORChainlink.sol\":1131:1134  buf */\n      dup5\n        /* \"@chainlink/contracts/src/v0.8/vendor/CBORChainlink.sol\":1131:1146  buf.appendUint8 */\n      tag_118\n      swap1\n        /* \"@chainlink/contracts/src/v0.8/vendor/CBORChainlink.sol\":1131:1172  buf.appendUint8(uint8((major << 5) | 26)) */\n      swap2\n      swap1\n      0xffffffff\n      and\n      jump\t// in\n    tag_130:\n      pop\n        /* \"@chainlink/contracts/src/v0.8/vendor/CBORChainlink.sol\":1180:1203  buf.appendInt(value, 4) */\n      tag_131\n        /* \"@chainlink/contracts/src/v0.8/vendor/CBORChainlink.sol\":1194:1199  value */\n      dup2\n        /* \"@chainlink/contracts/src/v0.8/vendor/CBORChainlink.sol\":1180:1203  buf.appendInt(value, 4) */\n      0xffffffffffffffff\n      and\n        /* \"@chainlink/contracts/src/v0.8/vendor/CBORChainlink.sol\":1201:1202  4 */\n      0x04\n        /* \"@chainlink/contracts/src/v0.8/vendor/CBORChainlink.sol\":1180:1183  buf */\n      dup6\n        /* \"@chainlink/contracts/src/v0.8/vendor/CBORChainlink.sol\":1180:1193  buf.appendInt */\n      tag_123\n      swap1\n        /* \"@chainlink/contracts/src/v0.8/vendor/CBORChainlink.sol\":1180:1203  buf.appendInt(value, 4) */\n      swap3\n      swap2\n      swap1\n      0xffffffff\n      and\n      jump\t// in\n    tag_131:\n      pop\n        /* \"@chainlink/contracts/src/v0.8/vendor/CBORChainlink.sol\":1098:1303  if (value <= 0xFFFFFFFF) {... */\n      jump(tag_132)\n    tag_129:\n        /* \"@chainlink/contracts/src/v0.8/vendor/CBORChainlink.sol\":1224:1265  buf.appendUint8(uint8((major << 5) | 27)) */\n      tag_133\n        /* \"@chainlink/contracts/src/v0.8/vendor/CBORChainlink.sol\":1261:1263  27 */\n      0x1b\n        /* \"@chainlink/contracts/src/v0.8/vendor/CBORChainlink.sol\":1256:1257  5 */\n      0x05\n        /* \"@chainlink/contracts/src/v0.8/vendor/CBORChainlink.sol\":1247:1252  major */\n      dup5\n        /* \"@chainlink/contracts/src/v0.8/vendor/CBORChainlink.sol\":1247:1257  major << 5 */\n      0xff\n      and\n      swap1\n      shl\n        /* \"@chainlink/contracts/src/v0.8/vendor/CBORChainlink.sol\":1246:1263  (major << 5) | 27 */\n      or\n        /* \"@chainlink/contracts/src/v0.8/vendor/CBORChainlink.sol\":1224:1227  buf */\n      dup5\n        /* \"@chainlink/contracts/src/v0.8/vendor/CBORChainlink.sol\":1224:1239  buf.appendUint8 */\n      tag_118\n      swap1\n        /* \"@chainlink/contracts/src/v0.8/vendor/CBORChainlink.sol\":1224:1265  buf.appendUint8(uint8((major << 5) | 27)) */\n      swap2\n      swap1\n      0xffffffff\n      and\n      jump\t// in\n    tag_133:\n      pop\n        /* \"@chainlink/contracts/src/v0.8/vendor/CBORChainlink.sol\":1273:1296  buf.appendInt(value, 8) */\n      tag_134\n        /* \"@chainlink/contracts/src/v0.8/vendor/CBORChainlink.sol\":1287:1292  value */\n      dup2\n        /* \"@chainlink/contracts/src/v0.8/vendor/CBORChainlink.sol\":1273:1296  buf.appendInt(value, 8) */\n      0xffffffffffffffff\n      and\n        /* \"@chainlink/contracts/src/v0.8/vendor/CBORChainlink.sol\":1294:1295  8 */\n      0x08\n        /* \"@chainlink/contracts/src/v0.8/vendor/CBORChainlink.sol\":1273:1276  buf */\n      dup6\n        /* \"@chainlink/contracts/src/v0.8/vendor/CBORChainlink.sol\":1273:1286  buf.appendInt */\n      tag_123\n      swap1\n        /* \"@chainlink/contracts/src/v0.8/vendor/CBORChainlink.sol\":1273:1296  buf.appendInt(value, 8) */\n      swap3\n      swap2\n      swap1\n      0xffffffff\n      and\n      jump\t// in\n    tag_134:\n      pop\n        /* \"@chainlink/contracts/src/v0.8/vendor/CBORChainlink.sol\":1098:1303  if (value <= 0xFFFFFFFF) {... */\n    tag_132:\n        /* \"@chainlink/contracts/src/v0.8/vendor/CBORChainlink.sol\":984:1303  if (value <= 0xFFFF) {... */\n    tag_128:\n        /* \"@chainlink/contracts/src/v0.8/vendor/CBORChainlink.sol\":872:1303  if (value <= 0xFF) {... */\n    tag_124:\n        /* \"@chainlink/contracts/src/v0.8/vendor/CBORChainlink.sol\":791:1303  if(value <= 23) {... */\n    tag_119:\n        /* \"@chainlink/contracts/src/v0.8/vendor/CBORChainlink.sol\":682:1307  function encodeFixedNumeric(BufferChainlink.buffer memory buf, uint8 major, uint64 value) private pure {... */\n      pop\n      pop\n      pop\n      jump\t// out\n        /* \"@chainlink/contracts/src/v0.8/vendor/BufferChainlink.sol\":4692:4847  function append(buffer memory buf, bytes memory data) internal pure returns (buffer memory) {... */\n    tag_96:\n        /* \"@chainlink/contracts/src/v0.8/vendor/BufferChainlink.sol\":4769:4782  buffer memory */\n      tag_135\n      tag_106\n      jump\t// in\n    tag_135:\n        /* \"@chainlink/contracts/src/v0.8/vendor/BufferChainlink.sol\":4797:4842  write(buf, buf.buf.length, data, data.length) */\n      tag_137\n        /* \"@chainlink/contracts/src/v0.8/vendor/BufferChainlink.sol\":4803:4806  buf */\n      dup4\n        /* \"@chainlink/contracts/src/v0.8/vendor/BufferChainlink.sol\":4808:4811  buf */\n      dup5\n        /* \"@chainlink/contracts/src/v0.8/vendor/BufferChainlink.sol\":4808:4815  buf.buf */\n      0x00\n      add\n      mload\n        /* \"@chainlink/contracts/src/v0.8/vendor/BufferChainlink.sol\":4808:4822  buf.buf.length */\n      mload\n        /* \"@chainlink/contracts/src/v0.8/vendor/BufferChainlink.sol\":4824:4828  data */\n      dup5\n        /* \"@chainlink/contracts/src/v0.8/vendor/BufferChainlink.sol\":4830:4834  data */\n      dup6\n        /* \"@chainlink/contracts/src/v0.8/vendor/BufferChainlink.sol\":4830:4841  data.length */\n      mload\n        /* \"@chainlink/contracts/src/v0.8/vendor/BufferChainlink.sol\":4797:4802  write */\n      tag_138\n        /* \"@chainlink/contracts/src/v0.8/vendor/BufferChainlink.sol\":4797:4842  write(buf, buf.buf.length, data, data.length) */\n      jump\t// in\n    tag_137:\n        /* \"@chainlink/contracts/src/v0.8/vendor/BufferChainlink.sol\":4790:4842  return write(buf, buf.buf.length, data, data.length) */\n      swap1\n      pop\n        /* \"@chainlink/contracts/src/v0.8/vendor/BufferChainlink.sol\":4692:4847  function append(buffer memory buf, bytes memory data) internal pure returns (buffer memory) {... */\n      swap3\n      swap2\n      pop\n      pop\n      jump\t// out\n        /* \"@chainlink/contracts/src/v0.8/ChainlinkClient.sol\":6828:7280  function _rawRequest(... */\n    tag_103:\n        /* \"@chainlink/contracts/src/v0.8/ChainlinkClient.sol\":6970:6987  bytes32 requestId */\n      0x00\n        /* \"@chainlink/contracts/src/v0.8/ChainlinkClient.sol\":7034:7038  this */\n      address\n        /* \"@chainlink/contracts/src/v0.8/ChainlinkClient.sol\":7040:7045  nonce */\n      dup5\n        /* \"@chainlink/contracts/src/v0.8/ChainlinkClient.sol\":7017:7046  abi.encodePacked(this, nonce) */\n      add(0x20, mload(0x40))\n      tag_140\n      swap3\n      swap2\n      swap1\n      tag_141\n      jump\t// in\n    tag_140:\n      mload(0x40)\n      0x20\n      dup2\n      dup4\n      sub\n      sub\n      dup2\n      mstore\n      swap1\n      0x40\n      mstore\n        /* \"@chainlink/contracts/src/v0.8/ChainlinkClient.sol\":7007:7047  keccak256(abi.encodePacked(this, nonce)) */\n      dup1\n      mload\n      swap1\n      0x20\n      add\n      keccak256\n        /* \"@chainlink/contracts/src/v0.8/ChainlinkClient.sol\":6995:7047  requestId = keccak256(abi.encodePacked(this, nonce)) */\n      swap1\n      pop\n        /* \"@chainlink/contracts/src/v0.8/ChainlinkClient.sol\":7084:7097  oracleAddress */\n      dup5\n        /* \"@chainlink/contracts/src/v0.8/ChainlinkClient.sol\":7053:7070  s_pendingRequests */\n      0x05\n        /* \"@chainlink/contracts/src/v0.8/ChainlinkClient.sol\":7053:7081  s_pendingRequests[requestId] */\n      0x00\n        /* \"@chainlink/contracts/src/v0.8/ChainlinkClient.sol\":7071:7080  requestId */\n      dup4\n        /* \"@chainlink/contracts/src/v0.8/ChainlinkClient.sol\":7053:7081  s_pendingRequests[requestId] */\n      dup2\n      mstore\n      0x20\n      add\n      swap1\n      dup2\n      mstore\n      0x20\n      add\n      0x00\n      keccak256\n      0x00\n        /* \"@chainlink/contracts/src/v0.8/ChainlinkClient.sol\":7053:7097  s_pendingRequests[requestId] = oracleAddress */\n      0x0100\n      exp\n      dup2\n      sload\n      dup2\n      0xffffffffffffffffffffffffffffffffffffffff\n      mul\n      not\n      and\n      swap1\n      dup4\n      0xffffffffffffffffffffffffffffffffffffffff\n      and\n      mul\n      or\n      swap1\n      sstore\n      pop\n        /* \"@chainlink/contracts/src/v0.8/ChainlinkClient.sol\":7127:7136  requestId */\n      dup1\n        /* \"@chainlink/contracts/src/v0.8/ChainlinkClient.sol\":7108:7137  ChainlinkRequested(requestId) */\n      0xb5e6e01e79f91267dc17b4e6314d5d4d03593d2ceee0fbb452b750bd70ea5af9\n      mload(0x40)\n      mload(0x40)\n      dup1\n      swap2\n      sub\n      swap1\n      log2\n        /* \"@chainlink/contracts/src/v0.8/ChainlinkClient.sol\":7151:7157  s_link */\n      0x02\n      0x00\n      swap1\n      sload\n      swap1\n      0x0100\n      exp\n      swap1\n      div\n      0xffffffffffffffffffffffffffffffffffffffff\n      and\n        /* \"@chainlink/contracts/src/v0.8/ChainlinkClient.sol\":7151:7173  s_link.transferAndCall */\n      0xffffffffffffffffffffffffffffffffffffffff\n      and\n      0x4000aea0\n        /* \"@chainlink/contracts/src/v0.8/ChainlinkClient.sol\":7174:7187  oracleAddress */\n      dup7\n        /* \"@chainlink/contracts/src/v0.8/ChainlinkClient.sol\":7189:7196  payment */\n      dup6\n        /* \"@chainlink/contracts/src/v0.8/ChainlinkClient.sol\":7198:7212  encodedRequest */\n      dup6\n        /* \"@chainlink/contracts/src/v0.8/ChainlinkClient.sol\":7151:7213  s_link.transferAndCall(oracleAddress, payment, encodedRequest) */\n      mload(0x40)\n      dup5\n      0xffffffff\n      and\n      0xe0\n      shl\n      dup2\n      mstore\n      0x04\n      add\n      tag_142\n      swap4\n      swap3\n      swap2\n      swap1\n      tag_143\n      jump\t// in\n    tag_142:\n      0x20\n      mload(0x40)\n      dup1\n      dup4\n      sub\n      dup2\n      0x00\n      dup8\n      gas\n      call\n      iszero\n      dup1\n      iszero\n      tag_145\n      jumpi\n      returndatacopy(0x00, 0x00, returndatasize)\n      revert(0x00, returndatasize)\n    tag_145:\n      pop\n      pop\n      pop\n      pop\n      mload(0x40)\n      returndatasize\n      not(0x1f)\n      0x1f\n      dup3\n      add\n      and\n      dup3\n      add\n      dup1\n      0x40\n      mstore\n      pop\n      dup2\n      add\n      swap1\n      tag_146\n      swap2\n      swap1\n      tag_147\n      jump\t// in\n    tag_146:\n        /* \"@chainlink/contracts/src/v0.8/ChainlinkClient.sol\":7143:7253  require(s_link.transferAndCall(oracleAddress, payment, encodedRequest), \"unable to transferAndCall to oracle\") */\n      tag_148\n      jumpi\n      mload(0x40)\n      0x08c379a000000000000000000000000000000000000000000000000000000000\n      dup2\n      mstore\n      0x04\n      add\n      tag_149\n      swap1\n      tag_150\n      jump\t// in\n    tag_149:\n      mload(0x40)\n      dup1\n      swap2\n      sub\n      swap1\n      revert\n    tag_148:\n        /* \"@chainlink/contracts/src/v0.8/ChainlinkClient.sol\":6828:7280  function _rawRequest(... */\n      swap5\n      swap4\n      pop\n      pop\n      pop\n      pop\n      jump\t// out\n        /* \"@chainlink/contracts/src/v0.8/vendor/BufferChainlink.sol\":6040:6185  function appendUint8(buffer memory buf, uint8 data) internal pure returns (buffer memory) {... */\n    tag_118:\n        /* \"@chainlink/contracts/src/v0.8/vendor/BufferChainlink.sol\":6115:6128  buffer memory */\n      tag_151\n      tag_106\n      jump\t// in\n    tag_151:\n        /* \"@chainlink/contracts/src/v0.8/vendor/BufferChainlink.sol\":6143:6180  writeUint8(buf, buf.buf.length, data) */\n      tag_153\n        /* \"@chainlink/contracts/src/v0.8/vendor/BufferChainlink.sol\":6154:6157  buf */\n      dup4\n        /* \"@chainlink/contracts/src/v0.8/vendor/BufferChainlink.sol\":6159:6162  buf */\n      dup5\n        /* \"@chainlink/contracts/src/v0.8/vendor/BufferChainlink.sol\":6159:6166  buf.buf */\n      0x00\n      add\n      mload\n        /* \"@chainlink/contracts/src/v0.8/vendor/BufferChainlink.sol\":6159:6173  buf.buf.length */\n      mload\n        /* \"@chainlink/contracts/src/v0.8/vendor/BufferChainlink.sol\":6175:6179  data */\n      dup5\n        /* \"@chainlink/contracts/src/v0.8/vendor/BufferChainlink.sol\":6143:6153  writeUint8 */\n      tag_154\n        /* \"@chainlink/contracts/src/v0.8/vendor/BufferChainlink.sol\":6143:6180  writeUint8(buf, buf.buf.length, data) */\n      jump\t// in\n    tag_153:\n        /* \"@chainlink/contracts/src/v0.8/vendor/BufferChainlink.sol\":6136:6180  return writeUint8(buf, buf.buf.length, data) */\n      swap1\n      pop\n        /* \"@chainlink/contracts/src/v0.8/vendor/BufferChainlink.sol\":6040:6185  function appendUint8(buffer memory buf, uint8 data) internal pure returns (buffer memory) {... */\n      swap3\n      swap2\n      pop\n      pop\n      jump\t// out\n        /* \"@chainlink/contracts/src/v0.8/vendor/BufferChainlink.sol\":9894:10071  function appendInt(... */\n    tag_123:\n        /* \"@chainlink/contracts/src/v0.8/vendor/BufferChainlink.sol\":9998:10011  buffer memory */\n      tag_155\n      tag_106\n      jump\t// in\n    tag_155:\n        /* \"@chainlink/contracts/src/v0.8/vendor/BufferChainlink.sol\":10026:10066  writeInt(buf, buf.buf.length, data, len) */\n      tag_157\n        /* \"@chainlink/contracts/src/v0.8/vendor/BufferChainlink.sol\":10035:10038  buf */\n      dup5\n        /* \"@chainlink/contracts/src/v0.8/vendor/BufferChainlink.sol\":10040:10043  buf */\n      dup6\n        /* \"@chainlink/contracts/src/v0.8/vendor/BufferChainlink.sol\":10040:10047  buf.buf */\n      0x00\n      add\n      mload\n        /* \"@chainlink/contracts/src/v0.8/vendor/BufferChainlink.sol\":10040:10054  buf.buf.length */\n      mload\n        /* \"@chainlink/contracts/src/v0.8/vendor/BufferChainlink.sol\":10056:10060  data */\n      dup6\n        /* \"@chainlink/contracts/src/v0.8/vendor/BufferChainlink.sol\":10062:10065  len */\n      dup6\n        /* \"@chainlink/contracts/src/v0.8/vendor/BufferChainlink.sol\":10026:10034  writeInt */\n      tag_158\n        /* \"@chainlink/contracts/src/v0.8/vendor/BufferChainlink.sol\":10026:10066  writeInt(buf, buf.buf.length, data, len) */\n      jump\t// in\n    tag_157:\n        /* \"@chainlink/contracts/src/v0.8/vendor/BufferChainlink.sol\":10019:10066  return writeInt(buf, buf.buf.length, data, len) */\n      swap1\n      pop\n        /* \"@chainlink/contracts/src/v0.8/vendor/BufferChainlink.sol\":9894:10071  function appendInt(... */\n      swap4\n      swap3\n      pop\n      pop\n      pop\n      jump\t// out\n        /* \"@chainlink/contracts/src/v0.8/vendor/BufferChainlink.sol\":2745:3955  function write(... */\n    tag_138:\n        /* \"@chainlink/contracts/src/v0.8/vendor/BufferChainlink.sol\":2867:2880  buffer memory */\n      tag_159\n      tag_106\n      jump\t// in\n    tag_159:\n        /* \"@chainlink/contracts/src/v0.8/vendor/BufferChainlink.sol\":2903:2907  data */\n      dup3\n        /* \"@chainlink/contracts/src/v0.8/vendor/BufferChainlink.sol\":2903:2914  data.length */\n      mload\n        /* \"@chainlink/contracts/src/v0.8/vendor/BufferChainlink.sol\":2896:2899  len */\n      dup3\n        /* \"@chainlink/contracts/src/v0.8/vendor/BufferChainlink.sol\":2896:2914  len <= data.length */\n      gt\n      iszero\n        /* \"@chainlink/contracts/src/v0.8/vendor/BufferChainlink.sol\":2888:2915  require(len <= data.length) */\n      tag_161\n      jumpi\n      revert(0x00, 0x00)\n    tag_161:\n        /* \"@chainlink/contracts/src/v0.8/vendor/BufferChainlink.sol\":2938:2941  buf */\n      dup5\n        /* \"@chainlink/contracts/src/v0.8/vendor/BufferChainlink.sol\":2938:2950  buf.capacity */\n      0x20\n      add\n      mload\n        /* \"@chainlink/contracts/src/v0.8/vendor/BufferChainlink.sol\":2932:2935  len */\n      dup3\n        /* \"@chainlink/contracts/src/v0.8/vendor/BufferChainlink.sol\":2926:2929  off */\n      dup6\n        /* \"@chainlink/contracts/src/v0.8/vendor/BufferChainlink.sol\":2926:2935  off + len */\n      tag_162\n      swap2\n      swap1\n      tag_99\n      jump\t// in\n    tag_162:\n        /* \"@chainlink/contracts/src/v0.8/vendor/BufferChainlink.sol\":2926:2950  off + len > buf.capacity */\n      gt\n        /* \"@chainlink/contracts/src/v0.8/vendor/BufferChainlink.sol\":2922:3012  if (off + len > buf.capacity) {... */\n      iszero\n      tag_163\n      jumpi\n        /* \"@chainlink/contracts/src/v0.8/vendor/BufferChainlink.sol\":2960:3005  resize(buf, max(buf.capacity, len + off) * 2) */\n      tag_164\n        /* \"@chainlink/contracts/src/v0.8/vendor/BufferChainlink.sol\":2967:2970  buf */\n      dup6\n        /* \"@chainlink/contracts/src/v0.8/vendor/BufferChainlink.sol\":3003:3004  2 */\n      0x02\n        /* \"@chainlink/contracts/src/v0.8/vendor/BufferChainlink.sol\":2972:3000  max(buf.capacity, len + off) */\n      tag_165\n        /* \"@chainlink/contracts/src/v0.8/vendor/BufferChainlink.sol\":2976:2979  buf */\n      dup9\n        /* \"@chainlink/contracts/src/v0.8/vendor/BufferChainlink.sol\":2976:2988  buf.capacity */\n      0x20\n      add\n      mload\n        /* \"@chainlink/contracts/src/v0.8/vendor/BufferChainlink.sol\":2996:2999  off */\n      dup9\n        /* \"@chainlink/contracts/src/v0.8/vendor/BufferChainlink.sol\":2990:2993  len */\n      dup8\n        /* \"@chainlink/contracts/src/v0.8/vendor/BufferChainlink.sol\":2990:2999  len + off */\n      tag_166\n      swap2\n      swap1\n      tag_99\n      jump\t// in\n    tag_166:\n        /* \"@chainlink/contracts/src/v0.8/vendor/BufferChainlink.sol\":2972:2975  max */\n      tag_167\n        /* \"@chainlink/contracts/src/v0.8/vendor/BufferChainlink.sol\":2972:3000  max(buf.capacity, len + off) */\n      jump\t// in\n    tag_165:\n        /* \"@chainlink/contracts/src/v0.8/vendor/BufferChainlink.sol\":2972:3004  max(buf.capacity, len + off) * 2 */\n      tag_168\n      swap2\n      swap1\n      tag_169\n      jump\t// in\n    tag_168:\n        /* \"@chainlink/contracts/src/v0.8/vendor/BufferChainlink.sol\":2960:2966  resize */\n      tag_170\n        /* \"@chainlink/contracts/src/v0.8/vendor/BufferChainlink.sol\":2960:3005  resize(buf, max(buf.capacity, len + off) * 2) */\n      jump\t// in\n    tag_164:\n        /* \"@chainlink/contracts/src/v0.8/vendor/BufferChainlink.sol\":2922:3012  if (off + len > buf.capacity) {... */\n    tag_163:\n        /* \"@chainlink/contracts/src/v0.8/vendor/BufferChainlink.sol\":3018:3030  uint256 dest */\n      0x00\n        /* \"@chainlink/contracts/src/v0.8/vendor/BufferChainlink.sol\":3036:3047  uint256 src */\n      0x00\n        /* \"@chainlink/contracts/src/v0.8/vendor/BufferChainlink.sol\":3133:3136  buf */\n      dup7\n        /* \"@chainlink/contracts/src/v0.8/vendor/BufferChainlink.sol\":3127:3137  mload(buf) */\n      mload\n        /* \"@chainlink/contracts/src/v0.8/vendor/BufferChainlink.sol\":3204:3210  bufptr */\n      dup1\n        /* \"@chainlink/contracts/src/v0.8/vendor/BufferChainlink.sol\":3198:3211  mload(bufptr) */\n      mload\n        /* \"@chainlink/contracts/src/v0.8/vendor/BufferChainlink.sol\":3320:3323  off */\n      dup8\n        /* \"@chainlink/contracts/src/v0.8/vendor/BufferChainlink.sol\":3315:3317  32 */\n      0x20\n        /* \"@chainlink/contracts/src/v0.8/vendor/BufferChainlink.sol\":3307:3313  bufptr */\n      dup4\n        /* \"@chainlink/contracts/src/v0.8/vendor/BufferChainlink.sol\":3303:3318  add(bufptr, 32) */\n      add\n        /* \"@chainlink/contracts/src/v0.8/vendor/BufferChainlink.sol\":3299:3324  add(add(bufptr, 32), off) */\n      add\n        /* \"@chainlink/contracts/src/v0.8/vendor/BufferChainlink.sol\":3291:3324  dest := add(add(bufptr, 32), off) */\n      swap4\n      pop\n        /* \"@chainlink/contracts/src/v0.8/vendor/BufferChainlink.sol\":3404:3410  buflen */\n      dup1\n        /* \"@chainlink/contracts/src/v0.8/vendor/BufferChainlink.sol\":3398:3401  off */\n      dup9\n        /* \"@chainlink/contracts/src/v0.8/vendor/BufferChainlink.sol\":3393:3396  len */\n      dup8\n        /* \"@chainlink/contracts/src/v0.8/vendor/BufferChainlink.sol\":3389:3402  add(len, off) */\n      add\n        /* \"@chainlink/contracts/src/v0.8/vendor/BufferChainlink.sol\":3386:3411  gt(add(len, off), buflen) */\n      gt\n        /* \"@chainlink/contracts/src/v0.8/vendor/BufferChainlink.sol\":3383:3459  if gt(add(len, off), buflen) {... */\n      iszero\n      tag_171\n      jumpi\n        /* \"@chainlink/contracts/src/v0.8/vendor/BufferChainlink.sol\":3446:3449  off */\n      dup8\n        /* \"@chainlink/contracts/src/v0.8/vendor/BufferChainlink.sol\":3441:3444  len */\n      dup7\n        /* \"@chainlink/contracts/src/v0.8/vendor/BufferChainlink.sol\":3437:3450  add(len, off) */\n      add\n        /* \"@chainlink/contracts/src/v0.8/vendor/BufferChainlink.sol\":3429:3435  bufptr */\n      dup3\n        /* \"@chainlink/contracts/src/v0.8/vendor/BufferChainlink.sol\":3422:3451  mstore(bufptr, add(len, off)) */\n      mstore\n        /* \"@chainlink/contracts/src/v0.8/vendor/BufferChainlink.sol\":3383:3459  if gt(add(len, off), buflen) {... */\n    tag_171:\n        /* \"@chainlink/contracts/src/v0.8/vendor/BufferChainlink.sol\":3483:3485  32 */\n      0x20\n        /* \"@chainlink/contracts/src/v0.8/vendor/BufferChainlink.sol\":3477:3481  data */\n      dup8\n        /* \"@chainlink/contracts/src/v0.8/vendor/BufferChainlink.sol\":3473:3486  add(data, 32) */\n      add\n        /* \"@chainlink/contracts/src/v0.8/vendor/BufferChainlink.sol\":3466:3486  src := add(data, 32) */\n      swap3\n      pop\n        /* \"@chainlink/contracts/src/v0.8/vendor/BufferChainlink.sol\":3062:3492  {... */\n      pop\n      pop\n        /* \"@chainlink/contracts/src/v0.8/vendor/BufferChainlink.sol\":3544:3673  for (; len >= 32; len -= 32) {... */\n    tag_172:\n        /* \"@chainlink/contracts/src/v0.8/vendor/BufferChainlink.sol\":3558:3560  32 */\n      0x20\n        /* \"@chainlink/contracts/src/v0.8/vendor/BufferChainlink.sol\":3551:3554  len */\n      dup5\n        /* \"@chainlink/contracts/src/v0.8/vendor/BufferChainlink.sol\":3551:3560  len >= 32 */\n      lt\n        /* \"@chainlink/contracts/src/v0.8/vendor/BufferChainlink.sol\":3544:3673  for (; len >= 32; len -= 32) {... */\n      tag_173\n      jumpi\n        /* \"@chainlink/contracts/src/v0.8/vendor/BufferChainlink.sol\":3619:3622  src */\n      dup1\n        /* \"@chainlink/contracts/src/v0.8/vendor/BufferChainlink.sol\":3613:3623  mload(src) */\n      mload\n        /* \"@chainlink/contracts/src/v0.8/vendor/BufferChainlink.sol\":3607:3611  dest */\n      dup3\n        /* \"@chainlink/contracts/src/v0.8/vendor/BufferChainlink.sol\":3600:3624  mstore(dest, mload(src)) */\n      mstore\n        /* \"@chainlink/contracts/src/v0.8/vendor/BufferChainlink.sol\":3647:3649  32 */\n      0x20\n        /* \"@chainlink/contracts/src/v0.8/vendor/BufferChainlink.sol\":3639:3649  dest += 32 */\n      dup3\n      tag_175\n      swap2\n      swap1\n      tag_99\n      jump\t// in\n    tag_175:\n      swap2\n      pop\n        /* \"@chainlink/contracts/src/v0.8/vendor/BufferChainlink.sol\":3664:3666  32 */\n      0x20\n        /* \"@chainlink/contracts/src/v0.8/vendor/BufferChainlink.sol\":3657:3666  src += 32 */\n      dup2\n      tag_176\n      swap2\n      swap1\n      tag_99\n      jump\t// in\n    tag_176:\n      swap1\n      pop\n        /* \"@chainlink/contracts/src/v0.8/vendor/BufferChainlink.sol\":3569:3571  32 */\n      0x20\n        /* \"@chainlink/contracts/src/v0.8/vendor/BufferChainlink.sol\":3562:3571  len -= 32 */\n      dup5\n      tag_177\n      swap2\n      swap1\n      tag_113\n      jump\t// in\n    tag_177:\n      swap4\n      pop\n        /* \"@chainlink/contracts/src/v0.8/vendor/BufferChainlink.sol\":3544:3673  for (; len >= 32; len -= 32) {... */\n      jump(tag_172)\n    tag_173:\n        /* \"@chainlink/contracts/src/v0.8/vendor/BufferChainlink.sol\":3725:3737  uint256 mask */\n      0x00\n        /* \"@chainlink/contracts/src/v0.8/vendor/BufferChainlink.sol\":3760:3761  1 */\n      0x01\n        /* \"@chainlink/contracts/src/v0.8/vendor/BufferChainlink.sol\":3752:3755  len */\n      dup6\n        /* \"@chainlink/contracts/src/v0.8/vendor/BufferChainlink.sol\":3747:3749  32 */\n      0x20\n        /* \"@chainlink/contracts/src/v0.8/vendor/BufferChainlink.sol\":3747:3755  32 - len */\n      sub\n        /* \"@chainlink/contracts/src/v0.8/vendor/BufferChainlink.sol\":3741:3744  256 */\n      0x0100\n        /* \"@chainlink/contracts/src/v0.8/vendor/BufferChainlink.sol\":3741:3756  256**(32 - len) */\n      exp\n        /* \"@chainlink/contracts/src/v0.8/vendor/BufferChainlink.sol\":3740:3761  (256**(32 - len)) - 1 */\n      sub\n        /* \"@chainlink/contracts/src/v0.8/vendor/BufferChainlink.sol\":3725:3761  uint256 mask = (256**(32 - len)) - 1 */\n      swap1\n      pop\n        /* \"@chainlink/contracts/src/v0.8/vendor/BufferChainlink.sol\":3823:3827  mask */\n      dup1\n        /* \"@chainlink/contracts/src/v0.8/vendor/BufferChainlink.sol\":3819:3828  not(mask) */\n      not\n        /* \"@chainlink/contracts/src/v0.8/vendor/BufferChainlink.sol\":3813:3816  src */\n      dup3\n        /* \"@chainlink/contracts/src/v0.8/vendor/BufferChainlink.sol\":3807:3817  mload(src) */\n      mload\n        /* \"@chainlink/contracts/src/v0.8/vendor/BufferChainlink.sol\":3803:3829  and(mload(src), not(mask)) */\n      and\n        /* \"@chainlink/contracts/src/v0.8/vendor/BufferChainlink.sol\":3871:3875  mask */\n      dup2\n        /* \"@chainlink/contracts/src/v0.8/vendor/BufferChainlink.sol\":3864:3868  dest */\n      dup5\n        /* \"@chainlink/contracts/src/v0.8/vendor/BufferChainlink.sol\":3858:3869  mload(dest) */\n      mload\n        /* \"@chainlink/contracts/src/v0.8/vendor/BufferChainlink.sol\":3854:3876  and(mload(dest), mask) */\n      and\n        /* \"@chainlink/contracts/src/v0.8/vendor/BufferChainlink.sol\":3911:3918  srcpart */\n      dup2\n        /* \"@chainlink/contracts/src/v0.8/vendor/BufferChainlink.sol\":3901:3909  destpart */\n      dup2\n        /* \"@chainlink/contracts/src/v0.8/vendor/BufferChainlink.sol\":3898:3919  or(destpart, srcpart) */\n      or\n        /* \"@chainlink/contracts/src/v0.8/vendor/BufferChainlink.sol\":3892:3896  dest */\n      dup6\n        /* \"@chainlink/contracts/src/v0.8/vendor/BufferChainlink.sol\":3885:3920  mstore(dest, or(destpart, srcpart)) */\n      mstore\n        /* \"@chainlink/contracts/src/v0.8/vendor/BufferChainlink.sol\":3778:3928  {... */\n      pop\n      pop\n      pop\n        /* \"@chainlink/contracts/src/v0.8/vendor/BufferChainlink.sol\":3947:3950  buf */\n      dup7\n        /* \"@chainlink/contracts/src/v0.8/vendor/BufferChainlink.sol\":3940:3950  return buf */\n      swap3\n      pop\n      pop\n      pop\n        /* \"@chainlink/contracts/src/v0.8/vendor/BufferChainlink.sol\":2745:3955  function write(... */\n      swap5\n      swap4\n      pop\n      pop\n      pop\n      pop\n      jump\t// out\n        /* \"@chainlink/contracts/src/v0.8/vendor/BufferChainlink.sol\":5148:5787  function writeUint8(... */\n    tag_154:\n        /* \"@chainlink/contracts/src/v0.8/vendor/BufferChainlink.sol\":5251:5264  buffer memory */\n      tag_178\n      tag_106\n      jump\t// in\n    tag_178:\n        /* \"@chainlink/contracts/src/v0.8/vendor/BufferChainlink.sol\":5283:5286  buf */\n      dup4\n        /* \"@chainlink/contracts/src/v0.8/vendor/BufferChainlink.sol\":5283:5295  buf.capacity */\n      0x20\n      add\n      mload\n        /* \"@chainlink/contracts/src/v0.8/vendor/BufferChainlink.sol\":5276:5279  off */\n      dup4\n        /* \"@chainlink/contracts/src/v0.8/vendor/BufferChainlink.sol\":5276:5295  off >= buf.capacity */\n      lt\n        /* \"@chainlink/contracts/src/v0.8/vendor/BufferChainlink.sol\":5272:5341  if (off >= buf.capacity) {... */\n      tag_180\n      jumpi\n        /* \"@chainlink/contracts/src/v0.8/vendor/BufferChainlink.sol\":5305:5334  resize(buf, buf.capacity * 2) */\n      tag_181\n        /* \"@chainlink/contracts/src/v0.8/vendor/BufferChainlink.sol\":5312:5315  buf */\n      dup5\n        /* \"@chainlink/contracts/src/v0.8/vendor/BufferChainlink.sol\":5332:5333  2 */\n      0x02\n        /* \"@chainlink/contracts/src/v0.8/vendor/BufferChainlink.sol\":5317:5320  buf */\n      dup7\n        /* \"@chainlink/contracts/src/v0.8/vendor/BufferChainlink.sol\":5317:5329  buf.capacity */\n      0x20\n      add\n      mload\n        /* \"@chainlink/contracts/src/v0.8/vendor/BufferChainlink.sol\":5317:5333  buf.capacity * 2 */\n      tag_182\n      swap2\n      swap1\n      tag_169\n      jump\t// in\n    tag_182:\n        /* \"@chainlink/contracts/src/v0.8/vendor/BufferChainlink.sol\":5305:5311  resize */\n      tag_170\n        /* \"@chainlink/contracts/src/v0.8/vendor/BufferChainlink.sol\":5305:5334  resize(buf, buf.capacity * 2) */\n      jump\t// in\n    tag_181:\n        /* \"@chainlink/contracts/src/v0.8/vendor/BufferChainlink.sol\":5272:5341  if (off >= buf.capacity) {... */\n    tag_180:\n        /* \"@chainlink/contracts/src/v0.8/vendor/BufferChainlink.sol\":5427:5430  buf */\n      dup4\n        /* \"@chainlink/contracts/src/v0.8/vendor/BufferChainlink.sol\":5421:5431  mload(buf) */\n      mload\n        /* \"@chainlink/contracts/src/v0.8/vendor/BufferChainlink.sol\":5498:5504  bufptr */\n      dup1\n        /* \"@chainlink/contracts/src/v0.8/vendor/BufferChainlink.sol\":5492:5505  mload(bufptr) */\n      mload\n        /* \"@chainlink/contracts/src/v0.8/vendor/BufferChainlink.sol\":5610:5612  32 */\n      0x20\n        /* \"@chainlink/contracts/src/v0.8/vendor/BufferChainlink.sol\":5604:5607  off */\n      dup6\n        /* \"@chainlink/contracts/src/v0.8/vendor/BufferChainlink.sol\":5596:5602  bufptr */\n      dup4\n        /* \"@chainlink/contracts/src/v0.8/vendor/BufferChainlink.sol\":5592:5608  add(bufptr, off) */\n      add\n        /* \"@chainlink/contracts/src/v0.8/vendor/BufferChainlink.sol\":5588:5613  add(add(bufptr, off), 32) */\n      add\n        /* \"@chainlink/contracts/src/v0.8/vendor/BufferChainlink.sol\":5634:5638  data */\n      dup5\n        /* \"@chainlink/contracts/src/v0.8/vendor/BufferChainlink.sol\":5628:5632  dest */\n      dup2\n        /* \"@chainlink/contracts/src/v0.8/vendor/BufferChainlink.sol\":5620:5639  mstore8(dest, data) */\n      mstore8\n        /* \"@chainlink/contracts/src/v0.8/vendor/BufferChainlink.sol\":5705:5711  buflen */\n      dup2\n        /* \"@chainlink/contracts/src/v0.8/vendor/BufferChainlink.sol\":5700:5703  off */\n      dup7\n        /* \"@chainlink/contracts/src/v0.8/vendor/BufferChainlink.sol\":5697:5712  eq(off, buflen) */\n      sub\n        /* \"@chainlink/contracts/src/v0.8/vendor/BufferChainlink.sol\":5694:5761  if eq(off, buflen) {... */\n      tag_183\n      jumpi\n        /* \"@chainlink/contracts/src/v0.8/vendor/BufferChainlink.sol\":5750:5751  1 */\n      0x01\n        /* \"@chainlink/contracts/src/v0.8/vendor/BufferChainlink.sol\":5742:5748  buflen */\n      dup3\n        /* \"@chainlink/contracts/src/v0.8/vendor/BufferChainlink.sol\":5738:5752  add(buflen, 1) */\n      add\n        /* \"@chainlink/contracts/src/v0.8/vendor/BufferChainlink.sol\":5730:5736  bufptr */\n      dup4\n        /* \"@chainlink/contracts/src/v0.8/vendor/BufferChainlink.sol\":5723:5753  mstore(bufptr, add(buflen, 1)) */\n      mstore\n        /* \"@chainlink/contracts/src/v0.8/vendor/BufferChainlink.sol\":5694:5761  if eq(off, buflen) {... */\n    tag_183:\n        /* \"@chainlink/contracts/src/v0.8/vendor/BufferChainlink.sol\":5356:5767  {... */\n      pop\n      pop\n      pop\n        /* \"@chainlink/contracts/src/v0.8/vendor/BufferChainlink.sol\":5779:5782  buf */\n      dup4\n        /* \"@chainlink/contracts/src/v0.8/vendor/BufferChainlink.sol\":5772:5782  return buf */\n      swap1\n      pop\n        /* \"@chainlink/contracts/src/v0.8/vendor/BufferChainlink.sol\":5148:5787  function writeUint8(... */\n      swap4\n      swap3\n      pop\n      pop\n      pop\n      jump\t// out\n        /* \"@chainlink/contracts/src/v0.8/vendor/BufferChainlink.sol\":8974:9649  function writeInt(... */\n    tag_158:\n        /* \"@chainlink/contracts/src/v0.8/vendor/BufferChainlink.sol\":9093:9106  buffer memory */\n      tag_184\n      tag_106\n      jump\t// in\n    tag_184:\n        /* \"@chainlink/contracts/src/v0.8/vendor/BufferChainlink.sol\":9130:9133  buf */\n      dup5\n        /* \"@chainlink/contracts/src/v0.8/vendor/BufferChainlink.sol\":9130:9142  buf.capacity */\n      0x20\n      add\n      mload\n        /* \"@chainlink/contracts/src/v0.8/vendor/BufferChainlink.sol\":9124:9127  off */\n      dup5\n        /* \"@chainlink/contracts/src/v0.8/vendor/BufferChainlink.sol\":9118:9121  len */\n      dup4\n        /* \"@chainlink/contracts/src/v0.8/vendor/BufferChainlink.sol\":9118:9127  len + off */\n      tag_186\n      swap2\n      swap1\n      tag_99\n      jump\t// in\n    tag_186:\n        /* \"@chainlink/contracts/src/v0.8/vendor/BufferChainlink.sol\":9118:9142  len + off > buf.capacity */\n      gt\n        /* \"@chainlink/contracts/src/v0.8/vendor/BufferChainlink.sol\":9114:9187  if (len + off > buf.capacity) {... */\n      iszero\n      tag_187\n      jumpi\n        /* \"@chainlink/contracts/src/v0.8/vendor/BufferChainlink.sol\":9152:9180  resize(buf, (len + off) * 2) */\n      tag_188\n        /* \"@chainlink/contracts/src/v0.8/vendor/BufferChainlink.sol\":9159:9162  buf */\n      dup6\n        /* \"@chainlink/contracts/src/v0.8/vendor/BufferChainlink.sol\":9178:9179  2 */\n      0x02\n        /* \"@chainlink/contracts/src/v0.8/vendor/BufferChainlink.sol\":9171:9174  off */\n      dup7\n        /* \"@chainlink/contracts/src/v0.8/vendor/BufferChainlink.sol\":9165:9168  len */\n      dup6\n        /* \"@chainlink/contracts/src/v0.8/vendor/BufferChainlink.sol\":9165:9174  len + off */\n      tag_189\n      swap2\n      swap1\n      tag_99\n      jump\t// in\n    tag_189:\n        /* \"@chainlink/contracts/src/v0.8/vendor/BufferChainlink.sol\":9164:9179  (len + off) * 2 */\n      tag_190\n      swap2\n      swap1\n      tag_169\n      jump\t// in\n    tag_190:\n        /* \"@chainlink/contracts/src/v0.8/vendor/BufferChainlink.sol\":9152:9158  resize */\n      tag_170\n        /* \"@chainlink/contracts/src/v0.8/vendor/BufferChainlink.sol\":9152:9180  resize(buf, (len + off) * 2) */\n      jump\t// in\n    tag_188:\n        /* \"@chainlink/contracts/src/v0.8/vendor/BufferChainlink.sol\":9114:9187  if (len + off > buf.capacity) {... */\n    tag_187:\n        /* \"@chainlink/contracts/src/v0.8/vendor/BufferChainlink.sol\":9193:9205  uint256 mask */\n      0x00\n        /* \"@chainlink/contracts/src/v0.8/vendor/BufferChainlink.sol\":9221:9222  1 */\n      0x01\n        /* \"@chainlink/contracts/src/v0.8/vendor/BufferChainlink.sol\":9214:9217  len */\n      dup4\n        /* \"@chainlink/contracts/src/v0.8/vendor/BufferChainlink.sol\":9209:9212  256 */\n      0x0100\n        /* \"@chainlink/contracts/src/v0.8/vendor/BufferChainlink.sol\":9209:9217  256**len */\n      tag_191\n      swap2\n      swap1\n      tag_192\n      jump\t// in\n    tag_191:\n        /* \"@chainlink/contracts/src/v0.8/vendor/BufferChainlink.sol\":9208:9222  (256**len) - 1 */\n      tag_193\n      swap2\n      swap1\n      tag_113\n      jump\t// in\n    tag_193:\n        /* \"@chainlink/contracts/src/v0.8/vendor/BufferChainlink.sol\":9193:9222  uint256 mask = (256**len) - 1 */\n      swap1\n      pop\n        /* \"@chainlink/contracts/src/v0.8/vendor/BufferChainlink.sol\":9308:9311  buf */\n      dup6\n        /* \"@chainlink/contracts/src/v0.8/vendor/BufferChainlink.sol\":9302:9312  mload(buf) */\n      mload\n        /* \"@chainlink/contracts/src/v0.8/vendor/BufferChainlink.sol\":9423:9426  len */\n      dup4\n        /* \"@chainlink/contracts/src/v0.8/vendor/BufferChainlink.sol\":9417:9420  off */\n      dup7\n        /* \"@chainlink/contracts/src/v0.8/vendor/BufferChainlink.sol\":9409:9415  bufptr */\n      dup3\n        /* \"@chainlink/contracts/src/v0.8/vendor/BufferChainlink.sol\":9405:9421  add(bufptr, off) */\n      add\n        /* \"@chainlink/contracts/src/v0.8/vendor/BufferChainlink.sol\":9401:9427  add(add(bufptr, off), len) */\n      add\n        /* \"@chainlink/contracts/src/v0.8/vendor/BufferChainlink.sol\":9479:9483  data */\n      dup6\n        /* \"@chainlink/contracts/src/v0.8/vendor/BufferChainlink.sol\":9471:9475  mask */\n      dup4\n        /* \"@chainlink/contracts/src/v0.8/vendor/BufferChainlink.sol\":9467:9476  not(mask) */\n      not\n        /* \"@chainlink/contracts/src/v0.8/vendor/BufferChainlink.sol\":9460:9464  dest */\n      dup3\n        /* \"@chainlink/contracts/src/v0.8/vendor/BufferChainlink.sol\":9454:9465  mload(dest) */\n      mload\n        /* \"@chainlink/contracts/src/v0.8/vendor/BufferChainlink.sol\":9450:9477  and(mload(dest), not(mask)) */\n      and\n        /* \"@chainlink/contracts/src/v0.8/vendor/BufferChainlink.sol\":9447:9484  or(and(mload(dest), not(mask)), data) */\n      or\n        /* \"@chainlink/contracts/src/v0.8/vendor/BufferChainlink.sol\":9441:9445  dest */\n      dup2\n        /* \"@chainlink/contracts/src/v0.8/vendor/BufferChainlink.sol\":9434:9485  mstore(dest, or(and(mload(dest), not(mask)), data)) */\n      mstore\n        /* \"@chainlink/contracts/src/v0.8/vendor/BufferChainlink.sol\":9567:9573  bufptr */\n      dup2\n        /* \"@chainlink/contracts/src/v0.8/vendor/BufferChainlink.sol\":9561:9574  mload(bufptr) */\n      mload\n        /* \"@chainlink/contracts/src/v0.8/vendor/BufferChainlink.sol\":9555:9558  len */\n      dup6\n        /* \"@chainlink/contracts/src/v0.8/vendor/BufferChainlink.sol\":9550:9553  off */\n      dup9\n        /* \"@chainlink/contracts/src/v0.8/vendor/BufferChainlink.sol\":9546:9559  add(off, len) */\n      add\n        /* \"@chainlink/contracts/src/v0.8/vendor/BufferChainlink.sol\":9543:9575  gt(add(off, len), mload(bufptr)) */\n      gt\n        /* \"@chainlink/contracts/src/v0.8/vendor/BufferChainlink.sol\":9540:9623  if gt(add(off, len), mload(bufptr)) {... */\n      iszero\n      tag_194\n      jumpi\n        /* \"@chainlink/contracts/src/v0.8/vendor/BufferChainlink.sol\":9610:9613  len */\n      dup5\n        /* \"@chainlink/contracts/src/v0.8/vendor/BufferChainlink.sol\":9605:9608  off */\n      dup8\n        /* \"@chainlink/contracts/src/v0.8/vendor/BufferChainlink.sol\":9601:9614  add(off, len) */\n      add\n        /* \"@chainlink/contracts/src/v0.8/vendor/BufferChainlink.sol\":9593:9599  bufptr */\n      dup3\n        /* \"@chainlink/contracts/src/v0.8/vendor/BufferChainlink.sol\":9586:9615  mstore(bufptr, add(off, len)) */\n      mstore\n        /* \"@chainlink/contracts/src/v0.8/vendor/BufferChainlink.sol\":9540:9623  if gt(add(off, len), mload(bufptr)) {... */\n    tag_194:\n        /* \"@chainlink/contracts/src/v0.8/vendor/BufferChainlink.sol\":9237:9629  {... */\n      pop\n      pop\n        /* \"@chainlink/contracts/src/v0.8/vendor/BufferChainlink.sol\":9641:9644  buf */\n      dup6\n        /* \"@chainlink/contracts/src/v0.8/vendor/BufferChainlink.sol\":9634:9644  return buf */\n      swap2\n      pop\n      pop\n        /* \"@chainlink/contracts/src/v0.8/vendor/BufferChainlink.sol\":8974:9649  function writeInt(... */\n      swap5\n      swap4\n      pop\n      pop\n      pop\n      pop\n      jump\t// out\n        /* \"@chainlink/contracts/src/v0.8/vendor/BufferChainlink.sol\":1961:2085  function max(uint256 a, uint256 b) private pure returns (uint256) {... */\n    tag_167:\n        /* \"@chainlink/contracts/src/v0.8/vendor/BufferChainlink.sol\":2018:2025  uint256 */\n      0x00\n        /* \"@chainlink/contracts/src/v0.8/vendor/BufferChainlink.sol\":2041:2042  b */\n      dup2\n        /* \"@chainlink/contracts/src/v0.8/vendor/BufferChainlink.sol\":2037:2038  a */\n      dup4\n        /* \"@chainlink/contracts/src/v0.8/vendor/BufferChainlink.sol\":2037:2042  a > b */\n      gt\n        /* \"@chainlink/contracts/src/v0.8/vendor/BufferChainlink.sol\":2033:2067  if (a > b) {... */\n      iszero\n      tag_196\n      jumpi\n        /* \"@chainlink/contracts/src/v0.8/vendor/BufferChainlink.sol\":2059:2060  a */\n      dup3\n        /* \"@chainlink/contracts/src/v0.8/vendor/BufferChainlink.sol\":2052:2060  return a */\n      swap1\n      pop\n      jump(tag_195)\n        /* \"@chainlink/contracts/src/v0.8/vendor/BufferChainlink.sol\":2033:2067  if (a > b) {... */\n    tag_196:\n        /* \"@chainlink/contracts/src/v0.8/vendor/BufferChainlink.sol\":2079:2080  b */\n      dup2\n        /* \"@chainlink/contracts/src/v0.8/vendor/BufferChainlink.sol\":2072:2080  return b */\n      swap1\n      pop\n        /* \"@chainlink/contracts/src/v0.8/vendor/BufferChainlink.sol\":1961:2085  function max(uint256 a, uint256 b) private pure returns (uint256) {... */\n    tag_195:\n      swap3\n      swap2\n      pop\n      pop\n      jump\t// out\n        /* \"@chainlink/contracts/src/v0.8/vendor/BufferChainlink.sol\":1801:1957  function resize(buffer memory buf, uint256 capacity) private pure {... */\n    tag_170:\n        /* \"@chainlink/contracts/src/v0.8/vendor/BufferChainlink.sol\":1873:1892  bytes memory oldbuf */\n      0x00\n        /* \"@chainlink/contracts/src/v0.8/vendor/BufferChainlink.sol\":1895:1898  buf */\n      dup3\n        /* \"@chainlink/contracts/src/v0.8/vendor/BufferChainlink.sol\":1895:1902  buf.buf */\n      0x00\n      add\n      mload\n        /* \"@chainlink/contracts/src/v0.8/vendor/BufferChainlink.sol\":1873:1902  bytes memory oldbuf = buf.buf */\n      swap1\n      pop\n        /* \"@chainlink/contracts/src/v0.8/vendor/BufferChainlink.sol\":1908:1927  init(buf, capacity) */\n      tag_198\n        /* \"@chainlink/contracts/src/v0.8/vendor/BufferChainlink.sol\":1913:1916  buf */\n      dup4\n        /* \"@chainlink/contracts/src/v0.8/vendor/BufferChainlink.sol\":1918:1926  capacity */\n      dup4\n        /* \"@chainlink/contracts/src/v0.8/vendor/BufferChainlink.sol\":1908:1912  init */\n      tag_91\n        /* \"@chainlink/contracts/src/v0.8/vendor/BufferChainlink.sol\":1908:1927  init(buf, capacity) */\n      jump\t// in\n    tag_198:\n      pop\n        /* \"@chainlink/contracts/src/v0.8/vendor/BufferChainlink.sol\":1933:1952  append(buf, oldbuf) */\n      tag_199\n        /* \"@chainlink/contracts/src/v0.8/vendor/BufferChainlink.sol\":1940:1943  buf */\n      dup4\n        /* \"@chainlink/contracts/src/v0.8/vendor/BufferChainlink.sol\":1945:1951  oldbuf */\n      dup3\n        /* \"@chainlink/contracts/src/v0.8/vendor/BufferChainlink.sol\":1933:1939  append */\n      tag_96\n        /* \"@chainlink/contracts/src/v0.8/vendor/BufferChainlink.sol\":1933:1952  append(buf, oldbuf) */\n      jump\t// in\n    tag_199:\n      pop\n        /* \"@chainlink/contracts/src/v0.8/vendor/BufferChainlink.sol\":1867:1957  {... */\n      pop\n        /* \"@chainlink/contracts/src/v0.8/vendor/BufferChainlink.sol\":1801:1957  function resize(buffer memory buf, uint256 capacity) private pure {... */\n      pop\n      pop\n      jump\t// out\n    tag_68:\n      mload(0x40)\n      dup1\n      0xa0\n      add\n      0x40\n      mstore\n      dup1\n      0x00\n      dup2\n      mstore\n      0x20\n      add\n      and(0xffffffffffffffffffffffffffffffffffffffff, 0x00)\n      dup2\n      mstore\n      0x20\n      add\n      and(not(0xffffffffffffffffffffffffffffffffffffffffffffffffffffffff), 0x00)\n      dup2\n      mstore\n      0x20\n      add\n      0x00\n      dup2\n      mstore\n      0x20\n      add\n      tag_200\n      tag_106\n      jump\t// in\n    tag_200:\n      dup2\n      mstore\n      pop\n      swap1\n      jump\t// out\n    tag_106:\n      mload(0x40)\n      dup1\n      0x40\n      add\n      0x40\n      mstore\n      dup1\n      0x60\n      dup2\n      mstore\n      0x20\n      add\n      0x00\n      dup2\n      mstore\n      pop\n      swap1\n      jump\t// out\n        /* \"#utility.yul\":7:82   */\n    tag_201:\n        /* \"#utility.yul\":40:46   */\n      0x00\n        /* \"#utility.yul\":73:75   */\n      0x40\n        /* \"#utility.yul\":67:76   */\n      mload\n        /* \"#utility.yul\":57:76   */\n      swap1\n      pop\n        /* \"#utility.yul\":7:82   */\n      swap1\n      jump\t// out\n        /* \"#utility.yul\":88:205   */\n    tag_202:\n        /* \"#utility.yul\":197:198   */\n      0x00\n        /* \"#utility.yul\":194:195   */\n      0x00\n        /* \"#utility.yul\":187:199   */\n      revert\n        /* \"#utility.yul\":211:328   */\n    tag_203:\n        /* \"#utility.yul\":320:321   */\n      0x00\n        /* \"#utility.yul\":317:318   */\n      0x00\n        /* \"#utility.yul\":310:322   */\n      revert\n        /* \"#utility.yul\":334:411   */\n    tag_204:\n        /* \"#utility.yul\":371:378   */\n      0x00\n        /* \"#utility.yul\":400:405   */\n      dup2\n        /* \"#utility.yul\":389:405   */\n      swap1\n      pop\n        /* \"#utility.yul\":334:411   */\n      swap2\n      swap1\n      pop\n      jump\t// out\n        /* \"#utility.yul\":417:539   */\n    tag_205:\n        /* \"#utility.yul\":490:514   */\n      tag_270\n        /* \"#utility.yul\":508:513   */\n      dup2\n        /* \"#utility.yul\":490:514   */\n      tag_204\n      jump\t// in\n    tag_270:\n        /* \"#utility.yul\":483:488   */\n      dup2\n        /* \"#utility.yul\":480:515   */\n      eq\n        /* \"#utility.yul\":470:533   */\n      tag_271\n      jumpi\n        /* \"#utility.yul\":529:530   */\n      0x00\n        /* \"#utility.yul\":526:527   */\n      0x00\n        /* \"#utility.yul\":519:531   */\n      revert\n        /* \"#utility.yul\":470:533   */\n    tag_271:\n        /* \"#utility.yul\":417:539   */\n      pop\n      jump\t// out\n        /* \"#utility.yul\":545:684   */\n    tag_206:\n        /* \"#utility.yul\":591:596   */\n      0x00\n        /* \"#utility.yul\":629:635   */\n      dup2\n        /* \"#utility.yul\":616:636   */\n      calldataload\n        /* \"#utility.yul\":607:636   */\n      swap1\n      pop\n        /* \"#utility.yul\":645:678   */\n      tag_273\n        /* \"#utility.yul\":672:677   */\n      dup2\n        /* \"#utility.yul\":645:678   */\n      tag_205\n      jump\t// in\n    tag_273:\n        /* \"#utility.yul\":545:684   */\n      swap3\n      swap2\n      pop\n      pop\n      jump\t// out\n        /* \"#utility.yul\":690:807   */\n    tag_207:\n        /* \"#utility.yul\":799:800   */\n      0x00\n        /* \"#utility.yul\":796:797   */\n      0x00\n        /* \"#utility.yul\":789:801   */\n      revert\n        /* \"#utility.yul\":813:930   */\n    tag_208:\n        /* \"#utility.yul\":922:923   */\n      0x00\n        /* \"#utility.yul\":919:920   */\n      0x00\n        /* \"#utility.yul\":912:924   */\n      revert\n        /* \"#utility.yul\":936:1038   */\n    tag_209:\n        /* \"#utility.yul\":977:983   */\n      0x00\n        /* \"#utility.yul\":1028:1030   */\n      0x1f\n        /* \"#utility.yul\":1024:1031   */\n      not\n        /* \"#utility.yul\":1019:1021   */\n      0x1f\n        /* \"#utility.yul\":1012:1017   */\n      dup4\n        /* \"#utility.yul\":1008:1022   */\n      add\n        /* \"#utility.yul\":1004:1032   */\n      and\n        /* \"#utility.yul\":994:1032   */\n      swap1\n      pop\n        /* \"#utility.yul\":936:1038   */\n      swap2\n      swap1\n      pop\n      jump\t// out\n        /* \"#utility.yul\":1044:1224   */\n    tag_210:\n        /* \"#utility.yul\":1092:1169   */\n      0x4e487b7100000000000000000000000000000000000000000000000000000000\n        /* \"#utility.yul\":1089:1090   */\n      0x00\n        /* \"#utility.yul\":1082:1170   */\n      mstore\n        /* \"#utility.yul\":1189:1193   */\n      0x41\n        /* \"#utility.yul\":1186:1187   */\n      0x04\n        /* \"#utility.yul\":1179:1194   */\n      mstore\n        /* \"#utility.yul\":1213:1217   */\n      0x24\n        /* \"#utility.yul\":1210:1211   */\n      0x00\n        /* \"#utility.yul\":1203:1218   */\n      revert\n        /* \"#utility.yul\":1230:1511   */\n    tag_211:\n        /* \"#utility.yul\":1313:1340   */\n      tag_279\n        /* \"#utility.yul\":1335:1339   */\n      dup3\n        /* \"#utility.yul\":1313:1340   */\n      tag_209\n      jump\t// in\n    tag_279:\n        /* \"#utility.yul\":1305:1311   */\n      dup2\n        /* \"#utility.yul\":1301:1341   */\n      add\n        /* \"#utility.yul\":1443:1449   */\n      dup2\n        /* \"#utility.yul\":1431:1441   */\n      dup2\n        /* \"#utility.yul\":1428:1450   */\n      lt\n        /* \"#utility.yul\":1407:1425   */\n      0xffffffffffffffff\n        /* \"#utility.yul\":1395:1405   */\n      dup3\n        /* \"#utility.yul\":1392:1426   */\n      gt\n        /* \"#utility.yul\":1389:1451   */\n      or\n        /* \"#utility.yul\":1386:1474   */\n      iszero\n      tag_280\n      jumpi\n        /* \"#utility.yul\":1454:1472   */\n      tag_281\n      tag_210\n      jump\t// in\n    tag_281:\n        /* \"#utility.yul\":1386:1474   */\n    tag_280:\n        /* \"#utility.yul\":1494:1504   */\n      dup1\n        /* \"#utility.yul\":1490:1492   */\n      0x40\n        /* \"#utility.yul\":1483:1505   */\n      mstore\n        /* \"#utility.yul\":1273:1511   */\n      pop\n        /* \"#utility.yul\":1230:1511   */\n      pop\n      pop\n      jump\t// out\n        /* \"#utility.yul\":1517:1646   */\n    tag_212:\n        /* \"#utility.yul\":1551:1557   */\n      0x00\n        /* \"#utility.yul\":1578:1598   */\n      tag_283\n      tag_201\n      jump\t// in\n    tag_283:\n        /* \"#utility.yul\":1568:1598   */\n      swap1\n      pop\n        /* \"#utility.yul\":1607:1640   */\n      tag_284\n        /* \"#utility.yul\":1635:1639   */\n      dup3\n        /* \"#utility.yul\":1627:1633   */\n      dup3\n        /* \"#utility.yul\":1607:1640   */\n      tag_211\n      jump\t// in\n    tag_284:\n        /* \"#utility.yul\":1517:1646   */\n      swap2\n      swap1\n      pop\n      jump\t// out\n        /* \"#utility.yul\":1652:1959   */\n    tag_213:\n        /* \"#utility.yul\":1713:1717   */\n      0x00\n        /* \"#utility.yul\":1803:1821   */\n      0xffffffffffffffff\n        /* \"#utility.yul\":1795:1801   */\n      dup3\n        /* \"#utility.yul\":1792:1822   */\n      gt\n        /* \"#utility.yul\":1789:1845   */\n      iszero\n      tag_286\n      jumpi\n        /* \"#utility.yul\":1825:1843   */\n      tag_287\n      tag_210\n      jump\t// in\n    tag_287:\n        /* \"#utility.yul\":1789:1845   */\n    tag_286:\n        /* \"#utility.yul\":1863:1892   */\n      tag_288\n        /* \"#utility.yul\":1885:1891   */\n      dup3\n        /* \"#utility.yul\":1863:1892   */\n      tag_209\n      jump\t// in\n    tag_288:\n        /* \"#utility.yul\":1855:1892   */\n      swap1\n      pop\n        /* \"#utility.yul\":1947:1951   */\n      0x20\n        /* \"#utility.yul\":1941:1945   */\n      dup2\n        /* \"#utility.yul\":1937:1952   */\n      add\n        /* \"#utility.yul\":1929:1952   */\n      swap1\n      pop\n        /* \"#utility.yul\":1652:1959   */\n      swap2\n      swap1\n      pop\n      jump\t// out\n        /* \"#utility.yul\":1965:2113   */\n    tag_214:\n        /* \"#utility.yul\":2063:2069   */\n      dup3\n        /* \"#utility.yul\":2058:2061   */\n      dup2\n        /* \"#utility.yul\":2053:2056   */\n      dup4\n        /* \"#utility.yul\":2040:2070   */\n      calldatacopy\n        /* \"#utility.yul\":2104:2105   */\n      0x00\n        /* \"#utility.yul\":2095:2101   */\n      dup4\n        /* \"#utility.yul\":2090:2093   */\n      dup4\n        /* \"#utility.yul\":2086:2102   */\n      add\n        /* \"#utility.yul\":2079:2106   */\n      mstore\n        /* \"#utility.yul\":1965:2113   */\n      pop\n      pop\n      pop\n      jump\t// out\n        /* \"#utility.yul\":2119:2542   */\n    tag_215:\n        /* \"#utility.yul\":2196:2201   */\n      0x00\n        /* \"#utility.yul\":2221:2286   */\n      tag_291\n        /* \"#utility.yul\":2237:2285   */\n      tag_292\n        /* \"#utility.yul\":2278:2284   */\n      dup5\n        /* \"#utility.yul\":2237:2285   */\n      tag_213\n      jump\t// in\n    tag_292:\n        /* \"#utility.yul\":2221:2286   */\n      tag_212\n      jump\t// in\n    tag_291:\n        /* \"#utility.yul\":2212:2286   */\n      swap1\n      pop\n        /* \"#utility.yul\":2309:2315   */\n      dup3\n        /* \"#utility.yul\":2302:2307   */\n      dup2\n        /* \"#utility.yul\":2295:2316   */\n      mstore\n        /* \"#utility.yul\":2347:2351   */\n      0x20\n        /* \"#utility.yul\":2340:2345   */\n      dup2\n        /* \"#utility.yul\":2336:2352   */\n      add\n        /* \"#utility.yul\":2385:2388   */\n      dup5\n        /* \"#utility.yul\":2376:2382   */\n      dup5\n        /* \"#utility.yul\":2371:2374   */\n      dup5\n        /* \"#utility.yul\":2367:2383   */\n      add\n        /* \"#utility.yul\":2364:2389   */\n      gt\n        /* \"#utility.yul\":2361:2473   */\n      iszero\n      tag_293\n      jumpi\n        /* \"#utility.yul\":2392:2471   */\n      tag_294\n      tag_208\n      jump\t// in\n    tag_294:\n        /* \"#utility.yul\":2361:2473   */\n    tag_293:\n        /* \"#utility.yul\":2482:2536   */\n      tag_295\n        /* \"#utility.yul\":2529:2535   */\n      dup5\n        /* \"#utility.yul\":2524:2527   */\n      dup3\n        /* \"#utility.yul\":2519:2522   */\n      dup6\n        /* \"#utility.yul\":2482:2536   */\n      tag_214\n      jump\t// in\n    tag_295:\n        /* \"#utility.yul\":2202:2542   */\n      pop\n        /* \"#utility.yul\":2119:2542   */\n      swap4\n      swap3\n      pop\n      pop\n      pop\n      jump\t// out\n        /* \"#utility.yul\":2561:2899   */\n    tag_216:\n        /* \"#utility.yul\":2616:2621   */\n      0x00\n        /* \"#utility.yul\":2665:2668   */\n      dup3\n        /* \"#utility.yul\":2658:2662   */\n      0x1f\n        /* \"#utility.yul\":2650:2656   */\n      dup4\n        /* \"#utility.yul\":2646:2663   */\n      add\n        /* \"#utility.yul\":2642:2669   */\n      slt\n        /* \"#utility.yul\":2632:2754   */\n      tag_297\n      jumpi\n        /* \"#utility.yul\":2673:2752   */\n      tag_298\n      tag_207\n      jump\t// in\n    tag_298:\n        /* \"#utility.yul\":2632:2754   */\n    tag_297:\n        /* \"#utility.yul\":2790:2796   */\n      dup2\n        /* \"#utility.yul\":2777:2797   */\n      calldataload\n        /* \"#utility.yul\":2815:2893   */\n      tag_299\n        /* \"#utility.yul\":2889:2892   */\n      dup5\n        /* \"#utility.yul\":2881:2887   */\n      dup3\n        /* \"#utility.yul\":2874:2878   */\n      0x20\n        /* \"#utility.yul\":2866:2872   */\n      dup7\n        /* \"#utility.yul\":2862:2879   */\n      add\n        /* \"#utility.yul\":2815:2893   */\n      tag_215\n      jump\t// in\n    tag_299:\n        /* \"#utility.yul\":2806:2893   */\n      swap2\n      pop\n        /* \"#utility.yul\":2622:2899   */\n      pop\n        /* \"#utility.yul\":2561:2899   */\n      swap3\n      swap2\n      pop\n      pop\n      jump\t// out\n        /* \"#utility.yul\":2905:3557   */\n    tag_15:\n        /* \"#utility.yul\":2982:2988   */\n      0x00\n        /* \"#utility.yul\":2990:2996   */\n      0x00\n        /* \"#utility.yul\":3039:3041   */\n      0x40\n        /* \"#utility.yul\":3027:3036   */\n      dup4\n        /* \"#utility.yul\":3018:3025   */\n      dup6\n        /* \"#utility.yul\":3014:3037   */\n      sub\n        /* \"#utility.yul\":3010:3042   */\n      slt\n        /* \"#utility.yul\":3007:3126   */\n      iszero\n      tag_301\n      jumpi\n        /* \"#utility.yul\":3045:3124   */\n      tag_302\n      tag_202\n      jump\t// in\n    tag_302:\n        /* \"#utility.yul\":3007:3126   */\n    tag_301:\n        /* \"#utility.yul\":3165:3166   */\n      0x00\n        /* \"#utility.yul\":3190:3243   */\n      tag_303\n        /* \"#utility.yul\":3235:3242   */\n      dup6\n        /* \"#utility.yul\":3226:3232   */\n      dup3\n        /* \"#utility.yul\":3215:3224   */\n      dup7\n        /* \"#utility.yul\":3211:3233   */\n      add\n        /* \"#utility.yul\":3190:3243   */\n      tag_206\n      jump\t// in\n    tag_303:\n        /* \"#utility.yul\":3180:3243   */\n      swap3\n      pop\n        /* \"#utility.yul\":3136:3253   */\n      pop\n        /* \"#utility.yul\":3320:3322   */\n      0x20\n        /* \"#utility.yul\":3309:3318   */\n      dup4\n        /* \"#utility.yul\":3305:3323   */\n      add\n        /* \"#utility.yul\":3292:3324   */\n      calldataload\n        /* \"#utility.yul\":3351:3369   */\n      0xffffffffffffffff\n        /* \"#utility.yul\":3343:3349   */\n      dup2\n        /* \"#utility.yul\":3340:3370   */\n      gt\n        /* \"#utility.yul\":3337:3454   */\n      iszero\n      tag_304\n      jumpi\n        /* \"#utility.yul\":3373:3452   */\n      tag_305\n      tag_203\n      jump\t// in\n    tag_305:\n        /* \"#utility.yul\":3337:3454   */\n    tag_304:\n        /* \"#utility.yul\":3478:3540   */\n      tag_306\n        /* \"#utility.yul\":3532:3539   */\n      dup6\n        /* \"#utility.yul\":3523:3529   */\n      dup3\n        /* \"#utility.yul\":3512:3521   */\n      dup7\n        /* \"#utility.yul\":3508:3530   */\n      add\n        /* \"#utility.yul\":3478:3540   */\n      tag_216\n      jump\t// in\n    tag_306:\n        /* \"#utility.yul\":3468:3540   */\n      swap2\n      pop\n        /* \"#utility.yul\":3263:3550   */\n      pop\n        /* \"#utility.yul\":2905:3557   */\n      swap3\n      pop\n      swap3\n      swap1\n      pop\n      jump\t// out\n        /* \"#utility.yul\":3563:3640   */\n    tag_217:\n        /* \"#utility.yul\":3600:3607   */\n      0x00\n        /* \"#utility.yul\":3629:3634   */\n      dup2\n        /* \"#utility.yul\":3618:3634   */\n      swap1\n      pop\n        /* \"#utility.yul\":3563:3640   */\n      swap2\n      swap1\n      pop\n      jump\t// out\n        /* \"#utility.yul\":3646:3768   */\n    tag_218:\n        /* \"#utility.yul\":3719:3743   */\n      tag_309\n        /* \"#utility.yul\":3737:3742   */\n      dup2\n        /* \"#utility.yul\":3719:3743   */\n      tag_217\n      jump\t// in\n    tag_309:\n        /* \"#utility.yul\":3712:3717   */\n      dup2\n        /* \"#utility.yul\":3709:3744   */\n      eq\n        /* \"#utility.yul\":3699:3762   */\n      tag_310\n      jumpi\n        /* \"#utility.yul\":3758:3759   */\n      0x00\n        /* \"#utility.yul\":3755:3756   */\n      0x00\n        /* \"#utility.yul\":3748:3760   */\n      revert\n        /* \"#utility.yul\":3699:3762   */\n    tag_310:\n        /* \"#utility.yul\":3646:3768   */\n      pop\n      jump\t// out\n        /* \"#utility.yul\":3774:3913   */\n    tag_219:\n        /* \"#utility.yul\":3820:3825   */\n      0x00\n        /* \"#utility.yul\":3858:3864   */\n      dup2\n        /* \"#utility.yul\":3845:3865   */\n      calldataload\n        /* \"#utility.yul\":3836:3865   */\n      swap1\n      pop\n        /* \"#utility.yul\":3874:3907   */\n      tag_312\n        /* \"#utility.yul\":3901:3906   */\n      dup2\n        /* \"#utility.yul\":3874:3907   */\n      tag_218\n      jump\t// in\n    tag_312:\n        /* \"#utility.yul\":3774:3913   */\n      swap3\n      swap2\n      pop\n      pop\n      jump\t// out\n        /* \"#utility.yul\":3919:4248   */\n    tag_19:\n        /* \"#utility.yul\":3978:3984   */\n      0x00\n        /* \"#utility.yul\":4027:4029   */\n      0x20\n        /* \"#utility.yul\":4015:4024   */\n      dup3\n        /* \"#utility.yul\":4006:4013   */\n      dup5\n        /* \"#utility.yul\":4002:4025   */\n      sub\n        /* \"#utility.yul\":3998:4030   */\n      slt\n        /* \"#utility.yul\":3995:4114   */\n      iszero\n      tag_314\n      jumpi\n        /* \"#utility.yul\":4033:4112   */\n      tag_315\n      tag_202\n      jump\t// in\n    tag_315:\n        /* \"#utility.yul\":3995:4114   */\n    tag_314:\n        /* \"#utility.yul\":4153:4154   */\n      0x00\n        /* \"#utility.yul\":4178:4231   */\n      tag_316\n        /* \"#utility.yul\":4223:4230   */\n      dup5\n        /* \"#utility.yul\":4214:4220   */\n      dup3\n        /* \"#utility.yul\":4203:4212   */\n      dup6\n        /* \"#utility.yul\":4199:4221   */\n      add\n        /* \"#utility.yul\":4178:4231   */\n      tag_219\n      jump\t// in\n    tag_316:\n        /* \"#utility.yul\":4168:4231   */\n      swap2\n      pop\n        /* \"#utility.yul\":4124:4241   */\n      pop\n        /* \"#utility.yul\":3919:4248   */\n      swap3\n      swap2\n      pop\n      pop\n      jump\t// out\n        /* \"#utility.yul\":4254:4372   */\n    tag_220:\n        /* \"#utility.yul\":4341:4365   */\n      tag_318\n        /* \"#utility.yul\":4359:4364   */\n      dup2\n        /* \"#utility.yul\":4341:4365   */\n      tag_217\n      jump\t// in\n    tag_318:\n        /* \"#utility.yul\":4336:4339   */\n      dup3\n        /* \"#utility.yul\":4329:4366   */\n      mstore\n        /* \"#utility.yul\":4254:4372   */\n      pop\n      pop\n      jump\t// out\n        /* \"#utility.yul\":4378:4820   */\n    tag_22:\n        /* \"#utility.yul\":4527:4531   */\n      0x00\n        /* \"#utility.yul\":4565:4567   */\n      0x60\n        /* \"#utility.yul\":4554:4563   */\n      dup3\n        /* \"#utility.yul\":4550:4568   */\n      add\n        /* \"#utility.yul\":4542:4568   */\n      swap1\n      pop\n        /* \"#utility.yul\":4578:4649   */\n      tag_320\n        /* \"#utility.yul\":4646:4647   */\n      0x00\n        /* \"#utility.yul\":4635:4644   */\n      dup4\n        /* \"#utility.yul\":4631:4648   */\n      add\n        /* \"#utility.yul\":4622:4628   */\n      dup7\n        /* \"#utility.yul\":4578:4649   */\n      tag_220\n      jump\t// in\n    tag_320:\n        /* \"#utility.yul\":4659:4731   */\n      tag_321\n        /* \"#utility.yul\":4727:4729   */\n      0x20\n        /* \"#utility.yul\":4716:4725   */\n      dup4\n        /* \"#utility.yul\":4712:4730   */\n      add\n        /* \"#utility.yul\":4703:4709   */\n      dup6\n        /* \"#utility.yul\":4659:4731   */\n      tag_220\n      jump\t// in\n    tag_321:\n        /* \"#utility.yul\":4741:4813   */\n      tag_322\n        /* \"#utility.yul\":4809:4811   */\n      0x40\n        /* \"#utility.yul\":4798:4807   */\n      dup4\n        /* \"#utility.yul\":4794:4812   */\n      add\n        /* \"#utility.yul\":4785:4791   */\n      dup5\n        /* \"#utility.yul\":4741:4813   */\n      tag_220\n      jump\t// in\n    tag_322:\n        /* \"#utility.yul\":4378:4820   */\n      swap5\n      swap4\n      pop\n      pop\n      pop\n      pop\n      jump\t// out\n        /* \"#utility.yul\":4826:4952   */\n    tag_221:\n        /* \"#utility.yul\":4863:4870   */\n      0x00\n        /* \"#utility.yul\":4903:4945   */\n      0xffffffffffffffffffffffffffffffffffffffff\n        /* \"#utility.yul\":4896:4901   */\n      dup3\n        /* \"#utility.yul\":4892:4946   */\n      and\n        /* \"#utility.yul\":4881:4946   */\n      swap1\n      pop\n        /* \"#utility.yul\":4826:4952   */\n      swap2\n      swap1\n      pop\n      jump\t// out\n        /* \"#utility.yul\":4958:5054   */\n    tag_222:\n        /* \"#utility.yul\":4995:5002   */\n      0x00\n        /* \"#utility.yul\":5024:5048   */\n      tag_325\n        /* \"#utility.yul\":5042:5047   */\n      dup3\n        /* \"#utility.yul\":5024:5048   */\n      tag_221\n      jump\t// in\n    tag_325:\n        /* \"#utility.yul\":5013:5048   */\n      swap1\n      pop\n        /* \"#utility.yul\":4958:5054   */\n      swap2\n      swap1\n      pop\n      jump\t// out\n        /* \"#utility.yul\":5060:5178   */\n    tag_223:\n        /* \"#utility.yul\":5147:5171   */\n      tag_327\n        /* \"#utility.yul\":5165:5170   */\n      dup2\n        /* \"#utility.yul\":5147:5171   */\n      tag_222\n      jump\t// in\n    tag_327:\n        /* \"#utility.yul\":5142:5145   */\n      dup3\n        /* \"#utility.yul\":5135:5172   */\n      mstore\n        /* \"#utility.yul\":5060:5178   */\n      pop\n      pop\n      jump\t// out\n        /* \"#utility.yul\":5184:5406   */\n    tag_26:\n        /* \"#utility.yul\":5277:5281   */\n      0x00\n        /* \"#utility.yul\":5315:5317   */\n      0x20\n        /* \"#utility.yul\":5304:5313   */\n      dup3\n        /* \"#utility.yul\":5300:5318   */\n      add\n        /* \"#utility.yul\":5292:5318   */\n      swap1\n      pop\n        /* \"#utility.yul\":5328:5399   */\n      tag_329\n        /* \"#utility.yul\":5396:5397   */\n      0x00\n        /* \"#utility.yul\":5385:5394   */\n      dup4\n        /* \"#utility.yul\":5381:5398   */\n      add\n        /* \"#utility.yul\":5372:5378   */\n      dup5\n        /* \"#utility.yul\":5328:5399   */\n      tag_223\n      jump\t// in\n    tag_329:\n        /* \"#utility.yul\":5184:5406   */\n      swap3\n      swap2\n      pop\n      pop\n      jump\t// out\n        /* \"#utility.yul\":5412:5534   */\n    tag_224:\n        /* \"#utility.yul\":5485:5509   */\n      tag_331\n        /* \"#utility.yul\":5503:5508   */\n      dup2\n        /* \"#utility.yul\":5485:5509   */\n      tag_222\n      jump\t// in\n    tag_331:\n        /* \"#utility.yul\":5478:5483   */\n      dup2\n        /* \"#utility.yul\":5475:5510   */\n      eq\n        /* \"#utility.yul\":5465:5528   */\n      tag_332\n      jumpi\n        /* \"#utility.yul\":5524:5525   */\n      0x00\n        /* \"#utility.yul\":5521:5522   */\n      0x00\n        /* \"#utility.yul\":5514:5526   */\n      revert\n        /* \"#utility.yul\":5465:5528   */\n    tag_332:\n        /* \"#utility.yul\":5412:5534   */\n      pop\n      jump\t// out\n        /* \"#utility.yul\":5540:5679   */\n    tag_225:\n        /* \"#utility.yul\":5586:5591   */\n      0x00\n        /* \"#utility.yul\":5624:5630   */\n      dup2\n        /* \"#utility.yul\":5611:5631   */\n      calldataload\n        /* \"#utility.yul\":5602:5631   */\n      swap1\n      pop\n        /* \"#utility.yul\":5640:5673   */\n      tag_334\n        /* \"#utility.yul\":5667:5672   */\n      dup2\n        /* \"#utility.yul\":5640:5673   */\n      tag_224\n      jump\t// in\n    tag_334:\n        /* \"#utility.yul\":5540:5679   */\n      swap3\n      swap2\n      pop\n      pop\n      jump\t// out\n        /* \"#utility.yul\":5685:6014   */\n    tag_29:\n        /* \"#utility.yul\":5744:5750   */\n      0x00\n        /* \"#utility.yul\":5793:5795   */\n      0x20\n        /* \"#utility.yul\":5781:5790   */\n      dup3\n        /* \"#utility.yul\":5772:5779   */\n      dup5\n        /* \"#utility.yul\":5768:5791   */\n      sub\n        /* \"#utility.yul\":5764:5796   */\n      slt\n        /* \"#utility.yul\":5761:5880   */\n      iszero\n      tag_336\n      jumpi\n        /* \"#utility.yul\":5799:5878   */\n      tag_337\n      tag_202\n      jump\t// in\n    tag_337:\n        /* \"#utility.yul\":5761:5880   */\n    tag_336:\n        /* \"#utility.yul\":5919:5920   */\n      0x00\n        /* \"#utility.yul\":5944:5997   */\n      tag_338\n        /* \"#utility.yul\":5989:5996   */\n      dup5\n        /* \"#utility.yul\":5980:5986   */\n      dup3\n        /* \"#utility.yul\":5969:5978   */\n      dup6\n        /* \"#utility.yul\":5965:5987   */\n      add\n        /* \"#utility.yul\":5944:5997   */\n      tag_225\n      jump\t// in\n    tag_338:\n        /* \"#utility.yul\":5934:5997   */\n      swap2\n      pop\n        /* \"#utility.yul\":5890:6007   */\n      pop\n        /* \"#utility.yul\":5685:6014   */\n      swap3\n      swap2\n      pop\n      pop\n      jump\t// out\n        /* \"#utility.yul\":6020:6189   */\n    tag_226:\n        /* \"#utility.yul\":6104:6115   */\n      0x00\n        /* \"#utility.yul\":6138:6144   */\n      dup3\n        /* \"#utility.yul\":6133:6136   */\n      dup3\n        /* \"#utility.yul\":6126:6145   */\n      mstore\n        /* \"#utility.yul\":6178:6182   */\n      0x20\n        /* \"#utility.yul\":6173:6176   */\n      dup3\n        /* \"#utility.yul\":6169:6183   */\n      add\n        /* \"#utility.yul\":6154:6183   */\n      swap1\n      pop\n        /* \"#utility.yul\":6020:6189   */\n      swap3\n      swap2\n      pop\n      pop\n      jump\t// out\n        /* \"#utility.yul\":6195:6422   */\n    tag_227:\n        /* \"#utility.yul\":6335:6369   */\n      0x536f75726365206d75737420626520746865206f7261636c65206f6620746865\n        /* \"#utility.yul\":6331:6332   */\n      0x00\n        /* \"#utility.yul\":6323:6329   */\n      dup3\n        /* \"#utility.yul\":6319:6333   */\n      add\n        /* \"#utility.yul\":6312:6370   */\n      mstore\n        /* \"#utility.yul\":6404:6414   */\n      0x2072657175657374000000000000000000000000000000000000000000000000\n        /* \"#utility.yul\":6399:6401   */\n      0x20\n        /* \"#utility.yul\":6391:6397   */\n      dup3\n        /* \"#utility.yul\":6387:6402   */\n      add\n        /* \"#utility.yul\":6380:6415   */\n      mstore\n        /* \"#utility.yul\":6195:6422   */\n      pop\n      jump\t// out\n        /* \"#utility.yul\":6428:6794   */\n    tag_228:\n        /* \"#utility.yul\":6570:6573   */\n      0x00\n        /* \"#utility.yul\":6591:6658   */\n      tag_342\n        /* \"#utility.yul\":6655:6657   */\n      0x28\n        /* \"#utility.yul\":6650:6653   */\n      dup4\n        /* \"#utility.yul\":6591:6658   */\n      tag_226\n      jump\t// in\n    tag_342:\n        /* \"#utility.yul\":6584:6658   */\n      swap2\n      pop\n        /* \"#utility.yul\":6667:6760   */\n      tag_343\n        /* \"#utility.yul\":6756:6759   */\n      dup3\n        /* \"#utility.yul\":6667:6760   */\n      tag_227\n      jump\t// in\n    tag_343:\n        /* \"#utility.yul\":6785:6787   */\n      0x40\n        /* \"#utility.yul\":6780:6783   */\n      dup3\n        /* \"#utility.yul\":6776:6788   */\n      add\n        /* \"#utility.yul\":6769:6788   */\n      swap1\n      pop\n        /* \"#utility.yul\":6428:6794   */\n      swap2\n      swap1\n      pop\n      jump\t// out\n        /* \"#utility.yul\":6800:7219   */\n    tag_48:\n        /* \"#utility.yul\":6966:6970   */\n      0x00\n        /* \"#utility.yul\":7004:7006   */\n      0x20\n        /* \"#utility.yul\":6993:7002   */\n      dup3\n        /* \"#utility.yul\":6989:7007   */\n      add\n        /* \"#utility.yul\":6981:7007   */\n      swap1\n      pop\n        /* \"#utility.yul\":7053:7062   */\n      dup2\n        /* \"#utility.yul\":7047:7051   */\n      dup2\n        /* \"#utility.yul\":7043:7063   */\n      sub\n        /* \"#utility.yul\":7039:7040   */\n      0x00\n        /* \"#utility.yul\":7028:7037   */\n      dup4\n        /* \"#utility.yul\":7024:7041   */\n      add\n        /* \"#utility.yul\":7017:7064   */\n      mstore\n        /* \"#utility.yul\":7081:7212   */\n      tag_345\n        /* \"#utility.yul\":7207:7211   */\n      dup2\n        /* \"#utility.yul\":7081:7212   */\n      tag_228\n      jump\t// in\n    tag_345:\n        /* \"#utility.yul\":7073:7212   */\n      swap1\n      pop\n        /* \"#utility.yul\":6800:7219   */\n      swap2\n      swap1\n      pop\n      jump\t// out\n        /* \"#utility.yul\":7225:7568   */\n    tag_229:\n        /* \"#utility.yul\":7334:7338   */\n      0x00\n        /* \"#utility.yul\":7424:7442   */\n      0xffffffffffffffff\n        /* \"#utility.yul\":7416:7422   */\n      dup3\n        /* \"#utility.yul\":7413:7443   */\n      gt\n        /* \"#utility.yul\":7410:7466   */\n      iszero\n      tag_347\n      jumpi\n        /* \"#utility.yul\":7446:7464   */\n      tag_348\n      tag_210\n      jump\t// in\n    tag_348:\n        /* \"#utility.yul\":7410:7466   */\n    tag_347:\n        /* \"#utility.yul\":7496:7500   */\n      0x20\n        /* \"#utility.yul\":7488:7494   */\n      dup3\n        /* \"#utility.yul\":7484:7501   */\n      mul\n        /* \"#utility.yul\":7476:7501   */\n      swap1\n      pop\n        /* \"#utility.yul\":7556:7560   */\n      0x20\n        /* \"#utility.yul\":7550:7554   */\n      dup2\n        /* \"#utility.yul\":7546:7561   */\n      add\n        /* \"#utility.yul\":7538:7561   */\n      swap1\n      pop\n        /* \"#utility.yul\":7225:7568   */\n      swap2\n      swap1\n      pop\n      jump\t// out\n        /* \"#utility.yul\":7574:7691   */\n    tag_230:\n        /* \"#utility.yul\":7683:7684   */\n      0x00\n        /* \"#utility.yul\":7680:7681   */\n      0x00\n        /* \"#utility.yul\":7673:7685   */\n      revert\n        /* \"#utility.yul\":7697:7814   */\n    tag_231:\n        /* \"#utility.yul\":7806:7807   */\n      0x00\n        /* \"#utility.yul\":7803:7804   */\n      0x00\n        /* \"#utility.yul\":7796:7808   */\n      revert\n        /* \"#utility.yul\":7943:8086   */\n    tag_233:\n        /* \"#utility.yul\":8000:8005   */\n      0x00\n        /* \"#utility.yul\":8031:8037   */\n      dup2\n        /* \"#utility.yul\":8025:8038   */\n      mload\n        /* \"#utility.yul\":8016:8038   */\n      swap1\n      pop\n        /* \"#utility.yul\":8047:8080   */\n      tag_353\n        /* \"#utility.yul\":8074:8079   */\n      dup2\n        /* \"#utility.yul\":8047:8080   */\n      tag_218\n      jump\t// in\n    tag_353:\n        /* \"#utility.yul\":7943:8086   */\n      swap3\n      swap2\n      pop\n      pop\n      jump\t// out\n        /* \"#utility.yul\":8138:8938   */\n    tag_234:\n        /* \"#utility.yul\":8230:8235   */\n      0x00\n        /* \"#utility.yul\":8274:8278   */\n      0x60\n        /* \"#utility.yul\":8262:8271   */\n      dup3\n        /* \"#utility.yul\":8257:8260   */\n      dup5\n        /* \"#utility.yul\":8253:8272   */\n      sub\n        /* \"#utility.yul\":8249:8279   */\n      slt\n        /* \"#utility.yul\":8246:8363   */\n      iszero\n      tag_355\n      jumpi\n        /* \"#utility.yul\":8282:8361   */\n      tag_356\n      tag_231\n      jump\t// in\n    tag_356:\n        /* \"#utility.yul\":8246:8363   */\n    tag_355:\n        /* \"#utility.yul\":8381:8402   */\n      tag_357\n        /* \"#utility.yul\":8397:8401   */\n      0x60\n        /* \"#utility.yul\":8381:8402   */\n      tag_212\n      jump\t// in\n    tag_357:\n        /* \"#utility.yul\":8372:8402   */\n      swap1\n      pop\n        /* \"#utility.yul\":8465:8466   */\n      0x00\n        /* \"#utility.yul\":8505:8565   */\n      tag_358\n        /* \"#utility.yul\":8561:8564   */\n      dup5\n        /* \"#utility.yul\":8552:8558   */\n      dup3\n        /* \"#utility.yul\":8541:8550   */\n      dup6\n        /* \"#utility.yul\":8537:8559   */\n      add\n        /* \"#utility.yul\":8505:8565   */\n      tag_233\n      jump\t// in\n    tag_358:\n        /* \"#utility.yul\":8498:8502   */\n      0x00\n        /* \"#utility.yul\":8491:8496   */\n      dup4\n        /* \"#utility.yul\":8487:8503   */\n      add\n        /* \"#utility.yul\":8480:8566   */\n      mstore\n        /* \"#utility.yul\":8412:8577   */\n      pop\n        /* \"#utility.yul\":8640:8642   */\n      0x20\n        /* \"#utility.yul\":8681:8741   */\n      tag_359\n        /* \"#utility.yul\":8737:8740   */\n      dup5\n        /* \"#utility.yul\":8728:8734   */\n      dup3\n        /* \"#utility.yul\":8717:8726   */\n      dup6\n        /* \"#utility.yul\":8713:8735   */\n      add\n        /* \"#utility.yul\":8681:8741   */\n      tag_233\n      jump\t// in\n    tag_359:\n        /* \"#utility.yul\":8674:8678   */\n      0x20\n        /* \"#utility.yul\":8667:8672   */\n      dup4\n        /* \"#utility.yul\":8663:8679   */\n      add\n        /* \"#utility.yul\":8656:8742   */\n      mstore\n        /* \"#utility.yul\":8587:8753   */\n      pop\n        /* \"#utility.yul\":8818:8820   */\n      0x40\n        /* \"#utility.yul\":8859:8919   */\n      tag_360\n        /* \"#utility.yul\":8915:8918   */\n      dup5\n        /* \"#utility.yul\":8906:8912   */\n      dup3\n        /* \"#utility.yul\":8895:8904   */\n      dup6\n        /* \"#utility.yul\":8891:8913   */\n      add\n        /* \"#utility.yul\":8859:8919   */\n      tag_233\n      jump\t// in\n    tag_360:\n        /* \"#utility.yul\":8852:8856   */\n      0x40\n        /* \"#utility.yul\":8845:8850   */\n      dup4\n        /* \"#utility.yul\":8841:8857   */\n      add\n        /* \"#utility.yul\":8834:8920   */\n      mstore\n        /* \"#utility.yul\":8763:8931   */\n      pop\n        /* \"#utility.yul\":8138:8938   */\n      swap3\n      swap2\n      pop\n      pop\n      jump\t// out\n        /* \"#utility.yul\":8992:9820   */\n    tag_235:\n        /* \"#utility.yul\":9131:9136   */\n      0x00\n        /* \"#utility.yul\":9156:9269   */\n      tag_362\n        /* \"#utility.yul\":9172:9268   */\n      tag_363\n        /* \"#utility.yul\":9261:9267   */\n      dup5\n        /* \"#utility.yul\":9172:9268   */\n      tag_229\n      jump\t// in\n    tag_363:\n        /* \"#utility.yul\":9156:9269   */\n      tag_212\n      jump\t// in\n    tag_362:\n        /* \"#utility.yul\":9147:9269   */\n      swap1\n      pop\n        /* \"#utility.yul\":9289:9294   */\n      dup1\n        /* \"#utility.yul\":9318:9324   */\n      dup4\n        /* \"#utility.yul\":9311:9316   */\n      dup3\n        /* \"#utility.yul\":9304:9325   */\n      mstore\n        /* \"#utility.yul\":9352:9356   */\n      0x20\n        /* \"#utility.yul\":9345:9350   */\n      dup3\n        /* \"#utility.yul\":9341:9357   */\n      add\n        /* \"#utility.yul\":9334:9357   */\n      swap1\n      pop\n        /* \"#utility.yul\":9405:9409   */\n      0x60\n        /* \"#utility.yul\":9397:9403   */\n      dup5\n        /* \"#utility.yul\":9393:9410   */\n      mul\n        /* \"#utility.yul\":9385:9391   */\n      dup4\n        /* \"#utility.yul\":9381:9411   */\n      add\n        /* \"#utility.yul\":9434:9437   */\n      dup6\n        /* \"#utility.yul\":9426:9432   */\n      dup2\n        /* \"#utility.yul\":9423:9438   */\n      gt\n        /* \"#utility.yul\":9420:9542   */\n      iszero\n      tag_364\n      jumpi\n        /* \"#utility.yul\":9453:9532   */\n      tag_365\n      tag_230\n      jump\t// in\n    tag_365:\n        /* \"#utility.yul\":9420:9542   */\n    tag_364:\n        /* \"#utility.yul\":9568:9574   */\n      dup4\n        /* \"#utility.yul\":9551:9814   */\n    tag_366:\n        /* \"#utility.yul\":9585:9591   */\n      dup2\n        /* \"#utility.yul\":9580:9583   */\n      dup2\n        /* \"#utility.yul\":9577:9592   */\n      lt\n        /* \"#utility.yul\":9551:9814   */\n      iszero\n      tag_368\n      jumpi\n        /* \"#utility.yul\":9660:9663   */\n      dup1\n        /* \"#utility.yul\":9689:9769   */\n      tag_369\n        /* \"#utility.yul\":9765:9768   */\n      dup9\n        /* \"#utility.yul\":9753:9763   */\n      dup3\n        /* \"#utility.yul\":9689:9769   */\n      tag_234\n      jump\t// in\n    tag_369:\n        /* \"#utility.yul\":9684:9687   */\n      dup5\n        /* \"#utility.yul\":9677:9770   */\n      mstore\n        /* \"#utility.yul\":9799:9803   */\n      0x20\n        /* \"#utility.yul\":9794:9797   */\n      dup5\n        /* \"#utility.yul\":9790:9804   */\n      add\n        /* \"#utility.yul\":9783:9804   */\n      swap4\n      pop\n        /* \"#utility.yul\":9627:9814   */\n      pop\n        /* \"#utility.yul\":9611:9615   */\n      0x60\n        /* \"#utility.yul\":9606:9609   */\n      dup2\n        /* \"#utility.yul\":9602:9616   */\n      add\n        /* \"#utility.yul\":9595:9616   */\n      swap1\n      pop\n        /* \"#utility.yul\":9551:9814   */\n      jump(tag_366)\n    tag_368:\n        /* \"#utility.yul\":9555:9576   */\n      pop\n        /* \"#utility.yul\":9137:9820   */\n      pop\n      pop\n        /* \"#utility.yul\":8992:9820   */\n      swap4\n      swap3\n      pop\n      pop\n      pop\n      jump\t// out\n        /* \"#utility.yul\":9874:10323   */\n    tag_236:\n        /* \"#utility.yul\":9988:9993   */\n      0x00\n        /* \"#utility.yul\":10037:10040   */\n      dup3\n        /* \"#utility.yul\":10030:10034   */\n      0x1f\n        /* \"#utility.yul\":10022:10028   */\n      dup4\n        /* \"#utility.yul\":10018:10035   */\n      add\n        /* \"#utility.yul\":10014:10041   */\n      slt\n        /* \"#utility.yul\":10004:10126   */\n      tag_371\n      jumpi\n        /* \"#utility.yul\":10045:10124   */\n      tag_372\n      tag_207\n      jump\t// in\n    tag_372:\n        /* \"#utility.yul\":10004:10126   */\n    tag_371:\n        /* \"#utility.yul\":10155:10161   */\n      dup2\n        /* \"#utility.yul\":10149:10162   */\n      mload\n        /* \"#utility.yul\":10180:10317   */\n      tag_373\n        /* \"#utility.yul\":10313:10316   */\n      dup5\n        /* \"#utility.yul\":10305:10311   */\n      dup3\n        /* \"#utility.yul\":10298:10302   */\n      0x20\n        /* \"#utility.yul\":10290:10296   */\n      dup7\n        /* \"#utility.yul\":10286:10303   */\n      add\n        /* \"#utility.yul\":10180:10317   */\n      tag_235\n      jump\t// in\n    tag_373:\n        /* \"#utility.yul\":10171:10317   */\n      swap2\n      pop\n        /* \"#utility.yul\":9994:10323   */\n      pop\n        /* \"#utility.yul\":9874:10323   */\n      swap3\n      swap2\n      pop\n      pop\n      jump\t// out\n        /* \"#utility.yul\":10329:10947   */\n    tag_51:\n        /* \"#utility.yul\":10456:10462   */\n      0x00\n        /* \"#utility.yul\":10505:10507   */\n      0x20\n        /* \"#utility.yul\":10493:10502   */\n      dup3\n        /* \"#utility.yul\":10484:10491   */\n      dup5\n        /* \"#utility.yul\":10480:10503   */\n      sub\n        /* \"#utility.yul\":10476:10508   */\n      slt\n        /* \"#utility.yul\":10473:10592   */\n      iszero\n      tag_375\n      jumpi\n        /* \"#utility.yul\":10511:10590   */\n      tag_376\n      tag_202\n      jump\t// in\n    tag_376:\n        /* \"#utility.yul\":10473:10592   */\n    tag_375:\n        /* \"#utility.yul\":10652:10653   */\n      0x00\n        /* \"#utility.yul\":10641:10650   */\n      dup3\n        /* \"#utility.yul\":10637:10654   */\n      add\n        /* \"#utility.yul\":10631:10655   */\n      mload\n        /* \"#utility.yul\":10682:10700   */\n      0xffffffffffffffff\n        /* \"#utility.yul\":10674:10680   */\n      dup2\n        /* \"#utility.yul\":10671:10701   */\n      gt\n        /* \"#utility.yul\":10668:10785   */\n      iszero\n      tag_377\n      jumpi\n        /* \"#utility.yul\":10704:10783   */\n      tag_378\n      tag_203\n      jump\t// in\n    tag_378:\n        /* \"#utility.yul\":10668:10785   */\n    tag_377:\n        /* \"#utility.yul\":10809:10930   */\n      tag_379\n        /* \"#utility.yul\":10922:10929   */\n      dup5\n        /* \"#utility.yul\":10913:10919   */\n      dup3\n        /* \"#utility.yul\":10902:10911   */\n      dup6\n        /* \"#utility.yul\":10898:10920   */\n      add\n        /* \"#utility.yul\":10809:10930   */\n      tag_236\n      jump\t// in\n    tag_379:\n        /* \"#utility.yul\":10799:10930   */\n      swap2\n      pop\n        /* \"#utility.yul\":10602:10940   */\n      pop\n        /* \"#utility.yul\":10329:10947   */\n      swap3\n      swap2\n      pop\n      pop\n      jump\t// out\n        /* \"#utility.yul\":10953:11133   */\n    tag_57:\n        /* \"#utility.yul\":11001:11078   */\n      0x4e487b7100000000000000000000000000000000000000000000000000000000\n        /* \"#utility.yul\":10998:10999   */\n      0x00\n        /* \"#utility.yul\":10991:11079   */\n      mstore\n        /* \"#utility.yul\":11098:11102   */\n      0x32\n        /* \"#utility.yul\":11095:11096   */\n      0x04\n        /* \"#utility.yul\":11088:11103   */\n      mstore\n        /* \"#utility.yul\":11122:11126   */\n      0x24\n        /* \"#utility.yul\":11119:11120   */\n      0x00\n        /* \"#utility.yul\":11112:11127   */\n      revert\n        /* \"#utility.yul\":11139:11319   */\n    tag_237:\n        /* \"#utility.yul\":11187:11264   */\n      0x4e487b7100000000000000000000000000000000000000000000000000000000\n        /* \"#utility.yul\":11184:11185   */\n      0x00\n        /* \"#utility.yul\":11177:11265   */\n      mstore\n        /* \"#utility.yul\":11284:11288   */\n      0x11\n        /* \"#utility.yul\":11281:11282   */\n      0x04\n        /* \"#utility.yul\":11274:11289   */\n      mstore\n        /* \"#utility.yul\":11308:11312   */\n      0x24\n        /* \"#utility.yul\":11305:11306   */\n      0x00\n        /* \"#utility.yul\":11298:11313   */\n      revert\n        /* \"#utility.yul\":11325:11516   */\n    tag_99:\n        /* \"#utility.yul\":11365:11368   */\n      0x00\n        /* \"#utility.yul\":11384:11404   */\n      tag_383\n        /* \"#utility.yul\":11402:11403   */\n      dup3\n        /* \"#utility.yul\":11384:11404   */\n      tag_217\n      jump\t// in\n    tag_383:\n        /* \"#utility.yul\":11379:11404   */\n      swap2\n      pop\n        /* \"#utility.yul\":11418:11438   */\n      tag_384\n        /* \"#utility.yul\":11436:11437   */\n      dup4\n        /* \"#utility.yul\":11418:11438   */\n      tag_217\n      jump\t// in\n    tag_384:\n        /* \"#utility.yul\":11413:11438   */\n      swap3\n      pop\n        /* \"#utility.yul\":11461:11462   */\n      dup3\n        /* \"#utility.yul\":11458:11459   */\n      dup3\n        /* \"#utility.yul\":11454:11463   */\n      add\n        /* \"#utility.yul\":11447:11463   */\n      swap1\n      pop\n        /* \"#utility.yul\":11482:11485   */\n      dup1\n        /* \"#utility.yul\":11479:11480   */\n      dup3\n        /* \"#utility.yul\":11476:11486   */\n      gt\n        /* \"#utility.yul\":11473:11509   */\n      iszero\n      tag_385\n      jumpi\n        /* \"#utility.yul\":11489:11507   */\n      tag_386\n      tag_237\n      jump\t// in\n    tag_386:\n        /* \"#utility.yul\":11473:11509   */\n    tag_385:\n        /* \"#utility.yul\":11325:11516   */\n      swap3\n      swap2\n      pop\n      pop\n      jump\t// out\n        /* \"#utility.yul\":11522:11640   */\n    tag_238:\n        /* \"#utility.yul\":11609:11633   */\n      tag_388\n        /* \"#utility.yul\":11627:11632   */\n      dup2\n        /* \"#utility.yul\":11609:11633   */\n      tag_204\n      jump\t// in\n    tag_388:\n        /* \"#utility.yul\":11604:11607   */\n      dup3\n        /* \"#utility.yul\":11597:11634   */\n      mstore\n        /* \"#utility.yul\":11522:11640   */\n      pop\n      pop\n      jump\t// out\n        /* \"#utility.yul\":11646:11795   */\n    tag_239:\n        /* \"#utility.yul\":11682:11689   */\n      0x00\n        /* \"#utility.yul\":11722:11788   */\n      0xffffffff00000000000000000000000000000000000000000000000000000000\n        /* \"#utility.yul\":11715:11720   */\n      dup3\n        /* \"#utility.yul\":11711:11789   */\n      and\n        /* \"#utility.yul\":11700:11789   */\n      swap1\n      pop\n        /* \"#utility.yul\":11646:11795   */\n      swap2\n      swap1\n      pop\n      jump\t// out\n        /* \"#utility.yul\":11801:11916   */\n    tag_240:\n        /* \"#utility.yul\":11886:11909   */\n      tag_391\n        /* \"#utility.yul\":11903:11908   */\n      dup2\n        /* \"#utility.yul\":11886:11909   */\n      tag_239\n      jump\t// in\n    tag_391:\n        /* \"#utility.yul\":11881:11884   */\n      dup3\n        /* \"#utility.yul\":11874:11910   */\n      mstore\n        /* \"#utility.yul\":11801:11916   */\n      pop\n      pop\n      jump\t// out\n        /* \"#utility.yul\":11922:12020   */\n    tag_241:\n        /* \"#utility.yul\":11973:11979   */\n      0x00\n        /* \"#utility.yul\":12007:12012   */\n      dup2\n        /* \"#utility.yul\":12001:12013   */\n      mload\n        /* \"#utility.yul\":11991:12013   */\n      swap1\n      pop\n        /* \"#utility.yul\":11922:12020   */\n      swap2\n      swap1\n      pop\n      jump\t// out\n        /* \"#utility.yul\":12026:12194   */\n    tag_242:\n        /* \"#utility.yul\":12109:12120   */\n      0x00\n        /* \"#utility.yul\":12143:12149   */\n      dup3\n        /* \"#utility.yul\":12138:12141   */\n      dup3\n        /* \"#utility.yul\":12131:12150   */\n      mstore\n        /* \"#utility.yul\":12183:12187   */\n      0x20\n        /* \"#utility.yul\":12178:12181   */\n      dup3\n        /* \"#utility.yul\":12174:12188   */\n      add\n        /* \"#utility.yul\":12159:12188   */\n      swap1\n      pop\n        /* \"#utility.yul\":12026:12194   */\n      swap3\n      swap2\n      pop\n      pop\n      jump\t// out\n        /* \"#utility.yul\":12200:12339   */\n    tag_243:\n        /* \"#utility.yul\":12289:12295   */\n      dup3\n        /* \"#utility.yul\":12284:12287   */\n      dup2\n        /* \"#utility.yul\":12279:12282   */\n      dup4\n        /* \"#utility.yul\":12273:12296   */\n      mcopy\n        /* \"#utility.yul\":12330:12331   */\n      0x00\n        /* \"#utility.yul\":12321:12327   */\n      dup4\n        /* \"#utility.yul\":12316:12319   */\n      dup4\n        /* \"#utility.yul\":12312:12328   */\n      add\n        /* \"#utility.yul\":12305:12332   */\n      mstore\n        /* \"#utility.yul\":12200:12339   */\n      pop\n      pop\n      pop\n      jump\t// out\n        /* \"#utility.yul\":12345:12718   */\n    tag_244:\n        /* \"#utility.yul\":12431:12434   */\n      0x00\n        /* \"#utility.yul\":12459:12497   */\n      tag_396\n        /* \"#utility.yul\":12491:12496   */\n      dup3\n        /* \"#utility.yul\":12459:12497   */\n      tag_241\n      jump\t// in\n    tag_396:\n        /* \"#utility.yul\":12513:12583   */\n      tag_397\n        /* \"#utility.yul\":12576:12582   */\n      dup2\n        /* \"#utility.yul\":12571:12574   */\n      dup6\n        /* \"#utility.yul\":12513:12583   */\n      tag_242\n      jump\t// in\n    tag_397:\n        /* \"#utility.yul\":12506:12583   */\n      swap4\n      pop\n        /* \"#utility.yul\":12592:12657   */\n      tag_398\n        /* \"#utility.yul\":12650:12656   */\n      dup2\n        /* \"#utility.yul\":12645:12648   */\n      dup6\n        /* \"#utility.yul\":12638:12642   */\n      0x20\n        /* \"#utility.yul\":12631:12636   */\n      dup7\n        /* \"#utility.yul\":12627:12643   */\n      add\n        /* \"#utility.yul\":12592:12657   */\n      tag_243\n      jump\t// in\n    tag_398:\n        /* \"#utility.yul\":12682:12711   */\n      tag_399\n        /* \"#utility.yul\":12704:12710   */\n      dup2\n        /* \"#utility.yul\":12682:12711   */\n      tag_209\n      jump\t// in\n    tag_399:\n        /* \"#utility.yul\":12677:12680   */\n      dup5\n        /* \"#utility.yul\":12673:12712   */\n      add\n        /* \"#utility.yul\":12666:12712   */\n      swap2\n      pop\n        /* \"#utility.yul\":12435:12718   */\n      pop\n        /* \"#utility.yul\":12345:12718   */\n      swap3\n      swap2\n      pop\n      pop\n      jump\t// out\n        /* \"#utility.yul\":12724:13804   */\n    tag_101:\n        /* \"#utility.yul\":13029:13033   */\n      0x00\n        /* \"#utility.yul\":13067:13070   */\n      0x0100\n        /* \"#utility.yul\":13056:13065   */\n      dup3\n        /* \"#utility.yul\":13052:13071   */\n      add\n        /* \"#utility.yul\":13044:13071   */\n      swap1\n      pop\n        /* \"#utility.yul\":13081:13152   */\n      tag_401\n        /* \"#utility.yul\":13149:13150   */\n      0x00\n        /* \"#utility.yul\":13138:13147   */\n      dup4\n        /* \"#utility.yul\":13134:13151   */\n      add\n        /* \"#utility.yul\":13125:13131   */\n      dup12\n        /* \"#utility.yul\":13081:13152   */\n      tag_223\n      jump\t// in\n    tag_401:\n        /* \"#utility.yul\":13162:13234   */\n      tag_402\n        /* \"#utility.yul\":13230:13232   */\n      0x20\n        /* \"#utility.yul\":13219:13228   */\n      dup4\n        /* \"#utility.yul\":13215:13233   */\n      add\n        /* \"#utility.yul\":13206:13212   */\n      dup11\n        /* \"#utility.yul\":13162:13234   */\n      tag_220\n      jump\t// in\n    tag_402:\n        /* \"#utility.yul\":13244:13316   */\n      tag_403\n        /* \"#utility.yul\":13312:13314   */\n      0x40\n        /* \"#utility.yul\":13301:13310   */\n      dup4\n        /* \"#utility.yul\":13297:13315   */\n      add\n        /* \"#utility.yul\":13288:13294   */\n      dup10\n        /* \"#utility.yul\":13244:13316   */\n      tag_238\n      jump\t// in\n    tag_403:\n        /* \"#utility.yul\":13326:13398   */\n      tag_404\n        /* \"#utility.yul\":13394:13396   */\n      0x60\n        /* \"#utility.yul\":13383:13392   */\n      dup4\n        /* \"#utility.yul\":13379:13397   */\n      add\n        /* \"#utility.yul\":13370:13376   */\n      dup9\n        /* \"#utility.yul\":13326:13398   */\n      tag_223\n      jump\t// in\n    tag_404:\n        /* \"#utility.yul\":13408:13479   */\n      tag_405\n        /* \"#utility.yul\":13474:13477   */\n      0x80\n        /* \"#utility.yul\":13463:13472   */\n      dup4\n        /* \"#utility.yul\":13459:13478   */\n      add\n        /* \"#utility.yul\":13450:13456   */\n      dup8\n        /* \"#utility.yul\":13408:13479   */\n      tag_240\n      jump\t// in\n    tag_405:\n        /* \"#utility.yul\":13489:13562   */\n      tag_406\n        /* \"#utility.yul\":13557:13560   */\n      0xa0\n        /* \"#utility.yul\":13546:13555   */\n      dup4\n        /* \"#utility.yul\":13542:13561   */\n      add\n        /* \"#utility.yul\":13533:13539   */\n      dup7\n        /* \"#utility.yul\":13489:13562   */\n      tag_220\n      jump\t// in\n    tag_406:\n        /* \"#utility.yul\":13572:13645   */\n      tag_407\n        /* \"#utility.yul\":13640:13643   */\n      0xc0\n        /* \"#utility.yul\":13629:13638   */\n      dup4\n        /* \"#utility.yul\":13625:13644   */\n      add\n        /* \"#utility.yul\":13616:13622   */\n      dup6\n        /* \"#utility.yul\":13572:13645   */\n      tag_220\n      jump\t// in\n    tag_407:\n        /* \"#utility.yul\":13693:13702   */\n      dup2\n        /* \"#utility.yul\":13687:13691   */\n      dup2\n        /* \"#utility.yul\":13683:13703   */\n      sub\n        /* \"#utility.yul\":13677:13680   */\n      0xe0\n        /* \"#utility.yul\":13666:13675   */\n      dup4\n        /* \"#utility.yul\":13662:13681   */\n      add\n        /* \"#utility.yul\":13655:13704   */\n      mstore\n        /* \"#utility.yul\":13721:13797   */\n      tag_408\n        /* \"#utility.yul\":13792:13796   */\n      dup2\n        /* \"#utility.yul\":13783:13789   */\n      dup5\n        /* \"#utility.yul\":13721:13797   */\n      tag_244\n      jump\t// in\n    tag_408:\n        /* \"#utility.yul\":13713:13797   */\n      swap1\n      pop\n        /* \"#utility.yul\":12724:13804   */\n      swap10\n      swap9\n      pop\n      pop\n      pop\n      pop\n      pop\n      pop\n      pop\n      pop\n      pop\n      jump\t// out\n        /* \"#utility.yul\":13810:13990   */\n    tag_245:\n        /* \"#utility.yul\":13858:13935   */\n      0x4e487b7100000000000000000000000000000000000000000000000000000000\n        /* \"#utility.yul\":13855:13856   */\n      0x00\n        /* \"#utility.yul\":13848:13936   */\n      mstore\n        /* \"#utility.yul\":13955:13959   */\n      0x12\n        /* \"#utility.yul\":13952:13953   */\n      0x04\n        /* \"#utility.yul\":13945:13960   */\n      mstore\n        /* \"#utility.yul\":13979:13983   */\n      0x24\n        /* \"#utility.yul\":13976:13977   */\n      0x00\n        /* \"#utility.yul\":13969:13984   */\n      revert\n        /* \"#utility.yul\":13996:14172   */\n    tag_109:\n        /* \"#utility.yul\":14028:14029   */\n      0x00\n        /* \"#utility.yul\":14045:14065   */\n      tag_411\n        /* \"#utility.yul\":14063:14064   */\n      dup3\n        /* \"#utility.yul\":14045:14065   */\n      tag_217\n      jump\t// in\n    tag_411:\n        /* \"#utility.yul\":14040:14065   */\n      swap2\n      pop\n        /* \"#utility.yul\":14079:14099   */\n      tag_412\n        /* \"#utility.yul\":14097:14098   */\n      dup4\n        /* \"#utility.yul\":14079:14099   */\n      tag_217\n      jump\t// in\n    tag_412:\n        /* \"#utility.yul\":14074:14099   */\n      swap3\n      pop\n        /* \"#utility.yul\":14118:14119   */\n      dup3\n        /* \"#utility.yul\":14108:14143   */\n      tag_413\n      jumpi\n        /* \"#utility.yul\":14123:14141   */\n      tag_414\n      tag_245\n      jump\t// in\n    tag_414:\n        /* \"#utility.yul\":14108:14143   */\n    tag_413:\n        /* \"#utility.yul\":14164:14165   */\n      dup3\n        /* \"#utility.yul\":14161:14162   */\n      dup3\n        /* \"#utility.yul\":14157:14166   */\n      mod\n        /* \"#utility.yul\":14152:14166   */\n      swap1\n      pop\n        /* \"#utility.yul\":13996:14172   */\n      swap3\n      swap2\n      pop\n      pop\n      jump\t// out\n        /* \"#utility.yul\":14178:14372   */\n    tag_113:\n        /* \"#utility.yul\":14218:14222   */\n      0x00\n        /* \"#utility.yul\":14238:14258   */\n      tag_416\n        /* \"#utility.yul\":14256:14257   */\n      dup3\n        /* \"#utility.yul\":14238:14258   */\n      tag_217\n      jump\t// in\n    tag_416:\n        /* \"#utility.yul\":14233:14258   */\n      swap2\n      pop\n        /* \"#utility.yul\":14272:14292   */\n      tag_417\n        /* \"#utility.yul\":14290:14291   */\n      dup4\n        /* \"#utility.yul\":14272:14292   */\n      tag_217\n      jump\t// in\n    tag_417:\n        /* \"#utility.yul\":14267:14292   */\n      swap3\n      pop\n        /* \"#utility.yul\":14316:14317   */\n      dup3\n        /* \"#utility.yul\":14313:14314   */\n      dup3\n        /* \"#utility.yul\":14309:14318   */\n      sub\n        /* \"#utility.yul\":14301:14318   */\n      swap1\n      pop\n        /* \"#utility.yul\":14340:14341   */\n      dup2\n        /* \"#utility.yul\":14334:14338   */\n      dup2\n        /* \"#utility.yul\":14331:14342   */\n      gt\n        /* \"#utility.yul\":14328:14365   */\n      iszero\n      tag_418\n      jumpi\n        /* \"#utility.yul\":14345:14363   */\n      tag_419\n      tag_237\n      jump\t// in\n    tag_419:\n        /* \"#utility.yul\":14328:14365   */\n    tag_418:\n        /* \"#utility.yul\":14178:14372   */\n      swap3\n      swap2\n      pop\n      pop\n      jump\t// out\n        /* \"#utility.yul\":14378:14438   */\n    tag_246:\n        /* \"#utility.yul\":14406:14409   */\n      0x00\n        /* \"#utility.yul\":14427:14432   */\n      dup2\n        /* \"#utility.yul\":14420:14432   */\n      swap1\n      pop\n        /* \"#utility.yul\":14378:14438   */\n      swap2\n      swap1\n      pop\n      jump\t// out\n        /* \"#utility.yul\":14444:14586   */\n    tag_247:\n        /* \"#utility.yul\":14494:14503   */\n      0x00\n        /* \"#utility.yul\":14527:14580   */\n      tag_422\n        /* \"#utility.yul\":14545:14579   */\n      tag_423\n        /* \"#utility.yul\":14554:14578   */\n      tag_424\n        /* \"#utility.yul\":14572:14577   */\n      dup5\n        /* \"#utility.yul\":14554:14578   */\n      tag_221\n      jump\t// in\n    tag_424:\n        /* \"#utility.yul\":14545:14579   */\n      tag_246\n      jump\t// in\n    tag_423:\n        /* \"#utility.yul\":14527:14580   */\n      tag_221\n      jump\t// in\n    tag_422:\n        /* \"#utility.yul\":14514:14580   */\n      swap1\n      pop\n        /* \"#utility.yul\":14444:14586   */\n      swap2\n      swap1\n      pop\n      jump\t// out\n        /* \"#utility.yul\":14592:14718   */\n    tag_248:\n        /* \"#utility.yul\":14642:14651   */\n      0x00\n        /* \"#utility.yul\":14675:14712   */\n      tag_426\n        /* \"#utility.yul\":14706:14711   */\n      dup3\n        /* \"#utility.yul\":14675:14712   */\n      tag_247\n      jump\t// in\n    tag_426:\n        /* \"#utility.yul\":14662:14712   */\n      swap1\n      pop\n        /* \"#utility.yul\":14592:14718   */\n      swap2\n      swap1\n      pop\n      jump\t// out\n        /* \"#utility.yul\":14724:14873   */\n    tag_249:\n        /* \"#utility.yul\":14797:14806   */\n      0x00\n        /* \"#utility.yul\":14830:14867   */\n      tag_428\n        /* \"#utility.yul\":14861:14866   */\n      dup3\n        /* \"#utility.yul\":14830:14867   */\n      tag_248\n      jump\t// in\n    tag_428:\n        /* \"#utility.yul\":14817:14867   */\n      swap1\n      pop\n        /* \"#utility.yul\":14724:14873   */\n      swap2\n      swap1\n      pop\n      jump\t// out\n        /* \"#utility.yul\":14879:14973   */\n    tag_250:\n        /* \"#utility.yul\":14912:14920   */\n      0x00\n        /* \"#utility.yul\":14960:14965   */\n      dup2\n        /* \"#utility.yul\":14956:14958   */\n      0x60\n        /* \"#utility.yul\":14952:14966   */\n      shl\n        /* \"#utility.yul\":14931:14966   */\n      swap1\n      pop\n        /* \"#utility.yul\":14879:14973   */\n      swap2\n      swap1\n      pop\n      jump\t// out\n        /* \"#utility.yul\":14979:15073   */\n    tag_251:\n        /* \"#utility.yul\":15018:15025   */\n      0x00\n        /* \"#utility.yul\":15047:15067   */\n      tag_431\n        /* \"#utility.yul\":15061:15066   */\n      dup3\n        /* \"#utility.yul\":15047:15067   */\n      tag_250\n      jump\t// in\n    tag_431:\n        /* \"#utility.yul\":15036:15067   */\n      swap1\n      pop\n        /* \"#utility.yul\":14979:15073   */\n      swap2\n      swap1\n      pop\n      jump\t// out\n        /* \"#utility.yul\":15079:15179   */\n    tag_252:\n        /* \"#utility.yul\":15118:15125   */\n      0x00\n        /* \"#utility.yul\":15147:15173   */\n      tag_433\n        /* \"#utility.yul\":15167:15172   */\n      dup3\n        /* \"#utility.yul\":15147:15173   */\n      tag_251\n      jump\t// in\n    tag_433:\n        /* \"#utility.yul\":15136:15173   */\n      swap1\n      pop\n        /* \"#utility.yul\":15079:15179   */\n      swap2\n      swap1\n      pop\n      jump\t// out\n        /* \"#utility.yul\":15185:15401   */\n    tag_253:\n        /* \"#utility.yul\":15313:15394   */\n      tag_435\n        /* \"#utility.yul\":15333:15393   */\n      tag_436\n        /* \"#utility.yul\":15387:15392   */\n      dup3\n        /* \"#utility.yul\":15333:15393   */\n      tag_249\n      jump\t// in\n    tag_436:\n        /* \"#utility.yul\":15313:15394   */\n      tag_252\n      jump\t// in\n    tag_435:\n        /* \"#utility.yul\":15308:15311   */\n      dup3\n        /* \"#utility.yul\":15301:15395   */\n      mstore\n        /* \"#utility.yul\":15185:15401   */\n      pop\n      pop\n      jump\t// out\n        /* \"#utility.yul\":15407:15486   */\n    tag_254:\n        /* \"#utility.yul\":15446:15453   */\n      0x00\n        /* \"#utility.yul\":15475:15480   */\n      dup2\n        /* \"#utility.yul\":15464:15480   */\n      swap1\n      pop\n        /* \"#utility.yul\":15407:15486   */\n      swap2\n      swap1\n      pop\n      jump\t// out\n        /* \"#utility.yul\":15492:15649   */\n    tag_255:\n        /* \"#utility.yul\":15597:15642   */\n      tag_439\n        /* \"#utility.yul\":15617:15641   */\n      tag_440\n        /* \"#utility.yul\":15635:15640   */\n      dup3\n        /* \"#utility.yul\":15617:15641   */\n      tag_217\n      jump\t// in\n    tag_440:\n        /* \"#utility.yul\":15597:15642   */\n      tag_254\n      jump\t// in\n    tag_439:\n        /* \"#utility.yul\":15592:15595   */\n      dup3\n        /* \"#utility.yul\":15585:15643   */\n      mstore\n        /* \"#utility.yul\":15492:15649   */\n      pop\n      pop\n      jump\t// out\n        /* \"#utility.yul\":15655:16098   */\n    tag_141:\n        /* \"#utility.yul\":15818:15821   */\n      0x00\n        /* \"#utility.yul\":15833:15931   */\n      tag_442\n        /* \"#utility.yul\":15927:15930   */\n      dup3\n        /* \"#utility.yul\":15918:15924   */\n      dup6\n        /* \"#utility.yul\":15833:15931   */\n      tag_253\n      jump\t// in\n    tag_442:\n        /* \"#utility.yul\":15956:15958   */\n      0x14\n        /* \"#utility.yul\":15951:15954   */\n      dup3\n        /* \"#utility.yul\":15947:15959   */\n      add\n        /* \"#utility.yul\":15940:15959   */\n      swap2\n      pop\n        /* \"#utility.yul\":15969:16044   */\n      tag_443\n        /* \"#utility.yul\":16040:16043   */\n      dup3\n        /* \"#utility.yul\":16031:16037   */\n      dup5\n        /* \"#utility.yul\":15969:16044   */\n      tag_255\n      jump\t// in\n    tag_443:\n        /* \"#utility.yul\":16069:16071   */\n      0x20\n        /* \"#utility.yul\":16064:16067   */\n      dup3\n        /* \"#utility.yul\":16060:16072   */\n      add\n        /* \"#utility.yul\":16053:16072   */\n      swap2\n      pop\n        /* \"#utility.yul\":16089:16092   */\n      dup2\n        /* \"#utility.yul\":16082:16092   */\n      swap1\n      pop\n        /* \"#utility.yul\":15655:16098   */\n      swap4\n      swap3\n      pop\n      pop\n      pop\n      jump\t// out\n        /* \"#utility.yul\":16104:16633   */\n    tag_143:\n        /* \"#utility.yul\":16271:16275   */\n      0x00\n        /* \"#utility.yul\":16309:16311   */\n      0x60\n        /* \"#utility.yul\":16298:16307   */\n      dup3\n        /* \"#utility.yul\":16294:16312   */\n      add\n        /* \"#utility.yul\":16286:16312   */\n      swap1\n      pop\n        /* \"#utility.yul\":16322:16393   */\n      tag_445\n        /* \"#utility.yul\":16390:16391   */\n      0x00\n        /* \"#utility.yul\":16379:16388   */\n      dup4\n        /* \"#utility.yul\":16375:16392   */\n      add\n        /* \"#utility.yul\":16366:16372   */\n      dup7\n        /* \"#utility.yul\":16322:16393   */\n      tag_223\n      jump\t// in\n    tag_445:\n        /* \"#utility.yul\":16403:16475   */\n      tag_446\n        /* \"#utility.yul\":16471:16473   */\n      0x20\n        /* \"#utility.yul\":16460:16469   */\n      dup4\n        /* \"#utility.yul\":16456:16474   */\n      add\n        /* \"#utility.yul\":16447:16453   */\n      dup6\n        /* \"#utility.yul\":16403:16475   */\n      tag_220\n      jump\t// in\n    tag_446:\n        /* \"#utility.yul\":16522:16531   */\n      dup2\n        /* \"#utility.yul\":16516:16520   */\n      dup2\n        /* \"#utility.yul\":16512:16532   */\n      sub\n        /* \"#utility.yul\":16507:16509   */\n      0x40\n        /* \"#utility.yul\":16496:16505   */\n      dup4\n        /* \"#utility.yul\":16492:16510   */\n      add\n        /* \"#utility.yul\":16485:16533   */\n      mstore\n        /* \"#utility.yul\":16550:16626   */\n      tag_447\n        /* \"#utility.yul\":16621:16625   */\n      dup2\n        /* \"#utility.yul\":16612:16618   */\n      dup5\n        /* \"#utility.yul\":16550:16626   */\n      tag_244\n      jump\t// in\n    tag_447:\n        /* \"#utility.yul\":16542:16626   */\n      swap1\n      pop\n        /* \"#utility.yul\":16104:16633   */\n      swap5\n      swap4\n      pop\n      pop\n      pop\n      pop\n      jump\t// out\n        /* \"#utility.yul\":16639:16729   */\n    tag_256:\n        /* \"#utility.yul\":16673:16680   */\n      0x00\n        /* \"#utility.yul\":16716:16721   */\n      dup2\n        /* \"#utility.yul\":16709:16722   */\n      iszero\n        /* \"#utility.yul\":16702:16723   */\n      iszero\n        /* \"#utility.yul\":16691:16723   */\n      swap1\n      pop\n        /* \"#utility.yul\":16639:16729   */\n      swap2\n      swap1\n      pop\n      jump\t// out\n        /* \"#utility.yul\":16735:16851   */\n    tag_257:\n        /* \"#utility.yul\":16805:16826   */\n      tag_450\n        /* \"#utility.yul\":16820:16825   */\n      dup2\n        /* \"#utility.yul\":16805:16826   */\n      tag_256\n      jump\t// in\n    tag_450:\n        /* \"#utility.yul\":16798:16803   */\n      dup2\n        /* \"#utility.yul\":16795:16827   */\n      eq\n        /* \"#utility.yul\":16785:16845   */\n      tag_451\n      jumpi\n        /* \"#utility.yul\":16841:16842   */\n      0x00\n        /* \"#utility.yul\":16838:16839   */\n      0x00\n        /* \"#utility.yul\":16831:16843   */\n      revert\n        /* \"#utility.yul\":16785:16845   */\n    tag_451:\n        /* \"#utility.yul\":16735:16851   */\n      pop\n      jump\t// out\n        /* \"#utility.yul\":16857:16994   */\n    tag_258:\n        /* \"#utility.yul\":16911:16916   */\n      0x00\n        /* \"#utility.yul\":16942:16948   */\n      dup2\n        /* \"#utility.yul\":16936:16949   */\n      mload\n        /* \"#utility.yul\":16927:16949   */\n      swap1\n      pop\n        /* \"#utility.yul\":16958:16988   */\n      tag_453\n        /* \"#utility.yul\":16982:16987   */\n      dup2\n        /* \"#utility.yul\":16958:16988   */\n      tag_257\n      jump\t// in\n    tag_453:\n        /* \"#utility.yul\":16857:16994   */\n      swap3\n      swap2\n      pop\n      pop\n      jump\t// out\n        /* \"#utility.yul\":17000:17345   */\n    tag_147:\n        /* \"#utility.yul\":17067:17073   */\n      0x00\n        /* \"#utility.yul\":17116:17118   */\n      0x20\n        /* \"#utility.yul\":17104:17113   */\n      dup3\n        /* \"#utility.yul\":17095:17102   */\n      dup5\n        /* \"#utility.yul\":17091:17114   */\n      sub\n        /* \"#utility.yul\":17087:17119   */\n      slt\n        /* \"#utility.yul\":17084:17203   */\n      iszero\n      tag_455\n      jumpi\n        /* \"#utility.yul\":17122:17201   */\n      tag_456\n      tag_202\n      jump\t// in\n    tag_456:\n        /* \"#utility.yul\":17084:17203   */\n    tag_455:\n        /* \"#utility.yul\":17242:17243   */\n      0x00\n        /* \"#utility.yul\":17267:17328   */\n      tag_457\n        /* \"#utility.yul\":17320:17327   */\n      dup5\n        /* \"#utility.yul\":17311:17317   */\n      dup3\n        /* \"#utility.yul\":17300:17309   */\n      dup6\n        /* \"#utility.yul\":17296:17318   */\n      add\n        /* \"#utility.yul\":17267:17328   */\n      tag_258\n      jump\t// in\n    tag_457:\n        /* \"#utility.yul\":17257:17328   */\n      swap2\n      pop\n        /* \"#utility.yul\":17213:17338   */\n      pop\n        /* \"#utility.yul\":17000:17345   */\n      swap3\n      swap2\n      pop\n      pop\n      jump\t// out\n        /* \"#utility.yul\":17351:17573   */\n    tag_259:\n        /* \"#utility.yul\":17491:17525   */\n      0x756e61626c6520746f207472616e73666572416e6443616c6c20746f206f7261\n        /* \"#utility.yul\":17487:17488   */\n      0x00\n        /* \"#utility.yul\":17479:17485   */\n      dup3\n        /* \"#utility.yul\":17475:17489   */\n      add\n        /* \"#utility.yul\":17468:17526   */\n      mstore\n        /* \"#utility.yul\":17560:17565   */\n      0x636c650000000000000000000000000000000000000000000000000000000000\n        /* \"#utility.yul\":17555:17557   */\n      0x20\n        /* \"#utility.yul\":17547:17553   */\n      dup3\n        /* \"#utility.yul\":17543:17558   */\n      add\n        /* \"#utility.yul\":17536:17566   */\n      mstore\n        /* \"#utility.yul\":17351:17573   */\n      pop\n      jump\t// out\n        /* \"#utility.yul\":17579:17945   */\n    tag_260:\n        /* \"#utility.yul\":17721:17724   */\n      0x00\n        /* \"#utility.yul\":17742:17809   */\n      tag_460\n        /* \"#utility.yul\":17806:17808   */\n      0x23\n        /* \"#utility.yul\":17801:17804   */\n      dup4\n        /* \"#utility.yul\":17742:17809   */\n      tag_226\n      jump\t// in\n    tag_460:\n        /* \"#utility.yul\":17735:17809   */\n      swap2\n      pop\n        /* \"#utility.yul\":17818:17911   */\n      tag_461\n        /* \"#utility.yul\":17907:17910   */\n      dup3\n        /* \"#utility.yul\":17818:17911   */\n      tag_259\n      jump\t// in\n    tag_461:\n        /* \"#utility.yul\":17936:17938   */\n      0x40\n        /* \"#utility.yul\":17931:17934   */\n      dup3\n        /* \"#utility.yul\":17927:17939   */\n      add\n        /* \"#utility.yul\":17920:17939   */\n      swap1\n      pop\n        /* \"#utility.yul\":17579:17945   */\n      swap2\n      swap1\n      pop\n      jump\t// out\n        /* \"#utility.yul\":17951:18370   */\n    tag_150:\n        /* \"#utility.yul\":18117:18121   */\n      0x00\n        /* \"#utility.yul\":18155:18157   */\n      0x20\n        /* \"#utility.yul\":18144:18153   */\n      dup3\n        /* \"#utility.yul\":18140:18158   */\n      add\n        /* \"#utility.yul\":18132:18158   */\n      swap1\n      pop\n        /* \"#utility.yul\":18204:18213   */\n      dup2\n        /* \"#utility.yul\":18198:18202   */\n      dup2\n        /* \"#utility.yul\":18194:18214   */\n      sub\n        /* \"#utility.yul\":18190:18191   */\n      0x00\n        /* \"#utility.yul\":18179:18188   */\n      dup4\n        /* \"#utility.yul\":18175:18192   */\n      add\n        /* \"#utility.yul\":18168:18215   */\n      mstore\n        /* \"#utility.yul\":18232:18363   */\n      tag_463\n        /* \"#utility.yul\":18358:18362   */\n      dup2\n        /* \"#utility.yul\":18232:18363   */\n      tag_260\n      jump\t// in\n    tag_463:\n        /* \"#utility.yul\":18224:18363   */\n      swap1\n      pop\n        /* \"#utility.yul\":17951:18370   */\n      swap2\n      swap1\n      pop\n      jump\t// out\n        /* \"#utility.yul\":18376:18786   */\n    tag_169:\n        /* \"#utility.yul\":18416:18423   */\n      0x00\n        /* \"#utility.yul\":18439:18459   */\n      tag_465\n        /* \"#utility.yul\":18457:18458   */\n      dup3\n        /* \"#utility.yul\":18439:18459   */\n      tag_217\n      jump\t// in\n    tag_465:\n        /* \"#utility.yul\":18434:18459   */\n      swap2\n      pop\n        /* \"#utility.yul\":18473:18493   */\n      tag_466\n        /* \"#utility.yul\":18491:18492   */\n      dup4\n        /* \"#utility.yul\":18473:18493   */\n      tag_217\n      jump\t// in\n    tag_466:\n        /* \"#utility.yul\":18468:18493   */\n      swap3\n      pop\n        /* \"#utility.yul\":18528:18529   */\n      dup3\n        /* \"#utility.yul\":18525:18526   */\n      dup3\n        /* \"#utility.yul\":18521:18530   */\n      mul\n        /* \"#utility.yul\":18550:18580   */\n      tag_467\n        /* \"#utility.yul\":18568:18579   */\n      dup2\n        /* \"#utility.yul\":18550:18580   */\n      tag_217\n      jump\t// in\n    tag_467:\n        /* \"#utility.yul\":18539:18580   */\n      swap2\n      pop\n        /* \"#utility.yul\":18729:18730   */\n      dup3\n        /* \"#utility.yul\":18720:18727   */\n      dup3\n        /* \"#utility.yul\":18716:18731   */\n      div\n        /* \"#utility.yul\":18713:18714   */\n      dup5\n        /* \"#utility.yul\":18710:18732   */\n      eq\n        /* \"#utility.yul\":18690:18691   */\n      dup4\n        /* \"#utility.yul\":18683:18692   */\n      iszero\n        /* \"#utility.yul\":18663:18746   */\n      or\n        /* \"#utility.yul\":18640:18779   */\n      tag_468\n      jumpi\n        /* \"#utility.yul\":18759:18777   */\n      tag_469\n      tag_237\n      jump\t// in\n    tag_469:\n        /* \"#utility.yul\":18640:18779   */\n    tag_468:\n        /* \"#utility.yul\":18424:18786   */\n      pop\n        /* \"#utility.yul\":18376:18786   */\n      swap3\n      swap2\n      pop\n      pop\n      jump\t// out\n        /* \"#utility.yul\":18792:18894   */\n    tag_261:\n        /* \"#utility.yul\":18834:18842   */\n      0x00\n        /* \"#utility.yul\":18881:18886   */\n      dup2\n        /* \"#utility.yul\":18878:18879   */\n      0x01\n        /* \"#utility.yul\":18874:18887   */\n      shr\n        /* \"#utility.yul\":18853:18887   */\n      swap1\n      pop\n        /* \"#utility.yul\":18792:18894   */\n      swap2\n      swap1\n      pop\n      jump\t// out\n        /* \"#utility.yul\":18900:19748   */\n    tag_262:\n        /* \"#utility.yul\":18961:18966   */\n      0x00\n        /* \"#utility.yul\":18968:18972   */\n      0x00\n        /* \"#utility.yul\":18992:18998   */\n      dup3\n        /* \"#utility.yul\":18983:18998   */\n      swap2\n      pop\n        /* \"#utility.yul\":19016:19021   */\n      dup4\n        /* \"#utility.yul\":19007:19021   */\n      swap1\n      pop\n        /* \"#utility.yul\":19030:19742   */\n    tag_472:\n        /* \"#utility.yul\":19051:19052   */\n      0x01\n        /* \"#utility.yul\":19041:19049   */\n      dup6\n        /* \"#utility.yul\":19038:19053   */\n      gt\n        /* \"#utility.yul\":19030:19742   */\n      iszero\n      tag_474\n      jumpi\n        /* \"#utility.yul\":19146:19150   */\n      dup1\n        /* \"#utility.yul\":19141:19144   */\n      dup7\n        /* \"#utility.yul\":19137:19151   */\n      div\n        /* \"#utility.yul\":19131:19135   */\n      dup2\n        /* \"#utility.yul\":19128:19152   */\n      gt\n        /* \"#utility.yul\":19125:19175   */\n      iszero\n      tag_475\n      jumpi\n        /* \"#utility.yul\":19155:19173   */\n      tag_476\n      tag_237\n      jump\t// in\n    tag_476:\n        /* \"#utility.yul\":19125:19175   */\n    tag_475:\n        /* \"#utility.yul\":19205:19206   */\n      0x01\n        /* \"#utility.yul\":19195:19203   */\n      dup6\n        /* \"#utility.yul\":19191:19207   */\n      and\n        /* \"#utility.yul\":19188:19639   */\n      iszero\n      tag_477\n      jumpi\n        /* \"#utility.yul\":19620:19624   */\n      dup1\n        /* \"#utility.yul\":19613:19618   */\n      dup3\n        /* \"#utility.yul\":19609:19625   */\n      mul\n        /* \"#utility.yul\":19600:19625   */\n      swap2\n      pop\n        /* \"#utility.yul\":19188:19639   */\n    tag_477:\n        /* \"#utility.yul\":19670:19674   */\n      dup1\n        /* \"#utility.yul\":19664:19668   */\n      dup2\n        /* \"#utility.yul\":19660:19675   */\n      mul\n        /* \"#utility.yul\":19652:19675   */\n      swap1\n      pop\n        /* \"#utility.yul\":19700:19732   */\n      tag_478\n        /* \"#utility.yul\":19723:19731   */\n      dup6\n        /* \"#utility.yul\":19700:19732   */\n      tag_261\n      jump\t// in\n    tag_478:\n        /* \"#utility.yul\":19688:19732   */\n      swap5\n      pop\n        /* \"#utility.yul\":19030:19742   */\n      jump(tag_472)\n    tag_474:\n        /* \"#utility.yul\":18900:19748   */\n      swap5\n      pop\n      swap5\n      swap3\n      pop\n      pop\n      pop\n      jump\t// out\n        /* \"#utility.yul\":19754:20827   */\n    tag_263:\n        /* \"#utility.yul\":19808:19813   */\n      0x00\n        /* \"#utility.yul\":19999:20007   */\n      dup3\n        /* \"#utility.yul\":19989:20029   */\n      tag_480\n      jumpi\n        /* \"#utility.yul\":20020:20021   */\n      0x01\n        /* \"#utility.yul\":20011:20021   */\n      swap1\n      pop\n        /* \"#utility.yul\":20022:20027   */\n      jump(tag_479)\n        /* \"#utility.yul\":19989:20029   */\n    tag_480:\n        /* \"#utility.yul\":20048:20052   */\n      dup2\n        /* \"#utility.yul\":20038:20074   */\n      tag_481\n      jumpi\n        /* \"#utility.yul\":20065:20066   */\n      0x00\n        /* \"#utility.yul\":20056:20066   */\n      swap1\n      pop\n        /* \"#utility.yul\":20067:20072   */\n      jump(tag_479)\n        /* \"#utility.yul\":20038:20074   */\n    tag_481:\n        /* \"#utility.yul\":20134:20138   */\n      dup2\n        /* \"#utility.yul\":20182:20183   */\n      0x01\n        /* \"#utility.yul\":20177:20204   */\n      dup2\n      eq\n      tag_483\n      jumpi\n        /* \"#utility.yul\":20218:20219   */\n      0x02\n        /* \"#utility.yul\":20213:20404   */\n      dup2\n      eq\n      tag_484\n      jumpi\n        /* \"#utility.yul\":20127:20404   */\n      jump(tag_482)\n        /* \"#utility.yul\":20177:20204   */\n    tag_483:\n        /* \"#utility.yul\":20195:20196   */\n      0x01\n        /* \"#utility.yul\":20186:20196   */\n      swap2\n      pop\n        /* \"#utility.yul\":20197:20202   */\n      pop\n      jump(tag_479)\n        /* \"#utility.yul\":20213:20404   */\n    tag_484:\n        /* \"#utility.yul\":20258:20261   */\n      0xff\n        /* \"#utility.yul\":20248:20256   */\n      dup5\n        /* \"#utility.yul\":20245:20262   */\n      gt\n        /* \"#utility.yul\":20242:20285   */\n      iszero\n      tag_485\n      jumpi\n        /* \"#utility.yul\":20265:20283   */\n      tag_486\n      tag_237\n      jump\t// in\n    tag_486:\n        /* \"#utility.yul\":20242:20285   */\n    tag_485:\n        /* \"#utility.yul\":20314:20322   */\n      dup4\n        /* \"#utility.yul\":20311:20312   */\n      0x02\n        /* \"#utility.yul\":20307:20323   */\n      exp\n        /* \"#utility.yul\":20298:20323   */\n      swap2\n      pop\n        /* \"#utility.yul\":20349:20352   */\n      dup5\n        /* \"#utility.yul\":20342:20347   */\n      dup3\n        /* \"#utility.yul\":20339:20353   */\n      gt\n        /* \"#utility.yul\":20336:20376   */\n      iszero\n      tag_487\n      jumpi\n        /* \"#utility.yul\":20356:20374   */\n      tag_488\n      tag_237\n      jump\t// in\n    tag_488:\n        /* \"#utility.yul\":20336:20376   */\n    tag_487:\n        /* \"#utility.yul\":20389:20394   */\n      pop\n      jump(tag_479)\n        /* \"#utility.yul\":20127:20404   */\n    tag_482:\n      pop\n        /* \"#utility.yul\":20513:20515   */\n      0x20\n        /* \"#utility.yul\":20503:20511   */\n      dup4\n        /* \"#utility.yul\":20500:20516   */\n      lt\n        /* \"#utility.yul\":20494:20497   */\n      0x0133\n        /* \"#utility.yul\":20488:20492   */\n      dup4\n        /* \"#utility.yul\":20485:20498   */\n      lt\n        /* \"#utility.yul\":20481:20517   */\n      and\n        /* \"#utility.yul\":20463:20465   */\n      0x4e\n        /* \"#utility.yul\":20453:20461   */\n      dup5\n        /* \"#utility.yul\":20450:20466   */\n      lt\n        /* \"#utility.yul\":20445:20447   */\n      0x0b\n        /* \"#utility.yul\":20439:20443   */\n      dup5\n        /* \"#utility.yul\":20436:20448   */\n      lt\n        /* \"#utility.yul\":20432:20467   */\n      and\n        /* \"#utility.yul\":20416:20527   */\n      or\n        /* \"#utility.yul\":20413:20659   */\n      iszero\n      tag_489\n      jumpi\n        /* \"#utility.yul\":20569:20577   */\n      dup3\n        /* \"#utility.yul\":20563:20567   */\n      dup3\n        /* \"#utility.yul\":20559:20578   */\n      exp\n        /* \"#utility.yul\":20550:20578   */\n      swap1\n      pop\n        /* \"#utility.yul\":20604:20607   */\n      dup4\n        /* \"#utility.yul\":20597:20602   */\n      dup2\n        /* \"#utility.yul\":20594:20608   */\n      gt\n        /* \"#utility.yul\":20591:20631   */\n      iszero\n      tag_490\n      jumpi\n        /* \"#utility.yul\":20611:20629   */\n      tag_491\n      tag_237\n      jump\t// in\n    tag_491:\n        /* \"#utility.yul\":20591:20631   */\n    tag_490:\n        /* \"#utility.yul\":20644:20649   */\n      jump(tag_479)\n        /* \"#utility.yul\":20413:20659   */\n    tag_489:\n        /* \"#utility.yul\":20684:20726   */\n      tag_492\n        /* \"#utility.yul\":20722:20725   */\n      dup5\n        /* \"#utility.yul\":20712:20720   */\n      dup5\n        /* \"#utility.yul\":20706:20710   */\n      dup5\n        /* \"#utility.yul\":20703:20704   */\n      0x01\n        /* \"#utility.yul\":20684:20726   */\n      tag_262\n      jump\t// in\n    tag_492:\n        /* \"#utility.yul\":20669:20726   */\n      swap3\n      pop\n      swap1\n      pop\n        /* \"#utility.yul\":20758:20762   */\n      dup2\n        /* \"#utility.yul\":20753:20756   */\n      dup5\n        /* \"#utility.yul\":20749:20763   */\n      div\n        /* \"#utility.yul\":20742:20747   */\n      dup2\n        /* \"#utility.yul\":20739:20764   */\n      gt\n        /* \"#utility.yul\":20736:20787   */\n      iszero\n      tag_493\n      jumpi\n        /* \"#utility.yul\":20767:20785   */\n      tag_494\n      tag_237\n      jump\t// in\n    tag_494:\n        /* \"#utility.yul\":20736:20787   */\n    tag_493:\n        /* \"#utility.yul\":20816:20820   */\n      dup2\n        /* \"#utility.yul\":20809:20814   */\n      dup2\n        /* \"#utility.yul\":20805:20821   */\n      mul\n        /* \"#utility.yul\":20796:20821   */\n      swap1\n      pop\n        /* \"#utility.yul\":19754:20827   */\n    tag_479:\n      swap4\n      swap3\n      pop\n      pop\n      pop\n      jump\t// out\n        /* \"#utility.yul\":20833:21118   */\n    tag_192:\n        /* \"#utility.yul\":20893:20898   */\n      0x00\n        /* \"#utility.yul\":20917:20940   */\n      tag_496\n        /* \"#utility.yul\":20935:20939   */\n      dup3\n        /* \"#utility.yul\":20917:20940   */\n      tag_217\n      jump\t// in\n    tag_496:\n        /* \"#utility.yul\":20909:20940   */\n      swap2\n      pop\n        /* \"#utility.yul\":20961:20988   */\n      tag_497\n        /* \"#utility.yul\":20979:20987   */\n      dup4\n        /* \"#utility.yul\":20961:20988   */\n      tag_217\n      jump\t// in\n    tag_497:\n        /* \"#utility.yul\":20949:20988   */\n      swap3\n      pop\n        /* \"#utility.yul\":21007:21111   */\n      tag_498\n        /* \"#utility.yul\":21044:21110   */\n      0xffffffffffffffffffffffffffffffffffffffffffffffffffffffffffffffff\n        /* \"#utility.yul\":21034:21042   */\n      dup5\n        /* \"#utility.yul\":21028:21032   */\n      dup5\n        /* \"#utility.yul\":21007:21111   */\n      tag_263\n      jump\t// in\n    tag_498:\n        /* \"#utility.yul\":20998:21111   */\n      swap1\n      pop\n        /* \"#utility.yul\":20833:21118   */\n      swap3\n      swap2\n      pop\n      pop\n      jump\t// out\n\n    auxdata: 0xa264697066735822122014f619265d3d4b0443a8b60202344cbd9cd3e1fccd4dcfd63495bf5501def38164736f6c634300081c0033\n}\n",
				"bytecode": {
					"linkReferences": {},
					"object": "60806040526001600455348015610014575f5ffd5b50604051611d10380380611d10833981810160405281019061003691906102b9565b335f73ffffffffffffffffffffffffffffffffffffffff168173ffffffffffffffffffffffffffffffffffffffff16036100a7575f6040517f1e4fbdf700000000000000000000000000000000000000000000000000000000815260040161009e9190610306565b60405180910390fd5b6100b68161011260201b60201c565b506100c6816101d560201b60201c565b6100d58261021860201b60201c565b7f310000000000000000000000000000000000000000000000000000000000000060088190555067016345785d8a0000600981905550505061031f565b5f60065f9054906101000a900473ffffffffffffffffffffffffffffffffffffffff1690508160065f6101000a81548173ffffffffffffffffffffffffffffffffffffffff021916908373ffffffffffffffffffffffffffffffffffffffff1602179055508173ffffffffffffffffffffffffffffffffffffffff168173ffffffffffffffffffffffffffffffffffffffff167f8be0079c531659141344cd1fd0a4f28419497f9722a3daafe3b4186f6b6457e060405160405180910390a35050565b8060025f6101000a81548173ffffffffffffffffffffffffffffffffffffffff021916908373ffffffffffffffffffffffffffffffffffffffff16021790555050565b8060035f6101000a81548173ffffffffffffffffffffffffffffffffffffffff021916908373ffffffffffffffffffffffffffffffffffffffff16021790555050565b5f5ffd5b5f73ffffffffffffffffffffffffffffffffffffffff82169050919050565b5f6102888261025f565b9050919050565b6102988161027e565b81146102a2575f5ffd5b50565b5f815190506102b38161028f565b92915050565b5f5f604083850312156102cf576102ce61025b565b5b5f6102dc858286016102a5565b92505060206102ed858286016102a5565b9150509250929050565b6103008161027e565b82525050565b5f6020820190506103195f8301846102f7565b92915050565b6119e48061032c5f395ff3fe608060405234801561000f575f5ffd5b5060043610610060575f3560e01c806318f2032914610064578063715018a61461006e5780637c1de7e11461007857806381a72379146100945780638da5cb5b146100c6578063f2fde38b146100e4575b5f5ffd5b61006c610100565b005b6100766101ea565b005b610092600480360381019061008d9190610fda565b6101fd565b005b6100ae60048036038101906100a99190611067565b61039d565b6040516100bd939291906110a1565b60405180910390f35b6100ce6103c3565b6040516100db9190611115565b60405180910390f35b6100fe60048036038101906100f99190611158565b6103eb565b005b5f61011560085430637c1de7e160e01b61046f565b9050610165816040518060400160405280600381526020017f676574000000000000000000000000000000000000000000000000000000000081525060405180602001604052805f8152506104a0565b6101da816040518060400160405280600481526020017f70617468000000000000000000000000000000000000000000000000000000008152506040518060400160405280601081526020017f646174612e7072656665637475726573000000000000000000000000000000008152506104a0565b6101e6816009546104d3565b5050565b6101f2610508565b6101fb5f61058f565b565b8160055f8281526020019081526020015f205f9054906101000a900473ffffffffffffffffffffffffffffffffffffffff1673ffffffffffffffffffffffffffffffffffffffff163373ffffffffffffffffffffffffffffffffffffffff161461029c576040517f08c379a000000000000000000000000000000000000000000000000000000000815260040161029390611203565b60405180910390fd5b60055f8281526020019081526020015f205f6101000a81549073ffffffffffffffffffffffffffffffffffffffff0219169055807f7cc135e0cebb02c3480ae5d74d377283180a2601f8f644edf7987b009316c63a60405160405180910390a25f82806020019051810190610311919061135e565b90505f5f90505b815181101561039657818181518110610334576103336113a5565b5b6020026020010151600a5f848481518110610352576103516113a5565b5b60200260200101515f015181526020019081526020015f205f820151815f015560208201518160010155604082015181600201559050508080600101915050610318565b5050505050565b600a602052805f5260405f205f91509050805f0154908060010154908060020154905083565b5f60065f9054906101000a900473ffffffffffffffffffffffffffffffffffffffff16905090565b6103f3610508565b5f73ffffffffffffffffffffffffffffffffffffffff168173ffffffffffffffffffffffffffffffffffffffff1603610463575f6040517f1e4fbdf700000000000000000000000000000000000000000000000000000000815260040161045a9190611115565b60405180910390fd5b61046c8161058f565b50565b610477610ddb565b61047f610ddb565b61049685858584610652909392919063ffffffff16565b9150509392505050565b6104b782846080015161070190919063ffffffff16565b6104ce81846080015161070190919063ffffffff16565b505050565b5f61050060035f9054906101000a900473ffffffffffffffffffffffffffffffffffffffff168484610726565b905092915050565b6105106107ed565b73ffffffffffffffffffffffffffffffffffffffff1661052e6103c3565b73ffffffffffffffffffffffffffffffffffffffff161461058d576105516107ed565b6040517f118cdaa70000000000000000000000000000000000000000000000000000000081526004016105849190611115565b60405180910390fd5b565b5f60065f9054906101000a900473ffffffffffffffffffffffffffffffffffffffff1690508160065f6101000a81548173ffffffffffffffffffffffffffffffffffffffff021916908373ffffffffffffffffffffffffffffffffffffffff1602179055508173ffffffffffffffffffffffffffffffffffffffff168173ffffffffffffffffffffffffffffffffffffffff167f8be0079c531659141344cd1fd0a4f28419497f9722a3daafe3b4186f6b6457e060405160405180910390a35050565b61065a610ddb565b61066a85608001516101006107f4565b5083855f01818152505082856020019073ffffffffffffffffffffffffffffffffffffffff16908173ffffffffffffffffffffffffffffffffffffffff16815250508185604001907bffffffffffffffffffffffffffffffffffffffffffffffffffffffff191690817bffffffffffffffffffffffffffffffffffffffffffffffffffffffff191681525050849050949350505050565b61070e826003835161085c565b61072181836109e190919063ffffffff16565b505050565b5f5f600454905060018161073a91906113ff565b6004819055505f634042994660e01b5f5f875f01513089604001518760018c608001515f01516040516024016107779897969594939291906114db565b604051602081830303815290604052907bffffffffffffffffffffffffffffffffffffffffffffffffffffffff19166020820180517bffffffffffffffffffffffffffffffffffffffffffffffffffffffff838183161783525050505090506107e286838684610a02565b925050509392505050565b5f33905090565b6107fc610e41565b5f60208361080a919061158b565b146108365760208261081c919061158b565b602061082891906115bb565b8261083391906113ff565b91505b818360200181815250506040518084525f81528281016020016040525082905092915050565b60178167ffffffffffffffff16116108935761088d8160058460ff16901b60ff161784610b8f90919063ffffffff16565b506109dc565b60ff8167ffffffffffffffff16116108e9576108c2601860058460ff16901b1784610b8f90919063ffffffff16565b506108e38167ffffffffffffffff16600185610bae9092919063ffffffff16565b506109db565b61ffff8167ffffffffffffffff161161094057610919601960058460ff16901b1784610b8f90919063ffffffff16565b5061093a8167ffffffffffffffff16600285610bae9092919063ffffffff16565b506109da565b63ffffffff8167ffffffffffffffff161161099957610972601a60058460ff16901b1784610b8f90919063ffffffff16565b506109938167ffffffffffffffff16600485610bae9092919063ffffffff16565b506109d9565b6109b6601b60058460ff16901b1784610b8f90919063ffffffff16565b506109d78167ffffffffffffffff16600885610bae9092919063ffffffff16565b505b5b5b5b505050565b6109e9610e41565b6109fa83845f015151848551610bcf565b905092915050565b5f3084604051602001610a1692919061169f565b6040516020818303038152906040528051906020012090508460055f8381526020019081526020015f205f6101000a81548173ffffffffffffffffffffffffffffffffffffffff021916908373ffffffffffffffffffffffffffffffffffffffff160217905550807fb5e6e01e79f91267dc17b4e6314d5d4d03593d2ceee0fbb452b750bd70ea5af960405160405180910390a260025f9054906101000a900473ffffffffffffffffffffffffffffffffffffffff1673ffffffffffffffffffffffffffffffffffffffff16634000aea08685856040518463ffffffff1660e01b8152600401610b08939291906116ca565b6020604051808303815f875af1158015610b24573d5f5f3e3d5ffd5b505050506040513d601f19601f82011682018060405250810190610b48919061173b565b610b87576040517f08c379a0000000000000000000000000000000000000000000000000000000008152600401610b7e906117d6565b60405180910390fd5b949350505050565b610b97610e41565b610ba683845f01515184610cbb565b905092915050565b610bb6610e41565b610bc684855f0151518585610d11565b90509392505050565b610bd7610e41565b8251821115610be4575f5ffd5b84602001518285610bf591906113ff565b1115610c2a57610c29856002610c1a88602001518887610c1591906113ff565b610d9e565b610c2491906117f4565b610db9565b5b5f5f865180518760208301019350808887011115610c485787860182525b60208701925050505b60208410610c8f5780518252602082610c6a91906113ff565b9150602081610c7991906113ff565b9050602084610c8891906115bb565b9350610c51565b5f6001856020036101000a03905080198251168184511681811785525050508692505050949350505050565b610cc3610e41565b83602001518310610ce957610ce88460028660200151610ce391906117f4565b610db9565b5b83518051602085830101848153818603610d04576001820183525b5050508390509392505050565b610d19610e41565b84602001518483610d2a91906113ff565b1115610d5257610d518560028685610d4291906113ff565b610d4c91906117f4565b610db9565b5b5f600183610100610d639190611964565b610d6d91906115bb565b90508551838682010185831982511617815281518588011115610d905784870182525b505085915050949350505050565b5f81831115610daf57829050610db3565b8190505b92915050565b5f825f01519050610dca83836107f4565b50610dd583826109e1565b50505050565b6040518060a001604052805f81526020015f73ffffffffffffffffffffffffffffffffffffffff1681526020015f7bffffffffffffffffffffffffffffffffffffffffffffffffffffffff191681526020015f8152602001610e3b610e41565b81525090565b6040518060400160405280606081526020015f81525090565b5f604051905090565b5f5ffd5b5f5ffd5b5f819050919050565b610e7d81610e6b565b8114610e87575f5ffd5b50565b5f81359050610e9881610e74565b92915050565b5f5ffd5b5f5ffd5b5f601f19601f8301169050919050565b7f4e487b71000000000000000000000000000000000000000000000000000000005f52604160045260245ffd5b610eec82610ea6565b810181811067ffffffffffffffff82111715610f0b57610f0a610eb6565b5b80604052505050565b5f610f1d610e5a565b9050610f298282610ee3565b919050565b5f67ffffffffffffffff821115610f4857610f47610eb6565b5b610f5182610ea6565b9050602081019050919050565b828183375f83830152505050565b5f610f7e610f7984610f2e565b610f14565b905082815260208101848484011115610f9a57610f99610ea2565b5b610fa5848285610f5e565b509392505050565b5f82601f830112610fc157610fc0610e9e565b5b8135610fd1848260208601610f6c565b91505092915050565b5f5f60408385031215610ff057610fef610e63565b5b5f610ffd85828601610e8a565b925050602083013567ffffffffffffffff81111561101e5761101d610e67565b5b61102a85828601610fad565b9150509250929050565b5f819050919050565b61104681611034565b8114611050575f5ffd5b50565b5f813590506110618161103d565b92915050565b5f6020828403121561107c5761107b610e63565b5b5f61108984828501611053565b91505092915050565b61109b81611034565b82525050565b5f6060820190506110b45f830186611092565b6110c16020830185611092565b6110ce6040830184611092565b949350505050565b5f73ffffffffffffffffffffffffffffffffffffffff82169050919050565b5f6110ff826110d6565b9050919050565b61110f816110f5565b82525050565b5f6020820190506111285f830184611106565b92915050565b611137816110f5565b8114611141575f5ffd5b50565b5f813590506111528161112e565b92915050565b5f6020828403121561116d5761116c610e63565b5b5f61117a84828501611144565b91505092915050565b5f82825260208201905092915050565b7f536f75726365206d75737420626520746865206f7261636c65206f66207468655f8201527f2072657175657374000000000000000000000000000000000000000000000000602082015250565b5f6111ed602883611183565b91506111f882611193565b604082019050919050565b5f6020820190508181035f83015261121a816111e1565b9050919050565b5f67ffffffffffffffff82111561123b5761123a610eb6565b5b602082029050602081019050919050565b5f5ffd5b5f5ffd5b5f815190506112628161103d565b92915050565b5f6060828403121561127d5761127c611250565b5b6112876060610f14565b90505f61129684828501611254565b5f8301525060206112a984828501611254565b60208301525060406112bd84828501611254565b60408301525092915050565b5f6112db6112d684611221565b610f14565b905080838252602082019050606084028301858111156112fe576112fd61124c565b5b835b8181101561132757806113138882611268565b845260208401935050606081019050611300565b5050509392505050565b5f82601f83011261134557611344610e9e565b5b81516113558482602086016112c9565b91505092915050565b5f6020828403121561137357611372610e63565b5b5f82015167ffffffffffffffff8111156113905761138f610e67565b5b61139c84828501611331565b91505092915050565b7f4e487b71000000000000000000000000000000000000000000000000000000005f52603260045260245ffd5b7f4e487b71000000000000000000000000000000000000000000000000000000005f52601160045260245ffd5b5f61140982611034565b915061141483611034565b925082820190508082111561142c5761142b6113d2565b5b92915050565b61143b81610e6b565b82525050565b5f7fffffffff0000000000000000000000000000000000000000000000000000000082169050919050565b61147581611441565b82525050565b5f81519050919050565b5f82825260208201905092915050565b8281835e5f83830152505050565b5f6114ad8261147b565b6114b78185611485565b93506114c7818560208601611495565b6114d081610ea6565b840191505092915050565b5f610100820190506114ef5f83018b611106565b6114fc602083018a611092565b6115096040830189611432565b6115166060830188611106565b611523608083018761146c565b61153060a0830186611092565b61153d60c0830185611092565b81810360e083015261154f81846114a3565b90509998505050505050505050565b7f4e487b71000000000000000000000000000000000000000000000000000000005f52601260045260245ffd5b5f61159582611034565b91506115a083611034565b9250826115b0576115af61155e565b5b828206905092915050565b5f6115c582611034565b91506115d083611034565b92508282039050818111156115e8576115e76113d2565b5b92915050565b5f819050919050565b5f61161161160c611607846110d6565b6115ee565b6110d6565b9050919050565b5f611622826115f7565b9050919050565b5f61163382611618565b9050919050565b5f8160601b9050919050565b5f6116508261163a565b9050919050565b5f61166182611646565b9050919050565b61167961167482611629565b611657565b82525050565b5f819050919050565b61169961169482611034565b61167f565b82525050565b5f6116aa8285611668565b6014820191506116ba8284611688565b6020820191508190509392505050565b5f6060820190506116dd5f830186611106565b6116ea6020830185611092565b81810360408301526116fc81846114a3565b9050949350505050565b5f8115159050919050565b61171a81611706565b8114611724575f5ffd5b50565b5f8151905061173581611711565b92915050565b5f602082840312156117505761174f610e63565b5b5f61175d84828501611727565b91505092915050565b7f756e61626c6520746f207472616e73666572416e6443616c6c20746f206f72615f8201527f636c650000000000000000000000000000000000000000000000000000000000602082015250565b5f6117c0602383611183565b91506117cb82611766565b604082019050919050565b5f6020820190508181035f8301526117ed816117b4565b9050919050565b5f6117fe82611034565b915061180983611034565b925082820261181781611034565b9150828204841483151761182e5761182d6113d2565b5b5092915050565b5f8160011c9050919050565b5f5f8291508390505b600185111561188a57808604811115611866576118656113d2565b5b60018516156118755780820291505b808102905061188385611835565b945061184a565b94509492505050565b5f826118a2576001905061195d565b816118af575f905061195d565b81600181146118c557600281146118cf576118fe565b600191505061195d565b60ff8411156118e1576118e06113d2565b5b8360020a9150848211156118f8576118f76113d2565b5b5061195d565b5060208310610133831016604e8410600b84101617156119335782820a90508381111561192e5761192d6113d2565b5b61195d565b6119408484846001611841565b92509050818404811115611957576119566113d2565b5b81810290505b9392505050565b5f61196e82611034565b915061197983611034565b92506119a67fffffffffffffffffffffffffffffffffffffffffffffffffffffffffffffffff8484611893565b90509291505056fea264697066735822122014f619265d3d4b0443a8b60202344cbd9cd3e1fccd4dcfd63495bf5501def38164736f6c634300081c0033",
					"opcodes": "PUSH1 0x80 PUSH1 0x40 MSTORE PUSH1 0x1 PUSH1 0x4 SSTORE CALLVALUE DUP1 ISZERO PUSH2 0x14 JUMPI PUSH0 PUSH0 REVERT JUMPDEST POP PUSH1 0x40 MLOAD PUSH2 0x1D10 CODESIZE SUB DUP1 PUSH2 0x1D10 DUP4 CODECOPY DUP2 DUP2 ADD PUSH1 0x40 MSTORE DUP2 ADD SWAP1 PUSH2 0x36 SWAP2 SWAP1 PUSH2 0x2B9 JUMP JUMPDEST CALLER PUSH0 PUSH20 0xFFFFFFFFFFFFFFFFFFFFFFFFFFFFFFFFFFFFFFFF AND DUP2 PUSH20 0xFFFFFFFFFFFFFFFFFFFFFFFFFFFFFFFFFFFFFFFF AND SUB PUSH2 0xA7 JUMPI PUSH0 PUSH1 0x40 MLOAD PUSH32 0x1E4FBDF700000000000000000000000000000000000000000000000000000000 DUP2 MSTORE PUSH1 0x4 ADD PUSH2 0x9E SWAP2 SWAP1 PUSH2 0x306 JUMP JUMPDEST PUSH1 0x40 MLOAD DUP1 SWAP2 SUB SWAP1 REVERT JUMPDEST PUSH2 0xB6 DUP2 PUSH2 0x112 PUSH1 0x20 SHL PUSH1 0x20 SHR JUMP JUMPDEST POP PUSH2 0xC6 DUP2 PUSH2 0x1D5 PUSH1 0x20 SHL PUSH1 0x20 SHR JUMP JUMPDEST PUSH2 0xD5 DUP3 PUSH2 0x218 PUSH1 0x20 SHL PUSH1 0x20 SHR JUMP JUMPDEST PUSH32 0x3100000000000000000000000000000000000000000000000000000000000000 PUSH1 0x8 DUP2 SWAP1 SSTORE POP PUSH8 0x16345785D8A0000 PUSH1 0x9 DUP2 SWAP1 SSTORE POP POP POP PUSH2 0x31F JUMP JUMPDEST PUSH0 PUSH1 0x6 PUSH0 SWAP1 SLOAD SWAP1 PUSH2 0x100 EXP SWAP1 DIV PUSH20 0xFFFFFFFFFFFFFFFFFFFFFFFFFFFFFFFFFFFFFFFF AND SWAP1 POP DUP2 PUSH1 0x6 PUSH0 PUSH2 0x100 EXP DUP2 SLOAD DUP2 PUSH20 0xFFFFFFFFFFFFFFFFFFFFFFFFFFFFFFFFFFFFFFFF MUL NOT AND SWAP1 DUP4 PUSH20 0xFFFFFFFFFFFFFFFFFFFFFFFFFFFFFFFFFFFFFFFF AND MUL OR SWAP1 SSTORE POP DUP2 PUSH20 0xFFFFFFFFFFFFFFFFFFFFFFFFFFFFFFFFFFFFFFFF AND DUP2 PUSH20 0xFFFFFFFFFFFFFFFFFFFFFFFFFFFFFFFFFFFFFFFF AND PUSH32 0x8BE0079C531659141344CD1FD0A4F28419497F9722A3DAAFE3B4186F6B6457E0 PUSH1 0x40 MLOAD PUSH1 0x40 MLOAD DUP1 SWAP2 SUB SWAP1 LOG3 POP POP JUMP JUMPDEST DUP1 PUSH1 0x2 PUSH0 PUSH2 0x100 EXP DUP2 SLOAD DUP2 PUSH20 0xFFFFFFFFFFFFFFFFFFFFFFFFFFFFFFFFFFFFFFFF MUL NOT AND SWAP1 DUP4 PUSH20 0xFFFFFFFFFFFFFFFFFFFFFFFFFFFFFFFFFFFFFFFF AND MUL OR SWAP1 SSTORE POP POP JUMP JUMPDEST DUP1 PUSH1 0x3 PUSH0 PUSH2 0x100 EXP DUP2 SLOAD DUP2 PUSH20 0xFFFFFFFFFFFFFFFFFFFFFFFFFFFFFFFFFFFFFFFF MUL NOT AND SWAP1 DUP4 PUSH20 0xFFFFFFFFFFFFFFFFFFFFFFFFFFFFFFFFFFFFFFFF AND MUL OR SWAP1 SSTORE POP POP JUMP JUMPDEST PUSH0 PUSH0 REVERT JUMPDEST PUSH0 PUSH20 0xFFFFFFFFFFFFFFFFFFFFFFFFFFFFFFFFFFFFFFFF DUP3 AND SWAP1 POP SWAP2 SWAP1 POP JUMP JUMPDEST PUSH0 PUSH2 0x288 DUP3 PUSH2 0x25F JUMP JUMPDEST SWAP1 POP SWAP2 SWAP1 POP JUMP JUMPDEST PUSH2 0x298 DUP2 PUSH2 0x27E JUMP JUMPDEST DUP2 EQ PUSH2 0x2A2 JUMPI PUSH0 PUSH0 REVERT JUMPDEST POP JUMP JUMPDEST PUSH0 DUP2 MLOAD SWAP1 POP PUSH2 0x2B3 DUP2 PUSH2 0x28F JUMP JUMPDEST SWAP3 SWAP2 POP POP JUMP JUMPDEST PUSH0 PUSH0 PUSH1 0x40 DUP4 DUP6 SUB SLT ISZERO PUSH2 0x2CF JUMPI PUSH2 0x2CE PUSH2 0x25B JUMP JUMPDEST JUMPDEST PUSH0 PUSH2 0x2DC DUP6 DUP3 DUP7 ADD PUSH2 0x2A5 JUMP JUMPDEST SWAP3 POP POP PUSH1 0x20 PUSH2 0x2ED DUP6 DUP3 DUP7 ADD PUSH2 0x2A5 JUMP JUMPDEST SWAP2 POP POP SWAP3 POP SWAP3 SWAP1 POP JUMP JUMPDEST PUSH2 0x300 DUP2 PUSH2 0x27E JUMP JUMPDEST DUP3 MSTORE POP POP JUMP JUMPDEST PUSH0 PUSH1 0x20 DUP3 ADD SWAP1 POP PUSH2 0x319 PUSH0 DUP4 ADD DUP5 PUSH2 0x2F7 JUMP JUMPDEST SWAP3 SWAP2 POP POP JUMP JUMPDEST PUSH2 0x19E4 DUP1 PUSH2 0x32C PUSH0 CODECOPY PUSH0 RETURN INVALID PUSH1 0x80 PUSH1 0x40 MSTORE CALLVALUE DUP1 ISZERO PUSH2 0xF JUMPI PUSH0 PUSH0 REVERT JUMPDEST POP PUSH1 0x4 CALLDATASIZE LT PUSH2 0x60 JUMPI PUSH0 CALLDATALOAD PUSH1 0xE0 SHR DUP1 PUSH4 0x18F20329 EQ PUSH2 0x64 JUMPI DUP1 PUSH4 0x715018A6 EQ PUSH2 0x6E JUMPI DUP1 PUSH4 0x7C1DE7E1 EQ PUSH2 0x78 JUMPI DUP1 PUSH4 0x81A72379 EQ PUSH2 0x94 JUMPI DUP1 PUSH4 0x8DA5CB5B EQ PUSH2 0xC6 JUMPI DUP1 PUSH4 0xF2FDE38B EQ PUSH2 0xE4 JUMPI JUMPDEST PUSH0 PUSH0 REVERT JUMPDEST PUSH2 0x6C PUSH2 0x100 JUMP JUMPDEST STOP JUMPDEST PUSH2 0x76 PUSH2 0x1EA JUMP JUMPDEST STOP JUMPDEST PUSH2 0x92 PUSH1 0x4 DUP1 CALLDATASIZE SUB DUP2 ADD SWAP1 PUSH2 0x8D SWAP2 SWAP1 PUSH2 0xFDA JUMP JUMPDEST PUSH2 0x1FD JUMP JUMPDEST STOP JUMPDEST PUSH2 0xAE PUSH1 0x4 DUP1 CALLDATASIZE SUB DUP2 ADD SWAP1 PUSH2 0xA9 SWAP2 SWAP1 PUSH2 0x1067 JUMP JUMPDEST PUSH2 0x39D JUMP JUMPDEST PUSH1 0x40 MLOAD PUSH2 0xBD SWAP4 SWAP3 SWAP2 SWAP1 PUSH2 0x10A1 JUMP JUMPDEST PUSH1 0x40 MLOAD DUP1 SWAP2 SUB SWAP1 RETURN JUMPDEST PUSH2 0xCE PUSH2 0x3C3 JUMP JUMPDEST PUSH1 0x40 MLOAD PUSH2 0xDB SWAP2 SWAP1 PUSH2 0x1115 JUMP JUMPDEST PUSH1 0x40 MLOAD DUP1 SWAP2 SUB SWAP1 RETURN JUMPDEST PUSH2 0xFE PUSH1 0x4 DUP1 CALLDATASIZE SUB DUP2 ADD SWAP1 PUSH2 0xF9 SWAP2 SWAP1 PUSH2 0x1158 JUMP JUMPDEST PUSH2 0x3EB JUMP JUMPDEST STOP JUMPDEST PUSH0 PUSH2 0x115 PUSH1 0x8 SLOAD ADDRESS PUSH4 0x7C1DE7E1 PUSH1 0xE0 SHL PUSH2 0x46F JUMP JUMPDEST SWAP1 POP PUSH2 0x165 DUP2 PUSH1 0x40 MLOAD DUP1 PUSH1 0x40 ADD PUSH1 0x40 MSTORE DUP1 PUSH1 0x3 DUP2 MSTORE PUSH1 0x20 ADD PUSH32 0x6765740000000000000000000000000000000000000000000000000000000000 DUP2 MSTORE POP PUSH1 0x40 MLOAD DUP1 PUSH1 0x20 ADD PUSH1 0x40 MSTORE DUP1 PUSH0 DUP2 MSTORE POP PUSH2 0x4A0 JUMP JUMPDEST PUSH2 0x1DA DUP2 PUSH1 0x40 MLOAD DUP1 PUSH1 0x40 ADD PUSH1 0x40 MSTORE DUP1 PUSH1 0x4 DUP2 MSTORE PUSH1 0x20 ADD PUSH32 0x7061746800000000000000000000000000000000000000000000000000000000 DUP2 MSTORE POP PUSH1 0x40 MLOAD DUP1 PUSH1 0x40 ADD PUSH1 0x40 MSTORE DUP1 PUSH1 0x10 DUP2 MSTORE PUSH1 0x20 ADD PUSH32 0x646174612E707265666563747572657300000000000000000000000000000000 DUP2 MSTORE POP PUSH2 0x4A0 JUMP JUMPDEST PUSH2 0x1E6 DUP2 PUSH1 0x9 SLOAD PUSH2 0x4D3 JUMP JUMPDEST POP POP JUMP JUMPDEST PUSH2 0x1F2 PUSH2 0x508 JUMP JUMPDEST PUSH2 0x1FB PUSH0 PUSH2 0x58F JUMP JUMPDEST JUMP JUMPDEST DUP2 PUSH1 0x5 PUSH0 DUP3 DUP2 MSTORE PUSH1 0x20 ADD SWAP1 DUP2 MSTORE PUSH1 0x20 ADD PUSH0 KECCAK256 PUSH0 SWAP1 SLOAD SWAP1 PUSH2 0x100 EXP SWAP1 DIV PUSH20 0xFFFFFFFFFFFFFFFFFFFFFFFFFFFFFFFFFFFFFFFF AND PUSH20 0xFFFFFFFFFFFFFFFFFFFFFFFFFFFFFFFFFFFFFFFF AND CALLER PUSH20 0xFFFFFFFFFFFFFFFFFFFFFFFFFFFFFFFFFFFFFFFF AND EQ PUSH2 0x29C JUMPI PUSH1 0x40 MLOAD PUSH32 0x8C379A000000000000000000000000000000000000000000000000000000000 DUP2 MSTORE PUSH1 0x4 ADD PUSH2 0x293 SWAP1 PUSH2 0x1203 JUMP JUMPDEST PUSH1 0x40 MLOAD DUP1 SWAP2 SUB SWAP1 REVERT JUMPDEST PUSH1 0x5 PUSH0 DUP3 DUP2 MSTORE PUSH1 0x20 ADD SWAP1 DUP2 MSTORE PUSH1 0x20 ADD PUSH0 KECCAK256 PUSH0 PUSH2 0x100 EXP DUP2 SLOAD SWAP1 PUSH20 0xFFFFFFFFFFFFFFFFFFFFFFFFFFFFFFFFFFFFFFFF MUL NOT AND SWAP1 SSTORE DUP1 PUSH32 0x7CC135E0CEBB02C3480AE5D74D377283180A2601F8F644EDF7987B009316C63A PUSH1 0x40 MLOAD PUSH1 0x40 MLOAD DUP1 SWAP2 SUB SWAP1 LOG2 PUSH0 DUP3 DUP1 PUSH1 0x20 ADD SWAP1 MLOAD DUP2 ADD SWAP1 PUSH2 0x311 SWAP2 SWAP1 PUSH2 0x135E JUMP JUMPDEST SWAP1 POP PUSH0 PUSH0 SWAP1 POP JUMPDEST DUP2 MLOAD DUP2 LT ISZERO PUSH2 0x396 JUMPI DUP2 DUP2 DUP2 MLOAD DUP2 LT PUSH2 0x334 JUMPI PUSH2 0x333 PUSH2 0x13A5 JUMP JUMPDEST JUMPDEST PUSH1 0x20 MUL PUSH1 0x20 ADD ADD MLOAD PUSH1 0xA PUSH0 DUP5 DUP5 DUP2 MLOAD DUP2 LT PUSH2 0x352 JUMPI PUSH2 0x351 PUSH2 0x13A5 JUMP JUMPDEST JUMPDEST PUSH1 0x20 MUL PUSH1 0x20 ADD ADD MLOAD PUSH0 ADD MLOAD DUP2 MSTORE PUSH1 0x20 ADD SWAP1 DUP2 MSTORE PUSH1 0x20 ADD PUSH0 KECCAK256 PUSH0 DUP3 ADD MLOAD DUP2 PUSH0 ADD SSTORE PUSH1 0x20 DUP3 ADD MLOAD DUP2 PUSH1 0x1 ADD SSTORE PUSH1 0x40 DUP3 ADD MLOAD DUP2 PUSH1 0x2 ADD SSTORE SWAP1 POP POP DUP1 DUP1 PUSH1 0x1 ADD SWAP2 POP POP PUSH2 0x318 JUMP JUMPDEST POP POP POP POP POP JUMP JUMPDEST PUSH1 0xA PUSH1 0x20 MSTORE DUP1 PUSH0 MSTORE PUSH1 0x40 PUSH0 KECCAK256 PUSH0 SWAP2 POP SWAP1 POP DUP1 PUSH0 ADD SLOAD SWAP1 DUP1 PUSH1 0x1 ADD SLOAD SWAP1 DUP1 PUSH1 0x2 ADD SLOAD SWAP1 POP DUP4 JUMP JUMPDEST PUSH0 PUSH1 0x6 PUSH0 SWAP1 SLOAD SWAP1 PUSH2 0x100 EXP SWAP1 DIV PUSH20 0xFFFFFFFFFFFFFFFFFFFFFFFFFFFFFFFFFFFFFFFF AND SWAP1 POP SWAP1 JUMP JUMPDEST PUSH2 0x3F3 PUSH2 0x508 JUMP JUMPDEST PUSH0 PUSH20 0xFFFFFFFFFFFFFFFFFFFFFFFFFFFFFFFFFFFFFFFF AND DUP2 PUSH20 0xFFFFFFFFFFFFFFFFFFFFFFFFFFFFFFFFFFFFFFFF AND SUB PUSH2 0x463 JUMPI PUSH0 PUSH1 0x40 MLOAD PUSH32 0x1E4FBDF700000000000000000000000000000000000000000000000000000000 DUP2 MSTORE PUSH1 0x4 ADD PUSH2 0x45A SWAP2 SWAP1 PUSH2 0x1115 JUMP JUMPDEST PUSH1 0x40 MLOAD DUP1 SWAP2 SUB SWAP1 REVERT JUMPDEST PUSH2 0x46C DUP2 PUSH2 0x58F JUMP JUMPDEST POP JUMP JUMPDEST PUSH2 0x477 PUSH2 0xDDB JUMP JUMPDEST PUSH2 0x47F PUSH2 0xDDB JUMP JUMPDEST PUSH2 0x496 DUP6 DUP6 DUP6 DUP5 PUSH2 0x652 SWAP1 SWAP4 SWAP3 SWAP2 SWAP1 PUSH4 0xFFFFFFFF AND JUMP JUMPDEST SWAP2 POP POP SWAP4 SWAP3 POP POP POP JUMP JUMPDEST PUSH2 0x4B7 DUP3 DUP5 PUSH1 0x80 ADD MLOAD PUSH2 0x701 SWAP1 SWAP2 SWAP1 PUSH4 0xFFFFFFFF AND JUMP JUMPDEST PUSH2 0x4CE DUP2 DUP5 PUSH1 0x80 ADD MLOAD PUSH2 0x701 SWAP1 SWAP2 SWAP1 PUSH4 0xFFFFFFFF AND JUMP JUMPDEST POP POP POP JUMP JUMPDEST PUSH0 PUSH2 0x500 PUSH1 0x3 PUSH0 SWAP1 SLOAD SWAP1 PUSH2 0x100 EXP SWAP1 DIV PUSH20 0xFFFFFFFFFFFFFFFFFFFFFFFFFFFFFFFFFFFFFFFF AND DUP5 DUP5 PUSH2 0x726 JUMP JUMPDEST SWAP1 POP SWAP3 SWAP2 POP POP JUMP JUMPDEST PUSH2 0x510 PUSH2 0x7ED JUMP JUMPDEST PUSH20 0xFFFFFFFFFFFFFFFFFFFFFFFFFFFFFFFFFFFFFFFF AND PUSH2 0x52E PUSH2 0x3C3 JUMP JUMPDEST PUSH20 0xFFFFFFFFFFFFFFFFFFFFFFFFFFFFFFFFFFFFFFFF AND EQ PUSH2 0x58D JUMPI PUSH2 0x551 PUSH2 0x7ED JUMP JUMPDEST PUSH1 0x40 MLOAD PUSH32 0x118CDAA700000000000000000000000000000000000000000000000000000000 DUP2 MSTORE PUSH1 0x4 ADD PUSH2 0x584 SWAP2 SWAP1 PUSH2 0x1115 JUMP JUMPDEST PUSH1 0x40 MLOAD DUP1 SWAP2 SUB SWAP1 REVERT JUMPDEST JUMP JUMPDEST PUSH0 PUSH1 0x6 PUSH0 SWAP1 SLOAD SWAP1 PUSH2 0x100 EXP SWAP1 DIV PUSH20 0xFFFFFFFFFFFFFFFFFFFFFFFFFFFFFFFFFFFFFFFF AND SWAP1 POP DUP2 PUSH1 0x6 PUSH0 PUSH2 0x100 EXP DUP2 SLOAD DUP2 PUSH20 0xFFFFFFFFFFFFFFFFFFFFFFFFFFFFFFFFFFFFFFFF MUL NOT AND SWAP1 DUP4 PUSH20 0xFFFFFFFFFFFFFFFFFFFFFFFFFFFFFFFFFFFFFFFF AND MUL OR SWAP1 SSTORE POP DUP2 PUSH20 0xFFFFFFFFFFFFFFFFFFFFFFFFFFFFFFFFFFFFFFFF AND DUP2 PUSH20 0xFFFFFFFFFFFFFFFFFFFFFFFFFFFFFFFFFFFFFFFF AND PUSH32 0x8BE0079C531659141344CD1FD0A4F28419497F9722A3DAAFE3B4186F6B6457E0 PUSH1 0x40 MLOAD PUSH1 0x40 MLOAD DUP1 SWAP2 SUB SWAP1 LOG3 POP POP JUMP JUMPDEST PUSH2 0x65A PUSH2 0xDDB JUMP JUMPDEST PUSH2 0x66A DUP6 PUSH1 0x80 ADD MLOAD PUSH2 0x100 PUSH2 0x7F4 JUMP JUMPDEST POP DUP4 DUP6 PUSH0 ADD DUP2 DUP2 MSTORE POP POP DUP3 DUP6 PUSH1 0x20 ADD SWAP1 PUSH20 0xFFFFFFFFFFFFFFFFFFFFFFFFFFFFFFFFFFFFFFFF AND SWAP1 DUP2 PUSH20 0xFFFFFFFFFFFFFFFFFFFFFFFFFFFFFFFFFFFFFFFF AND DUP2 MSTORE POP POP DUP2 DUP6 PUSH1 0x40 ADD SWAP1 PUSH28 0xFFFFFFFFFFFFFFFFFFFFFFFFFFFFFFFFFFFFFFFFFFFFFFFFFFFFFFFF NOT AND SWAP1 DUP2 PUSH28 0xFFFFFFFFFFFFFFFFFFFFFFFFFFFFFFFFFFFFFFFFFFFFFFFFFFFFFFFF NOT AND DUP2 MSTORE POP POP DUP5 SWAP1 POP SWAP5 SWAP4 POP POP POP POP JUMP JUMPDEST PUSH2 0x70E DUP3 PUSH1 0x3 DUP4 MLOAD PUSH2 0x85C JUMP JUMPDEST PUSH2 0x721 DUP2 DUP4 PUSH2 0x9E1 SWAP1 SWAP2 SWAP1 PUSH4 0xFFFFFFFF AND JUMP JUMPDEST POP POP POP JUMP JUMPDEST PUSH0 PUSH0 PUSH1 0x4 SLOAD SWAP1 POP PUSH1 0x1 DUP2 PUSH2 0x73A SWAP2 SWAP1 PUSH2 0x13FF JUMP JUMPDEST PUSH1 0x4 DUP2 SWAP1 SSTORE POP PUSH0 PUSH4 0x40429946 PUSH1 0xE0 SHL PUSH0 PUSH0 DUP8 PUSH0 ADD MLOAD ADDRESS DUP10 PUSH1 0x40 ADD MLOAD DUP8 PUSH1 0x1 DUP13 PUSH1 0x80 ADD MLOAD PUSH0 ADD MLOAD PUSH1 0x40 MLOAD PUSH1 0x24 ADD PUSH2 0x777 SWAP9 SWAP8 SWAP7 SWAP6 SWAP5 SWAP4 SWAP3 SWAP2 SWAP1 PUSH2 0x14DB JUMP JUMPDEST PUSH1 0x40 MLOAD PUSH1 0x20 DUP2 DUP4 SUB SUB DUP2 MSTORE SWAP1 PUSH1 0x40 MSTORE SWAP1 PUSH28 0xFFFFFFFFFFFFFFFFFFFFFFFFFFFFFFFFFFFFFFFFFFFFFFFFFFFFFFFF NOT AND PUSH1 0x20 DUP3 ADD DUP1 MLOAD PUSH28 0xFFFFFFFFFFFFFFFFFFFFFFFFFFFFFFFFFFFFFFFFFFFFFFFFFFFFFFFF DUP4 DUP2 DUP4 AND OR DUP4 MSTORE POP POP POP POP SWAP1 POP PUSH2 0x7E2 DUP7 DUP4 DUP7 DUP5 PUSH2 0xA02 JUMP JUMPDEST SWAP3 POP POP POP SWAP4 SWAP3 POP POP POP JUMP JUMPDEST PUSH0 CALLER SWAP1 POP SWAP1 JUMP JUMPDEST PUSH2 0x7FC PUSH2 0xE41 JUMP JUMPDEST PUSH0 PUSH1 0x20 DUP4 PUSH2 0x80A SWAP2 SWAP1 PUSH2 0x158B JUMP JUMPDEST EQ PUSH2 0x836 JUMPI PUSH1 0x20 DUP3 PUSH2 0x81C SWAP2 SWAP1 PUSH2 0x158B JUMP JUMPDEST PUSH1 0x20 PUSH2 0x828 SWAP2 SWAP1 PUSH2 0x15BB JUMP JUMPDEST DUP3 PUSH2 0x833 SWAP2 SWAP1 PUSH2 0x13FF JUMP JUMPDEST SWAP2 POP JUMPDEST DUP2 DUP4 PUSH1 0x20 ADD DUP2 DUP2 MSTORE POP POP PUSH1 0x40 MLOAD DUP1 DUP5 MSTORE PUSH0 DUP2 MSTORE DUP3 DUP2 ADD PUSH1 0x20 ADD PUSH1 0x40 MSTORE POP DUP3 SWAP1 POP SWAP3 SWAP2 POP POP JUMP JUMPDEST PUSH1 0x17 DUP2 PUSH8 0xFFFFFFFFFFFFFFFF AND GT PUSH2 0x893 JUMPI PUSH2 0x88D DUP2 PUSH1 0x5 DUP5 PUSH1 0xFF AND SWAP1 SHL PUSH1 0xFF AND OR DUP5 PUSH2 0xB8F SWAP1 SWAP2 SWAP1 PUSH4 0xFFFFFFFF AND JUMP JUMPDEST POP PUSH2 0x9DC JUMP JUMPDEST PUSH1 0xFF DUP2 PUSH8 0xFFFFFFFFFFFFFFFF AND GT PUSH2 0x8E9 JUMPI PUSH2 0x8C2 PUSH1 0x18 PUSH1 0x5 DUP5 PUSH1 0xFF AND SWAP1 SHL OR DUP5 PUSH2 0xB8F SWAP1 SWAP2 SWAP1 PUSH4 0xFFFFFFFF AND JUMP JUMPDEST POP PUSH2 0x8E3 DUP2 PUSH8 0xFFFFFFFFFFFFFFFF AND PUSH1 0x1 DUP6 PUSH2 0xBAE SWAP1 SWAP3 SWAP2 SWAP1 PUSH4 0xFFFFFFFF AND JUMP JUMPDEST POP PUSH2 0x9DB JUMP JUMPDEST PUSH2 0xFFFF DUP2 PUSH8 0xFFFFFFFFFFFFFFFF AND GT PUSH2 0x940 JUMPI PUSH2 0x919 PUSH1 0x19 PUSH1 0x5 DUP5 PUSH1 0xFF AND SWAP1 SHL OR DUP5 PUSH2 0xB8F SWAP1 SWAP2 SWAP1 PUSH4 0xFFFFFFFF AND JUMP JUMPDEST POP PUSH2 0x93A DUP2 PUSH8 0xFFFFFFFFFFFFFFFF AND PUSH1 0x2 DUP6 PUSH2 0xBAE SWAP1 SWAP3 SWAP2 SWAP1 PUSH4 0xFFFFFFFF AND JUMP JUMPDEST POP PUSH2 0x9DA JUMP JUMPDEST PUSH4 0xFFFFFFFF DUP2 PUSH8 0xFFFFFFFFFFFFFFFF AND GT PUSH2 0x999 JUMPI PUSH2 0x972 PUSH1 0x1A PUSH1 0x5 DUP5 PUSH1 0xFF AND SWAP1 SHL OR DUP5 PUSH2 0xB8F SWAP1 SWAP2 SWAP1 PUSH4 0xFFFFFFFF AND JUMP JUMPDEST POP PUSH2 0x993 DUP2 PUSH8 0xFFFFFFFFFFFFFFFF AND PUSH1 0x4 DUP6 PUSH2 0xBAE SWAP1 SWAP3 SWAP2 SWAP1 PUSH4 0xFFFFFFFF AND JUMP JUMPDEST POP PUSH2 0x9D9 JUMP JUMPDEST PUSH2 0x9B6 PUSH1 0x1B PUSH1 0x5 DUP5 PUSH1 0xFF AND SWAP1 SHL OR DUP5 PUSH2 0xB8F SWAP1 SWAP2 SWAP1 PUSH4 0xFFFFFFFF AND JUMP JUMPDEST POP PUSH2 0x9D7 DUP2 PUSH8 0xFFFFFFFFFFFFFFFF AND PUSH1 0x8 DUP6 PUSH2 0xBAE SWAP1 SWAP3 SWAP2 SWAP1 PUSH4 0xFFFFFFFF AND JUMP JUMPDEST POP JUMPDEST JUMPDEST JUMPDEST JUMPDEST POP POP POP JUMP JUMPDEST PUSH2 0x9E9 PUSH2 0xE41 JUMP JUMPDEST PUSH2 0x9FA DUP4 DUP5 PUSH0 ADD MLOAD MLOAD DUP5 DUP6 MLOAD PUSH2 0xBCF JUMP JUMPDEST SWAP1 POP SWAP3 SWAP2 POP POP JUMP JUMPDEST PUSH0 ADDRESS DUP5 PUSH1 0x40 MLOAD PUSH1 0x20 ADD PUSH2 0xA16 SWAP3 SWAP2 SWAP1 PUSH2 0x169F JUMP JUMPDEST PUSH1 0x40 MLOAD PUSH1 0x20 DUP2 DUP4 SUB SUB DUP2 MSTORE SWAP1 PUSH1 0x40 MSTORE DUP1 MLOAD SWAP1 PUSH1 0x20 ADD KECCAK256 SWAP1 POP DUP5 PUSH1 0x5 PUSH0 DUP4 DUP2 MSTORE PUSH1 0x20 ADD SWAP1 DUP2 MSTORE PUSH1 0x20 ADD PUSH0 KECCAK256 PUSH0 PUSH2 0x100 EXP DUP2 SLOAD DUP2 PUSH20 0xFFFFFFFFFFFFFFFFFFFFFFFFFFFFFFFFFFFFFFFF MUL NOT AND SWAP1 DUP4 PUSH20 0xFFFFFFFFFFFFFFFFFFFFFFFFFFFFFFFFFFFFFFFF AND MUL OR SWAP1 SSTORE POP DUP1 PUSH32 0xB5E6E01E79F91267DC17B4E6314D5D4D03593D2CEEE0FBB452B750BD70EA5AF9 PUSH1 0x40 MLOAD PUSH1 0x40 MLOAD DUP1 SWAP2 SUB SWAP1 LOG2 PUSH1 0x2 PUSH0 SWAP1 SLOAD SWAP1 PUSH2 0x100 EXP SWAP1 DIV PUSH20 0xFFFFFFFFFFFFFFFFFFFFFFFFFFFFFFFFFFFFFFFF AND PUSH20 0xFFFFFFFFFFFFFFFFFFFFFFFFFFFFFFFFFFFFFFFF AND PUSH4 0x4000AEA0 DUP7 DUP6 DUP6 PUSH1 0x40 MLOAD DUP5 PUSH4 0xFFFFFFFF AND PUSH1 0xE0 SHL DUP2 MSTORE PUSH1 0x4 ADD PUSH2 0xB08 SWAP4 SWAP3 SWAP2 SWAP1 PUSH2 0x16CA JUMP JUMPDEST PUSH1 0x20 PUSH1 0x40 MLOAD DUP1 DUP4 SUB DUP2 PUSH0 DUP8 GAS CALL ISZERO DUP1 ISZERO PUSH2 0xB24 JUMPI RETURNDATASIZE PUSH0 PUSH0 RETURNDATACOPY RETURNDATASIZE PUSH0 REVERT JUMPDEST POP POP POP POP PUSH1 0x40 MLOAD RETURNDATASIZE PUSH1 0x1F NOT PUSH1 0x1F DUP3 ADD AND DUP3 ADD DUP1 PUSH1 0x40 MSTORE POP DUP2 ADD SWAP1 PUSH2 0xB48 SWAP2 SWAP1 PUSH2 0x173B JUMP JUMPDEST PUSH2 0xB87 JUMPI PUSH1 0x40 MLOAD PUSH32 0x8C379A000000000000000000000000000000000000000000000000000000000 DUP2 MSTORE PUSH1 0x4 ADD PUSH2 0xB7E SWAP1 PUSH2 0x17D6 JUMP JUMPDEST PUSH1 0x40 MLOAD DUP1 SWAP2 SUB SWAP1 REVERT JUMPDEST SWAP5 SWAP4 POP POP POP POP JUMP JUMPDEST PUSH2 0xB97 PUSH2 0xE41 JUMP JUMPDEST PUSH2 0xBA6 DUP4 DUP5 PUSH0 ADD MLOAD MLOAD DUP5 PUSH2 0xCBB JUMP JUMPDEST SWAP1 POP SWAP3 SWAP2 POP POP JUMP JUMPDEST PUSH2 0xBB6 PUSH2 0xE41 JUMP JUMPDEST PUSH2 0xBC6 DUP5 DUP6 PUSH0 ADD MLOAD MLOAD DUP6 DUP6 PUSH2 0xD11 JUMP JUMPDEST SWAP1 POP SWAP4 SWAP3 POP POP POP JUMP JUMPDEST PUSH2 0xBD7 PUSH2 0xE41 JUMP JUMPDEST DUP3 MLOAD DUP3 GT ISZERO PUSH2 0xBE4 JUMPI PUSH0 PUSH0 REVERT JUMPDEST DUP5 PUSH1 0x20 ADD MLOAD DUP3 DUP6 PUSH2 0xBF5 SWAP2 SWAP1 PUSH2 0x13FF JUMP JUMPDEST GT ISZERO PUSH2 0xC2A JUMPI PUSH2 0xC29 DUP6 PUSH1 0x2 PUSH2 0xC1A DUP9 PUSH1 0x20 ADD MLOAD DUP9 DUP8 PUSH2 0xC15 SWAP2 SWAP1 PUSH2 0x13FF JUMP JUMPDEST PUSH2 0xD9E JUMP JUMPDEST PUSH2 0xC24 SWAP2 SWAP1 PUSH2 0x17F4 JUMP JUMPDEST PUSH2 0xDB9 JUMP JUMPDEST JUMPDEST PUSH0 PUSH0 DUP7 MLOAD DUP1 MLOAD DUP8 PUSH1 0x20 DUP4 ADD ADD SWAP4 POP DUP1 DUP9 DUP8 ADD GT ISZERO PUSH2 0xC48 JUMPI DUP8 DUP7 ADD DUP3 MSTORE JUMPDEST PUSH1 0x20 DUP8 ADD SWAP3 POP POP POP JUMPDEST PUSH1 0x20 DUP5 LT PUSH2 0xC8F JUMPI DUP1 MLOAD DUP3 MSTORE PUSH1 0x20 DUP3 PUSH2 0xC6A SWAP2 SWAP1 PUSH2 0x13FF JUMP JUMPDEST SWAP2 POP PUSH1 0x20 DUP2 PUSH2 0xC79 SWAP2 SWAP1 PUSH2 0x13FF JUMP JUMPDEST SWAP1 POP PUSH1 0x20 DUP5 PUSH2 0xC88 SWAP2 SWAP1 PUSH2 0x15BB JUMP JUMPDEST SWAP4 POP PUSH2 0xC51 JUMP JUMPDEST PUSH0 PUSH1 0x1 DUP6 PUSH1 0x20 SUB PUSH2 0x100 EXP SUB SWAP1 POP DUP1 NOT DUP3 MLOAD AND DUP2 DUP5 MLOAD AND DUP2 DUP2 OR DUP6 MSTORE POP POP POP DUP7 SWAP3 POP POP POP SWAP5 SWAP4 POP POP POP POP JUMP JUMPDEST PUSH2 0xCC3 PUSH2 0xE41 JUMP JUMPDEST DUP4 PUSH1 0x20 ADD MLOAD DUP4 LT PUSH2 0xCE9 JUMPI PUSH2 0xCE8 DUP5 PUSH1 0x2 DUP7 PUSH1 0x20 ADD MLOAD PUSH2 0xCE3 SWAP2 SWAP1 PUSH2 0x17F4 JUMP JUMPDEST PUSH2 0xDB9 JUMP JUMPDEST JUMPDEST DUP4 MLOAD DUP1 MLOAD PUSH1 0x20 DUP6 DUP4 ADD ADD DUP5 DUP2 MSTORE8 DUP2 DUP7 SUB PUSH2 0xD04 JUMPI PUSH1 0x1 DUP3 ADD DUP4 MSTORE JUMPDEST POP POP POP DUP4 SWAP1 POP SWAP4 SWAP3 POP POP POP JUMP JUMPDEST PUSH2 0xD19 PUSH2 0xE41 JUMP JUMPDEST DUP5 PUSH1 0x20 ADD MLOAD DUP5 DUP4 PUSH2 0xD2A SWAP2 SWAP1 PUSH2 0x13FF JUMP JUMPDEST GT ISZERO PUSH2 0xD52 JUMPI PUSH2 0xD51 DUP6 PUSH1 0x2 DUP7 DUP6 PUSH2 0xD42 SWAP2 SWAP1 PUSH2 0x13FF JUMP JUMPDEST PUSH2 0xD4C SWAP2 SWAP1 PUSH2 0x17F4 JUMP JUMPDEST PUSH2 0xDB9 JUMP JUMPDEST JUMPDEST PUSH0 PUSH1 0x1 DUP4 PUSH2 0x100 PUSH2 0xD63 SWAP2 SWAP1 PUSH2 0x1964 JUMP JUMPDEST PUSH2 0xD6D SWAP2 SWAP1 PUSH2 0x15BB JUMP JUMPDEST SWAP1 POP DUP6 MLOAD DUP4 DUP7 DUP3 ADD ADD DUP6 DUP4 NOT DUP3 MLOAD AND OR DUP2 MSTORE DUP2 MLOAD DUP6 DUP9 ADD GT ISZERO PUSH2 0xD90 JUMPI DUP5 DUP8 ADD DUP3 MSTORE JUMPDEST POP POP DUP6 SWAP2 POP POP SWAP5 SWAP4 POP POP POP POP JUMP JUMPDEST PUSH0 DUP2 DUP4 GT ISZERO PUSH2 0xDAF JUMPI DUP3 SWAP1 POP PUSH2 0xDB3 JUMP JUMPDEST DUP2 SWAP1 POP JUMPDEST SWAP3 SWAP2 POP POP JUMP JUMPDEST PUSH0 DUP3 PUSH0 ADD MLOAD SWAP1 POP PUSH2 0xDCA DUP4 DUP4 PUSH2 0x7F4 JUMP JUMPDEST POP PUSH2 0xDD5 DUP4 DUP3 PUSH2 0x9E1 JUMP JUMPDEST POP POP POP POP JUMP JUMPDEST PUSH1 0x40 MLOAD DUP1 PUSH1 0xA0 ADD PUSH1 0x40 MSTORE DUP1 PUSH0 DUP2 MSTORE PUSH1 0x20 ADD PUSH0 PUSH20 0xFFFFFFFFFFFFFFFFFFFFFFFFFFFFFFFFFFFFFFFF AND DUP2 MSTORE PUSH1 0x20 ADD PUSH0 PUSH28 0xFFFFFFFFFFFFFFFFFFFFFFFFFFFFFFFFFFFFFFFFFFFFFFFFFFFFFFFF NOT AND DUP2 MSTORE PUSH1 0x20 ADD PUSH0 DUP2 MSTORE PUSH1 0x20 ADD PUSH2 0xE3B PUSH2 0xE41 JUMP JUMPDEST DUP2 MSTORE POP SWAP1 JUMP JUMPDEST PUSH1 0x40 MLOAD DUP1 PUSH1 0x40 ADD PUSH1 0x40 MSTORE DUP1 PUSH1 0x60 DUP2 MSTORE PUSH1 0x20 ADD PUSH0 DUP2 MSTORE POP SWAP1 JUMP JUMPDEST PUSH0 PUSH1 0x40 MLOAD SWAP1 POP SWAP1 JUMP JUMPDEST PUSH0 PUSH0 REVERT JUMPDEST PUSH0 PUSH0 REVERT JUMPDEST PUSH0 DUP2 SWAP1 POP SWAP2 SWAP1 POP JUMP JUMPDEST PUSH2 0xE7D DUP2 PUSH2 0xE6B JUMP JUMPDEST DUP2 EQ PUSH2 0xE87 JUMPI PUSH0 PUSH0 REVERT JUMPDEST POP JUMP JUMPDEST PUSH0 DUP2 CALLDATALOAD SWAP1 POP PUSH2 0xE98 DUP2 PUSH2 0xE74 JUMP JUMPDEST SWAP3 SWAP2 POP POP JUMP JUMPDEST PUSH0 PUSH0 REVERT JUMPDEST PUSH0 PUSH0 REVERT JUMPDEST PUSH0 PUSH1 0x1F NOT PUSH1 0x1F DUP4 ADD AND SWAP1 POP SWAP2 SWAP1 POP JUMP JUMPDEST PUSH32 0x4E487B7100000000000000000000000000000000000000000000000000000000 PUSH0 MSTORE PUSH1 0x41 PUSH1 0x4 MSTORE PUSH1 0x24 PUSH0 REVERT JUMPDEST PUSH2 0xEEC DUP3 PUSH2 0xEA6 JUMP JUMPDEST DUP2 ADD DUP2 DUP2 LT PUSH8 0xFFFFFFFFFFFFFFFF DUP3 GT OR ISZERO PUSH2 0xF0B JUMPI PUSH2 0xF0A PUSH2 0xEB6 JUMP JUMPDEST JUMPDEST DUP1 PUSH1 0x40 MSTORE POP POP POP JUMP JUMPDEST PUSH0 PUSH2 0xF1D PUSH2 0xE5A JUMP JUMPDEST SWAP1 POP PUSH2 0xF29 DUP3 DUP3 PUSH2 0xEE3 JUMP JUMPDEST SWAP2 SWAP1 POP JUMP JUMPDEST PUSH0 PUSH8 0xFFFFFFFFFFFFFFFF DUP3 GT ISZERO PUSH2 0xF48 JUMPI PUSH2 0xF47 PUSH2 0xEB6 JUMP JUMPDEST JUMPDEST PUSH2 0xF51 DUP3 PUSH2 0xEA6 JUMP JUMPDEST SWAP1 POP PUSH1 0x20 DUP2 ADD SWAP1 POP SWAP2 SWAP1 POP JUMP JUMPDEST DUP3 DUP2 DUP4 CALLDATACOPY PUSH0 DUP4 DUP4 ADD MSTORE POP POP POP JUMP JUMPDEST PUSH0 PUSH2 0xF7E PUSH2 0xF79 DUP5 PUSH2 0xF2E JUMP JUMPDEST PUSH2 0xF14 JUMP JUMPDEST SWAP1 POP DUP3 DUP2 MSTORE PUSH1 0x20 DUP2 ADD DUP5 DUP5 DUP5 ADD GT ISZERO PUSH2 0xF9A JUMPI PUSH2 0xF99 PUSH2 0xEA2 JUMP JUMPDEST JUMPDEST PUSH2 0xFA5 DUP5 DUP3 DUP6 PUSH2 0xF5E JUMP JUMPDEST POP SWAP4 SWAP3 POP POP POP JUMP JUMPDEST PUSH0 DUP3 PUSH1 0x1F DUP4 ADD SLT PUSH2 0xFC1 JUMPI PUSH2 0xFC0 PUSH2 0xE9E JUMP JUMPDEST JUMPDEST DUP2 CALLDATALOAD PUSH2 0xFD1 DUP5 DUP3 PUSH1 0x20 DUP7 ADD PUSH2 0xF6C JUMP JUMPDEST SWAP2 POP POP SWAP3 SWAP2 POP POP JUMP JUMPDEST PUSH0 PUSH0 PUSH1 0x40 DUP4 DUP6 SUB SLT ISZERO PUSH2 0xFF0 JUMPI PUSH2 0xFEF PUSH2 0xE63 JUMP JUMPDEST JUMPDEST PUSH0 PUSH2 0xFFD DUP6 DUP3 DUP7 ADD PUSH2 0xE8A JUMP JUMPDEST SWAP3 POP POP PUSH1 0x20 DUP4 ADD CALLDATALOAD PUSH8 0xFFFFFFFFFFFFFFFF DUP2 GT ISZERO PUSH2 0x101E JUMPI PUSH2 0x101D PUSH2 0xE67 JUMP JUMPDEST JUMPDEST PUSH2 0x102A DUP6 DUP3 DUP7 ADD PUSH2 0xFAD JUMP JUMPDEST SWAP2 POP POP SWAP3 POP SWAP3 SWAP1 POP JUMP JUMPDEST PUSH0 DUP2 SWAP1 POP SWAP2 SWAP1 POP JUMP JUMPDEST PUSH2 0x1046 DUP2 PUSH2 0x1034 JUMP JUMPDEST DUP2 EQ PUSH2 0x1050 JUMPI PUSH0 PUSH0 REVERT JUMPDEST POP JUMP JUMPDEST PUSH0 DUP2 CALLDATALOAD SWAP1 POP PUSH2 0x1061 DUP2 PUSH2 0x103D JUMP JUMPDEST SWAP3 SWAP2 POP POP JUMP JUMPDEST PUSH0 PUSH1 0x20 DUP3 DUP5 SUB SLT ISZERO PUSH2 0x107C JUMPI PUSH2 0x107B PUSH2 0xE63 JUMP JUMPDEST JUMPDEST PUSH0 PUSH2 0x1089 DUP5 DUP3 DUP6 ADD PUSH2 0x1053 JUMP JUMPDEST SWAP2 POP POP SWAP3 SWAP2 POP POP JUMP JUMPDEST PUSH2 0x109B DUP2 PUSH2 0x1034 JUMP JUMPDEST DUP3 MSTORE POP POP JUMP JUMPDEST PUSH0 PUSH1 0x60 DUP3 ADD SWAP1 POP PUSH2 0x10B4 PUSH0 DUP4 ADD DUP7 PUSH2 0x1092 JUMP JUMPDEST PUSH2 0x10C1 PUSH1 0x20 DUP4 ADD DUP6 PUSH2 0x1092 JUMP JUMPDEST PUSH2 0x10CE PUSH1 0x40 DUP4 ADD DUP5 PUSH2 0x1092 JUMP JUMPDEST SWAP5 SWAP4 POP POP POP POP JUMP JUMPDEST PUSH0 PUSH20 0xFFFFFFFFFFFFFFFFFFFFFFFFFFFFFFFFFFFFFFFF DUP3 AND SWAP1 POP SWAP2 SWAP1 POP JUMP JUMPDEST PUSH0 PUSH2 0x10FF DUP3 PUSH2 0x10D6 JUMP JUMPDEST SWAP1 POP SWAP2 SWAP1 POP JUMP JUMPDEST PUSH2 0x110F DUP2 PUSH2 0x10F5 JUMP JUMPDEST DUP3 MSTORE POP POP JUMP JUMPDEST PUSH0 PUSH1 0x20 DUP3 ADD SWAP1 POP PUSH2 0x1128 PUSH0 DUP4 ADD DUP5 PUSH2 0x1106 JUMP JUMPDEST SWAP3 SWAP2 POP POP JUMP JUMPDEST PUSH2 0x1137 DUP2 PUSH2 0x10F5 JUMP JUMPDEST DUP2 EQ PUSH2 0x1141 JUMPI PUSH0 PUSH0 REVERT JUMPDEST POP JUMP JUMPDEST PUSH0 DUP2 CALLDATALOAD SWAP1 POP PUSH2 0x1152 DUP2 PUSH2 0x112E JUMP JUMPDEST SWAP3 SWAP2 POP POP JUMP JUMPDEST PUSH0 PUSH1 0x20 DUP3 DUP5 SUB SLT ISZERO PUSH2 0x116D JUMPI PUSH2 0x116C PUSH2 0xE63 JUMP JUMPDEST JUMPDEST PUSH0 PUSH2 0x117A DUP5 DUP3 DUP6 ADD PUSH2 0x1144 JUMP JUMPDEST SWAP2 POP POP SWAP3 SWAP2 POP POP JUMP JUMPDEST PUSH0 DUP3 DUP3 MSTORE PUSH1 0x20 DUP3 ADD SWAP1 POP SWAP3 SWAP2 POP POP JUMP JUMPDEST PUSH32 0x536F75726365206D75737420626520746865206F7261636C65206F6620746865 PUSH0 DUP3 ADD MSTORE PUSH32 0x2072657175657374000000000000000000000000000000000000000000000000 PUSH1 0x20 DUP3 ADD MSTORE POP JUMP JUMPDEST PUSH0 PUSH2 0x11ED PUSH1 0x28 DUP4 PUSH2 0x1183 JUMP JUMPDEST SWAP2 POP PUSH2 0x11F8 DUP3 PUSH2 0x1193 JUMP JUMPDEST PUSH1 0x40 DUP3 ADD SWAP1 POP SWAP2 SWAP1 POP JUMP JUMPDEST PUSH0 PUSH1 0x20 DUP3 ADD SWAP1 POP DUP2 DUP2 SUB PUSH0 DUP4 ADD MSTORE PUSH2 0x121A DUP2 PUSH2 0x11E1 JUMP JUMPDEST SWAP1 POP SWAP2 SWAP1 POP JUMP JUMPDEST PUSH0 PUSH8 0xFFFFFFFFFFFFFFFF DUP3 GT ISZERO PUSH2 0x123B JUMPI PUSH2 0x123A PUSH2 0xEB6 JUMP JUMPDEST JUMPDEST PUSH1 0x20 DUP3 MUL SWAP1 POP PUSH1 0x20 DUP2 ADD SWAP1 POP SWAP2 SWAP1 POP JUMP JUMPDEST PUSH0 PUSH0 REVERT JUMPDEST PUSH0 PUSH0 REVERT JUMPDEST PUSH0 DUP2 MLOAD SWAP1 POP PUSH2 0x1262 DUP2 PUSH2 0x103D JUMP JUMPDEST SWAP3 SWAP2 POP POP JUMP JUMPDEST PUSH0 PUSH1 0x60 DUP3 DUP5 SUB SLT ISZERO PUSH2 0x127D JUMPI PUSH2 0x127C PUSH2 0x1250 JUMP JUMPDEST JUMPDEST PUSH2 0x1287 PUSH1 0x60 PUSH2 0xF14 JUMP JUMPDEST SWAP1 POP PUSH0 PUSH2 0x1296 DUP5 DUP3 DUP6 ADD PUSH2 0x1254 JUMP JUMPDEST PUSH0 DUP4 ADD MSTORE POP PUSH1 0x20 PUSH2 0x12A9 DUP5 DUP3 DUP6 ADD PUSH2 0x1254 JUMP JUMPDEST PUSH1 0x20 DUP4 ADD MSTORE POP PUSH1 0x40 PUSH2 0x12BD DUP5 DUP3 DUP6 ADD PUSH2 0x1254 JUMP JUMPDEST PUSH1 0x40 DUP4 ADD MSTORE POP SWAP3 SWAP2 POP POP JUMP JUMPDEST PUSH0 PUSH2 0x12DB PUSH2 0x12D6 DUP5 PUSH2 0x1221 JUMP JUMPDEST PUSH2 0xF14 JUMP JUMPDEST SWAP1 POP DUP1 DUP4 DUP3 MSTORE PUSH1 0x20 DUP3 ADD SWAP1 POP PUSH1 0x60 DUP5 MUL DUP4 ADD DUP6 DUP2 GT ISZERO PUSH2 0x12FE JUMPI PUSH2 0x12FD PUSH2 0x124C JUMP JUMPDEST JUMPDEST DUP4 JUMPDEST DUP2 DUP2 LT ISZERO PUSH2 0x1327 JUMPI DUP1 PUSH2 0x1313 DUP9 DUP3 PUSH2 0x1268 JUMP JUMPDEST DUP5 MSTORE PUSH1 0x20 DUP5 ADD SWAP4 POP POP PUSH1 0x60 DUP2 ADD SWAP1 POP PUSH2 0x1300 JUMP JUMPDEST POP POP POP SWAP4 SWAP3 POP POP POP JUMP JUMPDEST PUSH0 DUP3 PUSH1 0x1F DUP4 ADD SLT PUSH2 0x1345 JUMPI PUSH2 0x1344 PUSH2 0xE9E JUMP JUMPDEST JUMPDEST DUP2 MLOAD PUSH2 0x1355 DUP5 DUP3 PUSH1 0x20 DUP7 ADD PUSH2 0x12C9 JUMP JUMPDEST SWAP2 POP POP SWAP3 SWAP2 POP POP JUMP JUMPDEST PUSH0 PUSH1 0x20 DUP3 DUP5 SUB SLT ISZERO PUSH2 0x1373 JUMPI PUSH2 0x1372 PUSH2 0xE63 JUMP JUMPDEST JUMPDEST PUSH0 DUP3 ADD MLOAD PUSH8 0xFFFFFFFFFFFFFFFF DUP2 GT ISZERO PUSH2 0x1390 JUMPI PUSH2 0x138F PUSH2 0xE67 JUMP JUMPDEST JUMPDEST PUSH2 0x139C DUP5 DUP3 DUP6 ADD PUSH2 0x1331 JUMP JUMPDEST SWAP2 POP POP SWAP3 SWAP2 POP POP JUMP JUMPDEST PUSH32 0x4E487B7100000000000000000000000000000000000000000000000000000000 PUSH0 MSTORE PUSH1 0x32 PUSH1 0x4 MSTORE PUSH1 0x24 PUSH0 REVERT JUMPDEST PUSH32 0x4E487B7100000000000000000000000000000000000000000000000000000000 PUSH0 MSTORE PUSH1 0x11 PUSH1 0x4 MSTORE PUSH1 0x24 PUSH0 REVERT JUMPDEST PUSH0 PUSH2 0x1409 DUP3 PUSH2 0x1034 JUMP JUMPDEST SWAP2 POP PUSH2 0x1414 DUP4 PUSH2 0x1034 JUMP JUMPDEST SWAP3 POP DUP3 DUP3 ADD SWAP1 POP DUP1 DUP3 GT ISZERO PUSH2 0x142C JUMPI PUSH2 0x142B PUSH2 0x13D2 JUMP JUMPDEST JUMPDEST SWAP3 SWAP2 POP POP JUMP JUMPDEST PUSH2 0x143B DUP2 PUSH2 0xE6B JUMP JUMPDEST DUP3 MSTORE POP POP JUMP JUMPDEST PUSH0 PUSH32 0xFFFFFFFF00000000000000000000000000000000000000000000000000000000 DUP3 AND SWAP1 POP SWAP2 SWAP1 POP JUMP JUMPDEST PUSH2 0x1475 DUP2 PUSH2 0x1441 JUMP JUMPDEST DUP3 MSTORE POP POP JUMP JUMPDEST PUSH0 DUP2 MLOAD SWAP1 POP SWAP2 SWAP1 POP JUMP JUMPDEST PUSH0 DUP3 DUP3 MSTORE PUSH1 0x20 DUP3 ADD SWAP1 POP SWAP3 SWAP2 POP POP JUMP JUMPDEST DUP3 DUP2 DUP4 MCOPY PUSH0 DUP4 DUP4 ADD MSTORE POP POP POP JUMP JUMPDEST PUSH0 PUSH2 0x14AD DUP3 PUSH2 0x147B JUMP JUMPDEST PUSH2 0x14B7 DUP2 DUP6 PUSH2 0x1485 JUMP JUMPDEST SWAP4 POP PUSH2 0x14C7 DUP2 DUP6 PUSH1 0x20 DUP7 ADD PUSH2 0x1495 JUMP JUMPDEST PUSH2 0x14D0 DUP2 PUSH2 0xEA6 JUMP JUMPDEST DUP5 ADD SWAP2 POP POP SWAP3 SWAP2 POP POP JUMP JUMPDEST PUSH0 PUSH2 0x100 DUP3 ADD SWAP1 POP PUSH2 0x14EF PUSH0 DUP4 ADD DUP12 PUSH2 0x1106 JUMP JUMPDEST PUSH2 0x14FC PUSH1 0x20 DUP4 ADD DUP11 PUSH2 0x1092 JUMP JUMPDEST PUSH2 0x1509 PUSH1 0x40 DUP4 ADD DUP10 PUSH2 0x1432 JUMP JUMPDEST PUSH2 0x1516 PUSH1 0x60 DUP4 ADD DUP9 PUSH2 0x1106 JUMP JUMPDEST PUSH2 0x1523 PUSH1 0x80 DUP4 ADD DUP8 PUSH2 0x146C JUMP JUMPDEST PUSH2 0x1530 PUSH1 0xA0 DUP4 ADD DUP7 PUSH2 0x1092 JUMP JUMPDEST PUSH2 0x153D PUSH1 0xC0 DUP4 ADD DUP6 PUSH2 0x1092 JUMP JUMPDEST DUP2 DUP2 SUB PUSH1 0xE0 DUP4 ADD MSTORE PUSH2 0x154F DUP2 DUP5 PUSH2 0x14A3 JUMP JUMPDEST SWAP1 POP SWAP10 SWAP9 POP POP POP POP POP POP POP POP POP JUMP JUMPDEST PUSH32 0x4E487B7100000000000000000000000000000000000000000000000000000000 PUSH0 MSTORE PUSH1 0x12 PUSH1 0x4 MSTORE PUSH1 0x24 PUSH0 REVERT JUMPDEST PUSH0 PUSH2 0x1595 DUP3 PUSH2 0x1034 JUMP JUMPDEST SWAP2 POP PUSH2 0x15A0 DUP4 PUSH2 0x1034 JUMP JUMPDEST SWAP3 POP DUP3 PUSH2 0x15B0 JUMPI PUSH2 0x15AF PUSH2 0x155E JUMP JUMPDEST JUMPDEST DUP3 DUP3 MOD SWAP1 POP SWAP3 SWAP2 POP POP JUMP JUMPDEST PUSH0 PUSH2 0x15C5 DUP3 PUSH2 0x1034 JUMP JUMPDEST SWAP2 POP PUSH2 0x15D0 DUP4 PUSH2 0x1034 JUMP JUMPDEST SWAP3 POP DUP3 DUP3 SUB SWAP1 POP DUP2 DUP2 GT ISZERO PUSH2 0x15E8 JUMPI PUSH2 0x15E7 PUSH2 0x13D2 JUMP JUMPDEST JUMPDEST SWAP3 SWAP2 POP POP JUMP JUMPDEST PUSH0 DUP2 SWAP1 POP SWAP2 SWAP1 POP JUMP JUMPDEST PUSH0 PUSH2 0x1611 PUSH2 0x160C PUSH2 0x1607 DUP5 PUSH2 0x10D6 JUMP JUMPDEST PUSH2 0x15EE JUMP JUMPDEST PUSH2 0x10D6 JUMP JUMPDEST SWAP1 POP SWAP2 SWAP1 POP JUMP JUMPDEST PUSH0 PUSH2 0x1622 DUP3 PUSH2 0x15F7 JUMP JUMPDEST SWAP1 POP SWAP2 SWAP1 POP JUMP JUMPDEST PUSH0 PUSH2 0x1633 DUP3 PUSH2 0x1618 JUMP JUMPDEST SWAP1 POP SWAP2 SWAP1 POP JUMP JUMPDEST PUSH0 DUP2 PUSH1 0x60 SHL SWAP1 POP SWAP2 SWAP1 POP JUMP JUMPDEST PUSH0 PUSH2 0x1650 DUP3 PUSH2 0x163A JUMP JUMPDEST SWAP1 POP SWAP2 SWAP1 POP JUMP JUMPDEST PUSH0 PUSH2 0x1661 DUP3 PUSH2 0x1646 JUMP JUMPDEST SWAP1 POP SWAP2 SWAP1 POP JUMP JUMPDEST PUSH2 0x1679 PUSH2 0x1674 DUP3 PUSH2 0x1629 JUMP JUMPDEST PUSH2 0x1657 JUMP JUMPDEST DUP3 MSTORE POP POP JUMP JUMPDEST PUSH0 DUP2 SWAP1 POP SWAP2 SWAP1 POP JUMP JUMPDEST PUSH2 0x1699 PUSH2 0x1694 DUP3 PUSH2 0x1034 JUMP JUMPDEST PUSH2 0x167F JUMP JUMPDEST DUP3 MSTORE POP POP JUMP JUMPDEST PUSH0 PUSH2 0x16AA DUP3 DUP6 PUSH2 0x1668 JUMP JUMPDEST PUSH1 0x14 DUP3 ADD SWAP2 POP PUSH2 0x16BA DUP3 DUP5 PUSH2 0x1688 JUMP JUMPDEST PUSH1 0x20 DUP3 ADD SWAP2 POP DUP2 SWAP1 POP SWAP4 SWAP3 POP POP POP JUMP JUMPDEST PUSH0 PUSH1 0x60 DUP3 ADD SWAP1 POP PUSH2 0x16DD PUSH0 DUP4 ADD DUP7 PUSH2 0x1106 JUMP JUMPDEST PUSH2 0x16EA PUSH1 0x20 DUP4 ADD DUP6 PUSH2 0x1092 JUMP JUMPDEST DUP2 DUP2 SUB PUSH1 0x40 DUP4 ADD MSTORE PUSH2 0x16FC DUP2 DUP5 PUSH2 0x14A3 JUMP JUMPDEST SWAP1 POP SWAP5 SWAP4 POP POP POP POP JUMP JUMPDEST PUSH0 DUP2 ISZERO ISZERO SWAP1 POP SWAP2 SWAP1 POP JUMP JUMPDEST PUSH2 0x171A DUP2 PUSH2 0x1706 JUMP JUMPDEST DUP2 EQ PUSH2 0x1724 JUMPI PUSH0 PUSH0 REVERT JUMPDEST POP JUMP JUMPDEST PUSH0 DUP2 MLOAD SWAP1 POP PUSH2 0x1735 DUP2 PUSH2 0x1711 JUMP JUMPDEST SWAP3 SWAP2 POP POP JUMP JUMPDEST PUSH0 PUSH1 0x20 DUP3 DUP5 SUB SLT ISZERO PUSH2 0x1750 JUMPI PUSH2 0x174F PUSH2 0xE63 JUMP JUMPDEST JUMPDEST PUSH0 PUSH2 0x175D DUP5 DUP3 DUP6 ADD PUSH2 0x1727 JUMP JUMPDEST SWAP2 POP POP SWAP3 SWAP2 POP POP JUMP JUMPDEST PUSH32 0x756E61626C6520746F207472616E73666572416E6443616C6C20746F206F7261 PUSH0 DUP3 ADD MSTORE PUSH32 0x636C650000000000000000000000000000000000000000000000000000000000 PUSH1 0x20 DUP3 ADD MSTORE POP JUMP JUMPDEST PUSH0 PUSH2 0x17C0 PUSH1 0x23 DUP4 PUSH2 0x1183 JUMP JUMPDEST SWAP2 POP PUSH2 0x17CB DUP3 PUSH2 0x1766 JUMP JUMPDEST PUSH1 0x40 DUP3 ADD SWAP1 POP SWAP2 SWAP1 POP JUMP JUMPDEST PUSH0 PUSH1 0x20 DUP3 ADD SWAP1 POP DUP2 DUP2 SUB PUSH0 DUP4 ADD MSTORE PUSH2 0x17ED DUP2 PUSH2 0x17B4 JUMP JUMPDEST SWAP1 POP SWAP2 SWAP1 POP JUMP JUMPDEST PUSH0 PUSH2 0x17FE DUP3 PUSH2 0x1034 JUMP JUMPDEST SWAP2 POP PUSH2 0x1809 DUP4 PUSH2 0x1034 JUMP JUMPDEST SWAP3 POP DUP3 DUP3 MUL PUSH2 0x1817 DUP2 PUSH2 0x1034 JUMP JUMPDEST SWAP2 POP DUP3 DUP3 DIV DUP5 EQ DUP4 ISZERO OR PUSH2 0x182E JUMPI PUSH2 0x182D PUSH2 0x13D2 JUMP JUMPDEST JUMPDEST POP SWAP3 SWAP2 POP POP JUMP JUMPDEST PUSH0 DUP2 PUSH1 0x1 SHR SWAP1 POP SWAP2 SWAP1 POP JUMP JUMPDEST PUSH0 PUSH0 DUP3 SWAP2 POP DUP4 SWAP1 POP JUMPDEST PUSH1 0x1 DUP6 GT ISZERO PUSH2 0x188A JUMPI DUP1 DUP7 DIV DUP2 GT ISZERO PUSH2 0x1866 JUMPI PUSH2 0x1865 PUSH2 0x13D2 JUMP JUMPDEST JUMPDEST PUSH1 0x1 DUP6 AND ISZERO PUSH2 0x1875 JUMPI DUP1 DUP3 MUL SWAP2 POP JUMPDEST DUP1 DUP2 MUL SWAP1 POP PUSH2 0x1883 DUP6 PUSH2 0x1835 JUMP JUMPDEST SWAP5 POP PUSH2 0x184A JUMP JUMPDEST SWAP5 POP SWAP5 SWAP3 POP POP POP JUMP JUMPDEST PUSH0 DUP3 PUSH2 0x18A2 JUMPI PUSH1 0x1 SWAP1 POP PUSH2 0x195D JUMP JUMPDEST DUP2 PUSH2 0x18AF JUMPI PUSH0 SWAP1 POP PUSH2 0x195D JUMP JUMPDEST DUP2 PUSH1 0x1 DUP2 EQ PUSH2 0x18C5 JUMPI PUSH1 0x2 DUP2 EQ PUSH2 0x18CF JUMPI PUSH2 0x18FE JUMP JUMPDEST PUSH1 0x1 SWAP2 POP POP PUSH2 0x195D JUMP JUMPDEST PUSH1 0xFF DUP5 GT ISZERO PUSH2 0x18E1 JUMPI PUSH2 0x18E0 PUSH2 0x13D2 JUMP JUMPDEST JUMPDEST DUP4 PUSH1 0x2 EXP SWAP2 POP DUP5 DUP3 GT ISZERO PUSH2 0x18F8 JUMPI PUSH2 0x18F7 PUSH2 0x13D2 JUMP JUMPDEST JUMPDEST POP PUSH2 0x195D JUMP JUMPDEST POP PUSH1 0x20 DUP4 LT PUSH2 0x133 DUP4 LT AND PUSH1 0x4E DUP5 LT PUSH1 0xB DUP5 LT AND OR ISZERO PUSH2 0x1933 JUMPI DUP3 DUP3 EXP SWAP1 POP DUP4 DUP2 GT ISZERO PUSH2 0x192E JUMPI PUSH2 0x192D PUSH2 0x13D2 JUMP JUMPDEST JUMPDEST PUSH2 0x195D JUMP JUMPDEST PUSH2 0x1940 DUP5 DUP5 DUP5 PUSH1 0x1 PUSH2 0x1841 JUMP JUMPDEST SWAP3 POP SWAP1 POP DUP2 DUP5 DIV DUP2 GT ISZERO PUSH2 0x1957 JUMPI PUSH2 0x1956 PUSH2 0x13D2 JUMP JUMPDEST JUMPDEST DUP2 DUP2 MUL SWAP1 POP JUMPDEST SWAP4 SWAP3 POP POP POP JUMP JUMPDEST PUSH0 PUSH2 0x196E DUP3 PUSH2 0x1034 JUMP JUMPDEST SWAP2 POP PUSH2 0x1979 DUP4 PUSH2 0x1034 JUMP JUMPDEST SWAP3 POP PUSH2 0x19A6 PUSH32 0xFFFFFFFFFFFFFFFFFFFFFFFFFFFFFFFFFFFFFFFFFFFFFFFFFFFFFFFFFFFFFFFF DUP5 DUP5 PUSH2 0x1893 JUMP JUMPDEST SWAP1 POP SWAP3 SWAP2 POP POP JUMP INVALID LOG2 PUSH5 0x6970667358 0x22 SLT KECCAK256 EQ 0xF6 NOT 0x26 TSTORE RETURNDATASIZE 0x4B DIV NUMBER 0xA8 0xB6 MUL MUL CALLVALUE 0x4C 0xBD SWAP13 0xD3 0xE1 0xFC 0xCD 0x4D 0xCF 0xD6 CALLVALUE SWAP6 0xBF SSTORE ADD 0xDE RETURN DUP2 PUSH5 0x736F6C6343 STOP ADDMOD SHR STOP CALLER "
				},
				"gasEstimates": {
					"creation": {
						"codeDepositCost": "1325600",
						"executionCost": "infinite",
						"totalCost": "infinite"
					},
					"external": {
						"earthquakeInfo(uint256)": "infinite",
						"fulfill(bytes32,bytes)": "infinite",
						"owner()": "2581",
						"renounceOwnership()": "infinite",
						"requestEarthquakeData()": "infinite",
						"transferOwnership(address)": "infinite"
					}
				},
				"methodIdentifiers": {
					"earthquakeInfo(uint256)": "81a72379",
					"fulfill(bytes32,bytes)": "7c1de7e1",
					"owner()": "8da5cb5b",
					"renounceOwnership()": "715018a6",
					"requestEarthquakeData()": "18f20329",
					"transferOwnership(address)": "f2fde38b"
				}
			},
			"storageLayout": {
				"storage": [
					{
						"astId": 325,
						"contract": "contracts/EarthquakeOracle.sol:EarthquakeOracle",
						"label": "s_ens",
						"offset": 0,
						"slot": "0",
						"type": "t_contract(ENSInterface)982"
					},
					{
						"astId": 327,
						"contract": "contracts/EarthquakeOracle.sol:EarthquakeOracle",
						"label": "s_ensNode",
						"offset": 0,
						"slot": "1",
						"type": "t_bytes32"
					},
					{
						"astId": 330,
						"contract": "contracts/EarthquakeOracle.sol:EarthquakeOracle",
						"label": "s_link",
						"offset": 0,
						"slot": "2",
						"type": "t_contract(LinkTokenInterface)1182"
					},
					{
						"astId": 333,
						"contract": "contracts/EarthquakeOracle.sol:EarthquakeOracle",
						"label": "s_oracle",
						"offset": 0,
						"slot": "3",
						"type": "t_contract(OperatorInterface)1047"
					},
					{
						"astId": 336,
						"contract": "contracts/EarthquakeOracle.sol:EarthquakeOracle",
						"label": "s_requestCount",
						"offset": 0,
						"slot": "4",
						"type": "t_uint256"
					},
					{
						"astId": 340,
						"contract": "contracts/EarthquakeOracle.sol:EarthquakeOracle",
						"label": "s_pendingRequests",
						"offset": 0,
						"slot": "5",
						"type": "t_mapping(t_bytes32,t_address)"
					},
					{
						"astId": 2171,
						"contract": "contracts/EarthquakeOracle.sol:EarthquakeOracle",
						"label": "_owner",
						"offset": 0,
						"slot": "6",
						"type": "t_address"
					},
					{
						"astId": 2356,
						"contract": "contracts/EarthquakeOracle.sol:EarthquakeOracle",
						"label": "oracle",
						"offset": 0,
						"slot": "7",
						"type": "t_address"
					},
					{
						"astId": 2358,
						"contract": "contracts/EarthquakeOracle.sol:EarthquakeOracle",
						"label": "jobId",
						"offset": 0,
						"slot": "8",
						"type": "t_bytes32"
					},
					{
						"astId": 2360,
						"contract": "contracts/EarthquakeOracle.sol:EarthquakeOracle",
						"label": "fee",
						"offset": 0,
						"slot": "9",
						"type": "t_uint256"
					},
					{
						"astId": 2372,
						"contract": "contracts/EarthquakeOracle.sol:EarthquakeOracle",
						"label": "earthquakeInfo",
						"offset": 0,
						"slot": "10",
						"type": "t_mapping(t_uint256,t_struct(EarthquakeData)2367_storage)"
					}
				],
				"types": {
					"t_address": {
						"encoding": "inplace",
						"label": "address",
						"numberOfBytes": "20"
					},
					"t_bytes32": {
						"encoding": "inplace",
						"label": "bytes32",
						"numberOfBytes": "32"
					},
					"t_contract(ENSInterface)982": {
						"encoding": "inplace",
						"label": "contract ENSInterface",
						"numberOfBytes": "20"
					},
					"t_contract(LinkTokenInterface)1182": {
						"encoding": "inplace",
						"label": "contract LinkTokenInterface",
						"numberOfBytes": "20"
					},
					"t_contract(OperatorInterface)1047": {
						"encoding": "inplace",
						"label": "contract OperatorInterface",
						"numberOfBytes": "20"
					},
					"t_mapping(t_bytes32,t_address)": {
						"encoding": "mapping",
						"key": "t_bytes32",
						"label": "mapping(bytes32 => address)",
						"numberOfBytes": "32",
						"value": "t_address"
					},
					"t_mapping(t_uint256,t_struct(EarthquakeData)2367_storage)": {
						"encoding": "mapping",
						"key": "t_uint256",
						"label": "mapping(uint256 => struct EarthquakeOracle.EarthquakeData)",
						"numberOfBytes": "32",
						"value": "t_struct(EarthquakeData)2367_storage"
					},
					"t_struct(EarthquakeData)2367_storage": {
						"encoding": "inplace",
						"label": "struct EarthquakeOracle.EarthquakeData",
						"members": [
							{
								"astId": 2362,
								"contract": "contracts/EarthquakeOracle.sol:EarthquakeOracle",
								"label": "prefCode",
								"offset": 0,
								"slot": "0",
								"type": "t_uint256"
							},
							{
								"astId": 2364,
								"contract": "contracts/EarthquakeOracle.sol:EarthquakeOracle",
								"label": "maxScale",
								"offset": 0,
								"slot": "1",
								"type": "t_uint256"
							},
							{
								"astId": 2366,
								"contract": "contracts/EarthquakeOracle.sol:EarthquakeOracle",
								"label": "quakeScore",
								"offset": 0,
								"slot": "2",
								"type": "t_uint256"
							}
						],
						"numberOfBytes": "96"
					},
					"t_uint256": {
						"encoding": "inplace",
						"label": "uint256",
						"numberOfBytes": "32"
					}
				}
			},
			"userdoc": {
				"kind": "user",
				"methods": {},
				"version": 1
			}
		}
	}
}